:020000040800F2
:10000000700C0020C1190008651800086718000866
:10001000691800086B1800086D180008000000003F
:100020000000000000000000000000006F18000841
:100030007118000800000000731800087518000807
:10004000251A0008291A00082D1A0008311A00087C
:10005000351A0008391A00083D1A0008411A00082C
:10006000451A0008491A00084D1A0008ED18000842
:10007000511A0008551A0008591A00085D1A00089C
:10008000611A0008651A0008691A00086D1A00084C
:10009000711A0008751A0008791A00087D1A0008FC
:1000A000811A0008851A0008891A00088D1A0008AC
:1000B000911A0008951A0008991A00089D1A00085C
:1000C000A11A0008A51A0008A91A0008AD1A00080C
:1000D000B11A0008B51A0008B91A0008BD1A0008BC
:1000E000C11A0008C51A0008C91A0008CD1A00086C
:1000F000D11A0008D51A0008D91A0008DD1A00081C
:10010000E11A0008E51A0008E91A0008ED1A0008CB
:100110009F1800089D180008F11A0008F51A000839
:10012000F91A0008FD1A0008011B0008051B000849
:10013000DFF8C812086850F001000860DFF8C0223C
:100140001368DFF8C002034013600B68DFF8B802E1
:1001500003400B60086830F480200860106830F4B9
:10016000FE0010605FF41F00DFF8A0120860704707
:10017000DFF888120A6832F480320A600A6832F4C2
:1001800080220A600200B2F5803F03D0B2F5802FD2
:1001900005D009E00A6852F480320A6004E00A6877
:1001A00052F4A0220A60FFE7704738B500200090A3
:1001B00000240025312000F0FDF805000098401CC7
:1001C000009000984FF6FF71884203D02800C0B21B
:1001D0000028EFD0312000F0EDF8002801D00120F8
:1001E00000E00020C0B232BD30B40023844D2C6842
:1001F00034F47C1451EA000214432C6030BC704784
:100200000100C9B2824A1160704700217C4B1A6814
:100210009208920002431A6070477948006810F013
:100220000C0070470021764B1A6832F0F00202434E
:100230001A6070470021724B1A6832F4E062024380
:100240001A60704700216E4B1A6832F4605252EA0D
:10025000C0021A6070476F49086070470021684B00
:100260001A6832F4404202431A6070472DE9F04F99
:1002700001000022002500200026614FD7F800C0B1
:100280001CF00C0C6346002B04D0042B05D0082B6B
:1002900006D023E0614A0A6022E0614A0A601FE05A
:1002A0003A6812F470123B6813F480331800920C11
:1002B000921C1500002804D15A4A02FB05F20A607C
:1002C0000BE03A68920304D5574A02FB05F20A6034
:1002D00003E0534A02FB05F20A6001E04F4A0A605C
:1002E0003C6814F0F0042409DFF8409119F804E0A8
:1002F0000A6832FA0EF24A603B6813F4E0631B0AA4
:1003000019F803804A6832FA08F28A603A6812F4EF
:100310006052D20A19F80290D1F804A03AFA09FA08
:10032000C1F80CA03F6817F44047BF0BDFF800A1ED
:100330001AF807A0D1F80CB0BBFBFAFBC1F810B05B
:10034000BDE8F08F0A00D2B2002A04D0394A1368FF
:100350000343136003E0374A136883431360704715
:100360000A00D2B2002A04D0334A13680343136050
:1003700003E0314A13688343136070470A00D2B226
:10038000002A04D02D4A13680343136003E02B4A6C
:1003900013688343136070470A00D2B2002A04D066
:1003A000274A13680343136003E0254A1368834315
:1003B0001360704730B401000020002300250A00BC
:1003C000D2B25209D2B2012A02D10C48046806E026
:1003D000022A02D11048046801E01A4804680B00A0
:1003E000DBB213F01F032000D840C00701D5012065
:1003F00000E00020C0B230BC704700000010024096
:10040000041002400000FFF8FFFFF6FE0810024053
:1004100060004242D80042422010024000127A009E
:10042000001BB70000093D00808D5B00000000202C
:1004300010000020181002401C1002400C10024056
:10044000101002402410024010B5040058488442A5
:100450000AD101214FF48040FFF790FF00214FF4B3
:100460008040FFF78BFF36E0524884420AD10121D9
:100470005FF40030FFF790FF00215FF40030FFF7DA
:100480008BFF28E04C4884420AD101215FF4802090
:10049000FFF782FF00215FF48020FFF77DFF1AE065
:1004A000464884420AD101215FF40020FFF774FF1F
:1004B00000215FF40020FFF76FFF0CE0404884420A
:1004C00009D101215FF48010FFF766FF00215FF47E
:1004D0008010FFF761FF10BD2DE9F84F86B00400D2
:1004E0000D00002600275FF000085FF000095FF0B4
:1004F000000AA8890028A346218A4CF6FF70014013
:10050000E8880143009100982082A1894EF6F310FB
:100510000140AA8828890243688902431143009157
:100520000098A081A18A4FF6FF400140A8890143AD
:1005300000910098A08201A8FFF798FE1C4883450F
:1005400001D1049900E00399A089000407D519207E
:1005500000FB01F02A685200B0FBF2F206E019201D
:1005600000FB01F02A689200B0FBF2F26420B2FBBB
:10057000F0F6360133001B09642000FB1323A08929
:10058000000408D5D80032306427B0FBF7F010F033
:100590000700064307E0180132306427B0FBF7F08C
:1005A00010F00F000643268107B0BDE8F08F000071
:1005B000003801400044004000480040004C00402A
:1005C000005000400A00D2B2002A04D0828952F4BE
:1005D0000052828104E083894DF6FF7213408381CB
:1005E00070472DE9F0410023002500275FF0000E41
:1005F0000C0040F66A16A4B2B44280460C00E4B285
:100600006409E4B20E00B6B216F01F065FF0010CEA
:100610001CFA06FC012C02D118F10C0806E0022C91
:1006200002D118F1100801E018F114081300DBB230
:10063000002B06D0D8F800305CEA0303C8F800307D
:1006400005E0D8F8003033EA0C03C8F80030BDE804
:10065000F081F0B4040000270020002200260B00E7
:1006600040F66A159BB2AB420D00EDB26D09EDB2DA
:100670000B009BB213F01F035FF0010C1CFA03F395
:10068000012D02D1A089034006E0022D02D1208A6B
:10069000034001E0A08A03400A0092B2120A92B21B
:1006A0001CFA02F220880240002B03D0002A01D05D
:1006B000012000E00020C0B2F0BC704770B40022FE
:1006C00000240B0040F66A159BB2AB420B009BB2B4
:1006D0001B0A01259D402E00B6B2F643068070BC71
:1006E00070472DE9F04104000D0016005FF001088D
:1006F0000027280080B2002860D000F035F90028DB
:1007000001D1002080464046C0B2002808D0A02079
:1007100000F0BFF900F09CF9002801D100208046CC
:100720004046C0B2002808D0200080B2000AC0B203
:1007300000F0AFF900F08CF980464046C0B20028C6
:1007400006D02000C0B200F0A4F900F081F9804684
:100750004046C0B2002805D000F006F9002801D1BB
:10076000002080464046C0B2002808D0A12000F0FA
:1007700090F900F06DF9002801D1002080466D1E2F
:100780004046C0B2002817D00020070038002900DA
:1007900080B289B2884208D200F0A0F9390089B24B
:1007A000705400F025F97F1CF0E700F097F939004C
:1007B00089B2705400F034F900F002F94046C0B23A
:1007C000BDE8F0812DE9F04104000D00160000277E
:1007D0005FF00108280080B2002842D000F0C4F881
:1007E000002801D1002080464046C0B2002808D031
:1007F000A02000F04EF900F02BF9002801D10020D4
:1008000080464046C0B2002808D0200080B2000ACE
:10081000C0B200F03EF900F01BF980464046C0B27D
:10082000002806D02000C0B200F033F900F010F923
:100830008046002007003800290080B289B2884233
:100840000DD24046C0B2002807D0380080B2305CDC
:1008500000F01FF900F0FCF880467F1CEBE700F089
:10086000AFF8052000F077F84046C0B2BDE8F0814F
:100870002DE9F04704000D00160000275FF0000886
:100880005FF0000A200010F01F0F1BD014F01F00B3
:10089000D0F1200007002800390080B289B28842D8
:1008A00000D22F00404680B206EB0002390089B228
:1008B00018EB040080B2FFF785FF8146ED1B17EBB4
:1008C000080801E05FF001094846C0B200281FD0C7
:1008D000280080B200281BD0202007002800390003
:1008E00080B289B2884200D22F00404680B206EB27
:1008F0000002390089B218EB040080B2FFF762FFF2
:100900008146ED1B17EB08084846C0B20028DFD12E
:100910004846C0B2BDE8F08780B503208DF80200DC
:1009200014208DF8030081488188ADF800106946D5
:10093000006800F0FFF87E488188ADF80010694635
:10094000006800F0F7F801BD0020C8210800411E32
:100950000028FBD170474FF4C0414843401C0100C0
:10096000481E0029FBD1704710B5704CA088216843
:1009700008616F48818800680161FFF7E5FF206822
:100980008068002801D1012000E00020217911F0C9
:100990000101084201D0002011E0A08821684861CF
:1009A000FFF7D2FF20688068A188084201D00020AC
:1009B00005E0A08821684861FFF7C6FF012010BD4F
:1009C00038B55B4CA08821684861FFF7BDFF574DE3
:1009D000A88829684861FFF7B7FFA08821680861E7
:1009E000FFF7B2FFA88829680861FFF7ADFF31BDA6
:1009F00010B54F4CA08821684861FFF7A5FF4B4810
:100A0000818800684161FFF79FFFA0882168086125
:100A1000FFF79AFFA08821684861FFF795FF10BD96
:100A200010B5434CA08821684861FFF78DFF3F480F
:100A3000818800680161FFF787FFA088216808614D
:100A4000FFF782FFA08821684861FFF77DFF10BD96
:100A500038B5374CA08821684861FFF775FF334DE2
:100A6000A88829680861FFF76FFFA08821680861DE
:100A7000FFF76AFF28688068A988084204D0A08828
:100A800021684861002003E0A088216848610120B6
:100A900032BD70B5040008252800451EC0B20028EC
:100AA00017D0234EB08831684861200604D51F480E
:100AB00081880068016103E01C4881880068416109
:100AC000FFF742FFB08831680861FFF73DFF64001F
:100AD000E2E7174881880068416170BDF8B50824D5
:100AE0000025124EB088316808612000441EC0B253
:100AF000002813D06D000E4FB88839684861FFF7A1
:100B000023FFB88839680861FFF71EFF30688068E6
:100B1000B1880842E9D055F00105E6E7044881882C
:100B2000006841612800C0B2F2BD0000EC19000865
:100B3000F4190008F0B50022002300240025002647
:100B4000002791F803C01CF00F0C91F803E05FEA56
:100B5000CE6E02D58A7852EA0C0C0A7812062AD098
:100B60000268160000221400082C23D25FF0010E48
:100B70001EFA04F215000A882A401300AB4217D16E
:100B8000A20015000F22AA401700BE431CFA05F26E
:100B90001643CA78282A04D11EFA04FEC0F814E0CD
:100BA00006E0CA78482A03D11EFA04FEC0F810E015
:100BB000641CD9E706600A88B2F5807F2EDB4268A4
:100BC000160000221400082C27D25FF0010E14F149
:100BD00008021EFA02F215000A882A401300AB42EE
:100BE00019D1A20015000F22AA401700BE431CFA1B
:100BF00005F21643CA78282A04D114F108021EFA15
:100C000002F24261CA78482A05D114F108021EFA9C
:100C100002FEC0F810E0641CD5E74660F0BDF0B4F9
:100C20000022002300250027002802D51D4C24683F
:100C300001E01D4C2468C0F3034586B210F4401C4B
:100C4000BCF5401F07D134F07064174A176837F0BD
:100C50007067176011E0C20206D50322AA40130094
:100C60009C4354F0706408E00200520DD2B21201AD
:100C700016FA02F2944354F070640A00D2B2002AC9
:100C800006D00200520DD2B2120116FA02F214433B
:100C9000002802D5034A146001E0034A1460F0BC46
:100CA000704700001C000140040001402DE9F04F96
:100CB0008FB0002400253621002201AE300000F064
:100CC00003F95FF000087E4E3200362141F6CA700B
:100CD000FFF707FD04002000C0B2002813D0002752
:100CE0005FF000093421300000F03EF9B18E0200BF
:100CF0000B0092B29BB29A4202D00022140001E093
:100D00000122140008E03220FFF725FE18F1010847
:100D10004046C0B20328D6DB002701AA36214FF493
:100D2000F050FFF7DEFC05002800C0B2002815D007
:100D30005FF000085FF00009342101A800F014F909
:100D4000BDF8381002000B0092B29BB29A4202D05A
:100D50000022150001E00122150007E03220FFF714
:100D6000FAFD7F1C3800C0B20328D6DB2800C0B2D1
:100D7000002803D12000C0B2002805D0307A002816
:100D800021D1707A00281ED1362000905FF0000833
:100D9000B14642460099484600F096F80120F0809E
:100DA0004AF6AA20B0805FF01609DFF818A116F104
:100DB000080B4A465146584600F0FAF800F031F860
:100DC00000F05CF816E02800C0B2002802D100F064
:100DD00055F80FE02000C0B200280BD15FF03608B4
:100DE0000DF10409B24642464946504600F0E0F88B
:100DF00000F017F8307A002810D1707A00280DD151
:100E00005FF01608DFF8BC900836424649463000CD
:100E100000F0CEF800F005F800F030F80FB0BDE8B3
:100E2000F08F70B500240025254E0020B0863421B7
:100E3000300000F099F8B0863200362141F6CA70D1
:100E4000FFF716FD04002000C0B2002806D03200D3
:100E500036214FF4F050FFF70BFD04002000C0B224
:100E6000002808D13220FFF776FD6D1C2800C0B2A3
:100E70000328E1DBFFE72000C0B270BD70B500249D
:100E800000250F4E0020B0863421300000F06CF8B1
:100E9000B086320036214FF4F050FFF7E9FC040031
:100EA0002000C0B2002808D13220FFF754FD6D1C8D
:100EB0002800C0B20328ECDBFFE72000C0B270BD01
:100EC000200800209419000862F30F2262F31F42E9
:100ED000401810F0030308D0C91A1FD3DB0748BF1E
:100EE00000F8012D28BF20F8022D130030B414465D
:100EF0001546103928BF20E93C00FAD8490728BF19
:100F000020E90C0048BF40F8042D890028BF20F8D4
:100F1000022D48BF00F8012D30BC7047C91818BF1A
:100F200000F8012DCB0728BF00F8012D704730B421
:100F3000002513E050F8042BD30744BFA9F10103A7
:100F40009A18091F042942F8045BFAD213468C0749
:100F500044BF15809B1CC90748BF1D7050F8041B77
:100F60000029E7D130BC704770B403000022002490
:100F700000264FF6FF7000258D4214D25A5D504076
:100F800000221600082E0CD2C20706D580B202003D
:100F900048F2084090EA520001E080B24008761C16
:100FA000F0E76D1CE8E780B2C04380B270BC7047C8
:100FB00062B38B0708D0521E11F8013B00F8013BC9
:100FC00000F024808B07F6D1830740F0208000BF1B
:100FD000103A07D330B4B1E83810103AA0E838100E
:100FE000F9D230BC530724BFB1E80810A0E80810BC
:100FF00044BF51F8043B40F8043BD20724BF31F80A
:10100000022B20F8022B44BF0B7803707047121F8D
:1010100017D35B0009D151F8043B20F8023B1B0CAD
:10102000121F20F8023BF6D20BE051F8043B00F807
:10103000013B1B0A20F8023B1B0C121F00F8013B6E
:10104000F3D238BF121D521E24BF11F8013B00F825
:10105000013BF8D8704730B40EE0026843680244A0
:101060000830DC0744BFA9F10104E31852F8045B1F
:1010700043F8045B091FF9D150F8041B0029ECD197
:1010800030BC704710B5FFF753F85FF48030FFF7BE
:101090006FF8FFF78AF804002000C0B201282BD1B6
:1010A0000020FFF7BFF80020FFF7CCF84FF4806076
:1010B000FFF7C0F84FF44040FFF7D0F80020FFF7EB
:1010C000CAF8022000F0A4F8102000F0AAF85FF49B
:1010D00000115FF48030FFF787F80120FFF790F8E8
:1010E0003920FFF767F90028FAD00220FFF78DF8C2
:1010F000FFF793F80828FBD110BD10B504002100BC
:10110000C9B23D20FFF71EF92100C9B25FF4E21019
:10111000FFF726F910BD80B500215FF0006000F0F8
:10112000C5F84FF4A06000F089F801BD80B5012139
:101130003248FFF774FD10208DF8030003208DF86E
:1011400002002F488188ADF8001069460068FFF75B
:10115000F1FC2C488188ADF8001069460068FFF763
:10116000E9FC01BD10B5FFF78DFFFFF7D4FF0120AB
:10117000FFF7C3FF72B6FFF7D9FF214CA0882168A3
:101180000861FFF7C9FBFFF791FD00F0B3F800F02D
:1011900037F95FF4E13000F043F9012000F09DF9E8
:1011A0000021012000F0B0F900F0FCF9A0882168CE
:1011B000486162B610BD1448017889071BD50168E3
:1011C00031F00201016011480168491C016000789A
:1011D000C00708D50A4881880068416109488188AC
:1011E0000068416107E006488188006801610548A0
:1011F000818800680161704770470000000230007C
:10120000141A00081C1A0008580800205C08002066
:101210000021DFF824301A6812F0380202431A6005
:101220007047DFF814100A6832F010020A600A688A
:1012300002430A6070470000002002402549014334
:10124000254A11607047F0B4002200230F24C178B2
:1012500000291FD02049096811F4E061D1F5E0614F
:10126000090AD1F104052B00CC4045789D408678D1
:10127000264035432D012A00184D0678AA55012530
:10128000067816F01F06B540154E07787F1146F810
:10129000275009E00121057815F01F05A940114DDF
:1012A0000678761145F82610F0BC70470E4A0A40C1
:1012B00002430E4B1A607047042805D10C490A6896
:1012C00052F004020A6004E009490A6832F004029C
:1012D0000A6070470000FA050CED00E000E400E051
:1012E00000E100E080E100E080FFFF1F08ED00E08A
:1012F00010E000E010B586B01221002201AC200001
:10130000FFF7E2FD042100226C462000FFF7DCFD20
:1013100003208DF8020010208DF80300354CA088C2
:10132000ADF8000069462068FFF704FCA08821683A
:101330000861A08821684861A088216808612E485A
:101340008188ADF8001018218DF8031069460068F7
:10135000FFF7F0FB294C0021200000F066F9002087
:10136000ADF804004FF48270ADF806000020ADF82F
:1013700008000020ADF80A000020ADF80C004FF482
:101380000070ADF80E001020ADF810000020ADF890
:1013900012000720ADF8140001A9200000F026F982
:1013A0000121200000F041F906B010BD38B504005D
:1013B000124D0121280000F04BF9012802D128002C
:1013C00000F044F90221280000F042F90028F9D089
:1013D0002100C9B289B2280000F036F901212800A5
:1013E00000F036F90028F9D0280000F02FF9C0B23B
:1013F00032BD0000DC190008E41900080038004084
:1014000010B5DFF81840A088216848610420FFF774
:10141000CDFFA0882168086110BD0000DC1900081C
:1014200030B585B00400042100226D462800FFF786
:101430004BFD1021002201AD2800FFF745FD1020D3
:101440008DF8030003208DF802003B4DA888ADF80D
:10145000000069462868FFF76DFBA8882968486185
:10146000364D2800FEF7F0FF35488188ADF80010B2
:1014700003218DF8021018218DF8031069460068C9
:10148000FFF758FB2F488188ADF8001048218DF8F0
:10149000031069460068FFF74DFB01940020ADF88A
:1014A00008000020ADF80A000020ADF80C00002074
:1014B000ADF810000C20ADF80E0001A92800FFF7D0
:1014C0000BF801212800FFF77DF8012240F22441AA
:1014D0002800FFF786F805B030BD38B504000421B8
:1014E00000226D462800FFF7EFFC34208DF8000045
:1014F00000208DF8010000208DF802008DF80340D7
:101500006846FFF7A0FE31BD70B504000D000B4E1C
:1015100040F2A5513000FFF7D1F82200D2B240F2DC
:1015200025513000FFF75DF82A00D2B240F2266163
:101530003000FFF756F870BD0C1A0008004C004050
:10154000FC190008041A000810B4020052B2002A64
:1015500005D40A011D4B040064B21A5508E00A01C3
:101560001B4B040064B214F00F04234403F8042C52
:1015700010BC704710B50400601EB0F1807F01D32D
:1015800001200EE0601E134908600F215FF0FF305C
:10159000FFF7DAFF00201049086007200F490860B4
:1015A000002010BD80B50420FFF786FE0C48FFF731
:1015B000E1FF00200B49086000200B4908600F2163
:1015C0005FF0FF30FFF7C0FF01BD000000E400E066
:1015D00018ED00E014E000E018E000E010E000E0AA
:1015E000C0270900600800206408002030B40023F0
:1015F000048814F441540D884A8815438A88154399
:10160000CA8815430A8915434A8915438A891543AF
:10161000CA8915432C430480858B4FF2FF72154015
:1016200085830A8A028230BC70470A00D2B2002A3F
:1016300004D0028852F04002028004E003884FF692
:10164000BF72134003807047818170478089704763
:10165000020000231089084201D0012000E0002090
:10166000C0B2704780B53D49086850F0010008607D
:101670003B4A13683B48034013600B683A480340F9
:101680000B60086830F480200860106830F4FE00B9
:1016900010605FF41F003549086000F001F801BDDB
:1016A00080B500F001F801BD82B00020019000205B
:1016B00000902A49086850F480300860086810F4E7
:1016C000003000900198401C01900098002804D13F
:1016D00001984FF6FF729042F0D10868800302D55E
:1016E0000120009001E0002000900098012831D1F5
:1016F0001F48026852F010020260026892089200CD
:101700000260026852F0020202601548026802603C
:1017100002680260026852F480620260026832F479
:101720007C120260026852F4A02202600A6852F041
:1017300080720A600A689201FCD5016889088900F4
:101740000160016851F002010160016811F00C01B3
:101750000829FAD102B070470000000000100240D2
:10176000041002400000FFF8FFFFF6FE08100240E0
:10177000002002400A78002A06D0812A0DD0822A51
:101780001ED0842A3DD069E00200D2B27E2A03D165
:1017900081220A707E228A7160E00200D2B2552A4C
:1017A00004D182220A705522CA7108E00200D2B226
:1017B0007E2A02D181220A7001E000220A704DE0E7
:1017C0000200D2B2082A0DDB0200D2B2F12A09DAF5
:1017D00084220A700200D2B2D21C8A8008720322CC
:1017E0004A800DE00200D2B2002A07D184220A709A
:1017F00015228A80087203224A8001E000220A70C2
:101800002CE00A7A002A1DD14A880F2A05D18B883C
:101810000200D2B2D3188B8014E04A88102A06D175
:101820008A880300DBB212EB03228A800AE04A882E
:10183000112A02D18A888A8004E04A88122A01D1BA
:101840008A888A804A88531C4B8092B20A449071DD
:101850004A888B889A4201D306220A700022C1F876
:10186000082870477047FEE7FEE7FEE7FEE770478F
:101870007047704717480168491C016000681521CE
:10188000B0FBF1F201FB1200002806D112480168FA
:1018900041F4904151F0020101607047704710B56A
:1018A0000E4C40F225512000FEF7D3FE002808D050
:1018B0000B480C49098801700B490078FFF75AFF63
:1018C00003E008480088C005C00D208810F47C4063
:1018D000208010BD6008002058080020004C004007
:1018E00068080020044C00401400002070470000ED
:1018F00010B5074979441831064C7C44163404E08D
:101900000A68081D114488470146A142F8D110BD5C
:10191000080000002800000017F6FFFF580800002C
:1019200014000020000000002FF7FFFF140000004B
:101930007C000000000000200000000000F00DF816
:10194000002801D0FFF7D4FFAFF300800020AFF3F1
:10195000008000F004F800F00AF80120704780B51C
:10196000FFF700FCFFF727FCFFF746FCFAE700F063
:1019700001B800000746384600F002F8FBE7000017
:1019800080B5AFF30080024A11001820ABBEFBE720
:1019900026000200534D353030315F30303030306A
:1019A0003030305F46464646000000000000000030
:1019B00001020304010203040607080902040608E1
:1019C000014880470148004765160008D119000802
:1019D000AFF30080AFF30080FFF7B0FF000C0140D1
:1019E00000100000000C014000E00000000C01406D
:1019F00080000000000C0140400000000010014089
:101A0000000400000010014000080000000C01402C
:101A100000010000000C014002000000000C014029
:101A200008000000FFF7FEBFFFF7FEBFFFF7FEBF95
:101A3000FFF7FEBFFFF7FEBFFFF7FEBFFFF7FEBFDA
:101A4000FFF7FEBFFFF7FEBFFFF7FEBFFFF7FEBFCA
:101A5000FFF7FEBFFFF7FEBFFFF7FEBFFFF7FEBFBA
:101A6000FFF7FEBFFFF7FEBFFFF7FEBFFFF7FEBFAA
:101A7000FFF7FEBFFFF7FEBFFFF7FEBFFFF7FEBF9A
:101A8000FFF7FEBFFFF7FEBFFFF7FEBFFFF7FEBF8A
:101A9000FFF7FEBFFFF7FEBFFFF7FEBFFFF7FEBF7A
:101AA000FFF7FEBFFFF7FEBFFFF7FEBFFFF7FEBF6A
:101AB000FFF7FEBFFFF7FEBFFFF7FEBFFFF7FEBF5A
:101AC000FFF7FEBFFFF7FEBFFFF7FEBFFFF7FEBF4A
:101AD000FFF7FEBFFFF7FEBFFFF7FEBFFFF7FEBF3A
:101AE000FFF7FEBFFFF7FEBFFFF7FEBFFFF7FEBF2A
:101AF000FFF7FEBFFFF7FEBFFFF7FEBFFFF7FEBF1A
:081B0000FFF7FEBFFFF7FEBF77
:04000005080019D105
:00000001FF
