:020000040800F2
:10000000F02F0020AD6F0008756C0008776C0008B9
:10001000796C00087B6C00087D6C00080000000013
:100020000000000000000000000000007F6C0008DD
:10003000816C000800000000836C0008856C0008DB
:10004000F96F0008FD6F000801700008C36C00081C
:1000500005700008097000080D7000081170000894
:1000600015700008197000081D7000082170000844
:1000700025700008297000082D70000831700008F4
:1000800035700008397000083D70000841700008A4
:10009000496D000845700008497000084D7000085F
:1000A00051700008D54000085570000859700008CC
:1000B0005D700008617000086570000869700008D4
:1000C0006D70000871700008757000087970000884
:1000D0007D7000088170000885700008F16C0008D0
:1000E000897000088D7000089170000895700008F4
:1000F000997000089D700008A1700008A5700008A4
:10010000A9700008AD700008B1700008B570000853
:10011000B9700008BD700008C1700008C570000803
:10012000C9700008CD700008D1700008D5700008B3
:1001300000F5E0700268914203D343681A4491428B
:1001400002D380680028F5D170471849086880B943
:100150004FF4805048604FF480324FF0FF30C86059
:1001600008610420124B8A604861C3F8BC01114841
:1001700008600120704701F1080313F0070F0EBF5C
:100180000023C3F1080303F007031944D21A816165
:10019000C26042F001034B60091D4FF0280C41F88A
:1001A00002C0024A1369C36170470000341D002079
:1001B000141900206859883C2DE9F04705460E4681
:1001C00091467068C10706EB09083AD4346810F00C
:1001D000030F00F042826042296906448E42A14426
:1001E000C0F037826869864200F0BC80E4081F2CAA
:1001F00055D8D6F80CA0B768564508BF01F00AFEDE
:10020000BE4208BF01F006FE7068C008C000B0EB37
:10021000C40F18BF01F0FEFD05F1280000EBC4007B
:10022000874205D029698F4236D3FA68B24233D16A
:10023000BA4523D12868012101FA04F420EA040414
:100240002C6029698845C0F00482D8F80440A007D2
:1002500000F16081AA69904540F09780E8684844C1
:10026000E860AE6140F0010070606869864240F06D
:10027000F48100216961A960BDE8F087824506D05C
:100280002869824508D3DAF80810B14204D1C7F8CA
:100290000CA0CAF80870D4E701F0BCFDD1E7F468FF
:1002A000B769B4420BD0B068884222D3C168B1426A
:1002B00004BFA268B2421CD1C460A0601BE006F17A
:1002C0001402146834B906F1100214689CB101E0FC
:1002D0001A46146804F114031868002802BF04F1D8
:1002E000100318680028F3D18A4202D3002111605C
:1002F00001E001F08FFD002FA3D0F16905F59870A2
:1003000000EB81000268964209D10460200011D1FF
:10031000F0696968012282409143696091E7286928
:10032000874205D33969B14214BF7C613C6101E069
:1003300001F070FD002C84D029698C42ACD3A761F8
:10034000306928B1884226BF2061846101F062FDD6
:10035000706900283FF475AF296988429CD36061B9
:1003600084616EE798F8040000F0030003287FF42E
:1003700068AFC5F8089049F00101D8F804004008BA
:100380004000C8F8040071600AE0686980450BD13C
:10039000A9686E618944C5F8089049F00100706051
:1003A00046F80990BDE8F087E408E400A144E408B9
:1003B0001F2C3AD8D8F80CA0D8F80870D04508BF40
:1003C00001F028FDB84508BF01F024FDD8F804006D
:1003D000C008C000B0EBC40F18BF01F01BFD05F151
:1003E000280000EBC400874207D029698F42C0F083
:1003F0008380FA68424540F07F80BA4507D128687B
:10040000012101FA04F420EA04042C6076E082451C
:1004100006D0286982456FD3DAF8081041456BD1C0
:10042000C7F80CA0CAF8087068E0D8F80C40D8F8F3
:10043000187044450CD0D8F80800884222D3C1680F
:10044000414504BFA26842451CD1C460A0601BE0C6
:1004500008F11402146834B908F1100214689CB150
:1004600001E01A46146804F114031868002802BF5A
:1004700004F1100318680028F3D18A4202D3002146
:10048000116001E001F0C6FC002F37D0D8F81C1035
:1004900005F5987000EB8100026890450AD1046070
:1004A000200012D1D8F81C006968012282409143D3
:1004B000696023E02869874205D33969414514BF43
:1004C0007C613C6101E001F0A5FCBCB129698C4272
:1004D00012D3A761D8F8100028B1884226BF206146
:1004E000846101F097FCD8F8140038B1296988427A
:1004F00002D36061846101E001F08CFC49F00100ED
:10050000706046F8099069698E420CD1C5F8089070
:10051000BDE8F08764086400C8F8044049F00100B1
:10052000706046F809904FEAD9071F2F23D805F1CC
:10053000280000EBC704A046B9F1100F38BF01F046
:1005400069FC286820FA07F1CA0705D4012101FADD
:1005500007F707432F6006E0A068296988422CBF8F
:10056000804601F057FCA660C8F80C60C6F8088009
:10057000F460BDE8F0875FEA192008BF002123D0AE
:10058000B0F5803F28BF1F211ED2A0F58072120C4B
:1005900002F008029040A0F58051090C01F004011E
:1005A0008840A0F580431B0CC2F10E0203F0020349
:1005B000521AD21A984002EBD032D01D29FA00F11B
:1005C00001F0010101EB420105F59872002302EBF5
:1005D0008100F161736133616A6822FA01F3DC071B
:1005E00007D4012303FA01F1114369600660B06189
:1005F0001DE002681F291DBF4908C1F1190109FA50
:1006000001F1494600E002465068C008C000484574
:1006100011D002F11003C80F03EB800349001868E2
:100620000028F0D12869834213D31E60B261F660BE
:10063000B660BDE8F087296990688A4228BF884281
:1006400007D3C6609660B060F2600020B061BDE87C
:10065000F087BDE8F04701F0DDBBBDE8F0870000A2
:100660002DE9F84F84B00646AFF30080F52E1E4DFD
:1006700080F00F820B2E31BF10260B36F608F600E5
:100680002868F408E04010F0030F4AD0C04300F09F
:100690000100041905F1280000EBC408E700D8F8B0
:1006A00008607068C008C000B84218BF01F0B2FB13
:1006B000D6F80890464508BF01F0ACFB4E4508BF90
:1006C00001F0A8FB7068C008C000B84218BF01F074
:1006D000A1FBC8450AD12868012101FA04F420EAE7
:1006E00004042C6010E000BF141900202869814523
:1006F00008D3D9F80C10B14204D1C8F80890C9F851
:100700000C8001E001F086FB47F00300311D7060B2
:10071000301DCA5942F00102C25106F1080800F02A
:1007200010BFA968B14280F09F83002800F0A2802A
:100730004FF0010808FA04F1490000FA04F44842B5
:1007400001430C4060420440641E200B00F0100086
:10075000C440610901F00801CC40A20802F0040283
:10076000D440630803F002030818DC401018C4F3F7
:10077000400718183818FC40241805F1280000EB31
:10078000C40AE700DAF80890D9F80400C008C000ED
:10079000B84218BF01F03EFBD9F808B0D14508BFF8
:1007A00001F038FBD94508BF01F034FBD9F804004B
:1007B000C008C000B84218BF01F02CFBDA4506D1D2
:1007C000286808FA04F420EA04042C600DE0296982
:1007D0008B4508D3DBF80C00484504D1CAF808B0B3
:1007E000CBF80CA001E001F015FBBF1B46F00300A5
:1007F00009F10402C9F8040047F00101915109EB25
:1008000006020192D751AC684FEAD40ABAF11F0F21
:1008100088BF01F0FFFA34B3CDF800A005F128003D
:100820006E6900EBCA0AD346102C38BF01F0F2FA09
:100830002968009821FA00F2D30704D408FA00F0DE
:100840000843286007E0DAF80800296988422CBFCD
:10085000834601F0DFFACAF80860CBF80C60C6F8EE
:1008600008B0C6F80CA0AF6009F1080801986861EB
:1008700000F067BE6868002800F017834142084016
:10088000401E010B01F01001C840420902F00802AD
:10089000D040830803F00403D840440804F0020465
:1008A0005118E0405918C0F34007611805F59878D1
:1008B0007918F840401858F820104868C008C0005F
:1008C0008A46A0EB060B08E001464868C008C00055
:1008D000801B58453CBF83468A4608690028F3D1EF
:1008E00049690029F1D128698245C0F0CF80DAF842
:1008F0000410C90806EB0B09C900494518BF01F0EF
:1009000089FA0AEB06008245019080F0BF80DAF890
:100910000C40DAF8187054450DD0DAF8080029694F
:10092000884223D3C268524504BFA16851451DD1F6
:10093000C460A0601CE00AF114010C6834B90AF12B
:1009400010010C68A4B101E011460C6804F1140216
:100950001068002802BF04F1100210680028F3D1CB
:100960002869814202D300220A6001E001F052FAB4
:10097000002F34D0DAF81C0008EB800001688A45AB
:1009800009D1046094B9DAF81C0069680122824038
:100990009143696023E02869874205D3396951454D
:1009A00014BF7C613C6101E001F034FABCB12969FB
:1009B0008C4212D3A761DAF8100028B1884226BF12
:1009C0002061846101F026FADAF8140038B129694F
:1009D000884202D36061846101E001F01BFABBF13F
:1009E000100F0ED249F003000AF10401CAF8040006
:1009F0000AF1040051F8092042F0010240F80920F0
:100A00003EE046F003010AF10402CAF804104BF07C
:100A100001009051019941F80BB0A8680090C408FA
:100A20001F2C88BF01F0F6F9009828B305F12800C3
:100A300000996F6900EBC408C146102938BF01F066
:100A4000E9F9286820FA04F1CA0705D4012101FA5E
:100A500004F404432C6007E0D8F8080029698842B0
:100A60002CBF814601F0D6F9C8F80870C9F80C709F
:100A7000C7F80890C7F80C80C5F808B001986861FD
:100A80001AF1080800F0F08100F05BBD01F0C2F936
:100A9000EAE116F1400F28BF4FF0FF3680F0E48105
:100AA0000B36F6086B68F600002B00F0DD8100279E
:100AB000300AC6F1000908BF002423D0B0F5803FFA
:100AC00028BF1F241ED2A0F58071090C01F0080177
:100AD0008840A0F58052120C02F004029040A0F56C
:100AE0008044240CC1F10E0104F00204891A091B90
:100AF000A04001EBD031C81D26FA00F404F0010437
:100B000004EB410405F5987858F8240030B31F2C05
:100B10000FBFB4464FEA540CCCF1190C06FA0CFC8A
:100B2000BE46494601E04FEA4C0C4268D208D2006A
:100B3000921B8A4202D2110007460CD04269103043
:100B40004FEADC7950F82900002A1CBF8242964601
:100B50000028E8D170468946A8BBB7BB012101FA3D
:100B600004F4640060420443234000F07D81584255
:100B700003405B1E180B00F01000C340590901F040
:100B80000801CB409A0802F00402D3405C0804F04C
:100B900002040818E3401018C3F3400C2018604406
:100BA00023FA0CF31B1858F823000CE008464168A0
:100BB000C908C900891B49453CBF894607460169E8
:100BC0000029F3D140690028F1D1002F00F04C81B9
:100BD000A868801B814580F0478129698F42FFF416
:100BE00055AF7868C008C00006EB0901884218BFFD
:100BF00001F010F907EB060B5F45BFF447AFFC6847
:100C0000D7F818A0BC420CD0B8682969884223D311
:100C1000C268BA4204BFA168B9421DD1C460A060D5
:100C20001CE007F114010C6834B907F110010C68DD
:100C3000A4B101E011460C6804F114021068002808
:100C400002BF04F1100210680028F3D12869814224
:100C500002D300220A6001E001F0DCF8BAF1000FD3
:100C600034D0F86908EB800001688F4208D1046035
:100C7000A4B9F8696968012282409143696025E05E
:100C80002869824508D3DAF81010B94214BFCAF8AF
:100C90001440CAF8104001E001F0BCF8B4B1296971
:100CA0008C4211D3C4F818A0386928B1884226BFF5
:100CB0002061846101F0AEF8786938B12969884211
:100CC00002D36061846101E001F0A4F8B9F1100F72
:100CD0000CD2B14449F00300391D7860381D51F839
:100CE000092042F0010240F80920B9E046F0030172
:100CF0003A1D796049F0010090514FEAD9004BF854
:100D000009901F2822D805F1280101EBC0042968A9
:100D100021FA00F2D307A04605D4012202FA00F01E
:100D20000843286006E0A068296988422CBF8046F5
:100D300001F070F8C4F808B007F10800C8F80CB06A
:100D400040F8068007F10C018C5189E05FEA192018
:100D500008BF002123D0B0F5803F28BF1F211ED23D
:100D6000A0F58072120C02F008029040A0F58051AC
:100D7000090C01F004018840A0F580431B0CC2F16E
:100D80000E0203F00203521AD21A984002EBD0323C
:100D9000D01D29FA00F101F0010101EB420107F138
:100DA0001403CBF81C1000229A5107F1100308EB32
:100DB00081009A516A6822FA01F3DC0711D40123F9
:100DC00003FA01F111436960C0F800B0CBF81800D4
:100DD00007F1080107F10C0040F806B041F806B031
:100DE0003EE002681F291DBF4908C1F1190109FA37
:100DF00001F1494600E002465068C008C00048457D
:100E000018D002F11003C80F03EB800349001868E3
:100E10000028F0D12869834220D3C3F800B007F13D
:100E20000C01CBF8182041F806B007F1080040F893
:100E300006B015E0296990688A4228BF88420DD320
:100E4000C0F80CB007F10801C2F808B0885107F1EA
:100E50000C0082510022CBF8182001E000F0DAFFEC
:100E600017F1080840F06D83A868B0421DD3811BBC
:100E70006A6910290AD390196861A96041F00103D9
:100E80004360415046F0030656600BE00021A96024
:100E90006961131D40F003015160111D1C5844F09D
:100EA00001040C5002F108084BE3E8688642C0F0E8
:100EB0003883DFF8B89BD9F8000008B9FFF745F987
:100EC000D9F8081088192F30491E20EA01018E42F6
:100ED00080F0358305F5D877B86838B13A68891855
:100EE0008A4280F02C838842C0F0298300F0B2FF50
:100EF00000281CBFD0F8008010F1010F00F01F8304
:100F000039687A68414439608A4238BF7960AC698F
:100F100004BB296909B1884200D2286100213861E7
:100F2000C7F81480F9614FF0FF31D9F800206A62E8
:100F3000296205F128020021D260926002F10804C2
:100F400054611461891C10321F29F5D9A8F12802B7
:100F500001461DE005F5E0710A46814600E0926811
:100F6000D2B11068536803449945F8D1107B030748
:100F700012D413689C420FD3D2F804C063449C423D
:100F80000AD2C444C2F804C02146E86808EB000253
:100F90002846FFF7F0F8C1E22869814538BFC5F857
:100FA000109009EB080000E08968002900F0BD817D
:100FB0000A688242F8D1087B020700F1B68108680E
:100FC000C1F800904A6842444A6009F1080111F0F2
:100FD000070F08BFCDF8049006D0C1F1080101F059
:100FE000070109EB0102019200F1080111F0070F5E
:100FF00004D0C1F1080101F00701084480460198BE
:10100000A8EB00018419A1EB060B274646F0030666
:101010004660474528BF00F0FDFE98F80400C10770
:1010200058BF00F0F7FEBBF1100F38BF00F0F2FE22
:10103000A869804508D1E9688B44C5F80CB0AF6158
:101040004BF0010078606CE1686980450AD1A968BD
:101050008B44C5F808B06F614BF00100786047F829
:101060000BB05EE1D8F8040000F00301012940F064
:10107000B880C008C000C1081F29039040D8D8F824
:1010800008200092D8F80C600291B04508BF00F02B
:10109000C1FE0098804508BF00F0BCFED8F80400EF
:1010A0000299C008C000B0EBC10F18BF00F0B2FE3B
:1010B0000299009A05F1280000EBC100824208D095
:1010C00011462A699142C0F08780CA68424540F0C3
:1010D000838000998E4206D102982A6801238340BA
:1010E0009A432A607AE0864205D029698E4273D3FA
:1010F000B068404570D10098C6600099B1606DE05D
:10110000D8F818000090D8F80C6046450DD0D8F8F3
:1011100008002969884223D3C268424504BFB168E8
:1011200041451DD1C660B0601CE008F114010E6895
:1011300036B908F110010E68A6B101E011460E683B
:1011400006F114021068002802BF06F110021068B0
:101150000028F3D12869814202D300220A6001E00D
:1011600000F058FE0098002838D0D8F81C0005F58B
:10117000987101EB80000168884509D106609EB92D
:10118000D8F81C006968012282409143696025E01B
:1011900000982969884205D30169414514BF466119
:1011A000066101E000F036FEC6B129698E4213D314
:1011B0000098B061D8F8100028B1884226BF30618D
:1011C000866100F027FED8F8140038B129698842FA
:1011D00002D37061866101E000F01CFE039988442F
:1011E0008B44D8F8041049084900C8F804104BF0A3
:1011F000010078604FEADB0647F80BB01F2E22D8BB
:1012000005F1280000EBC604A146BBF1100F38BF62
:1012100000F000FE286820FA06F1CA0705D4012173
:1012200001FA06F606432E6006E0A06829698842A6
:101230002CBF814600F0EEFDA760C9F80C70C7F81E
:101240000890FC606DE05FEA1B2008BF002123D0FE
:10125000B0F5803F28BF1F211ED2A0F58072120C6E
:1012600002F008029040A0F58051090C01F0040141
:101270008840A0F580431B0CC2F10E0203F002036C
:10128000521AD21A984002EBD032D01D2BFA00F13C
:1012900001F0010101EB4201F961002305F59872AB
:1012A0007B6102EB81003B616A6822FA01F3DE0791
:1012B00007D4012303FA01F1114369600760B861A3
:1012C0001DE002681F291DBF4908C1F119010BFA71
:1012D00001F1594600E002465068C008C000584578
:1012E00010D002F11003C80F03EB80034900186807
:1012F0000028F0D12869834211D31F60BA61FF60D2
:10130000BC600EE0296990688A4228BF884206D3F3
:10131000C7609460B860FA600020B86101E000F036
:1013200079FD019800F108080BE121462846FEF7F7
:10133000FFFE0168406808440090A0F1270111F009
:10134000070000980EBF0021C1F1080101F007015C
:101350000844A0F12F0B04F110018B4538BFA346C0
:101360000BF11802002102920191A8F128024946CE
:101370002846FEF700FF0BF1080010F0070F18BF1A
:1013800000F048FD1B20CBF8040005F5E07292E860
:1013900009500BF1080181E8095000210BF1080008
:1013A000F961B861009A02980199C7F81090C7F8DE
:1013B0001480072300E0001D491C00F10807974234
:1013C0004360F8D30129D8BF00F024FDA34500F005
:1013D000A580ABEB040B201D221D50F80B10490813
:1013E000490042F80B104BF0010060604FEADB0946
:1013F00044F80BB0B9F11F0F22D805F1280000EB1B
:10140000C907B846BBF1100F38BF00F003FD2868CC
:1014100020FA09F1CA0705D4012101FA09F10843AC
:10142000286006E0B868296988422CBF804600F031
:10143000F1FCBC60C8F80C40C4F80880E7606DE0BF
:101440005FEA1B2008BF002123D0B0F5803F28BFF2
:101450001F211ED2A0F58072120C02F008029040EB
:10146000A0F58051090C01F004018840A0F58043EB
:101470001B0CC2F10E0203F00203521AD21A98405A
:1014800002EBD032D01D2BFA00F101F0010101EB8B
:10149000420105F59872002302EB8100E16163616E
:1014A00023616A6822FA01F3DF0707D4012303FAF4
:1014B00001F1114369600460A0611DE002681F2909
:1014C0001DBF4908C1F119010BFA01F1594600E0AD
:1014D00002465068C008C000584510D002F1100301
:1014E000C80F03EB8003490018680028F0D1286971
:1014F000834211D31C60A261E460A4600EE02969FC
:1015000090688A4228BF884206D3C4609460A06075
:10151000E2600020A06101E000F07CFCE868864207
:101520000DD2801BA969E8608A19AA6140F0010008
:10153000506046F003064E6001F1080801E04FF0EC
:101540000008AFF30080404605B0BDE8F08F0028EA
:1015500000D170472DE9F047A0F10805AFF30080F6
:10156000DFF8A46831698D42C0F07A82686800F0C3
:101570000302012A00F07482C2084FEAC209C207BE
:1015800005EB090839D42C6810F0030F00F06A82CB
:10159000604205448D42A144C0F062827069854278
:1015A00000F0DA80E408202C72D2D5F80CA0AF68E5
:1015B000554508BF00F02EFCBD4208BF00F02AFCD4
:1015C0006868C008C000B0EBC40F18BF00F022FC70
:1015D00006F1280000EBC400874205D031698F4234
:1015E00053D3FA68AA4250D1BA4540D1306801219C
:1015F00001FA04F420EA04043460454580F03082A6
:10160000D8F80440E00740F12B82A10700F17C816B
:10161000B069804540F0B380F168B5618944C6F88F
:101620000C9049F00100686071698D4202D1002080
:101630007061B060F169494580F01482DFF82C24B4
:10164000106808B9FEF781FDB169002900F00A822F
:10165000F068292824BF3046FEF76AFDF069F1687A
:10166000884280F0FF814FF0FF30F061FAE182455F
:1016700006D03069824508D3DAF80810A94204D1AF
:10168000C7F80CA0CAF80870B7E700F0C3FBB4E7CE
:10169000EC68AF69AC420BD0A868884222D3C1681D
:1016A000A94204BFA268AA421CD1C460A0601BE08A
:1016B00005F11402146834B905F1100214689CB1E4
:1016C00001E01A46146804F114031868002802BFE8
:1016D00004F1100318680028F3D18A4202D30021D4
:1016E000116001E000F096FB002F86D0E96906F555
:1016F000987000EB81000268954209D104602000D7
:1017000011D1E8697168012282409143716074E7E8
:101710003069874205D33969A94214BF7C613C61B5
:1017200001E000F077FB002C3FF467AF31698C4299
:10173000ABD3A761286928B1884226BF20618461A4
:1017400000F068FB686900283FF457AF31698842B0
:101750009BD36061846150E798F8040000F00300B7
:1017600003287FF44AAFC6F8089049F00101D8F881
:10177000040040084000C8F8040069600AE070698D
:1017800080450AD1B16875618944C6F8089049F06E
:101790000100686045F8099064E1E408E400A144B0
:1017A000E408202C3AD2D8F80CA0D8F80870D0451C
:1017B00008BF00F02FFBB84508BF00F02BFBD8F89E
:1017C0000400C008C000B0EBC40F18BF00F022FB3B
:1017D00006F1280000EBC400874207D031698F4230
:1017E000C0F08580FA68424540F08180BA4507D153
:1017F0003068012101FA04F420EA0404346078E03E
:10180000824506D03069824571D3DAF80810414527
:101810006DD1C7F80CA0CAF808706AE0D8F80C407F
:10182000D8F8187044450DD0D8F8080031698842BE
:1018300023D3C268424504BFA16841451DD1C4609D
:10184000A0601CE008F114010C6834B908F1100123
:101850000C68A4B101E011460C6804F11402106890
:10186000002802BF04F1100210680028F3D130698B
:10187000814202D300220A6001E000F0CBFA002F7F
:1018800037D0D8F81C1006F5987000EB810002687C
:1018900090450AD10460200012D1D8F81C0071686C
:1018A000012282409143716023E03069874205D371
:1018B0003969414514BF7C613C6101E000F0AAFA3E
:1018C000BCB131698C4212D3A761D8F8100028B19D
:1018D000884226BF2061846100F09CFAD8F8140089
:1018E00038B13169884202D36061846101E000F05F
:1018F00091FA49F00100686045F8099071698D42DC
:101900000BD1C6F80890ADE064086400C8F8044044
:1019100049F00100686045F809904FEAD907202F87
:1019200022D206F1280000EBC704A046B9F1100F3F
:1019300038BF00F06FFA306820FA07F1CA0705D403
:10194000012101FA07F70743376006E0A068316913
:1019500088422CBF804600F05DFAA560C8F80C50A4
:10196000C5F80880EC607DE05FEA192008BF00211F
:1019700023D0B0F5803F28BF1F211ED2A0F5807272
:10198000120C02F008029040A0F58051090C01F001
:1019900004018840A0F580431B0CC2F10E0203F045
:1019A0000203521AD21A984002EBD032D01D29FA03
:1019B00000F101F0010101EB420106F598720023EC
:1019C00002EB8100E9616B612B61726822FA01F31D
:1019D000DC0707D4012303FA01F1114371600560AC
:1019E000A8611DE002681F291DBF4908C1F1190146
:1019F00009FA01F1494600E002465068C008C000FB
:101A0000484510D002F11003C80F03EB80034900D2
:101A100018680028F0D13069834211D31D60AA6193
:101A2000ED60AD600EE0316990688A4228BF88425F
:101A300006D3C5609560A860EA600020A86101E057
:101A400000F0E8F9306A401E30620BD1D6F8C801C8
:101A500000E080680028FCD14FF0FF30306201E0E8
:101A600000F0D8F9AFF30080BDE8F087341D002006
:101A70002DE9F84F0F4606467B6831690024D808E7
:101A8000C0008F428146C0F07A8103F00305012D2A
:101A900000F0758107EB090A574580F07081DAF88C
:101AA00004B05FEACB7540F16A8113F0030F15466D
:101AB0000FD1E908202924BF2A1D9042C0F061817E
:101AC000DFF848138A685200451BAA42C0F05981CA
:101AD00053E1A9451CD3A9EB0504102CC0F04D819E
:101AE00003F001032B4343F0020379197B6044F0B8
:101AF0000302486840F0010048604A600819224625
:101B0000436843F0010343603046FEF755FB34E180
:101B1000B269924516D1F0684844854280F031811F
:101B200003F00103441B2B4343F0020378197B604D
:101B300044F00102416841F0010141604260B0613E
:101B4000F4601AE1706982452FD1B0688144A945DB
:101B5000C0F01781A9EB0501102903F0010312D38E
:101B600078191D4345F002057D604218436843F033
:101B70000103436041F001044460415053685B0835
:101B80005B0053600EE049EA030343F00203381D93
:101B90007B603A1D50F8091041F0010142F809102C
:101BA000002000217061B160E7E05FEA8B7000F116
:101BB000E8804FEADB00C2009144A945C0F0E18013
:101BC0004FEAD20BA9EB0500BBF1200F00903BD2EE
:101BD000DAF80C40DAF80880A24508BF00F01AF9DC
:101BE000C24508BF00F016F9DAF80400C008C000CA
:101BF000B0EBCB0F18BF00F00DF906EBCB0000F1F6
:101C00002801884508D032699045C0F08980D8F80D
:101C10000C10514540F08480444506D130680122C3
:101C200002FA0BF1884330607CE000F128018C421D
:101C300005D03069844273D3A168514570D1C8F88A
:101C40000C40C4F808806DE0DAF80C40DAF818802F
:101C500054450CD0DAF80800884222D3C1685145B7
:101C600004BFA26852451CD1C460A0601BE00AF109
:101C70001402146834B90AF1100214689CB101E02E
:101C80001A46146804F114031868002802BF04F10E
:101C9000100318680028F3D18A4202D30021116092
:101CA00001E000F0B7F8B8F1000F3BD0DAF81C0003
:101CB00006EB800101F59870026892450AD1046034
:101CC000200015D1DAF81C0071680122824091438E
:101CD000716027E03069804508D3D8F8101051456D
:101CE00014BFC8F81440C8F8104001E000F092F8A2
:101CF000C4B131698C4213D3C4F81880DAF81000EB
:101D000028B1884226BF2061846100F083F8DAF8A8
:101D1000140038B13169884202D36061846101E006
:101D200000F078F800981028387900F001000DD202
:101D300049EA000040F0020078603A1D381D50F872
:101D4000091041F0010142F8091016E0284340F063
:101D5000020078607919486840F0010048600098F6
:101D600040F00300486000980844426842F00102D5
:101D700042603046009AFEF71FFA3C4601E000F050
:101D800049F82046BDE8F28F70B505460E4600249E
:101D900025B93046FEF764FC044632E016F1400FE8
:101DA0002FD20B2E31BF102406F10B04E408E400FF
:101DB000AFF3008001232246A5F10801DFF85000AF
:101DC000FFF756FE0446AFF300800CB1083418E06C
:101DD0003046FEF745FC040013D055F8042C12F0F1
:101DE000030F0CBF08200420D208D200121AB242FE
:101DF00088BF32462946204600F042F82846FFF7C1
:101E0000A6FB204670BD000014190020341D0020E0
:101E100014190020012000F087B830B4002513E029
:101E200050F8042BD30744BFA9F101039A18091FE6
:101E3000042942F8045BFAD213468C0744BF15808C
:101E40009B1CC90748BF1D7050F8041B0029E7D12F
:101E500030BC70470749086808B100207047064841
:101E6000C008C00008600549C908C900091A016016
:101E7000704700BFA81F0020F72F0020F03F002070
:101E800062B38B0708D0521E11F8013B00F8013BEA
:101E900000F024808B07F6D1830740F0208000BF3C
:101EA000103A07D330B4B1E83810103AA0E838102F
:101EB000F9D230BC530724BFB1E80810A0E80810DD
:101EC00044BF51F8043B40F8043BD20724BF31F82B
:101ED000022B20F8022B44BF0B7803707047121FAF
:101EE00017D35B0009D151F8043B20F8023B1B0CCF
:101EF000121F20F8023BF6D20BE051F8043B00F829
:101F0000013B1B0A20F8023B1B0C121F00F8013B8F
:101F1000F3D238BF121D521E24BF11F8013B00F846
:101F2000013BF8D87047200080B5AFF30080024A2B
:101F300011001820ABBEFBE7260002002DE9FE438E
:101F400004460E4660694088002835D05821714308
:101F5000671807F1280529780818A169498881427E
:101F60002ADB616851F83000C06AD0F800804FF079
:101F7000FF30A7F87A008520A870DFF87093CDF8BD
:101F80000490A87A00902B892A786978204600F07E
:101F900041FAC5F80490FA6F002A03D04146C9B24D
:101FA000204690476868484506D13146C9B2204668
:101FB00003B0BDE8F0432CE1BDE8F78338B5044633
:101FC000002505E02946C9B2204600F022F96D1C23
:101FD0002846C0B20528F5DB31BD38B584B058229B
:101FE0005143431803F130046168002901D1A1680D
:101FF000616061680391A2782188039D212D08D337
:1020000001230293019303AB0093E36A01F0AFFD58
:1020100007E001240294019403AC00943C3301F0E6
:10202000A6FD002800D1002005B030BDF8B586B06F
:10203000054620200590582041436E1806F13007D0
:1020400001200390029004A8019005A8009006F1D9
:102050003C03BA783988284601F01CFD0446A448A0
:1020600084421AD1059840F20141884215D2FEF708
:10207000F7FAF862002810D0059838630120039021
:10208000029004A8019006F160000090FB6ABA7803
:102090003988284601F0FEFC0446002C01D0204679
:1020A00003E0059878600020B86007B0F0BD70B418
:1020B0005824614301448C6B486B1519A8420FD317
:1020C00021280AD20020904216D205190D4495F815
:1020D0003C501D54401CC0B2F5E7C86D002801D12A
:1020E000FF200DE0002005E0CD6D0619AD5D1D540B
:1020F000401CC0B29042F7D3886B12188A6300204C
:1021000070BC7047F8B514461D4658225143461816
:10211000B76B06F13C00E219212A24D3F06D0028A8
:1021200010D14FF48060FEF79BFAF0654FF48060A9
:102130003066F06D00280ED03A4606F13C01FFF7FC
:102140009FFE0FE0316E91420CD201F5806101F0EB
:10215000DDFD002801D1FF20F2BDF065306E00F5F5
:1021600080603066F06D002104E06A5CCB19C254D7
:10217000491CC9B2A142F8D3B06B2418B463002043
:10218000F2BD2DE9FE4305460E4690461F4602ABC2
:1021900000F0CBF8040007D14046012804D19DF897
:1021A0000810284600F035F8DDF82C90002C1ED1E0
:1021B000404602281BD1582405F17A009DF80810EA
:1021C0006143405E01F0F1FD05F17A019DF80820C0
:1021D000624388529DF8080060432844852180F8B6
:1021E0002A109DF8080044432819C0F82C90CDF817
:1021F00004909DF8280000903B4632464146284610
:1022000000F008F9002801D0FF2000E00020BDE820
:10221000FE833EB504460D46002001900090034623
:102220000246204600F012F8002004E0002201449B
:1022300081F83C20401C2946582251432144202843
:10224000F4D3002081F82900C86237BD2DE9F84396
:1022500005460E4617469846099C2046022805D09A
:10226000032803D0042801D005280FD1582041436A
:10227000681800F16409002000901E4B1E4A314688
:10228000284601F045FDA9F816000AE05820414310
:10229000681800F16409B9F9160001F086FDA9F883
:1022A0001600089858214E43A91901F128052F70EE
:1022B000A5F80880A872AC700020E870E86028617A
:1022C00001F1640000210170417081704160017270
:1022D00041728172C17201758161686B01F014FDF8
:1022E00000206863A863BDE8F283000000000405D5
:1022F0000500040500127A003D1F000830B40024D8
:1023000000E0641C2346DBB2052B0CDA58256B4336
:10231000034403F129056B78002BF2D11470297066
:10232000002030BC7047FF20FBE7F0B404460025D6
:102330000F4601E06D1CEDB2052D15DA58206843FB
:10234000204400F12806B0780028F3D08528F1D089
:102350003078B842EED170781646B042EAD1002B00
:1023600000D01D70002000E0FF20F0BC7047582313
:1023700059430144486B002802D10020106002E05C
:10238000896B401A10600020704758235943084455
:102390004263002070473EB500F5F0742578052DA6
:1023A00001D07F2D1AD1456901290FD12988002933
:1023B00014D052188169098891420FDB406850F8A7
:1023C0003200006A0068ADF8000010E0698800295A
:1023D00004D0521881694988914201DAFF203EBD3C
:1023E000406850F8320040690068ADF800000020F5
:1023F0008DF8020008208DF80300002001AA02E0F9
:10240000195C1154401C0828FADB6946E06E01F0A3
:10241000BEFD3EBD7CB5069C079D80268DF8006004
:102420001E468DF801601B0A8DF802308DF80340BE
:102430002B468DF804301B0A8DF805302B461B0CFB
:102440008DF806302D0E8DF807506B46FFF7A3FF71
:1024500076BD00002DE9F84F86B004468B4600207B
:102460008DF804004FF0030860690188A0690288B4
:102470000020002903D116E0401C491C89B28A4281
:1024800011DB63681F1D17F83170012F41F3F582CE
:1024900053F831305B691B68BBF80070BB42EBD16D
:1024A0004FF0010805464046032827D1606941885E
:1024B000A06942880023002920D0002002E05B1C94
:1024C000491C89B28A4217DB676807F1040C1CF8C3
:1024D00031C0BCF1040FC1F2D08257F83170D7F887
:1024E00020C0DCF800C0BBF800E0F445E7D14FF0B5
:1024F00002081D46F86A00788DF80400404603285B
:1025000001F0BB829BF8030008280DD04FF000605B
:10251000019000200090034642462946C9B2204659
:10252000FFF72FFEFF20C9E002AB42462946C9B2A1
:102530002046FFF7FAFEFF21582700281CD142460B
:10254000012A07D19DF808207A43224492F82A20D4
:10255000042A0AD04246022A0ED19DF808207A4366
:10256000224492F82A20052A06D19BF804108029DB
:1025700001D1042100E006210A46FF2A02D19BF87E
:1025800004104909062901F27882DFE811F00700FA
:102590002F0161026C03AF04F2047D07414601295B
:1025A00040F08F80002808D19DF80810794321441D
:1025B00091F82A10022900D00120002841F0D08192
:1025C0009DF8080078432044B0F97A0010F1010F1B
:1025D00018D001F0EAFB04F17A019DF808207A4353
:1025E000885200200090DFF8F43CDFF8F42C9DF8CE
:1025F0000810204601F08CFB04F17A019DF80820B8
:102600007A4388529DF80810794304F13000084459
:10261000068890F802A09BF8040004F12B02515C9C
:102620000246C2F30012914240F06383C0F34200BD
:10263000C0F1070003900BF1050302469DF8081056
:102640002046FFF75FFD002840F0D38604F12B0001
:102650009DF808107943405C000140F020008DF89F
:1026600010000120002104AA01E01154401C082898
:10267000FBD304AB2A46D2B201212046FFF78BFEE2
:102680009DF80800474304F12B00C05D401E8041C7
:10269000C00F04F12B01C8559BF80400C0070CD5EE
:1026A0009DF808102046FFF798FC002840F0A4840D
:1026B0009DF808102046FFF7ACFD002007B0BDE8EC
:1026C000F08F002808D19DF808107943214491F833
:1026D0002A10032900D00120002841F041819DF8F3
:1026E000080078432044B0F97A0010F1010F18D0A7
:1026F00001F05BFB04F17A019DF808207A438852CF
:1027000000200090DFF8D43BDFF8D42B9DF80810B0
:10271000204601F0FDFA04F17A019DF808207A4381
:1027200088529DF80810794304F130000844068867
:1027300090F802A09BF8040004F12B02515C0246C1
:10274000C2F30012914240F0D482C0F34200C0F1C3
:10275000070003900BF1050302469DF80810204680
:10276000FFF7D0FC002840F044869DF8080078432D
:1027700004F12B01095C491E8941C90F04F12B02A8
:1027800011549DF8080078439BF80410C9071CD524
:1027900004F17A01085E01F008FB04F17A019DF86A
:1027A00008207A43885204F12A009DF808107943E2
:1027B0000122425404F17C009DF8081079434058EE
:1027C00000283FF47AAF01F04CB904F12B01085C0A
:1027D000000140F060008DF810000120002104AAE3
:1027E000082881F03D801154401CF9E74146012939
:1027F00075D19BF806109BF8056046EA01269BF808
:1028000007A0002800F05A8602AA01212046FFF7FF
:1028100075FD002840F0528602200190504600903D
:1028200033462A46D2B29DF808102046FFF70EFD27
:102830009BF804100846C0F34000002824D0C1F3E0
:102840008100C0F10400039004F134009DF80810E9
:102850004F430399C1510BF10803039A9DF80810E7
:102860002046FFF74FFC002840F0C3859DF8081074
:102870002046FFF7B2FB002840F0BE839DF8081009
:102880002046FFF7C6FC19E0C80717D59BF80800DB
:102890009BF8091000EB01209BF80A1000EB0140A7
:1028A0009BF80B1000EB0160039002469DF80810A6
:1028B0002046FFF76AFD002840F09B8560208DF8D8
:1028C000100004A94E70360A8E7081F803A004200F
:1028D0000022082880F0C4870A54401CF9E7002829
:1028E00008D19DF808107943214491F82A10022953
:1028F00000D00120002841F033809DF80800784383
:102900002044B0F97A0010F1010F18D001F04DFA0F
:1029100004F17A019DF808207A4388520020009043
:10292000DFF8B839DFF8B8299DF80810204601F023
:10293000EFF904F17A019DF808207A4388529DF856
:102940000800784304F1300101440E8891F802A098
:1029500004F12B01085C9BF80410C1F300118842BC
:1029600040F0C78103AA9DF808102046FFF7FFFC3E
:102970009DF808107943039800281CD104F17A00CF
:10298000405E01F012FA04F17A019DF808207A43C2
:10299000885204F12A009DF808107943012242541C
:1029A00004F17C009DF808107943405800283FF45A
:1029B00084AE01F056B804F12B00405C039A082A5B
:1029C0001BD3401E8041C00F04F12B02505404F170
:1029D0002B009DF808104F43C05D00018DF81000DA
:1029E0000DF1110307229DF808102046FFF75FFB49
:1029F000002840F0FE8400F033BF401E8041C00F2D
:102A000004F12B02505404F12B009DF808104F43A1
:102A1000C05D0399C1F10701490041EA001141F08D
:102A200001018DF810100DF11103039A9DF80810A3
:102A30002046FFF73CFB002840F0DB840398401C55
:102A4000002104AA082880F00B871154401CF9E7E4
:102A5000414601296AD19BF806109BF8056046EAB9
:102A600001269BF807A0002800F0288502AA012172
:102A70002046FFF743FC002840F02085032001900A
:102A80005046009033462A46D2B29DF808102046A0
:102A9000FFF7DCFB9DF808102046FFF7C7FA002877
:102AA00040F0AA8203AA9DF808102046FFF75FFCB9
:102AB0003046000A04AF0399042919D941218DF841
:102AC00010107E70B87087F803A0039838710398CF
:102AD000000A78710398000CB8710398000EF87121
:102AE00004AB2A46D2B201212046FFF754FCE4E5AC
:102AF000C1F10401890041F043018DF810107E708E
:102B0000B87087F803A005AB039A9DF8081020461B
:102B1000FFF7CDFA002840F06C840398001D0021D7
:102B2000082880F041813954401CF9E7002808D179
:102B30009DF808107943214491F82A10032900D008
:102B40000120002840F00C879DF8080078432044BD
:102B5000B0F97A0010F1010F18D001F026F904F154
:102B60007A019DF808207A43885200200090DFF80F
:102B70006C37DFF86C279DF80810204601F0C8F884
:102B800004F17A019DF808207A43885204F130005C
:102B90009DF8081079430844068890F802A09BF835
:102BA00004100846C0F34000002836D0C1F381006D
:102BB000C0F1040003900BF1080302469DF80810D1
:102BC0002046FFF79FFA002840F0138404F17A00B2
:102BD0009DF808107943405E01F0E7F804F17A01AE
:102BE0009DF808207A43885204F134009DF80810BB
:102BF0007943039A425004F12A009DF80810794362
:102C00000122425404F17C009DF808107943405899
:102C100000283FF452AD00F024BFC80717D59BF839
:102C200008009BF8091000EB01209BF80A1000EB4C
:102C300001409BF80B1000EB0160039002469DF8E9
:102C400008102046FFF7A1FB002840F0D283602047
:102C50008DF810000120002104AA082880F00086C9
:102C60001154401CF9E74146012940F0AA80002890
:102C700008D19DF808107943214491F82A100329BE
:102C800000D00120002840F06B869DF808007843B2
:102C90002044B0F97A0010F1010F18D001F085F846
:102CA00004F17A019DF808207A43885200200090B0
:102CB000DFF82836DFF828269DF80810204601F0B6
:102CC00027F804F17A019DF808207A4388529DF88C
:102CD0000800784304F1300101440E8891F802A005
:102CE00004F12B01085C9BF80410C1F30011884229
:102CF0000DD0DFF88C0D0190CDF800A03346424690
:102D00002946C9B22046FFF73CFAFF20D6E403AAC1
:102D10009DF808102046FFF72AFB04F12B009DF8D0
:102D200008107943405C00010399082920D38DF8ED
:102D300010000DF1110307229DF808102046FFF73F
:102D4000B6F9002840F055839DF80800474304F188
:102D50002B00C05D401E8041C00F04F12B01C855FF
:102D600004AB2A46D2B201212046FFF714FBA4E4AB
:102D7000C1F1070140EA410040F001008DF8100068
:102D80000DF11103039A9DF808102046FFF78FF903
:102D9000002840F02E830398401C002104AA01E083
:102DA0001154401C0828FBD304AB2A46D2B241463A
:102DB0002046FFF7F0FA9DF808102046FFF729FAA1
:102DC0007BE4002808D19DF808107943214491F84C
:102DD0002A10022900D00120002840F0C1859DF86A
:102DE000080078432044B0F97A0010F1010F18D0A0
:102DF00000F0DBFF04F17A019DF808207A43885245
:102E000000200090DFF8D434DFF8D4249DF80810B7
:102E1000204600F07DFF04F17A019DF808207A43F6
:102E2000885204F130009DF8081079430844068860
:102E300090F802A003AA9DF808102046FFF797FA21
:102E40009DF808107943039800281CD104F17A00FA
:102E5000405E00F0AAFF04F17A019DF808207A4351
:102E6000885204F12A009DF8081079430122425447
:102E700004F17C009DF808107943405800283FF485
:102E80001CAC00F0EEBD04F12B00405C0001039986
:102E900008290ED38DF810000DF1110307229DF8BB
:102EA00008102046FFF703F9002840F0A28200F046
:102EB000D7BCC1F1070140EA410040F001008DF8A4
:102EC00010000DF11103039A9DF808102046FFF73A
:102ED000EEF8002840F08D820398401C002104AADF
:102EE000082880F0BD841154401CF9E79BF8085075
:102EF0009BF8091045EA01259BF80A1045EA0145AF
:102F00009BF80B1045EA0165B8F1010F09D10028C3
:102F10007FF4D3AB9DF808102046FFF77AF9FFF74E
:102F2000CCBB00287FF4C9AB9DF80800784320444F
:102F3000B0F97A0000F039FF04F17A019DF8082019
:102F40007A43885204F12A009DF8081079438022C0
:102F500042549DF8080078432044C56204F17C0087
:102F60009DF808107943405800283FF4A6AB00F0C4
:102F700078BD9BF8049009F003094146012940F00F
:102F80005B81B9F1000F6ED19BF806109BF80560CC
:102F900046EA01269BF807A0002800F08F8202AACB
:102FA00001212046FFF7AAF9002840F0878205207A
:102FB00001905046009033462A46D2B29DF8081040
:102FC0002046FFF743F904F164009DF808107943A7
:102FD0009BF80420C2F38002425404F165009DF87E
:102FE000081079439BF8082042549DF808102046A9
:102FF000FFF71CF800280CD00190CDF800A0334654
:1030000042462946C9B22046FFF7BBF8FF20FFF72A
:1030100055BB03AA9DF808102046FFF7A8F904F154
:1030200068009DF808104F430399C151C2208DF8E4
:10303000100004A84670360A867080F803A0039931
:1030400001710399090A41710399090C817103996E
:10305000090EC17104AB2A46D2B201212046FFF706
:103060009AF9FFF72ABBB9F1010F14D1002808D152
:103070009DF808104F43E11991F82A10052900D056
:103080000120002840F06C849DF808102046FFF7CE
:10309000C0F8FFF712BBB9F1020F03D0B9F1030F6B
:1030A0007FF40BAB002808D19DF808107943214428
:1030B00091F82A10052900D00120002840F0508402
:1030C0009DF8080078432044B0F97A0010F1010F10
:1030D00016D000F06AFE04F17A019DF808207A43C8
:1030E0008852002000907D4B7D4A9DF808102046B4
:1030F00000F00EFE04F17A019DF808207A43885210
:103100009DF80800784304F1300101440E8891F8DD
:1031100002A0B9F1020F3DD19BF8061004F165023F
:1031200011549BF8059009F07F0903AA9DF8081037
:103130002046FFF71CF99DF808107943601800F14C
:103140006C020398002811D1507881450ED19078F7
:10315000800040F0C1008DF810000120002104AA79
:10316000082880F07D831154401CF9E71078C9EBE2
:10317000C909814404F1380040F801909DF8080025
:10318000784304F13401095804F13802105881429F
:10319000C0F0E6839DF80800784304F1380109582F
:1031A00004F16C0211544FF0010915E08DF81090F4
:1031B0000DF1110307229DF808102046FEF777FF56
:1031C000002840F0168104AB2A46D2B201212046E5
:1031D000FFF7E1F809F1010904F165009DF8081015
:1031E0007943084401784A46D2B29142FFF465AA75
:1031F00080F8089003AA9DF808102046FFF7B7F85A
:1032000003980828D2D249F080098DF810900DF16A
:103210001103039A9DF808102046FEF748FF002886
:1032200040F0E7800398401C002104AA082880F0A1
:10323000F6801154401CF9E7B9F1000F03D0B9F141
:10324000020F40F0FE80002808D19DF80810794355
:10325000214491F82A10042900D00120002840F0D0
:103260007F839DF8080078432044B0F97A0010F17C
:10327000010F16D000F099FD04F17A019DF80820A5
:103280007A43885200200090144B154A9DF808108C
:10329000204600F03DFD04F17A019DF808207A43B4
:1032A00088529DF80810794304F164000844B9F18C
:1032B000000F17D104F1300211440E8891F802A0DA
:1032C0009BF80410C1F38001017004F165009DF8C2
:1032D000081079439BF8082042543FE000127A001E
:1032E0003D1F00089BF8061041709BF8059009F0FF
:1032F0007F0903AA9DF808102046FFF738F89DF8CB
:1033000008107943601800F16C020398002811D16D
:10331000507881450ED19078800040F0C1008DF842
:1033200010000120002104AA082880F0998211547D
:10333000401CF9E71078C9EBC909814404F1380051
:1033400040F801909DF80800784304F134010958D1
:1033500004F1380210588142C0F002839DF8080041
:10336000784304F13801095804F16C0211544FF00C
:10337000010914E08DF810900DF1110307229DF85A
:1033800008102046FEF793FE002832D104AB2A46EF
:10339000D2B241462046FEF7FEFF09F1010904F1D1
:1033A00065009DF808107943084401784A46D2B276
:1033B0009142FFF482A980F8089003AA9DF80810B2
:1033C0002046FEF7D4FF03980828D3D249F080099D
:1033D0008DF810900DF11103039A9DF80810204606
:1033E000FEF765FE002804D10398401C002104AAC2
:1033F00013E04FF0006001905FFA8AFACDF800A068
:1034000033469BB242462946C9B22046FEF7B9FE72
:10341000FF20FFF753B91154401C0828FBD304AB1D
:103420002A46D2B241462046FEF7B5FF04F16E00AF
:103430009DF808104F430399C1F10701C155FFF7EB
:103440003CB9B9F1010F40F08B829DF80800784338
:103450002044B0F97A0000F0A8FC04F17A019DF84C
:1034600008207A43885204F12A009DF80810794315
:103470000122425404F17C009DF808107943405821
:1034800000283FF41AA9ECE24146012940F0888166
:1034900000286ED09BF80400C00700F161829BF801
:1034A00006009BF8056046EA00269BF807A002AAE2
:1034B00001212046FEF722FF00280ED0DFF8C405C8
:1034C0000190CDF800A0334642462946C9B22046B5
:1034D000FEF757FEFF20FFF7F1B804200190504699
:1034E000009033462A46D2B29DF808102046FEF7D7
:1034F000ADFE04F16F009DF808107943012242549B
:1035000004F164009DF8081079439BF80420C2F38D
:10351000800242549BF80400800713D504F1680030
:103520009DF808104F439BF808109BF8092001EB09
:1035300002219BF80A2001EB02419BF80B2001EBD2
:103540000261C151A0208DF8100004A84670360A0F
:10355000867080F803A0102101710021C1804171A3
:1035600004AB2A46D2B201212046FEF714FFFFF732
:10357000A4B89DF808007843204490F86F10012902
:1035800040F09380B0F97A0010F1010F18D000F0EC
:103590000CFC04F17A019DF808207A43885200203F
:1035A0000090DFF8E434DFF8E4249DF808102046AA
:1035B00000F0AEFB04F17A019DF808207A438852AE
:1035C0009BF8043003F07F0604F16D009DF80810AD
:1035D000794308440178491C32461B0634D58A4297
:1035E00012D10221817004F16D009DF80810794319
:1035F000465408220BF1040104F170009DF80830D4
:103600007B431844FEF73CFCA2208DF8100004A870
:1036100004F16D019DF808207A43895C4170102106
:10362000817000214160C17004AB2A46D2B20121F1
:103630002046FEF7B0FE04F16D009DF808104F43E0
:103640000021C155FFF739B88A420BD106700BF142
:10365000050307229DF808102046FEF753FD0028B9
:1036600040F09981102E7FF428A8A2208DF8100038
:1036700004A804F16D019DF808207A43895C41702B
:103680001021817000214160C17004AB2A46D2B282
:1036900001212046FEF77FFE04F16D009DF8081021
:1036A0004F430021C155FFF708B802297FF405A850
:1036B0009BF80410C90740F15381B0F97A0010F16A
:1036C000010F18D000F071FB04F17A019DF8082079
:1036D0007A43885200200090DFF8AC33DFF8AC2347
:1036E0009DF80810204600F013FB04F17A019DF8C4
:1036F00008207A43885204F171009DF8081079433C
:1037000043189BF80400C0F38202C2F107029DF83F
:1037100008102046FEF7F6FC002840F03C819DF89A
:103720000810794304F168004058002805D004F1DE
:1037300038025158884240F05081A1208DF8100085
:103740000120002104AA01E01154401C0828FBD3E9
:1037500004AB2A46D2B201212046FEF71CFE9DF89A
:1037600008102046FEF739FC002812D004F1300181
:103770009DF80820574339440190887800900B88C1
:1037800001222946C9B22046FEF7FBFCFF20FEF7C6
:1037900095BF9DF808102046FEF73BFDFEF78DBF54
:1037A000002840F0DD809DF8080078432044B0F9FF
:1037B0007A0010F1010F16D000F0F7FA04F17A0147
:1037C0009DF808207A43885200200090AE4BAF4A03
:1037D0009DF80810204600F09BFA04F17A019DF84C
:1037E00008207A4388529DF808007843221802F195
:1037F0006D01887800283CD19BF80400C0073EF595
:103800005CAF0120887004F164009DF808107943D2
:103810009BF80420C2F3800242549BF80400800706
:1038200013D504F168009DF808104F439BF8081069
:103830009BF8092001EB02219BF80A2001EB0241D1
:103840009BF80B2001EB0261C151A3208DF8100001
:103850000120002104AA01E01154401C0828FBD3D8
:1038600004AB2A46D2B241462046FEF794FDFEF74D
:1038700024BF01286DD19BF8040000F07F060A7870
:10388000521C3346000634D5934212D10220887070
:1038900004F16D009DF808107943465408220BF19D
:1038A000040104F170009DF808307B431844FEF7D2
:1038B000E7FAA2208DF8100004A804F16D019DF82C
:1038C00008207A43895C4170102181700021416099
:1038D000C17004AB2A46D2B241462046FEF75BFDDA
:1038E00004F16D009DF808104F430021C155FEF70B
:1038F000E4BE93420AD10E700BF1050307229DF836
:1039000008102046FEF7FEFB002844D1102E7EF45E
:10391000D4AEA2208DF8100004A804F16D019DF82A
:1039200008207A43895C4170102181700021416038
:10393000C17004AB2A46D2B241462046FEF72BFDA9
:1039400004F16D009DF808104F430021C155FEF7AA
:10395000B4BE02287EF4B1AE9BF80400C1070DD4BA
:103960004848019000200090034642462946C9B2CB
:103970002046FEF706FCFF20FEF7A0BE02F1710311
:10398000C0F38202C2F107029DF808102046FEF73C
:10399000B9FB002814D004F130009DF808104F4303
:1039A00038444FF0006101918178009103884246CC
:1039B0002946C9B22046FEF7E4FBFF20FEF77EBE93
:1039C0009DF80810794304F168004058002818D089
:1039D00004F138025158884213D004F130009DF8A8
:1039E00008104F433844274901918178009103889A
:1039F00042462946C9B22046FEF7C3FBFF20FEF728
:103A00005DBEA1208DF810000120002104AA01E074
:103A10001154401C0828FBD304AB2A46D2B24146BD
:103A20002046FEF7B8FC04F17A009DF808107943AF
:103A3000405E00F0BAF904F17A019DF808207A435B
:103A4000885204F12A009DF808107943012242545B
:103A500004F17C009DF808107943405800283EF49A
:103A60002CAE9DF80410204604F17C029DF808302D
:103A70005F43D2599047FEF720BEFF20FEF71EBEDF
:103A8000000003052100000800127A003D1F000815
:103A900000207047FEB507460E4615461C4601AA93
:103AA00069463046D7F850329847024600980028B9
:103AB0005CD1294608461379984208D37C4C00947F
:103AC00000231A463046FFF7E3FF2046FEBD0A9862
:103AD000002810D010680B4603EB4305AB00C05C18
:103AE000C00708D5734C009400231A463046FFF7F0
:103AF000CFFF2046FEBD230002D14FF00060FEBD87
:103B0000089C01EB410081001568281D405826687B
:103B1000864202D220606848FEBD09980D446E7846
:103B200006701068021D555808448168092E05D09A
:103B30002A461846FEF7A4F9256016E00A462068D2
:103B4000002800D128460E1803E011F8010B03F8F5
:103B5000010B0F460878002801D0B742F5D3BA1AF6
:103B60002260AA4201D2002008700020FEBD2DE98B
:103B7000F84F84B004460D4616469B4603AA01A999
:103B80002846D4F85032984780460198002870D1D2
:103B90000E9F304698F80410884209D3444C009494
:103BA0003B68002231462846FFF772FF20467BE043
:103BB0000F98B14609EB490189000291D8F800102D
:103BC000029A114400280CD00878022809D13B4CF5
:103BD00000943B68002231462846FFF759FF2046F3
:103BE00062E048788DF800004B689A4638680028F3
:103BF00007D0504505D09DF8001009294AD15045FD
:103C000048D259469DF80000626A9047019000280A
:103C100008D000903B68524631462846FFF738FFEF
:103C2000019841E03A685946D8F80000029B1844D0
:103C30008068FEF725F99DF80000092809D1386849
:103C4000504506D2D8F80010029A11448968002223
:103C50000A54C7F800A0039800280CD050F8293067
:103C6000002B08D032464146204698470190002854
:103C700001D0019818E0D8F800000299405C400794
:103C800006D532462946204604F514735B689847EA
:103C9000002009E0C7F800A0094C009452463146C4
:103CA0002846FFF7F5FE204605B0BDE8F08F00007E
:103CB00011000906010001060500040502000106C5
:103CC0001000070618B40446084611461A46D4F8F0
:103CD000503201B010BC18473EB515461C466B4625
:103CE00001AAFFF7EFFF01460198002809D10098CB
:103CF000002806D028460979884202D2009840F868
:103D0000254001983EBD7047FDF721BCFEF73CB849
:103D10002DE9F84F074688460024584DDFF860919A
:103D2000B9F9001001E0641C18358C460CF1010C47
:103D3000A6460FFA8EFEF44533DBBEF1080F30DAEB
:103D40001000F0D028780028EDD11646E64502D1C3
:103D5000491CA9F800109A4600F0B9F9834650466C
:103D60004FF6FF718A4500D30846D9F804108B45F9
:103D700009D2A1EB0B01884205D200EB0B01C9F877
:103D8000041000F0A1F90A98AE606F60C5F80C80CD
:103D9000DA44C5F810A0686101202870204600B2FE
:103DA00001E04FF0FF30BDE8F28F10B401464FF054
:103DB000FF3291420ED03249B1F900200346144639
:103DC000A34201D1521E0A8000212C4A00EB40037D
:103DD000D80011544FF0FF3010BC7047F8B54FF6C3
:103DE000FF7600F074F90146254C62688A180023BA
:103DF000224D2F4614E0801A3861B0420ED8064694
:103E00000CE0A0EB010CB1FBF0FE00FB0EC0386132
:103E1000032038703869B04200D806465B1C18375A
:103E2000B4F900009C460FFA8CFC60450BDB387837
:103E3000C007F3D538698242DDD378690028E0D124
:103E400002203870EAE76660304600F03DF900264F
:103E50000DE02878810708D500F0FD002870AA68D9
:103E6000002A02D0E96868689047761C1835B4F9D2
:103E70000000314609B28842EBDAF1BDEC1A0020AD
:103E8000D410002078B589B00546002422460421CC
:103E9000684600F037F922460C2102A800F032F9FA
:103EA00022460E2105A800F02DF92246042101A882
:103EB00000F028F948208DF8030003208DF8020057
:103EC0004FF40060ADF80000604E6946304600F0E7
:103ED00037F918208DF8030003208DF802004FF405
:103EE0008050ADF800006946304600F029F92046C0
:103EF0008DF80F008DF81000A8788DF80C00E87888
:103F00008DF80D0028788DF80A0001208DF8110039
:103F1000A888ADF8080020468DF8120068788DF862
:103F20000B0020468DF80E008DF81300484D02A9B5
:103F3000284600F08BF9012825D12046ADF81E0057
:103F400001208DF82000204605900690ADF81C0059
:103F500001208DF8210005A800F0F6F914208DF855
:103F6000040003208DF8050002208DF806000120D2
:103F70008DF8070001A800F034FB01220221284639
:103F800000F042FA00E0012420460AB070BD2DE99D
:103F9000F04100242F4D204668600888E86105F153
:103FA0002402204610708878002801D1204600E0C5
:103FB00002205070C8789070CA78091D05F127005A
:103FC000FDF75EFF224E05F11C01304600F026FA97
:103FD00007464FF6FF7801E0401C686039463046DE
:103FE00000F072FA012802D068684045F4D368688E
:103FF000404500D201242046BDE8F0813EB5144C76
:104000000021204600F0A5FA00281DD0114D05F131
:1040100008020021204600F0AAFAA868ADF80000C6
:10402000687C012801D1012000E000208DF8020009
:10403000AA7C8DF8032005F1130101A8FDF720FFEC
:104040006946054800F01EFB37BD0000000801402E
:1040500000640040641C00200C0E00201FB50022EC
:104060000A2101A800F04EF800220421684600F061
:1040700049F84FF6FE70ADF808007720ADF804005F
:104080000020ADF806001C4C01A9204600F0F0FC11
:1040900001221146204600F04AFD0121204600F091
:1040A0005CFD19208DF8000000208DF80100012032
:1040B0008DF802008DF80300684600F092FA0121A5
:1040C000204600F027FD1FBD0C49088070470C48B2
:1040D0000088704710B5084C0121204600F031FDE2
:1040E000002807D00121204600F037FDBDE8104030
:1040F000FFF774BE10BD0000002C01402C2C0140C5
:10410000242C014062F30F2262F31F4200B500BF6E
:10411000130096469446103928BFA0E80C50FAD8F0
:104120005FEA417C28BF0CC048BF40F8042BC90798
:1041300028BF20F8022B48BF00F8012B00BD01006A
:10414000F0B40024CA78134603F00F03D20601D559
:104150008A7813430A88D2B2002A1AD0026815E07E
:10416000482D12D1066110E00126A6400D88354089
:10417000B5420AD1A5000F27AF40BA4303FA05F5AF
:104180002A43CD78282DEBD14661641C082CEBD353
:1041900002600A88B2F5807F1EDB4468002218E0C6
:1041A000012602F1080506FA05F50E882E40AE42FA
:1041B0000ED196000F27B740BC4303FA06F63443EE
:1041C000CE78282E00D14561CE78482E00D10561E9
:1041D000521C082AE4D34460F0BC704770B41A4AF9
:1041E000002801D5936900E01368C0F3034485B249
:1041F00000F44016B6F5401F06D123F07063146832
:1042000024F07064146010E0C60206D5032606FA96
:1042100004F4A34343F0706307E00446640D2401F3
:1042200005FA04F4A34343F07063002904D0014667
:10423000490D09018D402B43002801D5936100E011
:10424000136070BC704700000400014010B40022ED
:104250001346046824F002040460046844F0010476
:10426000046000E05B1C4468E40703D44FF6FF746D
:10427000A342F7D14368DB0763D58A79012A026834
:1042800003D142F08002026002E022F0800202606C
:10429000CA79012A026803D142F04002026002E0BA
:1042A00022F0400202600A7A012A026803D142F039
:1042B0002002026002E022F0200202604A7A012A13
:1042C000026803D142F01002026002E022F0100204
:1042D00002608A7A012A026803D142F00802026071
:1042E00002E022F008020260CA7A012A026803D1C1
:1042F00042F00402026002E022F0040202608A78C6
:10430000CB781B0643EA82730A7943EA02434A796F
:1043100043EA02530988491E0B43C36101684908F7
:1043200049000160002100E0491C4268D20703D522
:104330004FF6FF729142F7D1426802F0010282F01B
:104340000102104610BC7047F0B40121827A01FAD4
:1043500002F22B4B196841F001011960D443D9696D
:104360002140D961017B002912D1D9682140D9604F
:104370002449C588468846EA0546857A41F835606D
:10438000091D857A8688078847EA064741F835700F
:10439000017B012912D1D9681143D96019490588D7
:1043A000468846EA0546857A41F83560091D857AD2
:1043B0008688C78847EA064741F83570C17A0029E0
:1043C000596802D12140596001E0114359600189C7
:1043D000002902D159690C405C610189012902D18F
:1043E000596911435961407B012802D1D8690243C0
:1043F000DA611868400840001860F0BC704700009F
:104400000066004040660040002A426902D0114325
:104410004161704722EA01014161704770B48268CE
:10442000520101D500220AE08268120101D5012261
:1044300005E08268D20001D5022200E00422042AAD
:104440003FD000EB021000F5C073186800F00100C7
:1044500018604C7A087A002806D118680D6844EA7A
:10446000455404431C6006E01D684E6840EAC600DF
:1044700004432C431C60887A00F00F00887258684F
:104480000009000158605C68887A04435C60887B9E
:104490004C7B240444EA0064087B44EA0024C87A84
:1044A00004439C60887C4C7C240444EA0064087CBF
:1044B00044EA0024C87B0443DC60186840F0010033
:1044C0001860104670BC70470022002903D00229F2
:1044D0001ED00ED32AE081688A0002F004028168AF
:1044E00001F002010A438068800E00F001000243DF
:1044F0001CE08268920902F004028168090A01F056
:1045000002010A438068C00E00F0010002430DE082
:104510008268920B02F004028168090C01F002012A
:104520000A438068000F00F001000243002A02D015
:10453000072A02D003E002207047012070470020C4
:104540007047002902D12021C160704720210161FC
:104550007047024600200B0003D1D06800F0030032
:104560007047012902D1106900F00300704718B4A8
:104570000B4600EB031303F5D874236813F0040310
:104580001372236802D15B0D136001E0DB085360F6
:10459000236803F002035372636803F00F039372FE
:1045A00063681B0AD374A368D372A3681B0A1373CE
:1045B000A3681B0C5373A3681B0E9373E368D37338
:1045C000E3681B0A1374E3681B0C5374E3681B0E47
:1045D000937414BCB5E700002249084322490860DF
:1045E000704770B403781C460122C17800291BD0A3
:1045F0001D490B6803F4E063C3F5E0631B0A4578CB
:10460000C3F104018D4081780F26DE4031400D4317
:104610002D0116490D55017801F01F008240144804
:10462000491140F8212007E003F01F0302FA03F3C9
:104630001048641140F8243070BC70470E4A114095
:1046400008430E49086070470D490428086803D1E3
:1046500040F004000860704720F0040008607047D4
:10466000000000000000FA050CED00E000E400E0AE
:1046700000E100E080E100E080FFFF1F08ED00E0C6
:1046800010E000E00A881346DB1130D05B1E08D032
:104690009B1E072B15D9083B012B1AD9DB1E1ED0F8
:1046A000704700F5F173802A05D193F902100029B3
:1046B00023D000F0BABA93F90120002A1DD000F0EF
:1046C000F6BA00F5F17292F90420002A15D000F034
:1046D00073BB90F9E221002A0FD0FDF7BBBE00F5B5
:1046E000F17292F90320002A07D000F0FEBE026AA0
:1046F0001278002A01D001F094B8704770B50446D2
:104700000E4696F9010004F2E115002806D095F94D
:104710000110002902D1012068700AE0002808D1A8
:1047200095F90100012804D1002068702046FDF7AA
:1047300045FC96F90300002809D095F903100029DB
:1047400005D10120E870204600F010FA0AE00028A8
:1047500008D195F90300012804D10020E870204613
:1047600000F034FA96F90400002809D095F90410F5
:10477000002905D101202871204601F03EF80AE009
:10478000002808D195F90400012804D100202871DF
:10479000204601F03AF896F90200002809D095F970
:1047A0000210002905D10120A870204600F06FFA00
:1047B0000AE0002808D195F90200012804D1002060
:1047C000A870204600F072FA96F90500002809D07A
:1047D00095F90510002905D101206871204600F0E7
:1047E0000FFE0AE0002808D195F90500012804D140
:1047F00000206871204600F02FFE96F90000002886
:1048000006D095F90010002902D10120287070BD52
:1048100000280AD195F90000012806D1002028704F
:104820002046BDE8704001F05AB870BD000000009D
:104830003EB5044604F5F07528780A4603469A42C8
:1048400024D0002906D0042933D0052920D07F297F
:104850000ED040E076A0D0E90023CDE9002300206F
:10486000287069462046FFF749FF2046A968884717
:1048700071A0D0E90023CDE900237F20287069468C
:104880002046FFF73BFF2046E968884728783EBD71
:10489000002820D06AA0D0E90023CDE9002305201C
:1048A000287069462046FFF729FF20462969884776
:1048B000ECE700280FD000BF63A0D0E90023CDE9CA
:1048C00000230420287069462046FFF717FF204682
:1048D00069698847DAE7FF203EBD006800787047C5
:1048E0002DE9F84384B004460D006069008800F0AB
:1048F00090802F46802F80F28C80002821D0616824
:1049000051F830104969226812780B68164606F58E
:10491000C066B34201D0FF2A02D107F5C0620A6027
:10492000616851F83000006A2168097802680B4616
:1049300003F5B0639A4201D0FF2902D107F5B061B7
:1049400001604FF0000960698688A069B0F80480B2
:104950004FEA0D003EA11022FDF7A2FA002E19D158
:104960001DE0606850F836004069216809786A46A1
:1049700052F8292003688C469444634501D0FF29EE
:1049800002D129468A18026009F101095FFA89F902
:10499000761CB6B2B04502DBB9F1040FE1DB606909
:1049A0000689A069B0F808804FEA0D002CA11022FA
:1049B000FDF776FA0020002E18D11BE0616851F84F
:1049C00036104969226812786B4653F82030D1F8C6
:1049D00000C096469E44F44501D0FF2A02D12A46E3
:1049E000D3180B60401CC0B2761CB6B2B04501DBD8
:1049F0000428E3DB20680078D4F880120A680346B4
:104A000080339A4201D0FF2801D180370F6020689F
:104A1000057005B0BDE8F0837047016A0978002988
:104A200003D18122002100F070BF704770477047AA
:104A30000100000000000000000101010100010070
:104A4000000101010101000000000000010001005F
:104A50000002000000030000000400000005000048
:104A6000800100008002000080030000800400003C
:104A700010B404881D4B98420ED0224A90420BD0AD
:104A8000B0F1804F08D01A4A904205D0194A90429E
:104A900002D0194A904204D14FF68F7214404A88CE
:104AA0001443164A904207D0154A904204D04FF65C
:104AB000FF421440CA88144304808A8882850A8889
:104AC000028598420BD00F4A904208D00E4A90427D
:104AD00005D00E4A904202D00D4A904201D1097A87
:104AE00001860121818210BC70470000002C01402A
:104AF0000004004000080040000C0040001000408E
:104B000000140040003401400040014000440140D6
:104B100000480140002904D0018841F001010180D2
:104B2000704702884FF6FE710A4002807047002AE3
:104B3000828902D011438181704722EA010181817B
:104B4000704702460020138A0B4092891140002BC7
:104B500002D0002900D001207047C943018270476C
:104B600059E080B500F002F8002002BD38B50446D7
:104B7000B4F92E0210F1010F02D0204600F026F801
:104B8000104D2B46002241F205012046FFF7A4F804
:104B90002B46002241F206012046FFF79DF804F55E
:104BA0000C700168096849000BD540680368002B48
:104BB00007D00093044A00212046FFF7A9F8A4F883
:104BC0002E0231BD634B0008614B000810B504464E
:104BD00000231A4641F20501FFF77EF800231A462A
:104BE00041F206012046FFF777F8B4F92E02FFF7ED
:104BF000DCF8A4F82E0210BDE0B500F50C700168D9
:104C00000968ADF800100021ADF802106946C069CE
:104C1000FFF7BDF90EBD38B50446FFF7EDFF0546B9
:104C2000204600F002F8284632BD70B5044604F56F
:104C30000E752968884794F9E601002801D1002003
:104C400070BD0121204600F0F9FA06462046696849
:104C50008847304670BD70477047000030B400F59B
:104C60001D721168097800290ED1002106E0002389
:104C700054680D46EDB244F82530491C0B4690F8B7
:104C80007142DBB2A342F2D3002030BC704710B5B2
:104C90000446054B002241F20301FFF71DF80020F6
:104CA000D4F87412087010BD5D4C00087047CA78C3
:104CB000082A00D0704710B58B790A794C7942EAFE
:104CC0000422097801F07F01D0F8A442A04710BD6A
:104CD000704700002DE9F84F88B0436944685D894A
:104CE00004EBC50505EBC1074FF00008C1463D6860
:104CF000D5F808A01B8904EBC30353F831104969A8
:104D00000968C1F30A0111804146917005461646B3
:104D10000022082106A8FFF7F5F93868143041464B
:104D2000C9B201EB41029100405804682146090CC8
:104D300004F0FF04002C29D004EB090BBBF1410F58
:104D400024D2621ED208521C059201220392002234
:104D5000029204AA019205AA009206AB0268120A06
:104D6000D2B22846FEF796FE002821D100200290FC
:104D700009F007000190301D00EBD90000900023DE
:104D80001A4606A9204600F042F9D94608F1010862
:104D900040469AF80010C0B28842B9D3A9F101097F
:104DA0004FEAD90909F1010986F80390002000E0D3
:104DB000FF2009B0BDE8F08F2DE9F84F88B002233D
:104DC0004FF000094D46AA468A78002A40F0A68096
:104DD000426992888469A488002A04D1484609B0AF
:104DE000BDE8F08F04239442F8DB1E46022E02D069
:104DF000042E0CD0F7E7466856F83260766936889C
:104E00000F88BE42EED06D1C521C92B2EBE7426995
:104E1000B2F806B0A8465FFA88F8426802EBCB0207
:104E200052F83820926806460F468DF80C500792CB
:104E300038E02C78002C33D0F878C00004EB09015E
:104E400088422DDB00200290019005A800900023ED
:104E50004846801009EB5070C010A9EBC000024614
:104E6000D2B2381D494600EBE101204600F0CFF8F0
:104E7000601EC010401C0490296801200290002090
:104E8000019004A8009005AB0A46120AD2B2090CA0
:104E90003046FEF76CFE00281FD14C44E4B2A14618
:104EA0000AF1010A504607990978C0B2884216D221
:104EB0000022082105A8FFF725F9706800EBCB0058
:104EC00050F8380014305146C9B201EB410291004C
:104ED0004558002DADD1FF2081E7FF207FE7F06826
:104EE000002819D0716851F83B10496C0C88002CCF
:104EF00012D030F91800FEF758FF002000904FF450
:104F00007A704443234632699DF80C103046FEF710
:104F1000FFFEF16821F81800002060E7012A7FF405
:104F20005DAF01264269128983691B89002A3FF41B
:104F300055AF044600E004269342FFF64FAF3046DB
:104F4000012804D004280ED005284FD0F4E760686B
:104F500050F83200406900880F88B842EBD06D1CD1
:104F6000521C92B2E8E7606850F83200006A00789C
:104F7000FD280AD0FC2812D12846C0B200EBC0069A
:104F80007000A668375CFF0701D40526D4E73044DB
:104F9000811DD4F84C02FEF7FAFF48461FE7FF28B0
:104FA00001D0FE2820D12846C0B200EBC0014E003F
:104FB000A068801C805FFEF7F8FEA168891C8853FA
:104FC000A068001D805FFEF7F0FEA168091D8853F0
:104FD000A068815D01F0FE018155EDB229462046B1
:104FE00000F008F94846FAE6FF20F8E66A46294646
:104FF000C9B22046FFF76EFE002801D0FF20EEE682
:105000006946D4F84C02FEF7C2FF4846E7E62DE9B0
:10501000F043079E089D099C14E04FF0010C0FE03F
:10502000012529447546AC465FFA8CFCBCF1080F9B
:1050300007DB0025A446BCF1000FEED04FF0FF3C8B
:105040006644C01B0746FFB2002F3FD0AF1A7FB2A5
:1050500091F800C0012F02DB0CFA07FC03E0C7F156
:10506000000E4CFA0EFC02DBC5F1080701E0C2F1AC
:1050700008078646B8465FFA8EFE5FFA88F8C6458E
:1050800002D20746FFB200E0FFB207EB050E4FF079
:10509000FF0808FA0EF9C5F1080548FA05F848EACC
:1050A0000908357808EA050535702CEA080C4CEA41
:1050B000050C86F800C0BA181546EDB2082DB1DB14
:1050C00000221D00ACD04FF0FF35AAE7BDE8F08309
:1050D00038B504461546A06801EBC10200EB42005A
:1050E000801D29460C22FCF7CBFE2946D4F84C0241
:1050F000BDE83440FEF74BBF2DE9FF4106460F46A1
:1051000096F9E60100282DD0384600EBC0014FEAA1
:105110004108B06810F80800C00723D470690489FA
:1051200038460419A4B200220C2101A8FEF7EAFFB8
:1051300001AA39463046FFF7CDFD002812D1B068EC
:105140004044C188BDF8042091420DD1417A9DF8B8
:105150000720914208D1082202A90A3000F0FAFB88
:10516000002801D1002041E0706850F83400416C03
:105170000C88C06A0588002C14D0B0684044B0F98F
:105180000200FEF712FE002000904FF47A704443B4
:1051900023460FF2610239463046FEF7B9FDB16889
:1051A00041444880002D1BD0B068001D30F9080034
:1051B000FEF7FBFD00200090642045432B460FF2D4
:1051C000590239463046FEF7A3FDB168091D21F8A2
:1051D0000800B06810F8081041F0010100F808104C
:1051E00001AA39463046FFF773FF012004B0BDE83D
:1051F000F081000018B401EBC1024FF0FF33846866
:1052000004EB420463800023846804EB4202D380F1
:10521000C9B214BC70E7000018B401EBC10252001F
:105220004FF0FF3384681444A38083689C5C04F0CF
:10523000FE049C54C9B214BC5EE770472DE9FE43DE
:1052400005460E4600274FF0030968690489A869DE
:10525000B0F8088095F9E601002800F09A80002C4B
:1052600000F097803A460C216846FEF74BFF01E0BC
:105270004FF00B09A045C0F28C80B9F1030F06D0A6
:10528000B9F1050F74D0B9F10B0F79D07FE06868E0
:1052900050F83400416909680029E9D4016A3000F6
:1052A00026D00878002823D0F12821DAAA6807EB55
:1052B000C7004000135C5B1C1354AA68135C91F890
:1052C00000C0634514D1002111540A460C216846E0
:1052D000FEF718FF6A46384601462846FFF7FAFCF3
:1052E000002802D04FF00B09C4E74FF00509C1E7D1
:1052F00030001FD00878FC281CD107EBC7004FEA0C
:105300004009A8684844821D384601462846FFF7F0
:10531000E1FC0028A86810F8091004D001F0FE0193
:1053200000F8091003E041F0010100F809104FF006
:105330000B099FE7300002D0087800280DD030001C
:1053400013D10878FF2801D0FE280ED1A86807EBFA
:10535000C7014900405CC00707D4384601462846CB
:10536000FFF7CAFE4FF00B0984E74FF00B0981E706
:105370006A4639462846FFF7ABFE4FF00B0979E73E
:105380007F1CFFB2641CA4B24FF0030972E7FF2038
:1053900000E00020BDE8FE8370B504460D4694F998
:1053A000E60100282AD0921E012A01D9D21E25D159
:1053B00060686169098900EBC1002D1AED10EDB23A
:1053C00005EBC5004600A0683044B0F90200FEF7C6
:1053D000ECFCA16831444880A0683044B0F9040076
:1053E000FEF7E3FCA168314488800020A16888555D
:1053F00029462046FFF7FEFE002070BD002070BD4C
:10540000FEB504464FF4C05560690689A069078956
:10541000300016D119E06B4601AA294689B2204610
:10542000FEF750FC0198002809D10098002806D00A
:105430000848009988600099C860009948616D1C0F
:10544000761C304680B28742E5DA00212046FFF71D
:10545000F5FEF7BD995300082DE9F04104460025FB
:1054600060690689A0690789300020D123E005EB37
:10547000C5004FEA4008A0684044B0F90200FEF7BA
:1054800094FCA16841444880A0684044B0F90400FD
:10549000FEF78BFCA168414488800020A16801F8D8
:1054A0000800A1684144C8806D1CEDB2761C3046EE
:1054B00080B28742DBDABDE8F081000030B40A46F2
:1054C00000F50173196851F82210090C4FF0FF34F0
:1054D0005D6825F8124001220C46E4B2044484F8C9
:1054E0001822C9B21A6930BC10472DE9FF410546A0
:1054F0000E7806F07F068878012825D12868007884
:1055000001468E426CD100F5E060ADF8000001204C
:105510008DF8030000208DF8020095F8E0118DF859
:10552000041005F512721078002806D041F08001B1
:105530008DF804100020107001E001201070694601
:105540005068FEF724FD4BE00C7904F07F043046F0
:1055500005EB000805F5F077B86C007888F82C02A8
:1055600098F818022146884206D02246314628463D
:105570007B6E984788F8184298F81802002803D1E3
:10558000314628463A6E904798F818020F2827D0DF
:105590004FF0000820E0786A50F828403046214655
:1055A000090CC9B2884213D1A4B2B86A30F9180004
:1055B000FEF7FBFB002000904FF47A704443234633
:1055C000774A41462846FEF7A3FBB96A21F818003E
:1055D00008F101085FFA88F8386A00788045DADB5C
:1055E000BDE8FF811FB500F5F074E16A0988002964
:1055F00013D00068007800F5E060ADF800000120ED
:105600008DF8030000208DF8020020788DF804004A
:105610006946E06EFEF7BBFC1FBDB4F93000FEF733
:10562000C4FB20861FBD70B5054605F5087460688B
:10563000008800282AD00026022E2DDAA81990F81A
:1056400018020F281FD02868007886421BD0A8199E
:1056500090F82C0200280AD12268002A03D0304694
:105660000146284690470120A91981F81802A81977
:1056700090F82C02401EA91981F82C0230460146F0
:10568000284600F055F9761CF6B2D5E7B5F91A02AE
:10569000FEF78BFBA5F81A0270BD10B5044600F0AA
:1056A000A3F8204600F041F8002010BD10B50446D4
:1056B00000F080F8204600F002F8002010BD7CB514
:1056C0000446384B002241F21701FEF705FB00208B
:1056D00084F84802064604F5007513E0686830F85F
:1056E0002630002B0CD0002000904FF47A704343FA
:1056F0002B4A31462046FEF70BFBA96821F816001D
:10570000761CF6B2286800788642E7DBE8680388F2
:10571000002B09D04FF47A7043430093224A0021B2
:105720002046FEF7F5FA288273BD38B504461F4DB2
:105730002B46002241F20C01FEF7CEFA2B46002246
:1057400041F20D012046FEF7C7FA04F509752868F5
:105750000388002B22D06868007800281ED04FF400
:105760007A7043430093124A00212046FEF7D0FA94
:10577000A4F81A0200200FE0211891F818120F293E
:1057800008D021680978884204D06968097822180D
:1057900082F82C12401CC0B20228EDDB31BD0000A3
:1057A000BD540008AD560008E55500089B5600089A
:1057B0002756000870B50446002504F5007609E078
:1057C000B06830F91500FEF7F0FAB16821F815005D
:1057D0006D1CEDB2306800788542F1DBB6F910003F
:1057E000FEF7E3FA308270BD10B50446B4F91A0230
:1057F000FEF7DBFAA4F81A0210BD10B50446FFF755
:105800005EFF2046BDE810408FE710B50446FFF765
:10581000D1FF2046BDE81040E6E77047704770476B
:10582000704770B5044604F5F0752A787F2A03D0D6
:10583000052A01D0042A51D14879002803D02368D1
:105840001B7898424AD10879012808D0022810D044
:10585000802818D0812820D0822829D070BD7F2AA6
:1058600001D0042A3AD105212046BDE87040FEF758
:10587000DFBF7F2A01D0052A30D104212046BDE8B0
:105880007040FEF7D5BF052A01D0042A26D17F211A
:105890002046BDE87040FEF7CBBFA969002901D0C2
:1058A0002046884700212046BDE87040FEF7C0BF73
:1058B0002046FFF712F80646E969002901D0204684
:1058C0008847FF202168087031462046FFF708F816
:1058D00000212046BDE87040FEF7AABF70BDE0B5CC
:1058E0000168097841F4E061ADF8001000218DF8FD
:1058F000021001218DF8031000218DF80410694673
:10590000D0F84C02FEF743FB0EBDE0B50023ADF826
:1059100000308DF8023002238DF803308DF804201A
:105920008DF805106946D0F84C02FEF730FB0EBD2D
:10593000E0B541F4E061ADF8001001218DF80210EE
:1059400000218DF803106946D0F84C02FEF71FFBCA
:105950000EBD00000300002013F0030F09D0521EFB
:1059600022BF13F8010B11F801CBB0EB0C00F3D000
:10597000704711F0030F14D1121F22BF53F8040B0C
:1059800051F804CB6045F7D0121D0AD200BA9CFA38
:105990008CFCB0EB0C0038BF6FF0000088BF01201A
:1059A0007047521E22BF13F8010B11F801CBB0EB68
:1059B0000C00F6D0521C08BF1046704700EB4001A7
:1059C0004903491C0846411E0028FBD1704780B599
:1059D00000F038F94FF4803000F04DF900F065F92F
:1059E00001282BD1002000F090F9002000F09BF955
:1059F0004FF4806000F090F94FF4404000F09EF9C1
:105A0000002000F098F9022000F04AFA102000F07F
:105A10004FFA4FF450114FF4803000F05FF901203D
:105A200000F064F9392000F00CFA0028FAD00220C6
:105A300000F05FF900F064F90828FBD101BD10B552
:105A40000446214640F63D0000F0CFF921460320F0
:105A500000F0C0F921466A48BDE8104000F0D0B916
:105A600080B500214FF00060FEF7E8FD4FF4A06024
:105A7000BDE80240FEF7B0BD80B5002204216846B3
:105A8000FEF740FB01215F48FEF7A8FB10208DF8D0
:105A9000030003208DF802000220ADF800006946E3
:105AA0005948FEF74DFB01BD80B5FFF790FFFFF7AA
:105AB000D7FF0120FFF7C3FFFFF7DEFF00F004FA76
:105AC00000F0DAFA514800F040F95148FEF7DAF9EF
:105AD000002800D0FEE700F053FB00F03FFB4FF43E
