:020000040800F2
:10000000802F0020C1550108053701080737010876
:10001000093701080B3701080D37010800000000FF
:100020000000000000000000000000000F37010881
:1000300011370108000000001337010815370108C7
:1000400001570108055701080957010857370108EA
:100050000D570108115701081557010819570108D4
:100060001D57010821570108255701082957010884
:100070002D57010831570108355701083957010834
:100080003D570108415701084557010849570108E4
:10009000E93701084D570108515701085557010824
:1000A0005957010871E800085D57010861570108B8
:1000B00065570108695701086D5701087157010814
:1000C00075570108795701087D57010881570108C4
:1000D00085570108895701088D57010881370108A4
:1000E0009157010895570108995701089D57010834
:1000F000A1570108A5570108A9570108AD570108E4
:10010000B1570108B5570108B9570108BD57010893
:10011000C1570108C5570108C9570108CD57010843
:10012000D1570108D5570108D9570108DD570108F3
:1001300062F30F2262F31F42401810F0030308D04D
:10014000C91A1FD3DB0748BF00F8012D28BF20F8CC
:10015000022D130030B414461546103928BF20E98B
:100160003C00FAD8490728BF20E90C0048BF40F8F6
:10017000042D890028BF20F8022D48BF00F8012D6A
:1001800030BC7047C91818BF00F8012DCB0728BF35
:1001900000F8012D7047120001300101010001102B
:1001A0000302070000040B1004F01C0020020518D5
:1001B000110C4004651F0020009F0C12660C612486
:1001C00012F42452000C22F83010020900000A0C2C
:1001D00092B00C92BC0C92C854836C123C83041DE8
:1001E0000C92080C920C0C92100C92140C92180C9D
:1001F000921C0C92200C92240C92280C922C0C92A3
:10020000300C92340C92380C923C0C92400C92447C
:100210000C92480C924C0C92500C92540C92580C2C
:10022000925C0C92600C92640C92680C926C0C9232
:10023000700C92740C92780C927C0C92800C9284CC
:100240000C92880C928C0C92900C92940C92980CBC
:10025000929C0C92A00C92A40C92A80C92AC0C92C2
:10026000B00C92B40C92B80C92BC0C92C00C92C41C
:100270000C92C80C92CC0C92D00C92D40C92D80C4C
:1002800092DC0C92E00C92E40C92E80C92EC0C9252
:10029000F00C92F40C92F80C92FC0C83001E0C9261
:1002A000040C92080C920C0C92100C92140C9218E4
:1002B0000C921C0C92200C92240C92280C922C0C68
:1002C00092300C92340C92380C923C0C92400C926E
:1002D000440C92480C924C0C92500C92540C925834
:1002E0000C925C0C92600C92640C92680C926C0CF8
:1002F00092700C92740C92780C927C0C92800C92FE
:10030000840C92880C928C0C92900C92940C929883
:100310000C929C0C92A00C92A40C92A80C92AC0C87
:1003200092B00C92B40C92B80C92BC0C92C00C928D
:10033000C40C92C80C92CC0C92D00C92D40C92D8D3
:100340000C92DC0C92E00C92E40C92E80C92EC0C17
:1003500092F00C92F40C92F80C92FC0C1E004806E1
:1003600022800851101378061C1E068006110C8F7F
:10037000401F28068F6D1270069E0C7C0692100C92
:1003800092140C43181F481280406144926E4483BB
:10039000D0060C22D4748202289E6F940622FC1C84
:1003A000511883691F9C83421F18926A189244183F
:1003B000226B0C82035892705883540728926C4029
:1003C000924640926D18924818226E0C8204589200
:1003D000715892AC58926F40924A40927018924C69
:1003E0001852710C6158AE729C07820828927240B4
:1003F000924E40927318925018A27424915483889C
:100400001B0C928C0C92900C92940C92980C929CD7
:100410000C92A00C93A41B78916C92A82492AC0C23
:1004200092B00C92B40C92B80C92BC0C92C00C928C
:10043000C46C92756C92C82492CC0C92D00C92D45D
:100440000C92D80C92DC0C92E00C92E46C92766CDC
:1004500092E82492EC0C92F00C92F40C92F80C922C
:10046000FC0C9E00C40912040C8B8001089277706A
:10047000830C0A8822781855F09652E49A750892EF
:10048000541812760C9E80680392795892645892A0
:100490007A589256409277589368128821589D68EE
:1004A00003927B5892BC58927940925858927A188D
:1004B000925A18227B58820458927C5883140B2835
:1004C000927C40925C40927D18925E18127E0C1EC7
:1004D000309B07F003071000032000016144917472
:1004E000836C0B0C92700C92740C92780C927C0CB6
:1004F00092800C92840C12880CF0030B08000120EF
:10050000000161B8918C92F84492FC0C83000C0CB1
:1005100092040C92080C920C0C92100C12140CF019
:1005200001140800028C927F8C92844492880C9271
:100530008C0C92900C92940C92980C929C0C22A091
:100540000C516C92806C9E082803920C0C92100C3B
:1005500092140C92180C921C0C92200C22240C1950
:100560002811038001006C19789A62345A634CA1F7
:100570001852803069A09281A89A1C7C22600C13CA
:1005800000FF01B20001F1231212644C2004F03389
:100590000108DC0D5410060000D7140108D05510D6
:1005A0001104F00F40BAE200086AF60008FD3101BC
:1005B00008153201080001F001FFFFFF0001F142C0
:1005C00001560F651003B9F50008BB0412D30412DD
:1005D000D504657C1A6804120404123C042DA40995
:1005E0002596F4046DE12001080F0F9E29AC12E757
:1005F00088123E943A67F4F16D0125182D10111EF2
:1006000000F00D1003BD060108BF0412E3A08FE542
:10061000201C031E55280387CDAF5CE201B54E01B7
:100620006C112D64112D8011F3117806D86002CD64
:1006300007010848200201020304042006060708F7
:100640000902040608941E6BA403F1070452FF017B
:10065000E356E51418010000D6042158F719E811F3
:100660005C52E1DC7001CFAF00941006E803FFFF9D
:100670007F040206011208014002060106FF0A0279
:010680000277
:105000004D33333331203233313231323031204776
:105010003233313231320000000000000000000065
:105020000000000000000000000000000000000080
:0250300000007E
:105034002DE9F84F8AB004000D0060694088ADF88E
:105044000A00BDF80A0000280CD05826A06941883F
:10505400BDF80A2006FB05F0204490F82C008218C5
:10506400914200DAC7E06168BDF80A2006FB05F04A
:10507400204490F82C00821851F83200C06A00686D
:105084008DF808004FF48077099700200890DFF826
:10509400E08CC146089A09994846FBF747F8DFF8BF
:1050A400549D00200090DFF8CC3C41F60122494693
:1050B400404605F017FB0A2005F0B1FB404605F019
:1050C400E9FB079700200690C246069A07995046C6
:1050D400FBF72CF842F6022A9DF808000090DFF84E
:1050E400983C52464946404605F0FCFA0A2005F031
:1050F40096FB404605F0DFFB059700200490C3466D
:10510400049A05995846FBF711F806FB05F020446C
:10511400808E0090DFF8643C52464946404605F0D4
:10512400E1FA0A2005F07BFB404605F0C4FB039737
:105134000027C3463A0003995846FAF7F7FF06FBDF
:1051440005F0204490F836000090DFF8343C5246D5
:105154004946404605F0C6FA0A2005F060FB404681
:1051640005F0A9FB5FF0FF3006FB05F12144A1F82F
:105174007E00852006FB05F1214481F82E00DFF82E
:10518400788CCDF8048006FB05F0204490F83600B6
:10519400009006FB05F02044838E06FB05F02044B6
:1051A40090F82C2006FB05F0204490F82D102000E8
:1051B40000F05AFF06FB05F02044C0F8308006FBDF
:1051C40005F02044D0F88000002808D09DF808108D
:1051D400200006FB05F22244D2F88020904706FB0B
:1051E40005F604EB0600006B404504D12900C9B262
:1051F400200000F0FCFB0BB0BDE8F08F38B50400D4
:1052040000252800C0B2052806DA2900C9B220000A
:1052140000F0EDFB6D1CF4E731BD2DE9F84F84B0CF
:1052240005000E004FF480773C005FF0000BDFF8C0
:10523400408BC1465A4621004846FAF777FFDFF80B
:10524400B49B43F6082A3000C0B20090DFF8AC3BB0
:1052540052464946404605F045FA0A2005F0DFFA71
:10526400404605F028FB58213000C0B2484328448A
:10527400806B002809D13000C0B248432844320072
:10528400D2B24A432A44D26B82633000C0B248434C
:105294002844806B0390039821281CD3012002909A
:1052A4000120019003A800903000C0B24843284474
:1052B400036E3000C0B24843284490F836203000D2
:1052C400C0B201FB00F105EB0100818E280005F05E
:1052D4001BFD04001CE0012002900120019003A8A2
:1052E40000903000C0B24843284410F1400330001D
:1052F400C0B24843284490F836203000C0B201FBC5
:1053040000F105EB0100818E280005F0FDFC04008E
:10531400002C01D0200018E001970027C3463A0072
:1053240001995846FAF702FF3000C0B20090DFF846
:10533400343D52464946404605F0D4F90A2005F06A
:105344006EFA404605F0B7FA002005B0BDE8F08FCC
:105354002DE9F84F88B005000E00202005904FF489
:10536400807407945FF00008DFF8049A4F464246C1
:1053740007993800FAF7DAFEDFF878AA58273000E0
:10538400C0B278432844808E0090DFF8743A43F624
:1053940005225146484605F0A5F90A2005F03FFAD2
:1053A400484605F088FA06945FF0000B4C465A46CE
:1053B40006992000FAF7BAFE3000C0B278432844B8
:1053C40090F836000090DFF83C3A43F60622514646
:1053D400484605F087F90A2005F021FA484605F009
:1053E4006AFA012003900120029004A8019005A804
:1053F40000903000C0B27843284410F140033000DC
:10540400C0B27843284490F836203000C0B27843C4
:105414002844818E280005F0A1FB0400DFF8DC0C91
:1054240084423BD1059840F60101884236D23000CF
:10543400C0B2784305EB0008059806F06DF8C8F88B
:1054440060003000C0B278432844006E002825D0A4
:105454003000C0B278432844059941660120039086
:105464000120029004A801903000C0B2784328447F
:10547400643000903000C0B278432844036E30009A
:10548400C0B27843284490F836203000C0B2784344
:105494002844818E280005F061FB0400002C01D013
:1054A40020000EE03000C0B278432844059981639F
:1054B4003000C0B207FB00F705EB07000021C16311
:1054C400002009B0BDE8F08F2DE9FE4F04000D0067
:1054D40016001F0058212800C0B248432044806BA6
:1054E4002A00D2B24A432244D26BB21890421DD24F
:1054F4004FF480795FF0000ADFF87488C34652469F
:1055040049465846FAF712FE0096DFF8F43B41F696
:105514001122DFF8F01B404605F0E4F80A2005F0FC
:105524007EF9404605F0B6F9FF206AE02800C0B2D3
:1055340048432044D0F83C802800C0B2484320446B
:10554400806B212814D200221000C0B2B0424BD28A
:105554002800C0B2484320441300DBB213EB080315
:10556400184490F840001300DBB2F854521CEBE7E7
:105574002800C0B248432044006E002820D14FF4D4
:10558400807001905FF00009DFF8E4A7D3464A4633
:1055940001995846FAF7CAFD2800C0B20090DFF816
:1055A400683B41F61122DFF85C1B504605F09AF87F
:1055B4000A2005F034F9504605F06CF9FF2020E08C
:1055C40000221000C0B2B0420ED22800C0B248433C
:1055D4002044006E1300DBB213EB0803C05C13001D
:1055E400DBB2F854521CECE72800C0B24843204414
:1055F4002B00DBB201FB03F12144C96B7118C163B9
:105604000020BDE8FE8F2DE9F84F84B005000E00A0
:1056140017005FF058093000C0B209FB00F02844BD
:10562400C06B01903000C0B209FB00F0284410F1B7
:1056340040083000C0B209FB00F02844C06B3818A1
:105644002128C0F0BE803000C0B209FB00F028441D
:10565400006E002850D13000C0B209FB00F005EB09
:1056640000044FF4006005F057FF20663000C0B21C
:1056740009FB00F028444FF4006141663000C0B2D9
:1056840009FB00F02844006E00281FD14FF48074F9
:105694005FF00009DFF8D8A6D3464A4621005846F1
:1056A400FAF744FD4FF400600090DFF8603A41F6E9
:1056B4001522DFF8501A504605F014F80A2005F0B8
:1056C400AEF8504605F0E6F8FF209AE00198009005
:1056D4003000C0B209FB00F0284410F1400430004F
:1056E400C0B209FB00F02844D0F860A0009A210061
:1056F400504607F0EBFA5DE03000C0B209FB00F061
:105704002844406E3100C9B209FB01F12944C96B38
:10571400791888424ED23000C0B209FB00F0284408
:10572400416E11F500613000C0B209FB00F028445D
:10573400006E07F020FB0400002C27D14FF480708A
:10574400039000200290DFF828A6D346029A03991A
:105754005846FAF7EBFC3000C0B209FB00F905EB40
:105764000900406E10F500600090DFF8A43941F69E
:105774001522DFF89019504604F0B4FF0A2005F012
:105784004EF8504605F086F8FF203AE03000C0B2EB
:1057940009FB00F0284404663000C0B209FB00F0A5
:1057A40028443100C9B209FB01F12944496E11F5BD
:1057B400006141663000C0B209FB00F02844006E6D
:1057C400804600210800C0B2B8420BD204980A00F7
:1057D400D2B2825C019B0800C0B2C31808F803204F
:1057E400491CEFE73000C0B209FB00F02844320046
:1057F400D2B209FB02F905EB0902D26BBA18C263F3
:10580400002005B0BDE8F08F2DE9FB4F84B0040003
:105814001500119E02AB2A00D2B29DF8141020008C
:1058240000F0B0FA07003800C0B200281DD14FF4D0
:1058340080785FF00009DFF838A5D3464A46414630
:105844005846FAF773FC9DF808000090DFF8C43856
:1058540043F62022DFF89C15504604F043FF0A204B
:1058640004F0DDFF504605F026F83800C0B20028E9
:1058740026D12800C0B2012822D19DF808102000AA
:1058840000F0B5F84FF480785FF00009DFF8E0A489
:10589400D3464A4641465846FAF748FC9DF8080064
:1058A4000090DFF8743843F62122DFF8481550469B
:1058B40004F018FF0A2004F0B2FF504604F0FBFF86
:1058C4003800C0B2002842D12800C0B202283ED11C
:1058D4004FF480785FF00009DFF894A4D3464A4679
:1058E40041465846FAF722FC9DF808000090DFF87C
:1058F4002C3843F60522DFF8FC14504604F0F2FE7F
:105904000A2004F08CFF504604F0D5FF5FF0580ADB
:105914009DF808000AFB00F02044B0F97E0007F06F
:105924008CFA9DF808100AFB01F12144A1F87E00CD
:105934009DF808000AFB00F02044852180F82E1011
:105944009DF808000AFB00FA04EB0A0006634FF412
:105954008078CDF80C805FF00009DFF814A4D346FA
:105964004A4603995846FAF7E1FBDFF888B4002069
:105974000090DFF8AC3743F622225946504604F033
:10598400B1FE0A2004F04BFF504604F094FF019648
:105994009DF840000090BDF818309DF814202900AF
:1059A400C9B2200000F060FB8DF804009DF80400EB
:1059B400002818D00027D1463A0041464846FAF755
:1059C400B5FB00200090DFF85C3743F623225946EC
:1059D400504604F087FE0A2004F021FF504604F0EC
:1059E4006AFFFF2000E0002007B0BDE8F08F2DE93A
:1059F400FE4304000D004FF480760027DFF8708327
:105A0400C1463A0031004846FAF790FB2800C0B27C
:105A14000090DFF8143743F62522DFF8D813404608
:105A240004F060FE0A2004F0FAFE404604F043FF4E
:105A34000020019000200090002300222900C9B218
:105A4400200000F020F8002120290BD22A00D2B235
:105A54005820424304EB02000844002280F840200E
:105A6400491CF1E758202A00D2B2424322440023C1
:105A740082F82D302A00D2B200FB02F0204400222A
:105A84000263BDE8F7832DE9FE4F82B006000F00E4
:105A94000E9C0F9D4FF4807ACDF804A05FF0000BAC
:105AA400DFF8CC82C1465A4601994846FAF73EFBD4
:105AB400DFF840933800C0B20090DFF8703643F648
:105AC40025224946404604F00DFE0A2004F0A7FEB4
:105AD400404604F0F0FE2800C0B202280BD0280093
:105AE400C0B2032807D02800C0B2042803D028007D
:105AF400C0B205282ED1CDF804A05FF0000AC34639
:105B0400524601995846FAF711FB3800C0B200908A
:105B1400DFF81C3643F606224946404604F0E2FD0F
:105B24000A2004F07CFE404604F0C5FE00200090EC
:105B3400DFF80036DFF800263900C9B2300007F07C
:105B440021F93A00D2B258214A4306EB0201A1F8E6
:105B54007E002BE0CDF804A05FF0000AC346524655
:105B640001995846FAF7E2FA3800C0B20090DFF81B
:105B7400AC3543F605224946404604F0B3FD0A20FD
:105B840004F04DFE404604F096FE58203900C9B298
:105B9400414306EB01083900C9B200FB01F030446F
:105BA400B0F97E0007F049F9A8F87E005FF05808C4
:105BB4003800C0B208FB00F030449DF80C1080F8A7
:105BC4002C103800C0B208FB00F03044BDF81010AF
:105BD40081863800C0B208FB00F0304480F83640BB
:105BE4003800C0B208FB00F0304480F82E50380072
:105BF400C0B208FB00F03044002180F82F103800B8
:105C0400C0B208FB00F03044002181633800C0B208
:105C140008FB00F030440021C1633800C0B208FB27
:105C240000F03044002180F868103800C0B208FB4E
:105C340000F03044002180F869103800C0B208FB3D
:105C440000F03044002180F86A103800C0B208FB2C
:105C540000F030440021C1663800C0B208FB00F0F7
:105C64003044002180F870103800C0B208FB00F006
:105C74003044002180F871103800C0B208FB00F0F5
:105C84003044002180F872103800C0B208FB00F0E4
:105C94003044002180F873103800C0B208FB00F0D3
:105CA4003044002180F87C103800C0B208FB00F0BA
:105CB40030440021C0F880103800C0B208FB00F066
:105CC4003044006E07F055F83800C0B208FB00F00D
:105CD4003044002101663800C0B208FB00F806EB2E
:105CE400080000214166002005B0BDE8F08F2DE9D1
:105CF400F84F04000D00160000273800C0B2052834
:105D040015DA58213800C0B24843204490F82E00D8
:105D140000280AD137703800C0B201FB00F104EB4F
:105D2400010080F82D50002020E07F1CE5E74FF4AF
:105D340080785FF00009DFF8D0A0D3464A46414698
:105D44005846FAF7F3F93800C0B20090DFF8EC33A4
:105D540041F62522DFF8AC13504604F0C3FC0A20B8
:105D640004F05DFD504604F095FDFF20BDE8F28F80
:105D74006C180020184B01083453010848530108DB
:105D84005C530108F0B4040000252800C0B20528C3
:105D94002DDA58262800C0B27043204490F82E0013
:105DA400002822D02800C0B27043204490F82E006E
:105DB40085281AD02800C0B27043204490F82C00E3
:105DC4000F00FFB2B84210D12800C0B206FB00F6A3
:105DD40004EB060090F82D001600F6B2B04204D190
:105DE400002B00D01D70002002E06D1CCDE7FF20C9
:105DF400F0BC704710550108000004056C50010800
:105E0400F0510108205501086C18002030B403003B
:105E140058240800C0B260431844806B002802D1A3
:105E2400002010600DE00800C0B260431844856B88
:105E34000800C0B204FB00F403EB0400C06B2D1A8D
:105E44001560002030BC704710B403000C00E4B2AD
:105E54005820444303EB04008263002010BC7047C5
:105E64002DE9F34F85B0040015001E004FF4807730
:105E7400BA465FF0000BDFF8C882C1465A46514665
:105E84004846FAF753F9DFF87C9200200090AD4BB6
:105E940043F638224946404604F024FC0A2004F024
:105EA400BEFC404604F007FD94F8E40105281DD02B
:105EB40094F8E4017F2819D05FF0000AC3465246E3
:105EC40039005846FAF732F994F8E40100909E4BF1
:105ED40042F639224946404604F004FC0A2004F004
:105EE4009EFC404604F0E7FCFF20B8E09DF8180053
:105EF40001284DD16069B0F800A0504680B2002856
:105F040008D0A0690188524692B22800C0B2821813
:105F1400914218DA04970027C3463A000499584678
:105F2400FAF704F900200090884B41F642224946D2
:105F3400404604F0D7FB0A2004F071FC404604F00C
:105F4400A9FCFF208BE06168524692B22800C0B2DF
:105F5400821851F83200006A0068ADF80400049712
:105F64000027C3463A0004995846FAF7DFF8BDF80B
:105F740004000090764B43F641224946404604F023
:105F8400B1FB0A2004F04BFC404604F094FC4CE0C6
:105F94006069B0F802A0504680B2002808D0A06919
:105FA4004188524692B22800C0B28218914218DA4F
:105FB40004970027C3463A0004995846FAF7B6F8FE
:105FC40000200090634B41F642224946404604F0CB
:105FD40089FB0A2004F023FC404604F05BFCFF200C
:105FE4003DE06168524692B22800C0B2821851F86E
:105FF400320040690068ADF8040004970027C346E6
:106004003A0004995846FAF791F8BDF80400009054
:10601400514B43F641224946404604F063FB0A20B3
:1060240004F0FDFB404604F046FC00208DF8060019
:1060340008208DF8070000273800C0B2082809DAC4
:106044003800C0B2305C01A93A00D2B211440871E0
:106054007F1CF1E701A9D4F84C0307F045F807B019
:10606400BDE8F08F885001082DE9F34F83B0150087
:106074001E000E9C0F9F4FF480785FF00009DFF83C
:10608400C0A0D3464A4641465846FAF74FF800970F
:10609400234B42F650221B49504604F023FB0A20AE
:1060A40004F0BDFB504604F006FC80208DF804008B
:1060B40030008DF80500300080B2000A8DF806002B
:1060C4008DF8074038008DF808003800000A8DF874
:1060D40009003800000C8DF80A003800000E8DF815
:1060E4000B0001AB2A00D2B29DF810100398FFF701
:1060F400B7FEC0B205B0BDE8F08F0000050004058E
:10610400684901081055010894490108C04901086B
:1061140064470108A4500108444E0108C050010816
:1061240070530108644E01080852010884530108A1
:10613400DC50010800127A0035500008B44C010804
:106144006C180020D056010804460108844E01084A
:1061540020520108A44E0108385201082DE9F34FDA
:1061640091B0050000208DF80B005FF0030A0020B9
:106174000C904FF4807701975FF0000BDFF8008EEE
:10618400C1465A4601994846F9F7D0FFDFF8F49D15
:1061940000200090DFF8F03D43F660224946404677
:1061A40004F0A0FA0A2004F03AFB404604F083FB12
:1061B40003208DF8090068690088ADF81600A86905
:1061C4000088ADF8220000208DF81400BDF81600F8
:1061D400002866D0BDF82200BDF81610884260D3AE
:1061E4006868BDF8161000EBC100007902281DDABA
:1061F4005FF0000AC346524639005846F9F796FF45
:106204009DF8140010F590500090DFF8803D41F6A1
:1062140061224946404604F065FA0A2004F0FFFA78
:10622400404604F037FBFF2004F00CBA6868BDF860
:10623400161050F8310040690C900C9800681299BF
:106244000988884222D101208DF8090001975FF066
:10625400000AC346524601995846F9F767FF9DF86C
:10626400140010F590500090DFF8503E43F662227F
:106274004946404604F036FA0A2004F0D0FA404673
:1062840004F019FB9DF8140004000AE09DF81400C2
:10629400401C8DF81400BDF81600401CADF8160023
:1062A40098E79DF80900032840F07F8068694088DA
:1062B400ADF81600A8694088ADF8220000208DF8DA
:1062C4001400BDF8160000286FD0BDF82200BDF8F8
:1062D4001610884269D36868BDF8161000EBC10037
:1062E400007904281DDA5FF0000AC34652463900DB
:1062F4005846F9F71BFF9DF8140010F594500090D0
:10630400DFF8BC3D41F663224946404604F0EAF911
:106314000A2004F084FA404604F0BCFAFF2004F09A
:1063240091B96868BDF8161050F83100006A0C90F5
:106334000C9800681299098888422BD102208DF8A4
:10634400090001975FF0000AC34652460199584676
:10635400F9F7ECFE9DF8140010F594500090DFF866
:10636400643D43F664224946404604F0BBF90A20E2
:1063740004F055FA404604F09EFA9DF81400040017
:106384006868BDF8161050F83100C06A00788DF8BE
:106394000B000AE09DF81400401C8DF81400BDF8B1
:1063A4001600401CADF816008FE79DF8090003287D
:1063B40002D1FF2004F046B91298C078082827D0EB
:1063C4005FF0000AC346524639005846F9F7AEFE5C
:1063D40000200090DFF8783E41F6672249464046A7
:1063E40004F080F90A2004F01AFA404604F052FA44
:1063F4005FF0006001900020009000239DF80920C8
:106404002100C9B22800FFF7FFF9FF2004F01AB9F0
:106414009DF8090002281AD101975FF0000AC346CB
:10642400524601995846F9F781FE2000C0B2009007
:10643400DFF8203E43F668224946404604F052F90C
:106444000A2004F0ECF9404604F035FA19E001970B
:106454005FF0000AC346524601995846F9F766FEB2
:106464002000C0B20090DFF8F03D43F669224946AF
:10647400404604F037F90A2004F0D1F9404604F00C
:106484001AFA02AB9DF809202100C9B22800FFF7CF
:1064940079FC8346FF208DF820005846C0B20028BE
:1064A40026D19DF80900012809D19DF8081058202B
:1064B400414305EB010090F82E0004280DD09DF80F
:1064C4000900022814D19DF808105820414305EB17
:1064D400010090F82E0005280AD11298007980282E
:1064E40003D104208DF8200002E006208DF820005E
:1064F4009DF82000FF2805D112980079C0B2400908
:106504008DF820009DF82000002810D0022800F00B
:10651400DA87C0F0E383042801F04987C1F07E8361
:10652400062802F0ED87C2F0298004F06FB89DF8C8
:106534000900012840F0F0815846C0B200280ED16D
:106544009DF808105820414305EB010090F82E00F7
:10655400022802D05FF0010B01E05FF0000B584607
:10656400C0B2002828D00A970027C2463A000A99E8
:106574005046F9F7DBFD2000C0B20090DFF8B83DCB
:1065840041F670224946404604F0ACF80A2004F073
:1065940046F9404604F07EF9DFF8A00D0190002092
:1065A400009000239DF809202100C9B22800FFF7BC
:1065B4002BF9FF2004F046B80A9700200190C24648
:1065C400019A0A995046F9F7B1FD9DF80800009028
:1065D400DFF86C3D43F607224946404604F082F852
:1065E4000A2004F01CF9404604F065F95FF0580AEB
:1065F4009DF808000AFB00F02844B0F97E0010F171
:10660400010F59D00E9700200D90CDF800800D9AFF
:106614000E990098F9F78AFD00989DF808000090FB
:10662400DFF8203D43F605224946404604F05AF877
:106634000A2004F0F4F8404604F03DF99DF80800FF
:106644000AFB00F02844B0F97E0006F0F6FB9DF842
:1066540008100AFB01F12944A1F87E000A970020E2
:106664000190CDF80080019A0A990098F9F75EFD2F
:1066740000989DF808000090DFF8CC3C43F6062211
:106684004946404604F02EF80A2004F0C8F8404673
:1066940004F011F900200090DFF8B03CDFF8B02CD2
:1066A4009DF80810280006F06DFB9DF808100AFB01
:1066B40001F12944A1F87E000A9700200190CDF849
:1066C4000080019A0A990098F9F730FD009820009B
:1066D400C0B20090DFF87C3C43F671224946404644
:1066E40004F000F80A2004F09AF8404604F0E3F8B5
:1066F4009DF808000AFB00F02844808EADF80C00D9
:106704009DF808000AFB00F0284490F836008DF844
:106714000A009DF808000AFB00F0284490F82F00B6
:1067240012990979C1F3001188422CD00A970027E5
:10673400C2463A000A995046F9F7F8FC12980079D3
:10674400C0F300100090DFF8103C41F67222494675
:10675400404603F0C7FF0A2004F061F8404604F005
:1067640099F8DFF8F80B01909DF80A000090BDF845
:106774000C309DF809202100C9B22800FFF744F825
:10678400FF2003F05FBF12980079C0F34200D0F1FC
:10679400070004901298431D049A9DF808102800DD
:1067A400FEF731FF83465846C0B2002811D05FF08F
:1067B400006001909DF80A000090BDF80C309DF82F
:1067C40009202100C9B22800FFF71EF8FF2003F0BA
:1067D40039BF9DF808000AFB00F0284490F82F0008
:1067E400000150F020008DF8180001200600082E4A
:1067F40004D2002006A98855761CF8E70A970020E1
:106804000190CDF80080019A0A990098F9F78EFC5E
:1068140000982000C0B20090DFF8443B43F6732296
:106824004946404603F05EFF0A2003F0F8FF404665
:1068340004F041F806AB2200D2B29DF809102800FA
:10684400FFF70EFB9DF808000AFB00F0284490F8BF
:106854002F00002801D1012000E000209DF808103D
:106864000AFB01FA05EB0A0181F82F00129800795E
:10687400C00740F131829DF808102800FEF7CDFCD6
:1068840009900998002828D00A970027C2463A00A0
:106894000A995046F9F74AFC00200090DFF8603E60
:1068A40041F654224946404603F01CFF0A2003F0F7
:1068B400B6FF404603F0EEFF099801909DF80A00E8
:1068C4000090BDF80C309DF809202100C9B22800C1
:1068D400FEF79AFFFF2003F0B5BE9DF808102800CC
:1068E400FFF785F801970027C2463A000199504600
:1068F400F9F71CFC2000C0B20090DFF8083E43F614
:1069040074224946404603F0EDFE0A2003F087FF57
:10691400404603F0D0FFDFE15846C0B200280ED154
:106924009DF808105820414305EB010090F82E0013
:10693400032802D05FF0010B01E05FF0000B584622
:10694400C0B2002828D00A970027C2463A000A9904
:106954005046F9F7EBFB9DF80B000090DFF8A83DDB
:1069640041F675224946404603F0BCFE0A2003F076
:1069740056FF404603F08EFFDFF8C0090190002067
:10698400009000239DF809202100C9B22800FEF7D9
:106994003BFFFF2003F056BE0A9700200190C24639
:1069A400019A0A995046F9F7C1FB9DF80800009036
:1069B400DFF88C3943F607224946404603F092FE3D
:1069C4000A2003F02CFF404603F075FF5FF0580ADD
:1069D4009DF808000AFB00F02844B0F97E0010F18D
:1069E400010F59D00E9700200D90CDF800800D9A1C
:1069F4000E990098F9F79AFB00989DF8080000900A
:106A0400DFF8403943F605224946404603F06AFE62
:106A14000A2003F004FF404603F04DFF9DF80800F0
:106A24000AFB00F02844B0F97E0006F006FA9DF84F
:106A340008100AFB01F12944A1F87E000A970020FE
:106A44000190CDF80080019A0A990098F9F76EFB3D
:106A540000989DF808000090DFF8EC3843F6062211
:106A64004946404603F03EFE0A2003F0D8FE404665
:106A740003F021FF00200090DFF8D038DFF8D028A1
:106A84009DF80810280006F07DF99DF808100AFB0F
:106A940001F12944A1F87E009DF808000AFB00F0EA
:106AA4002844808EADF80C009DF808000AFB00F025
:106AB400284490F836008DF80A009DF808000AFB77
:106AC40000F0284490F82F0012990979C1F30011BD
:106AD40088422AD00A970027C2463A000A995046AB
:106AE400F9F724FB9DF80B000090DFF8783D41F6A0
:106AF40076224946404603F0F5FD0A2003F08FFE56
:106B0400404603F0C7FEDFF8540801909DF80A00E0
:106B14000090BDF80C309DF809202100C9B228006E
:106B2400FEF772FEFF2003F08DBD12980079C0F3CA
:106B34004200D0F1070004901298431D049A9DF876
:106B440008102800FEF75FFD83465846C0B20028AF
:106B540011D05FF0006001909DF80A000090BDF82C
:106B64000C309DF809202100C9B22800FEF74CFE24
:106B7400FF2003F067BD9DF808000AFB00F02844DD
:106B840090F82F00002801D1012000E000209DF89A
:106B940008100AFB01F1294481F82F0012980079AA
:106BA400C00762D50A9700200190CDF80080019AB1
:106BB4000A990098F9F7BAFA00989DF8080000902D
:106BC400DFF8803743F605224946404603F08AFD44
:106BD4000A2003F024FE404603F06DFE9DF80800F1
:106BE4000AFB00F02844B0F97E0006F026F99DF86F
:106BF40008100AFB01F12944A1F87E009DF8080061
:106C04000AFB00F02844012180F82E109DF80800AA
:106C14000AFB00F02844D0F8800000280BD09DF82F
:106C24000B1028009DF808200AFB02FA05EB0A0263
:106C3400D2F88020904701970027C2463A00019974
:106C44005046F9F773FA9DF80B000090DFF8183EF0
:106C540043F677224946404603F044FD0A2003F0F8
:106C6400DEFD404603F027FE36E09DF808000AFBEF
:106C740000FA05EB0A0090F82F00000150F06000C4
:106C84008DF8180001200600082E04D2002006A961
:106C94008855761CF8E706AB2200D2B29DF809109D
:106CA4002800FFF7DDF801970027C2463A00019952
:106CB4005046F9F73BFA9DF80B000090DFF8AC3D25
:106CC40043F678224946404603F00CFD0A2003F0BF
:106CD400A6FD404603F0EFFD03F0B3BC9DF80900A8
:106CE400012840F0AB81129880791299497951EAD0
:106CF4000021ADF80C101298C0798DF80A00109795
:106D040000200F90C2460F9A10995046F9F70EFAD8
:106D14002000C0B20090DFF8583D43F6792249467E
:106D2400404603F0DFFC0A2003F079FD404603F0FF
:106D3400C2FD0E9700200D90C2460D9A0E99504642
:106D4400F9F7F4F9BDF80C000090DFF8BC3E4FF4FD
:106D54006A524946404603F0C5FC0A2003F05FFD31
:106D6400404603F0A8FD0A9700200190C246019A0C
:106D74000A995046F9F7DAF99DF80A000090DFF80D
:106D84008C3E4FF46A524946404603F0ABFC0A205D
:106D940003F045FD404603F08EFD5846C0B200287E
:106DA40029D10A970027C2463A000A995046F9F7B2
:106DB400BDF900200090DFF8583E41F68122494693
:106DC400404603F08FFC0A2003F029FD404603F0FF
:106DD40061FDDFF8680501909DF80A000090BDF898
:106DE4000C309DF809202100C9B22800FEF70CFDE3
:106DF400FF2003F027BC02AA9DF809102800FEF723
:106E040076FF83465846C0B2002829D00A97002747
:106E1400C2463A000A995046F9F788F900200090D2
:106E2400DFF8F03D41F682224946404603F05AFC21
:106E34000A2003F0F4FC404603F02CFDDFF8FC04C8
:106E440001909DF80A000090BDF80C309DF80920CF
:106E54002100C9B22800FEF7D7FCFF2003F0F2BBE3
:106E6400022001909DF80A000090BDF80C30220029
:106E7400D2B29DF808102800FEF705FE129800799A
:106E8400C0F34000002800F0898012980079C0F314
:106E94008100D0F10400049004999DF80820582042
:106EA400424305EB02008163129810F10803049A2F
:106EB4009DF808102800FEF7A6FB83465846C0B28A
:106EC400002811D05FF0006001909DF80A00009046
:106ED400BDF80C309DF809202100C9B22800FEF746
:106EE40093FCFF2003F0AEBB0A9700200190C2463A
:106EF400019A0A995046F9F719F900200090DFF831
:106F0400183D43F683224946404603F0EBFB0A2032
:106F140003F085FC404603F0CEFC9DF808102800E1
:106F2400FEF77BF909900998002831D00A970027C9
:106F3400C2463A000A995046F9F7F8F80020009042
:106F4400DFF8BC3741F684224946404603F0CAFBC9
:106F54000A2003F064FC404603F09CFC099801906D
:106F64009DF80A000090BDF80C309DF8092021001E
:106F7400C9B22800FEF748FCFF2003F063BB00BF42
:106F84006C18002010550108F4550108C44E01087E
:106F94009DF808102800FEF72AFD2FE012980079CA
:106FA400C0072BD51298007A1299497A10EB012068
:106FB4001299897A10EB01401299C97A10EB016099
:106FC4000490049A9DF808102800FEF73DFF8346BC
:106FD4005846C0B2002811D05FF0006001909DF8BF
:106FE4000A000090BDF80C309DF809202100C9B2B8
:106FF4002800FEF709FCFF2003F024BB60208DF875
:10700400180006A8BDF80C104170BDF80C1089B228
:10701400090A81709DF80A10C17004210E00082E1F
:1070240003D200218155761CF9E706AB2200D2B2C7
:107034009DF809102800FEF713FF42E25846C0B23B
:1070440000280ED19DF808105820414305EB01009B
:1070540090F82E00022802D05FF0010B01E05FF0EF
:10706400000B5846C0B200282ED00A970027C2460B
:107074003A000A995046F9F759F89DF80B00009028
:10708400DFF8843641F685224946404603F02AFB60
:107094000A2003F0C4FB404603F0FCFBA748019020
:1070A4000020009000239DF809202100C9B2280087
:1070B400FEF7AAFBFF2003F0C5BA00BFD84C0108B5
:1070C400E44E0108FC4C01080A9700200190C246D6
:1070D400019A0A995046F9F729F89DF8080000909A
:1070E400974B43F607224946404603F0FBFA0A2031
:1070F40003F095FB404603F0DEFB5FF0580A9DF871
:1071040008000AFB00F02844B0F97E0010F1010FDA
:1071140055D00E9700200D90CDF800800D9A0E9951
:107124000098F9F703F800989DF808000090854B43
:1071340043F605224946404603F0D4FA0A2003F0F8
:107144006EFB404603F0B7FB9DF808000AFB00F015
:107154002844B0F97E0005F070FE9DF808100AFB83
:1071640001F12944A1F87E000A9700200190CDF88E
:107174000080019A0A990098F8F7D8FF00989DF8C2
:1071840008000090704B43F606224946404603F03F
:10719400A9FA0A2003F043FB404603F08CFB0020CD
:1071A40000906A4B6A4A9DF80810280005F0EAFD31
:1071B4009DF808100AFB01F12944A1F87E009DF80E
:1071C40008000AFB00F02844808EADF80C009DF8FE
:1071D40008000AFB00F0284490F836008DF80A00F5
:1071E4009DF808000AFB00F0284490F82F0012993B
:1071F4000979C1F30011884230D00A970027C246AA
:107204003A000A995046F8F791FF9DF80B00009058
:10721400DFF8503641F686224946404603F062FACA
:107224000A2003F0FCFA404603F034FB4B4801907B
:107234009DF80A000090BDF80C309DF8092021004B
:10724400C9B22800FEF7E0FAFF2003F0FBB900BF43
:107254003055010898530108AC53010804AA9DF85D
:1072640008102800FEF7D2FD049800287AD10E9762
:1072740000200D90CDF800800D9A0E990098F8F733
:1072840055FF00989DF80B000090DFF8FC3D43F695
:1072940087224946404603F025FA0A2003F0BFFA44
:1072A400404603F008FB0A97002001904746019AE4
:1072B4000A993800F8F73AFF9DF808000090214B2E
:1072C40043F605224946404603F00CFA0A2003F02F
:1072D400A6FA404603F0EFFA9DF808000AFB00F016
:1072E4002844B0F97E0005F0A8FD9DF808100AFBBB
:1072F40001F12944A1F87E009DF808000AFB00F082
:107304002844012180F82E109DF808000AFB00F0A3
:107314002844D0F8800000280BD09DF80B102800DA
:107324009DF808200AFB02FA05EB0A02D2F8802035
:107334009047002003F086B93C3A01082100000878
:10734400044F0108C0500108DC50010800127A0003
:10735400355000080C430108F850010800000305EB
:10736400F03D0108049808283CD39DF808000AFB66
:1073740000F0284490F82F00002801D1012000E0FB
:1073840000209DF808100AFB01F1294481F82F0020
:107394009DF808000AFB00FA05EB0A0090F82F009C
:1073A40000018DF818000DF1190307229DF808104B
:1073B4002800FEF789F883465846C0B200285FD0FB
:1073C4005FF0006001909DF80A000090BDF80C3059
:1073D4009DF809202100C9B22800FEF715FAFF2004
:1073E40003F030B99DF808000AFB00F0284490F837
:1073F4002F00002801D1012000E000209DF8081092
:107404000AFB01F1294481F82F009DF808000AFBCA
:1074140000FA05EB0A0090F82F0000010499D1F15D
:10742400070150EA410050F001008DF818000DF1F9
:107434001903049A9DF808102800FEF745F88346BE
:107444005846C0B2002811D05FF0006001909DF84A
:107454000A000090BDF80C309DF809202100C9B243
:107464002800FEF7D1F9FF2003F0ECB80498401C83
:107474000600082E04D2002006A98855761CF8E7D9
:1074840001970027C2463A0001995046F8F74EFE8C
:107494009DF80B000090DFF8F43D43F6882249463E
:1074A400404603F01FF90A2003F0B9F9404603F0FF
:1074B40002FA06AB2200D2B29DF809102800FEF7AA
:1074C400CFFC03F0BEB89DF80900012840F0CC8140
:1074D400129880791299497951EA0021ADF80C107B
:1074E4001298C0798DF80A00109700200F90C246B8
:1074F4000F9A10995046F8F719FE2000C0B2009078
:10750400DFF88C3D43F689224946404603F0EAF809
:107514000A2003F084F9404603F0CDF90E970020C9
:107524000D90C2460D9A0E995046F8F7FFFDBDF82E
:107534000C000090DFF85C3D43F69022494640463B
:1075440003F0D0F80A2003F06AF9404603F0B3F9D7
:107554000A9700200190C246019A0A995046F8F70A
:10756400E5FD9DF80A000090DFF8AC3E43F6912259
:107574004946404603F0B6F80A2003F050F9404665
:1075840003F099F95846C0B2002844D10E97002060
:107594000D90C2460D9A0E995046F8F7C7FD9DF816
:1075A40008000090DFF8743E41F6922249464046B6
:1075B40003F098F80A2003F032F9404603F06AF920
:1075C4000A970027C2463A000A995046F8F7AEFDDA
:1075D4002000C0B20090DFF8483E43F693224946AB
:1075E400404603F07FF80A2003F019F9404603F0FF
:1075F40062F9DFF8300E01909DF80A000090BDF8A2
:107604000C309DF809202100C9B22800FEF7FCF8CF
:10761400FF2003F017B802AA9DF809102800FEF70E
:1076240066FB83465846C0B2002829D00A97002733
:10763400C2463A000A995046F8F778FD00200090B7
:10764400DFF8D03541F671224946404603F04AF846
:107654000A2003F0E4F8404603F01CF9DFF8C40DF7
:1076640001909DF80A000090BDF80C309DF80920A7
:107674002100C9B22800FEF7C7F8FF2002F0E2BFDC
:10768400032001909DF80A000090BDF80C30220000
:10769400D2B29DF808102800FEF7F5F99DF80810FD
:1076A4002800FDF755FE0990099800282ED00A9766
:1076B4000027C2463A000A995046F8F737FD099860
:1076C4000090DFF8A43E41F694224946404603F078
:1076D40009F80A2003F0A3F8404603F0DBF8099800
:1076E40001909DF80A000090BDF80C309DF8092027
:1076F4002100C9B22800FEF787F8FF2002F0A2BFDC
:1077040010400108944701086C3B010804AA9DF845
:1077140008102800FEF77AFB049805283BD3412083
:107724008DF8180006A8BDF80C104170BDF80C10B7
:1077340089B2090A81709DF80A10C1700499017117
:107744000499090A41710499090C81710499090E7B
:10775400C17101970027C2463A0001995046F8F7D3
:10776400E5FC9DF80B000090DFF8003E43F69522FF
:107774004946404602F0B6FF0A2003F050F840465E
:1077840003F099F806AB2200D2B29DF80910280044
:10779400FEF766FB35E20498D0F10400800050F057
:1077A40043008DF818000DF1180ABDF80C008AF892
:1077B4000100BDF80C0080B2000A8AF802009DF8AE
:1077C4000A008AF8030007AB049A9DF80810280001
:1077D400FDF77AFE83465846C0B2002811D05FF008
:1077E400006001909DF80A000090BDF80C309DF8EF
:1077F40009202100C9B22800FEF706F8FF2002F094
:1078040021BF0498001D0600082E04D200200AF8A7
:107814000600761CF8E701970027C2463A00019952
:107824005046F8F783FC2000C0B20090DFF8403DDA
:1078340043F696224946404602F054FF0A2002F0DD
:10784400EEFF404603F037F806AB2200D2B29DF8B3
:1078540009102800FEF704FB9DF808102800FEF725
:10786400C6F8CEE1504001085846C0B200280ED1F7
:107874009DF808105820414305EB010090F82E00B4
:10788400032802D05FF0010B01E05FF0000B5846C3
:10789400C0B2002828D00A970027C2463A000A99A5
:1078A4005046F8F743FC9DF80B000090DFF8C43C09
:1078B40041F697224946404602F014FF0A2002F09E
:1078C400AEFF404602F0E6FFDFF8580B01900020BF
:1078D400009000239DF809202100C9B22800FDF77B
:1078E40093FFFF2002F0AEBE0A9700200190C2462B
:1078F400019A0A995046F8F719FC9DF8080000907F
:10790400DFF8743C43F607224946404602F0EAFE9B
:107914000A2002F084FF404602F0CDFF5FF0580ACF
:107924009DF808000AFB00F02844B0F97E0010F12D
:10793400010F59D00E9700200D90CDF800800D9ABC
:107944000E990098F8F7F2FB00989DF80800009053
:10795400DFF8A43E43F605224946404602F0C2FE43
:107964000A2002F05CFF404602F0A5FF9DF80800E3
:107974000AFB00F02844B0F97E0005F05EFA9DF899
:1079840008100AFB01F12944A1F87E000A9700209F
:107994000190CDF80080019A0A990098F8F7C6FB87
:1079A40000989DF808000090DFF8503E43F6062248
:1079B4004946404602F096FE0A2002F030FF404657
:1079C40002F079FF00200090DFF8343EDFF8342E17
:1079D4009DF80810280005F0D5F99DF808100AFB59
:1079E40001F12944A1F87E009DF808000AFB00F08B
:1079F4002844808EADF80C009DF808000AFB00F0C6
:107A0400284490F836008DF80A0012980079C0F3E3
:107A14004000002800F0988012980079C0F381009B
:107A2400D0F104000490129810F10803049A9DF810
:107A340008102800FDF7E7FD8DF828009DF82800C0
:107A4400002817D05FF0006001909DF80A000090B4
:107A5400BDF80C309DF809202100C9B22800FDF7BB
:107A6400D3FEFF2002F0EEBD244F0108EC490108CB
:107A7400883A01080E9700200D90C3460D9A0E997E
:107A84005846F8F753FB9DF80B000090DFF86C3E66
:107A940043F698224946404602F024FE0A2002F0AA
:107AA400BEFE404602F007FF01970027C3463A0096
:107AB40001995846F8F73AFB9DF808000090DFF862
:107AC400383D43F605224946404602F00BFE0A20A3
:107AD40002F0A5FE404602F0EEFE9DF808000AFB07
:107AE40000F02844B0F97E0005F0A7F99DF80810CD
:107AF4000AFB01F12944A1F87E009DF808000AFB65
:107B040000F02844049981639DF808000AFB00F002
:107B14002844012180F82E109DF808000AFB00F08B
:107B24002844D0F8800000280BD09DF80B102800C2
:107B34009DF808200AFB02FA05EB0A02D2F880201D
:107B44009047002002F07EBD12980079C0072BD523
:107B54001298007A1299497A10EB01201299897AC5
:107B640010EB01401299C97A10EB01600490049A59
:107B74009DF808102800FEF767F983465846C0B2FE
:107B8400002811D05FF0006001909DF80A00009079
:107B9400BDF80C309DF809202100C9B22800FDF77A
:107BA40033FEFF2002F04EBD60208DF81800012046
:107BB4000600082E04D2002006A98855761CF8E792
:107BC40001970027C2463A0001995046F8F7AEFAE9
:107BD4009DF80B000090DFF8283D43F699224946B2
:107BE400404602F07FFD0A2002F019FE404602F0F2
:107BF40062FE06AB2200D2B29DF809102800FEF7FF
:107C04002FF902F01EBD00BFC053010850520108F5
:107C1400404B010890400108484301089DF80900C1
:107C2400012840F0F1815846C0B200280ED19DF8D9
:107C340008105820414305EB010090F82E0003285A
:107C440002D05FF0010B01E05FF0000B5846C0B2B8
:107C5400002828D00A970027C2463A000A995046BD
:107C6400F8F764FA2000C0B20090DFF8983C4FF4B3
:107C7400D5524946404602F035FD0A2002F0CFFDB8
:107C8400404602F007FEDFF89C07019000200090B8
:107C940000239DF809202100C9B22800FDF7B4FD96
:107CA400FF2002F0CFBC0A9700200190C246019A3F
:107CB4000A995046F8F73AFA9DF808000090DFF860
:107CC400B83843F607224946404602F00BFD0A2025
:107CD40002F0A5FD404602F0EEFD5FF0580A9DF863
:107CE40008000AFB00F02844B0F97E0010F1010FEF
:107CF40059D00E9700200D90CDF800800D9A0E9962
:107D04000098F8F713FA00989DF808000090DFF83F
:107D1400E83A43F605224946404602F0E3FC0A20CD
:107D240002F07DFD404602F0C6FD9DF808000AFB06
:107D340000F02844B0F97E0005F07FF89DF80810A3
:107D44000AFB01F12944A1F87E000A970020019062
:107D5400CDF80080019A0A990098F8F7E7F900989D
:107D64009DF808000090DFF8943A43F6062249464D
:107D7400404602F0B7FC0A2002F051FD404602F0F2
:107D84009AFD00200090DFF8783ADFF8782A9DF811
:107D94000810280004F0F6FF9DF808100AFB01F112
:107DA4002944A1F87E000A9700200190CDF80080B4
:107DB400019A0A990098F8F7B9F900982000C0B21E
:107DC4000090DFF8603E43F6A1224946404602F0A7
:107DD40089FC0A2002F023FD404602F06CFD9DF868
:107DE40008000AFB00F02844808EADF80C009DF8D2
:107DF40008000AFB00F0284490F836008DF80A00C9
:107E04009DF808000AFB00F0284490F82F0012990E
:107E14000979C1F3001188422CD00A970027C24681
:107E24003A000A995046F8F781F912980079C0F39C
:107E340000100090DFF8F03D41F6A222494640468A
:107E440002F050FC0A2002F0EAFC404602F022FD57
:107E5400DFF8D80D01909DF80A000090BDF80C30B1
:107E64009DF809202100C9B22800FDF7CDFCFF20B0
:107E740002F0E8BB04AA9DF808102800FDF7C6FF2D
:107E8400049808285ED39DF808000AFB00F02844F3
:107E940090F82F0000018DF818000DF11903072246
:107EA4009DF808102800FDF70FFB83465846C0B222
:107EB400002811D05FF0006001909DF80A00009046
:107EC400BDF80C309DF809202100C9B22800FDF747
:107ED4009BFCFF2002F0B6BB9DF808000AFB00F0F3
:107EE400284490F82F00002801D1012000E0002050
:107EF4009DF808100AFB01FA05EB0A0181F82F002E
:107F040001970027C2463A0001995046F8F70EF946
:107F14002000C0B20090DFF8883E43F6A322494611
:107F2400404602F0DFFB0A2002F079FC404602F0F2
:107F3400C2FC06AB2200D2B29DF809102800FDF75E
:107F44008FFF32E29DF808000AFB00FA05EB0A00F5
:107F540090F82F0000010499D1F1070150EA410083
:107F640050F001008DF818000DF11903049A9DF8E2
:107F740008102800FDF7A8FA83465846C0B2002826
:107F840011D05FF0006001909DF80A000090BDF8E8
:107F94000C309DF809202100C9B22800FDF734FCFB
:107FA400FF2002F04FBB0498401C0600082E04D2A8
:107FB400002006A98855761CF8E701970027C246D9
:107FC4003A0001995046F8F7B1F82000C0B2009089
:107FD400DFF8D03D43F6A4224946404602F082FB36
:107FE4000A2002F01CFC404602F065FC06AB2200AD
:107FF400D2B29DF809102800FDF732FF9DF8081051
:108004002800FDF7F4FCD0E15846C0B200280ED198
:108014009DF808105820414305EB010090F82E000C
:10802400022802D05FF0010B01E05FF0000B58461C
:10803400C0B200282AD00A970027C2463A000A99FB
:108044005046F8F773F89DF80B000090DFF8683E8F
:1080540041F6A5224946404602F044FB0A2002F0BC
:10806400DEFB404602F016FCDFF8B8030190002066
:10807400009000239DF809202100C9B22800FDF7D3
:10808400C3FBFF2002F0DEBAD04001080A970020AB
:108094000190C246019A0A995046F8F747F89DF8AC
:1080A40008000090DFF8D03443F6072249464046E2
:1080B40002F018FB0A2002F0B2FB404602F0FBFB80
:1080C4005FF0580A9DF808000AFB00F02844B0F954
:1080D4007E0010F1010F59D00E9700200D90CDF8BD
:1080E40000800D9A0E990098F8F720F800989DF8F2
:1080F40008000090DFF8003743F605224946404661
:1081040002F0F0FA0A2002F08AFB404602F0D3FBA8
:108114009DF808000AFB00F02844B0F97E0004F042
:108124008CFE9DF808100AFB01F12944A1F87E0099
:108134000A9700200190CDF80080019A0A990098CE
:10814400F7F7F4FF00989DF808000090DFF8AC36CC
:1081540043F606224946404602F0C4FA0A2002F0D9
:108164005EFB404602F0A7FB00200090DFF890364B
:10817400DFF890269DF80810280004F003FE9DF80F
:1081840008100AFB01F12944A1F87E009DF80800BB
:108194000AFB00F02844808EADF80C009DF808001E
:1081A4000AFB00F0284490F836008DF80A0004AA6F
:1081B4009DF808102800FDF729FE049800286BD1CB
:1081C4000E9700200D90CDF800800D9A0E9900981E
:1081D400F7F7ACFF00989DF80B000090DFF8DC3C4B
:1081E40043F6A6224946404602F07CFA0A2002F0F1
:1081F40016FB404602F05FFB0A97002001904746B9
:10820400019A0A993800F7F791FF9DF80800009049
:10821400DFF8E43543F605224946404602F062FAA7
:108224000A2002F0FCFA404602F045FB9DF80800E3
:108234000AFB00F02844B0F97E0004F0FEFD9DF82E
:1082440008100AFB01F12944A1F87E009DF80800FA
:108254000AFB00F02844012180F82E109DF8080044
:108264000AFB00F02844D0F8800000280BD09DF8C9
:108274000B1028009DF808200AFB02FA05EB0A02FD
:10828400D2F880209047002002F0DCB9684B010846
:10829400B43B0108D45301080498082829D39DF855
:1082A40008000AFB00FA05EB0A0090F82F00000111
:1082B4008DF818000DF1190307229DF80810280005
:1082C400FDF702F983465846C0B200284CD05FF04F
:1082D400006001909DF80A000090BDF80C309DF8F4
:1082E40009202100C9B22800FDF78EFAFF2002F010
:1082F400A9B99DF808000AFB00FA05EB0A0090F8FA
:108304002F0000010499D1F1070150EA410050F017
:1083140001008DF818000DF11903049A9DF8081056
:108324002800FDF7D1F883465846C0B2002811D082
:108334005FF0006001909DF80A000090BDF80C30D9
:108344009DF809202100C9B22800FDF75DFAFF203D
:1083540002F078B90498401C0600082E04D20020CC
:1083640006A98855761CF8E701970027C2463A000B
:1083740001995046F7F7DAFE9DF80B000090DFF8FC
:10838400E03D43F6A7224946404602F0ABF90A20F5
:1083940002F045FA404602F08EFA06AB2200D2B251
:1083A4009DF809102800FDF75BFD02F04AB9129808
:1083B400007A1299497A50EA01201299897A50EA8E
:1083C40001401299C97A50EA01600B909DF80900A6
:1083D400012842D15846C0B2002825D19DF8081082
:1083E4002800FDF704FB01970027C2463A000199D3
:1083F4005046F7F79BFE0B980090DFF8683D43F674
:10840400A8224946404602F06DF90A2002F007FA14
:10841400404602F050FAA5E068520108C44701083A
:10842400405501082100000801970027C2463A0080
:1084340001995046F7F77AFE0B980090DFF8B03EAA
:1084440043F6A9224946404602F04CF90A2002F0BC
:10845400E6F9404602F02FFA84E05846C0B20028FC
:1084640068D10E9700200D90C2460D9A0E99504681
:10847400F7F75CFE9DF808000090DF4B43F60522F9
:108484004946404602F02EF90A2002F0C8F9404657
:1084940002F011FA5FF0580A9DF808000AFB00F098
:1084A4002844B0F97E0004F0C8FC9DF808100AFBCB
:1084B40001F12944A1F87E009DF808000AFB00F0B0
:1084C4002844802180F82E109DF808000AFB00F053
:1084D40028440B9901630A97002001904746019AAA
:1084E4000A993800F7F722FE0B980090DFF8043E53
:1084F40043F6B0224946404602F0F4F80A2002F05E
:108504008EF9404602F0D7F99DF808000AFB00F006
:108514002844D0F88000002824D09DF80B102800AF
:108524009DF808200AFB02FA05EB0A02D2F8802023
:10853400904717E001970027C2463A000199504638
:10854400F7F7F4FD0B980090DFF8A43D43F6B12251
:108554004946404602F0C6F80A2002F060F9404657
:1085640002F0A9F902F06DB8FC3B0108443C010893
:10857400D43A01088C3C0108044F01081298007990
:1085840010F003008DF80F009DF80900012840F059
:1085940097849DF80F00002840F08181129880791B
:1085A4001299497951EA0021ADF80C101298C0795A
:1085B4008DF80A00109700200F90C2460F9A109968
:1085C4005046F7F7B3FD2000C0B20090DFF8B43E88
:1085D40043F6B2224946404602F084F80A2002F0EB
:1085E4001EF9404602F067F90E9700200D90C2462E
:1085F4000D9A0E995046F7F799FDBDF80C000090BE
:10860400DFF8843E43F6B3224946404602F06AF856
:108614000A2002F004F9404602F04DF90A970020BE
:108624000190C246019A0A995046F7F77FFD9DF8DA
:108634000A000090DFF8A43E43F6B42249464046BF
:1086440002F050F80A2002F0EAF8404602F033F94A
:108654005846C0B2002844D10E9700200D90C2465F
:108664000D9A0E995046F7F761FD9DF808000090A9
:10867400DFF86C3E41F693224946404602F032F858
:108684000A2002F0CCF8404602F004F90A970027C9
:10869400C2463A000A995046F7F748FD2000C0B296
:1086A4000090DFF8403E43F6B5224946404602F0CA
:1086B40019F80A2002F0B3F8404602F0FCF8DFF89B
:1086C400280E01909DF80A000090BDF80C309DF82A
:1086D40009202100C9B22800FDF796F8FF2001F017
:1086E400B1BF02AA9DF809102800FDF700FB8346DC
:1086F4005846C0B2002829D00A970027C2463A003B
:108704000A995046F7F712FD00200090DFF8DC3D8F
:1087140041F673224946404601F0E4FF0A2002F084
:108724007EF8404602F0B6F8DFF8BC0D01909DF8E3
:108734000A000090BDF80C309DF809202100C9B250
:108744002800FDF761F8FF2001F07CBF05200190AF
:108754009DF80A000090BDF80C302200D2B29DF8BA
:1087640008102800FDF78FF95FF0580A9DF80800FB
:108774000AFB00F0284412990979C1F3800180F8BA
:1087840068109DF808000AFB00F028441299097A41
:1087940080F869109DF808102800FCF7D9FD0990AD
:1087A4000998002830D00A970027C2463A000A994F
:1087B4005046F7F7BBFC09980090DFF8343D41F6CA
:1087C40095224946404601F08DFF0A2002F027F821
:1087D400404602F05FF8099801909DF80A00009065
:1087E400BDF80C309DF809202100C9B22800FDF71E
:1087F4000BF8FF2001F026BFC0500108DC5001082F
:1088040000127A003550000804AA9DF808102800C8
:10881400FDF7FCFA9DF808000AFB00FA05EB0A00D4
:108824000499C166C2208DF8180006A8BDF80C1082
:108834004170BDF80C1089B2090A81709DF80A10C4
:10884400C170049901710499090A41710499090CD0
:1088540081710499090EC17101970027C2463A003B
:1088640001995046F7F762FC9DF80B000090DFF881
:10887400843C43F69A224946404601F033FF0A20DD
:1088840001F0CDFF404602F016F806AB2200D2B24A
:108894009DF809102800FDF7E3FA00F02FBE9DF8BB
:1088A4000F00012866D10A9700200190C246019A60
:1088B4000A995046F7F73AFC2000C0B20090DFF85E
:1088C400383C43F6A2224946404601F00BFF0A20F9
:1088D40001F0A5FF404601F0EEFF5846C0B2002863
:1088E40014D19DF808105820414305EB010090F87D
:1088F4002E00052808D05FF0010B07E010410108A5
:10890400F4470108203B01085FF0000B5846C0B251
:10891400002828D00A970027C2463A000A995046F0
:10892400F7F704FC2000C0B20090DFF8603E41F687
:10893400A1224946404601F0D5FE0A2001F06FFF0E
:10894400404601F0A7FFDFF8A00B01900020009043
:1089540000239DF809202100C9B22800FCF754FF28
:10896400FF2001F06FBE9DF808102800FDF73FF8C6
:1089740000F0C4BD9DF80F00022804D09DF80F003C
:10898400032840F0BB855846C0B200280ED19DF89C
:1089940008105820414305EB010090F82E000528EB
:1089A40002D05FF0010B01E05FF0000B5846C0B24B
:1089B400002828D00A970027C2463A000A99504650
:1089C400F7F7B4FB2000C0B20090DFF8C43D41F6D5
:1089D400A1224946404601F085FE0A2001F01FFF0E
:1089E400404601F057FFDFF8000B01900020009093
:1089F40000239DF809202100C9B22800FCF704FFD8
:108A0400FF2001F01FBE0A9700200190C246019A80
:108A14000A995046F7F78AFB9DF808000090DFF8A2
:108A2400B43E43F607224946404601F05BFE0A2065
:108A340001F0F5FE404601F03EFF5FF0580A9DF854
:108A440008000AFB00F02844B0F97E0010F1010F81
:108A540059D00E9700200D90CDF800800D9A0E99F4
:108A64000098F7F763FB00989DF808000090DFF882
:108A7400243D43F605224946404601F033FE0A20D0
:108A840001F0CDFE404601F016FF9DF808000AFBF8
:108A940000F02844B0F97E0004F0CFF99DF80810E6
:108AA4000AFB01F12944A1F87E000A9700200190F5
:108AB400CDF80080019A0A990098F7F737FB0098DF
:108AC4009DF808000090DFF8103E43F60622494660
:108AD400404601F007FE0A2001F0A1FE404601F0E5
:108AE400EAFE00200090DFF8F43DDFF8AC2C9DF89E
:108AF4000810280004F046F99DF808100AFB01F15B
:108B04002944A1F87E009DF808000AFB00F02844DF
:108B1400808EADF80C009DF808000AFB00F0284494
:108B240090F836008DF80A009DF80F00022840F0F6
:108B3400C9800A9700200190CDF80080019A0A9913
:108B44000098F7F7F3FA00982000C0B20090DFF81D
:108B54004C3C43F6A2224946404601F0C3FD0A209C
:108B640001F05DFE404601F0A6FE9DF808000AFBF8
:108B740000F028441299897980F869101298407994
:108B840010F07F008DF8150004AA9DF80810280045
:108B9400FDF73CF9049800284AD19DF815009DF88A
:108BA40008100AFB01F1294491F8711088423FD161
:108BB4009DF808000AFB00FA05EB0A0090F8720021
:108BC400800050F0C1008DF8180001200600082E26
:108BD40004D2002006A98855761CF8E701970027DF
:108BE400C2463A0001995046F7F7A0FA2000C0B2F5
:108BF4000090DFF8AC3B43F6A5224946404601F01D
:108C040071FD0A2001F00BFE404601F054FE06AB54
:108C14002200D2B29DF809102800FDF721F901F0D5
:108C240010BD00BFEC440108F85001080000030522
:108C34009DF808000AFB00F005EB00019DF8080010
:108C44000AFB00F0284490F870209DF815300720A6
:108C540000FB0322CA639DF808000AFB00F02844C5
:108C6400806B9DF808100AFB01F12944C96B884206
:108C740044D20A970027C2463A000A995046F7F7A9
:108C840055FA2000C0B20090DFF8543C41F6A1220E
:108C94004946404601F026FD0A2001F0C0FD404649
:108CA40001F0F8FDDFF84008019000200090002357
:108CB4009DF809202100C9B22800FCF7A5FDFF207A
:108CC40001F0C0BC0A9700200190CDF80080019A01
:108CD4000A990098F7F72AFA00982000C0B2009089
:108CE400DFF8003C43F6A2224946404601F0FAFC74
:108CF4000A2001F094FD404601F0DDFD9DF80800D6
:108D04000AFB00F028449DF808100AFB01F12944ED
:108D1400C96B80F8701001208DF80E009DF80800D2
:108D24000AFB00F0284490F869009DF80E10884270
:108D3400C0F0E4839DF808000AFB00F028449DF885
:108D44000E1080F8711004AA9DF808102800FDF791
:108D54005DF80498082851D39DF80E008DF818008A
:108D64000DF1190307229DF808102800FCF7ACFB4D
:108D740083465846C0B2002816D05FF000600190C8
:108D84009DF80A000090BDF80C309DF809202100E0
:108D9400C9B22800FCF738FDFF2001F053BC00BF26
:108DA40024450108844301080A9700200190CDF866
:108DB4000080019A0A990098F7F7B8F90098200002
:108DC400C0B20090DFF8203B43F6A5224946404656
:108DD40001F088FC0A2001F022FD404601F06BFD01
:108DE40006AB2200D2B29DF809102800FDF738F82E
:108DF4009DF80E00401C8DF80E008FE79DF80E00C4
:108E040050F080008DF818000DF11903049A9DF8B4
:108E140008102800FCF758FB83465846C0B20028C7
:108E240011D05FF0006001909DF80A000090BDF839
:108E34000C309DF809202100C9B22800FCF7E4FC9D
:108E4400FF2001F0FFBB0498401C0600082E04D24A
:108E5400002006A98855761CF8E70A97002001909F
:108E64004746019A0A993800F7F760F92000C0B222
:108E74000090DFF8A43E43F6A5224946404601F09F
:108E840031FC0A2001F0CBFC404601F014FD06AB96
:108E94002200D2B29DF809102800FCF7E1FF9DF8EA
:108EA40008000AFB00FA05EB0A000499D1F1070156
:108EB40080F8721022E300BFD43C0108C0430108CB
:108EC4009DF80F00002804D09DF80F00022840F000
:108ED40070825846C0B200280ED19DF80810582060
:108EE400414305EB010090F82E00042802D05FF006
:108EF400010B01E05FF0000B5846C0B2002828D0F7
:108F04000A970027C2463A000A995046F7F70EF925
:108F14009DF80B000090DFF8043E41F6AA22494672
:108F2400404601F0DFFB0A2001F079FC404601F0E5
:108F3400B1FCDFF8B40501900020009000239DF8F7
:108F440009202100C9B22800FCF75EFCFF2001F0D3
:108F540079BB0A9700200190C246019A0A995046AB
:108F6400F7F7E4F89DF808000090DFF8683943F655
:108F740007224946404601F0B5FB0A2001F04FFCA8
:108F8400404601F098FC5FF0580A9DF808000AFB7F
:108F940000F02844B0F97E0010F1010F59D00E976B
:108FA40000200D90CDF800800D9A0E990098F7F7E7
:108FB400BDF800989DF808000090DFF8D83743F614
:108FC40005224946404601F08DFB0A2001F027FCAA
:108FD400404601F070FC9DF808000AFB00F02844AC
:108FE400B0F97E0003F029FF9DF808100AFB01F197
:108FF4002944A1F87E000A9700200190CDF8008052
:10900400019A0A990098F7F791F800989DF80800DA
:109014000090DFF8C43843F606224946404601F082
:1090240061FB0A2001F0FBFB404601F044FC0020F8
:109034000090DFF8A838DFF860279DF808102800B2
:1090440003F0A0FE9DF808100AFB01F12944A1F8E1
:109054007E009DF80F00002825D19DF808000AFB2A
:1090640000F02844808EADF80C009DF808000AFB3F
:1090740000F0284490F836008DF80A009DF80800A6
:109084000AFB00F0284412990979C1F3800180F8A1
:1090940068109DF808000AFB00F028441299097A28
:1090A40080F86910A9E09DF808000AFB00F0284444
:1090B4001299897980F869101298407910F07F002C
:1090C4008DF8150004AA9DF808102800FCF79EFEF0
:1090D4000498002848D19DF815009DF808100AFB53
:1090E40001F1294491F8711088423DD19DF808009E
:1090F4000AFB00FA05EB0A0090F87200800050F0B9
:10910400C1008DF8180001200600082E04D20020AA
:1091140006A98855761CF8E701970027C2463A004D
:1091240001995046F7F702F82000C0B20090DFF82A
:10913400F43D43F6A5224946404601F0D3FA0A20FD
:1091440001F06DFB404601F0B6FB06AB2200D2B243
:109154009DF809102800FCF783FE01F072BA00BFE5
:10916400684B0108244801089DF808000AFB00F038
:1091740005EB00019DF808000AFB00F0284490F874
:1091840070209DF81530072000FB0322CA639DF868
:1091940008000AFB00F02844806B9DF808100AFBC5
:1091A40001F12944C96B884227D20A970027C24695
:1091B4003A000A995046F6F7B9FF2000C0B2009071
:1091C400DFF8643D41F6A1224946404601F08AFA9F
:1091D4000A2001F024FB404601F05CFBC2480190E8
:1091E4000020009000239DF809202100C9B2280026
:1091F400FCF70AFBFF2001F025BA9DF808000AFBE2
:1092040000F028449DF808100AFB01F12944C96BB9
:1092140080F8701001208DF80E009DF808000AFBFC
:1092240000F0284490F869009DF80E108842C0F0C0
:1092340065819DF808000AFB00F028449DF80E1093
:1092440080F8711004AA9DF808102800FCF7DEFDD0
:109254000498082850D39DF80E008DF818000DF1DD
:10926400190307229DF808102800FCF72DF98346FE
:109274005846C0B2002811D05FF0006001909DF8FC
:109284000A000090BDF80C309DF809202100C9B2F5
:109294002800FCF7B9FAFF2001F0D4B90A9700209E
:1092A4000190CDF80080019A0A990098F6F73EFFE4
:1092B40000989DF80B000090DFF8883E43F6AB223F
:1092C4004946404601F00EFA0A2001F0A8FA404649
:1092D40001F0F1FA06AB2200D2B29DF80910280081
:1092E400FCF7BEFD9DF80E00401C8DF80E0094E7BF
:1092F400544801085C4501089DF80E0050F08000B8
:109304008DF818000DF11903049A9DF8081028002F
:10931400FCF7DAF883465846C0B2002811D05FF053
:10932400006001909DF80A000090BDF80C309DF893
:1093340009202100C9B22800FCF766FAFF2001F0D9
:1093440081B90498401C0600082E04D2002006A906
:109354008855761CF8E70A97002001904746019A41
:109364000A993800F6F7E2FE9DF80B000090DFF84A
:10937400D83D43F6AB224946404601F0B3F90A20F2
:1093840001F04DFA404601F096FA06AB2200D2B243
:109394009DF809102800FCF763FD9DF808000AFBFE
:1093A40000FA05EB0A000499D1F1070180F8721064
:1093B400A4E09DF80F00012868D10D9700200A90C1
:1093C400C2460A9A0D995046F6F7B0FE9DF80B0076
:1093D4000090DFF8783D43F6AC224946404601F060
:1093E40081F90A2001F01BFA404601F064FA019762
:1093F4000027C2463A0001995046F6F797FE9DF8B9
:1094040008000090E34B43F605224946404601F02C
:1094140069F90A2001F003FA404601F04CFA5FF0C2
:1094240058089DF8080008FB00F02844B0F97E00B5
:1094340003F003FD9DF8081008FB01F12944A1F88D
:109444007E009DF8080008FB00F02844012180F804
:109454002E109DF8080008FB00F02844D0F8800086
:1094640000280BD09DF80B1028009DF8082008FB5D
:1094740002F805EB0802D2F880209047002001F0A2
:10948400E1B800BF50410108D45301080A970027EE
:10949400C2463A000A995046F6F748FE9DF80B007A
:1094A4000090DFF8AC3C41F6AB224946404601F05F
:1094B40019F90A2001F0B3F9404601F0EBF90A4822
:1094C40001900020009000239DF809202100C9B2DA
:1094D4002800FCF799F9FF2001F0B4B8685201089C
:1094E400C4470108405501082100000890400108C4
:1094F400FC3B0108FC380108343E010801F0A1B826
:109504009DF80900012840F0E2845846C0B20028C2
:1095140000F048811298007910F001008DF80F00D6
:109524009DF80F00002828D00A970027C2463A0069
:109534000A995046F6F7FAFD9DF80B000090DFF803
:10954400143C41F6AC224946404601F0CBF80A20CF
:1095540001F065F9404601F09DF9DFF8FC0B01903C
:109564000020009000239DF809202100C9B22800A2
:10957400FCF74AF9FF2001F065B812988079129936
:10958400497951EA0021ADF80C101298C0798DF890
:109594000A00109700200F90C2460F9A1099504667
:1095A400F6F7C4FD43F69B2A2000C0B20090DFF812
:1095B400AC3B52464946404601F094F80A2001F07B
:1095C4002EF9404601F077F90E9700200D90CDF862
:1095D40000800D9A0E990098F6F7A8FD0098BDF842
:1095E4000C000090DFF8783B52464946404601F0B3
:1095F40079F80A2001F013F9404601F05CF90A9762
:1096040000200190CDF80080019A0A990098F6F79D
:109614008DFD00989DF80A000090DFF8C03E524688
:109624004946404601F05EF80A2001F0F8F8404649
:1096340001F041F902AA9DF809102800FCF757FB34
:1096440083465846C0B2002829D00A970027C2464C
:109654003A000A995046F6F769FD00200090DFF8B9
:10966400803E41F689224946404601F03BF80A20F3
:1096740001F0D5F8404601F00DF9DFF8DC0A01905D
:109684009DF80A000090BDF80C309DF809202100D7
:10969400C9B22800FCF7B8F8FF2000F0D3BF0420BB
:1096A40001909DF80A000090BDF80C302200D2B25F
:1096B4009DF808102800FCF7E6F958209DF80810DA
:1096C40041432944012281F873209DF80810414345
:1096D4002944129A1279C2F3800281F868201299FF
:1096E400097989071AD59DF8081000FB01F005EBEC
:1096F40000011298027A1298437A4FF4807000FBAA
:1097040003221298837A5FF4803000FB03221298BC
:10971400C37A5FF0807000FB0322CA66A0208DF834
:10972400180006A8BDF80C104170BDF80C1089B2E1
:10973400090A81709DF80A10C1701021017100217D
:10974400C1718171417101970027C2463A000199A4
:109754005046F6F7EBFC2000C0B20090DFF8A83EBC
:1097640043F6AD224946404600F0BCFF0A2001F012
:1097740056F8404601F09FF806AB2200D2B29DF89D
:1097840009102800FCF76CFB00F03DBF4C390108C0
:109794009C390108C0500108355000089041010867
:1097A400783E01085FF0580A9DF808000AFB00F0B3
:1097B400284490F87300012840F0A4810E970020FB
:1097C4000D90CDF800800D9A0E990098F6F7AEFC36
:1097D40000982000C0B20090DFF8703E43F69B2250
:1097E4004946404600F07EFF0A2001F018F8404642
:1097F40001F061F80A9700200190CDF80080019AE9
:109804000A990098F6F792FC00989DF808000090D9
:10981400304B43F607224946404600F063FF0A20D6
:1098240000F0FDFF404601F046F89DF808000AFBF1
:1098340000F02844B0F97E0010F1010F64D00E97B7
:1098440000200D90CDF800800D9A0E990098F6F73F
:109854006DFC00989DF808000090DFF8F43D43F695
:1098640005224946404600F03DFF0A2000F0D7FF9C
:10987400404601F020F89DF808000AFB00F0284457
:10988400B0F97E0003F0D9FA9DF808100AFB01F143
:109894002944A1F87E000A9700200190CDF80080A9
:1098A400019A0A990098F6F741FC00989DF808007F
:1098B4000090094B43F606224946404600F012FF49
:1098C4000A2000F0ACFF404600F0F5FF00200090B5
:1098D400024B0BE0044F0108DC50010800127A002F
:1098E4001C3D0108FC43010824450108DFF8642DF0
:1098F4009DF80810280003F045FA9DF808100AFBAB
:1099040001F12944A1F87E001298007910F07F003B
:109914008DF80E001298007900066FD59DF80E00A0
:109924009DF808100AFB01F1294491F87110491CB3
:10993400884222D19DF808000AFB00F02844022145
:1099440080F873109DF808000AFB00F028449DF885
:109954000E1080F8711008200A901298001D0190D2
:109964009DF808000AFB00F02844743000900A9A1D
:109974000199009803F0AAF90098A2208DF8180024
:1099840006A89DF808100AFB01F1294491F871100A
:109994004170102181700021C17181714171017187
:1099A400C1700A97002001904746019A0A9938002D
:1099B400F6F7BCFB2000C0B20090DFF89C3C43F6F5
:1099C400AE224946404600F08DFE0A2000F027FFF3
:1099D400404600F070FF06AB2200D2B29DF8091099
:1099E4002800FCF73DFA9DF808000AFB00FA05EB95
:1099F4000A00002180F8711000F005BE9DF80E00E9
:109A04009DF808100AFB01F1294491F87110491CD2
:109A1400884231D19DF808000AFB00F028449DF8E3
:109A24000E1080F871101298431D07229DF808103B
:109A34002800FBF7E8FD83465846C0B200281BD037
:109A44005FF0006001909DF808000AFB00F02844D4
:109A540090F8360000909DF808000AFB00FA05EB28
:109A64000A00838E9DF809202100C9B22800FBF763
:109A7400CBFEFF2000F0E6BD9DF80E00102840F05C
:109A8400C285A2208DF8180006A89DF808100AFBCC
:109A940001F1294491F87110417010218170002165
:109AA400C171817141710171C1700A9700200190E7
:109AB4004746019A0A993800F6F738FB2000C0B2ED
:109AC4000090DFF8943B43F6AE224946404600F04E
:109AD40009FE0A2000F0A3FE404600F0ECFE06ABAF
:109AE4002200D2B29DF809102800FCF7B9F99DF8BC
:109AF40008000AFB00FA05EB0A00002180F8711047
:109B040000F081BD9DF808000AFB00F0284490F89D
:109B14007300022840F077850A9700200190CDF861
:109B24000080019A0A990098F6F700FB009820003B
:109B3400C0B20090DFF8243B43F69B2249464046DE
:109B440000F0D0FD0A2000F06AFE404600F0B3FEAB
:109B540012980079C00728D40A970027C2463A0011
:109B64000A995046F6F7E2FA2000C0B20090DFF8F6
:109B7400F03A41F6AD224946404600F0B3FD0A20D2
:109B840000F04DFE404600F085FEDFF8CC05019064
:109B94000020009000239DF809202100C9B228006C
:109BA400FBF732FEFF2000F04DBD0A970020019024
:109BB400CDF80080019A0A990098F6F7B7FA009850
:109BC4009DF808000090DFF89C3A43F607224946C6
:109BD400404600F087FD0A2000F021FE404600F0D8
:109BE4006AFE9DF808000AFB00F02844B0F97E00E4
:109BF40010F1010F59D00E9700200D90CDF8008080
:109C04000D9A0E990098F6F791FA00989DF80800BD
:109C14000090DFF83C3A43F605224946404600F0FE
:109C240061FD0A2000F0FBFD404600F044FE9DF873
:109C340008000AFB00F02844B0F97E0003F0FDF8A8
:109C44009DF808100AFB01F12944A1F87E000A9747
:109C540000200190CDF80080019A0A990098F6F747
:109C640065FA00989DF808000090DFF8FC3943F687
:109C740006224946404600F035FD0A2000F0CFFD9B
:109C8400404600F018FE00200090DFF8E039DFF8CD
:109C9400C4299DF80810280003F074F89DF80810F2
:109CA4000AFB01F12944A1F87E0012980079C0F35F
:109CB40082008DF821009DF808000AFB00F028447A
:109CC40010F175039DF82120D2F107029DF80810C8
:109CD4002800FBF798FC83465846C0B200281FD0E2
:109CE4005FF0006001909DF808000AFB00F0284432
:109CF40090F8360000909DF808000AFB00FA05EB86
:109D04000A00838E9DF809202100C9B22800FBF7C0
:109D14007BFDFF2000F096BC84430108EC39010868
:109D24009DF808000AFB00F02844C06E002843D0C8
:109D34009DF808000AFB00F02844C06E9DF8081046
:109D44000AFB01F12944C96B884235D00D970020E4
:109D54000A9047460A9A0D993800F6F7E7F9200069
:109D6400C0B20090DFF8083941F6AE2249464046B9
:109D740000F0B8FC0A2000F052FD404600F08AFDD5
:109D8400DFF8D40301909DF808000AFB00F0284492
:109D940090F8360000909DF808000AFB00FA05EBE5
:109DA4000A00838E9DF809202100C9B22800FBF720
:109DB4002BFDFF2000F046BCA1208DF818000120E7
:109DC4000600082E04D2002006A98855761CF8E760
:109DD4000A9700200190CDF80080019A0A99009812
:109DE400F6F7A4F900982000C0B20090DFF8843898
:109DF40043F6AF224946404600F074FC0A2000F0C6
:109E04000EFD404600F057FD06AB2200D2B29DF88D
:109E140009102800FCF724F89DF808102800FBF727
:109E2400FCF909900998002832D00D9700200A9077
:109E340047460A9A0D993800F6F778F90020009001
:109E4400DFF8343841F6AF224946404600F04AFC78
:109E54000A2000F0E4FC404600F01CFD0998019043
:109E64009DF808000AFB00F0284490F836000090A2
:109E74009DF808000AFB00FA05EB0A00838E9DF8A2
:109E840009202100C9B22800FBF7BEFCFF20D9E35A
:109E94009DF808102800FBF7AAFD01970027C24689
:109EA4003A0001995046F6F741F92000C0B20090FB
:109EB400DFF8C83743F6AF224946404600F012FCAB
:109EC4000A2000F0ACFC404600F0F5FC9BE3584649
:109ED400C0B200282AD00A970027C2463A000A993D
:109EE4005046F6F723F99DF80B000090DFF8903701
:109EF40041F6AD224946404600F0F4FB0A2000F04A
:109F04008EFC404600F0C6FC93480190002000906F
:109F140000239DF809202100C9B22800FBF774FC36
:109F2400FF208FE3BC3E0108003F01080A97002090
:109F34000190C246019A0A995046F6F7F7F89DF83F
:109F440008000090DFF81C3743F6072249464046D4
:109F540000F0C8FB0A2000F062FC404600F0ABFCB5
:109F64005FF0580A9DF808000AFB00F02844B0F995
:109F74007E0010F1010F59D00E9700200D90CDF8FE
:109F840000800D9A0E990098F6F7D0F800989DF885
:109F940008000090DFF8B83643F6052249464046EB
:109FA40000F0A0FB0A2000F03AFC404600F083FCDD
:109FB4009DF808000AFB00F02844B0F97E0002F086
:109FC4003CFF9DF808100AFB01F12944A1F87E002A
:109FD4000A9700200190CDF80080019A0A99009810
:109FE400F6F7A4F800989DF808000090DFF878369A
:109FF40043F606224946404600F074FB0A2000F06E
:10A004000EFC404600F057FC00200090DFF85C3660
:10A01400DFF840269DF80810280002F0B3FE9DF8F2
:10A0240008100AFB01F12944A1F87E009DF80800FC
:10A034000AFB00F0284490F87300002840F0928056
:10A0440012980079C00700F1DE820A97002001907F
:10A05400CDF80080019A0A990098F6F767F80098FD
:10A064009DF80B000090DFF81C3643F69C2249460D
:10A07400404600F037FB0A2000F0D1FB404600F0D8
:10A084001AFC9DF808000AFB00F02844012180F81E
:10A0940073109DF808000AFB00F02844129909790E
:10A0A400C1F3800180F868101298007980071AD5EE
:10A0B4009DF808000AFB00FA05EB0A011298027ADF
:10A0C4001298437A4FF4807000FB03221298837A2B
:10A0D4005FF4803000FB03221298C37A5FF0807033
:10A0E40000FB0322CA66A3208DF818000120060095
:10A0F400082E04D2002006A98855761CF8E701979B
:10A104000027C2463A0001995046F6F70FF89DF829
:10A114000B000090DFF8703543F6B62249464046FE
:10A1240000F0E0FA0A2000F07AFB404600F0C3FB9E
:10A1340006AB2200D2B29DF809102800FBF790FE6E
:10A1440061E200BF184A010884480108444A010832
:10A15400443F0108883F010821000008D04101085C
:10A16400C05301089DF808000AFB00F0284490F849
:10A174007300012840F0FB801298007910F07F00F2
:10A184008DF80E001298007900066ED59DF80E0029
:10A194009DF808100AFB01F1294491F87110491C3B
:10A1A400884222D19DF808000AFB00F028440221CD
:10A1B40080F873109DF808000AFB00F028449DF80D
:10A1C4000E1080F8711008200A901298001D01905A
:10A1D4009DF808000AFB00F02844743000900A9AA5
:10A1E4000199009802F072FD0098A2208DF81800E1
:10A1F40006A89DF808100AFB01F1294491F8711092
:10A204004170102181700021C1718171417101710E
:10A21400C1700A97002001904746019A0A993800B4
:10A22400F5F784FF9DF80B000090DFF8603443F6E7
:10A23400B7224946404600F055FA0A2000F0EFFAEA
:10A24400404600F038FB06AB2200D2B29DF809105C
:10A254002800FBF705FE9DF808000AFB00FA05EB51
:10A264000A00002180F87110CDE19DF80E009DF8E0
:10A2740008100AFB01F1294491F87110491C884225
:10A2840030D19DF808000AFB00F028449DF80E1018
:10A2940080F871101298431D07229DF808102800B9
:10A2A400FBF7B1F983465846C0B200281AD05FF0D4
:10A2B400006001909DF808000AFB00F0284490F823
:10A2C400360000909DF808000AFB00FA05EB0A002E
:10A2D400838E9DF809202100C9B22800FBF794FA67
:10A2E400FF20AFE19DF80E00102840F08C81A220E1
:10A2F4008DF8180006A89DF808100AFB01F12944FE
:10A3040091F871104170102181700021C171817127
:10A3140041710171C1700A97002001904746019A6A
:10A324000A993800F5F702FF9DF80B000090DFF85A
:10A334005C3343F6AE224946404600F0D3F90A2086
:10A3440000F06DFA404600F0B6FA06AB2200D2B235
:10A354009DF809102800FBF783FD9DF808000AFB0F
:10A3640000FA05EB0A00002180F871104BE19DF81A
:10A3740008000AFB00F0284490F87300022840F01B
:10A38400428112980079C00727D40A970027C24651
:10A394003A000A995046F5F7C9FE9DF80B00009063
:10A3A400DFF8EC3241F6AD224946404600F09AF916
:10A3B4000A2000F034FA404600F06CFADFF8D402C8
:10A3C40001900020009000239DF809202100C9B2CB
:10A3D4002800FBF719FAFF2034E112980079C0F342
:10A3E40082008DF821009DF808000AFB00F0284443
:10A3F40010F175039DF82120D2F107029DF8081091
:10A404002800FBF700F983465846C0B200281AD04A
:10A414005FF0006001909DF808000AFB00F02844FA
:10A4240090F8360000909DF808000AFB00FA05EB4E
:10A434000A00838E9DF809202100C9B22800FBF789
:10A44400E3F9FF20FEE09DF808000AFB00F0284431
