:020000040800F2
:10000000582E0020A90501088DE700088FE7000899
:1000100091E7000893E7000895E70008000000005A
:1000200000000000000000000000000097E700084A
:1000300099E70008000000009BE700089DE7000822
:10004000610701086507010869070108DFE7000883
:100050006D07010871070108750701087907010894
:100060007D07010881070108850701088907010844
:100070008D070108910701089507010899070108F4
:100080009D070108A1070108A5070108A9070108A4
:1000900071E80008AD070108B1070108B5070108BC
:1000A000B9070108AD990008BD070108C10701089B
:1000B000C5070108C9070108CD070108D1070108D4
:1000C000D5070108D9070108DD070108E107010884
:1000D000E5070108E9070108ED07010809E800083C
:1000E000F1070108F5070108F9070108FD070108F4
:1000F0000108010805080108090801080D080108A0
:100100001108010815080108190801081D0801084F
:100110002108010825080108290801082D080108FF
:100120003108010835080108390801083D080108AF
:100130002DE9F84F8AB004000D0060694088ADF8E1
:100140000A00BDF80A0000280CD05826A069418892
:10015000BDF80A2006FB05F0204490F8280082181C
:10016000914200DAC5E06168BDF80A2006FB05F09F
:10017000204490F82800821851F83200C06A0068C4
:100180008DF808004FF48077099700200890DFF879
:10019000DC8CC146089A0999484605F0F5FADFF863
:1001A000509D00200090DFF8C83C41F601224946EE
:1001B000404605F039FB022005F0D3FB404605F030
:1001C0000BFC079700200690C246069A07995046F6
:1001D00005F0DAFA42F6022A9DF808000090DFF8EE
:1001E000943C52464946404605F01EFB022005F06D
:1001F000B8FB404605F001FC059700200490C3467B
:10020000049A0599584605F0BFFA06FB05F020440C
:10021000008E0090DFF8603C52464946404605F0AB
:1002200003FB022005F09DFB404605F0E6FB03972B
:100230000027C3463A000399584605F0A5FA06FB85
:1002400005F0204490F832000090DFF8303C524630
:100250004946404605F0E8FA022005F082FB404698
:1002600005F0CBFB5FF0FF3006FB05F12144A1F860
:100270007A00852006FB05F1214481F82A00DFF889
:10028000748CCDF8048006FB05F0204490F8320011
:10029000009006FB05F02044038E06FB05F0204489
:1002A00090F8282006FB05F0204490F82910200043
:1002B00000F058FF06FB05F02044C0F82C8006FB38
:1002C00005F02044C06F002807D09DF808102000DA
:1002D00006FB05F22244D26F904706FB05F604EBBD
:1002E0000600C06A404504D12900C9B2200000F0D0
:1002F000FCFB0BB0BDE8F08F38B5040000252800EA
:10030000C0B2052806DA2900C9B2200000F0EDFBD2
:100310006D1CF4E731BD2DE9F84F84B005000E00E7
:100320004FF480773C005FF0000BDFF8408BC14654
:100330005A462100484605F027FADFF8B49B43F6F9
:10034000082A3000C0B20090DFF8AC3B5246494664
:10035000404605F069FA022005F003FB404605F02F
:100360004CFB58213000C0B248432844406B002861
:1003700009D13000C0B2484328443200D2B24A43C7
:100380002A44926B42633000C0B248432844406B19
:100390000390039821281CD3012002900120019092
:1003A00003A800903000C0B248432844C36D300019
:1003B000C0B24843284490F832203000C0B201FB5C
:1003C00000F105EB0100018E280005F03FFD04005F
:1003D0001CE0012002900120019003A80090300051
:1003E000C0B24843284410F13C033000C0B2484337
:1003F000284490F832203000C0B201FB00F105EB38
:100400000100018E280005F021FD0400002C01D020
:10041000200018E001970027C3463A00019958468A
:1004200005F0B2F93000C0B20090DFF8343D52461A
:100430004946404605F0F8F9022005F092FA404698
:1004400005F0DBFA002005B0BDE8F08F2DE9F84F8C
:1004500088B005000E00202005904FF480740794AA
:100460005FF00008DFF8049A4F46424607993800CB
:1004700005F08AF9DFF878AA58273000C0B278432F
:100480002844008E0090DFF8743A43F60522514666
:10049000484605F0C9F9022005F063FA484605F020
:1004A000ACFA06945FF0000B4C465A4606992000C1
:1004B00005F06AF93000C0B27843284490F8320061
:1004C0000090DFF83C3A43F606225146484605F0D4
:1004D000ABF9022005F045FA484605F08EFA0120F6
:1004E00003900120029004A8019005A8009030001C
:1004F000C0B27843284410F13C033000C0B27843C6
:10050000284490F832203000C0B278432844018E4D
:10051000280005F0C5FB0400DFF8DC0C84423BD169
:10052000059840F20141884236D23000C0B278438B
:1005300005EB0008059806F08FF8C8F85C0030005D
:10054000C0B278432844C06D002825D03000C0B226
:100550007843284405990166012003900120029008
:1005600004A801903000C0B2784328446030009065
:100570003000C0B278432844C36D3000C0B2784325
:10058000284490F832203000C0B278432844018ECD
:10059000280005F085FB0400002C01D020000EE0AF
:1005A0003000C0B278432844059941633000C0B29E
:1005B00007FB00F705EB070000218163002009B06D
:1005C000BDE8F08F2DE9FE4F04000D0016001F005E
:1005D00058212800C0B248432044406B2A00D2B2C0
:1005E0004A432244926BB21890421DD24FF4807954
:1005F0005FF0000ADFF87488C34652464946584601
:1006000005F0C2F80096DFF8F43B41F61122DFF85E
:10061000F01B404605F008F9022005F0A2F940461B
:1006200005F0DAF9FF206AE02800C0B24843204410
:10063000D0F838802800C0B248432044406B2128BD
:1006400014D200221000C0B2B0424BD22800C0B277
:10065000484320441300DBB213EB0803184490F81E
:100660003C001300DBB2F854521CEBE72800C0B288
:1006700048432044C06D002820D14FF48070019081
:100680005FF00009DFF8E4A7D3464A4601995846CF
:1006900005F07AF82800C0B20090DFF8683B41F618
:1006A0001122DFF85C1B504605F0BEF8022005F071
:1006B00058F9504605F090F9FF2020E00022100084
:1006C000C0B2B0420ED22800C0B248432044C06D30
:1006D0001300DBB213EB0803C05C1300DBB2F85469
:1006E000521CECE72800C0B2484320442B00DBB288
:1006F00001FB03F12144896B711881630020BDE87F
:10070000FE8F2DE9F84F84B005000E0017005FF052
:1007100058093000C0B209FB00F02844806B0190FA
:100720003000C0B209FB00F0284410F13C08300052
:10073000C0B209FB00F02844806B38182128C0F0B3
:10074000BE803000C0B209FB00F02844C06D002814
:1007500050D13000C0B209FB00F005EB00044FF4AB
:10076000806005F079FFE0653000C0B209FB00F061
:1007700028444FF4806101663000C0B209FB00F0EC
:100780002844C06D00281FD14FF480745FF0000929
:10079000DFF8D8A6D3464A462100584604F0F4FFB5
:1007A0004FF480600090DFF8603A41F61522DFF8E0
:1007B000501A504605F038F8022005F0D2F850469D
:1007C00005F00AF9FF209AE0019800903000C0B2CD
:1007D00009FB00F0284410F13C043000C0B209FBD2
:1007E00000F02844D0F85CA0009A2100504607F0A1
:1007F0000DFB5DE03000C0B209FB00F02844006E44
:100800003100C9B209FB01F12944896B791888428A
:100810004ED23000C0B209FB00F02844016E11F541
:1008200080613000C0B209FB00F02844C06D07F0C1
:1008300042FB0400002C27D14FF48070039000206D
:100840000290DFF828A6D346029A0399584604F08E
:100850009BFF3000C0B209FB00F905EB0900006EF8
:1008600010F580600090DFF8A43941F61522DFF81A
:100870009019504604F0D8FF022005F072F8504657
:1008800005F0AAF8FF203AE03000C0B209FB00F002
:100890002844C4653000C0B209FB00F02844310090
:1008A000C9B209FB01F12944096E11F580610166A5
:1008B0003000C0B209FB00F02844C06D8046002122
:1008C0000800C0B2B8420BD204980A00D2B2825CCF
:1008D000019B0800C0B2C31808F80320491CEFE7C9
:1008E0003000C0B209FB00F028443200D2B209FB4C
:1008F00002F905EB0902926BBA188263002005B079
:10090000BDE8F08F2DE9FB4F84B004001500119E67
:1009100002AB2A00D2B29DF81410200000F0B0FA09
:1009200007003800C0B200281DD14FF480785FF076
:100930000009DFF838A5D3464A464146584604F038
:1009400023FF9DF808000090DFF8C43843F620220A
:10095000DFF89C15504604F067FF022005F001F80F
:10096000504605F04AF83800C0B2002826D12800C9
:10097000C0B2012822D19DF80810200000F0B5F87F
:100980004FF480785FF00009DFF8E0A4D3464A46D0
:100990004146584604F0F8FE9DF808000090DFF844
:1009A000743843F62122DFF84815504604F03CFF26
:1009B000022004F0D6FF504605F01FF83800C0B200
:1009C000002842D12800C0B202283ED14FF48078DE
:1009D0005FF00009DFF894A4D3464A4641465846E2
:1009E00004F0D2FE9DF808000090DFF82C3843F6A2
:1009F0000522DFF8FC14504604F016FF022004F034
:100A0000B0FF504604F0F9FF5FF0580A9DF8080067
:100A10000AFB00F02044B0F97A0007F0AEFA9DF826
:100A200008100AFB01F12144A1F87A009DF80800A2
:100A30000AFB00F02044852180F82A109DF8080068
:100A40000AFB00FA04EB0A00C6624FF48078CDF886
:100A50000C805FF00009DFF814A4D3464A460399DE
:100A6000584604F091FEDFF888B400200090DFF8CB
:100A7000AC3743F622225946504604F0D5FE0220F8
:100A800004F06FFF504604F0B8FF01969DF8400057
:100A90000090BDF818309DF814202900C9B220003C
:100AA00000F060FB8DF804009DF80400002818D0C9
:100AB0000027D1463A004146484604F065FE002032
:100AC0000090DFF85C3743F623225946504604F085
:100AD000ABFE022004F045FF504604F08EFFFF20DD
:100AE00000E0002007B0BDE8F08F2DE9FE430400D0
:100AF0000D004FF480760027DFF87083C1463A007E
:100B00003100484604F040FE2800C0B20090DFF8F3
:100B1000143743F62522DFF8D813404604F084FE4C
:100B2000022004F01EFF404604F067FF0020019001
:100B300000200090002300222900C9B2200000F00C
:100B400020F8002120290BD22A00D2B2582042439B
:100B500004EB02000844002280F83C20491CF1E725
:100B600058202A00D2B242432244002382F829307E
:100B70002A00D2B200FB02F020440022C262BDE88B
:100B8000F7832DE9FE4F82B006000F000E9C0F9DEB
:100B90004FF4807ACDF804A05FF0000BDFF8CC8230
:100BA000C1465A460199484604F0EEFDDFF84093ED
:100BB0003800C0B20090DFF8703643F6252249466F
:100BC000404604F031FE022004F0CBFE404604F023
:100BD00014FF2800C0B202280BD02800C0B203289E
:100BE00007D02800C0B2042803D02800C0B20528CE
:100BF0002ED1CDF804A05FF0000AC34652460199F9
:100C0000584604F0C1FD3800C0B20090DFF81C3631
:100C100043F606224946404604F006FE022004F050
:100C2000A0FE404604F0E9FE00200090DFF8003608
:100C3000DFF800263900C9B2300007F043F93A0066
:100C4000D2B258214A4306EB0201A1F87A002BE008
:100C5000CDF804A05FF0000AC346524601995846F9
:100C600004F092FD3800C0B20090DFF8AC3543F6D6
:100C700005224946404604F0D7FD022004F071FEEB
:100C8000404604F0BAFE58203900C9B2414306EB91
:100C900001083900C9B200FB01F03044B0F97A0014
:100CA00007F06BF9A8F87A005FF058083800C0B276
:100CB00008FB00F030449DF80C1080F82810380034
:100CC000C0B208FB00F03044BDF8101001863800B7
:100CD000C0B208FB00F0304480F832403800C0B2A7
:100CE00008FB00F0304480F82A503800C0B208FBFE
:100CF00000F03044002180F82B103800C0B208FB0F
:100D000000F03044002141633800C0B208FB00F01D
:100D10003044002181633800C0B208FB00F0304449
:100D2000002180F864103800C0B208FB00F03044A5
:100D3000002180F865103800C0B208FB00F0304494
:100D4000002180F866103800C0B208FB00F0304483
:100D5000002181663800C0B208FB00F03044002159
:100D600080F86C103800C0B208FB00F0304400215D
:100D700080F86D103800C0B208FB00F0304400214C
:100D800080F86E103800C0B208FB00F0304400213B
:100D900080F86F103800C0B208FB00F0304400212A
:100DA00080F878103800C0B208FB00F03044002111
:100DB000C1673800C0B208FB00F03044C06D07F0D6
:100DC00078F83800C0B208FB00F030440021C1655B
:100DD0003800C0B208FB00F806EB080000210166ED
:100DE000002005B0BDE8F08F2DE9F84F04000D009C
:100DF000160000273800C0B2052815DA582138003F
:100E0000C0B24843204490F82A0000280AD1377025
:100E10003800C0B201FB00F104EB010080F829505A
:100E2000002020E07F1CE5E74FF480785FF00009A8
:100E3000DFF8D0A0D3464A464146584604F0A4FC09
:100E40003800C0B20090DFF8F03341F62522DFF819
:100E5000B013504604F0E8FC022004F082FD504636
:100E600004F0BAFDFF20BDE8F28F00006C170020EF
:100E7000A0FB0008BC030108D0030108E40301083B
:100E8000F0B4040000252800C0B205282DDA582649
:100E90002800C0B27043204490F82A00002822D0D5
:100EA0002800C0B27043204490F82A0085281AD048
:100EB0002800C0B27043204490F828000F00FFB211
:100EC000B84210D12800C0B206FB00F604EB0600C1
:100ED00090F829001600F6B2B04204D1002B00D0E1
:100EE0001D70002002E06D1CCDE7FF20F0BC7047B4
:100EF0002406010800000405F40001087802010836
:100F0000380501086C17002030B40300582408008D
:100F1000C0B260431844406B002802D1002010602A
:100F20000DE00800C0B260431844456B0800C0B231
:100F300004FB00F403EB0400806B2D1A1560002005
:100F400030BC704710B403000C00E4B25820444396
:100F500003EB04004263002010BC70472DE9F34FFF
:100F600085B0040015001E004FF48077BA465FF08C
:100F7000000BDFF8C882C1465A465146484604F085
:100F800003FCDFF87C9200200090AD4B43F6382242
:100F90004946404604F048FC022004F0E2FC40468A
:100FA00004F02BFD94F8E00105281DD094F8E00131
:100FB0007F2819D05FF0000AC346524639005846D0
:100FC00004F0E2FB94F8E00100909E4B42F63922D7
:100FD0004946404604F028FC022004F0C2FC40468A
:100FE00004F00BFDFF20B8E09DF8180001284DD15A
:100FF0006069B0F800A0504680B2002808D0A0690F
:101000000188524692B22800C0B28218914218DA82
:1010100004970027C3463A000499584604F0B4FBED
:1010200000200090884B41F642224946404604F099
:10103000FBFB022004F095FC404604F0CDFCFF20B1
:101040008BE06168524692B22800C0B2821851F813
:101050003200006A0068ADF8040004970027C34618
:101060003A000499584604F08FFBBDF80400009044
:10107000764B43F641224946404604F0D5FB022018
:1010800004F06FFC404604F0B8FC4CE06069B0F836
:1010900002A0504680B2002808D0A069418852467C
:1010A00092B22800C0B28218914218DA0497002741
:1010B000C3463A000499584604F066FB00200090AD
:1010C000634B41F642224946404604F0ADFB022004
:1010D00004F047FC404604F07FFCFF203DE06168DF
:1010E000524692B22800C0B2821851F832004069CC
:1010F0000068ADF8040004970027C3463A0004993D
:10110000584604F041FBBDF804000090514B43F6F3
:1011100041224946404604F087FB022004F021FCAE
:10112000404604F06AFC00208DF8060008208DF887
:10113000070000273800C0B2082809DA3800C0B21A
:10114000305C01A93A00D2B2114408717F1CF1E76A
:1011500001A9D4F84C0207F066F807B0BDE8F08F9B
:10116000100101082DE9F34F83B015001E000E9CFD
:101170000F9F4FF480785FF00009DFF8C0A0D346DE
:101180004A464146584604F0FFFA0097234B42F680
:1011900050221B49504604F047FB022004F0E1FBBB
:1011A000504604F02AFC80208DF8040030008DF8B1
:1011B0000500300080B2000A8DF806008DF8074067
:1011C00038008DF808003800000A8DF80900380052
:1011D000000C8DF80A003800000E8DF80B0001ABF2
:1011E0002A00D2B29DF810100398FFF7B7FEC0B2E4
:1011F00005B0BDE8F08F000005000405F0F9000817
:10120000240601081CFA000848FA0008ECF7000858
:101210002C010108CCFE000848010108F803010870
:10122000ECFE0008900201080C04010864010108AA
:1012300000127A00310100083CFD00086C17002004
:10124000300701088CF600080CFF0008A80201080E
:101250002CFF0008C00201082DE9F34F91B00500F2
:1012600000208DF80B005FF0030A00200C904FF473
:10127000807701975FF0000BDFF8FC8DC1465A467E
:101280000199484604F080FADFF8F09D00200090B4
:10129000DFF8EC3D43F660224946404604F0C4FACC
:1012A000022004F05EFB404604F0A7FB03208DF80B
:1012B000090068690088ADF81600A8690088ADF8D3
:1012C000220000208DF81400BDF81600002866D01A
:1012D000BDF82200BDF81610884260D36868BDF8DA
:1012E000161000EBC100007902281DDA5FF0000A39
:1012F000C34652463900584604F046FA9DF8140099
:1013000010F590500090DFF87C3D41F6612249468F
:10131000404604F089FA022004F023FB404604F022
:101320005BFBFF2004F0FEB96868BDF8161050F8AA
:10133000310040690C900C98006812990988884225
:1013400022D101208DF8090001975FF0000AC34601
:1013500052460199584604F017FA9DF8140010F50A
:1013600090500090DFF84C3E43F6622249464046DA
:1013700004F05AFA022004F0F4FA404604F03DFB6F
:101380009DF8140004000AE09DF81400401C8DF83C
:101390001400BDF81600401CADF8160098E79DF843
:1013A0000900032840F07F8068694088ADF8160086
:1013B000A8694088ADF8220000208DF81400BDF81F
:1013C000160000286FD0BDF82200BDF81610884224
:1013D00069D36868BDF8161000EBC10000790428D5
:1013E0001DDA5FF0000AC34652463900584604F041
:1013F000CBF99DF8140010F594500090DFF8B83D3B
:1014000041F663224946404604F00EFA022004F0F9
:10141000A8FA404604F0E0FAFF2004F083B96868B7
:10142000BDF8161050F83100006A0C900C98006856
:101430001299098888422BD102208DF80900019762
:101440005FF0000AC34652460199584604F09CF9E1
:101450009DF8140010F594500090DFF8603D43F6BD
:1014600064224946404604F0DFF9022004F079FA8C
:10147000404604F0C2FA9DF8140004006868BDF804
:10148000161050F83100C06A00788DF80B000AE0A1
:101490009DF81400401C8DF81400BDF81600401C87
:1014A000ADF816008FE79DF80900032802D1FF2050
:1014B00004F038B91298C078082827D05FF0000AE5
:1014C000C34652463900584604F05EF900200090A9
:1014D000DFF8743E41F667224946404604F0A4F91D
:1014E000022004F03EFA404604F076FA5FF0006015
:1014F00001900020009000239DF809202100C9B22E
:101500002800FFF7FFF9FF2004F00CB99DF809004F
:1015100002281AD101975FF0000AC346524601998A
:10152000584604F031F92000C0B20090DFF81C3EAC
:1015300043F668224946404604F076F9022004F05A
:1015400010FA404604F059FA19E001975FF0000ADA
:10155000C34652460199584604F016F92000C0B21D
:101560000090DFF8EC3D43F669224946404604F01E
:101570005BF9022004F0F5F9404604F03EFA02ABB4
:101580009DF809202100C9B22800FFF779FC8346A5
:10159000FF208DF820005846C0B2002826D19DF8C3
:1015A0000900012809D19DF808105820414305EB96
:1015B000010090F82A0004280DD09DF809000228A7
:1015C00014D19DF808105820414305EB010090F814
:1015D0002A0005280AD112980079802803D1042016
:1015E0008DF8200002E006208DF820009DF82000F4
:1015F000FF2805D112980079C0B240098DF820006B
:101600009DF82000002810D0022800F0D687C0F0F6
:10161000E183042801F04187C1F07883062802F0B5
:10162000E187C2F01F8004F061B89DF8090001282D
:1016300040F0F0815846C0B200280ED19DF8081045
:101640005820414305EB010090F82A00022802D0FF
:101650005FF0010B01E05FF0000B5846C0B20028BC
:1016600028D00A970027C2463A000A99504604F04B
:101670008BF82000C0B20090DFF8B03D41F6702238
:101680004946404604F0D0F8022004F06AF940468A
:1016900004F0A2F9DFF8980D0190002000900023DB
:1016A0009DF809202100C9B22800FFF72BF9FF207F
:1016B00004F038B80A9700200190C246019A0A99AE
:1016C000504604F061F89DF808000090DFF8643D92
:1016D00043F607224946404604F0A6F8022004F0EB
:1016E00040F9404604F089F95FF0580A9DF8080077
:1016F0000AFB00F02844B0F97A0010F1010F59D02C
:101700000E9700200D90CDF800800D9A0E9900984C
:1017100004F03AF800989DF808000090DFF8183DB2
:1017200043F605224946404604F07EF8022004F0C4
:1017300018F9404604F061F99DF808000AFB00F032
:101740002844B0F97A0006F018FC9DF808100AFB4E
:1017500001F12944A1F87A000A9700200190CDF800
:101760000080019A0A99009804F00EF800989DF8FC
:1017700008000090DFF8C43C43F606224946404684
:1017800004F052F8022004F0ECF8404604F035F979
:1017900000200090DFF8A83CDFF8A82C9DF8081086
:1017A000280006F08FFB9DF808100AFB01F1294480
:1017B000A1F87A000A9700200190CDF80080019AE4
:1017C0000A99009803F0E0FF00982000C0B2009052
:1017D000DFF8743C43F671224946404604F024F891
:1017E000022004F0BEF8404604F007F99DF8080016
:1017F0000AFB00F02844008EADF80C009DF80800AC
:101800000AFB00F0284490F832008DF80A009DF899
:1018100008000AFB00F0284490F82B00129909797F
:10182000C1F3001188422CD00A970027C2463A0023
:101830000A99504603F0A8FF12980079C0F30010EF
:101840000090DFF8083C41F672224946404603F01A
:10185000EBFF022004F085F8404604F0BDF8DFF805
:10186000F00B01909DF80A000090BDF80C309DF837
:1018700009202100C9B22800FFF744F8FF2003F037
:1018800051BF12980079C0F34200D0F107000490D4
:101890001298431D049A9DF808102800FEF731FFA6
:1018A00083465846C0B2002811D05FF00060019016
:1018B0009DF80A000090BDF80C309DF80920210029
:1018C000C9B22800FFF71EF8FF2003F02BBF9DF8D8
:1018D00008000AFB00F0284490F82B00000150F0AB
:1018E00020008DF8180001200600082E04D20020E8
:1018F00006A98855761CF8E70A9700200190CDF8D4
:101900000080019A0A99009803F03EFF0098200099
:10191000C0B20090DFF83C3B43F673224946404694
:1019200003F082FF022004F01CF8404604F065F842
:1019300006AB2200D2B29DF809102800FFF70EFB7B
:101940009DF808000AFB00F0284490F82B000028BE
:1019500001D1012000E000209DF808100AFB01FAE7
:1019600005EB0A0181F82B0012980079C00740F1BD
:101970002F829DF808102800FEF7CDFC09900998E9
:10198000002828D00A970027C2463A000A995046F4
:1019900003F0FAFE00200090DFF8583E41F6542292
:1019A0004946404603F040FF022003F0DAFF40467C
:1019B00004F012F8099801909DF80A000090BDF813
:1019C0000C309DF809202100C9B22800FEF79AFFCB
:1019D000FF2003F0A7BE9DF808102800FFF785F848
:1019E00001970027C2463A000199504603F0CCFE09
:1019F0002000C0B20090DFF8003E43F67422494652
:101A0000404603F011FF022003F0ABFF404603F015
:101A1000F4FFDDE15846C0B200280ED19DF8081051
:101A20005820414305EB010090F82A00032802D01A
:101A30005FF0010B01E05FF0000B5846C0B20028D8
:101A400028D00A970027C2463A000A99504603F068
:101A50009BFE9DF80B000090DFF8A03D41F675223B
:101A60004946404603F0E0FE022003F07AFF40467C
:101A700003F0B2FFDFF8B8090190002000900023C6
:101A80009DF809202100C9B22800FEF73BFFFF2086
:101A900003F048BE0A9700200190C246019A0A99B5
:101AA000504603F071FE9DF808000090DFF884397D
:101AB00043F607224946404603F0B6FE022003F0F3
:101AC00050FF404603F099FF5FF0580A9DF8080068
:101AD0000AFB00F02844B0F97A0010F1010F59D048
:101AE0000E9700200D90CDF800800D9A0E99009869
:101AF00003F04AFE00989DF808000090DFF838399E
:101B000043F605224946404603F08EFE022003F0CC
:101B100028FF404603F071FF9DF808000AFB00F023
:101B20002844B0F97A0006F028FA9DF808100AFB5C
:101B300001F12944A1F87A000A9700200190CDF81C
:101B40000080019A0A99009803F01EFE00989DF803
:101B500008000090DFF8E43843F606224946404684
:101B600003F062FE022003F0FCFE404603F045FF56
:101B700000200090DFF8C838DFF8C8289DF808106A
:101B8000280006F09FF99DF808100AFB01F129448E
:101B9000A1F87A009DF808000AFB00F02844008EA6
:101BA000ADF80C009DF808000AFB00F0284490F8FE
:101BB00032008DF80A009DF808000AFB00F0284466
:101BC00090F82B0012990979C1F3001188422AD0AC
:101BD0000A970027C2463A000A99504603F0D4FDFE
:101BE0009DF80B000090DFF8703D41F676224946E3
:101BF000404603F019FE022003F0B3FE404603F016
:101C0000EBFEDFF84C0801909DF80A000090BDF84B
:101C10000C309DF809202100C9B22800FEF772FEA1
:101C2000FF2003F07FBD12980079C0F34200D0F18D
:101C3000070004901298431D049A9DF8081028008C
:101C4000FEF75FFD83465846C0B2002811D05FF012
:101C5000006001909DF80A000090BDF80C309DF8DE
:101C600009202100C9B22800FEF74CFEFF2003F036
:101C700059BD9DF808000AFB00F0284490F82B009D
:101C8000002801D1012000E000209DF808100AFB87
:101C900001F1294481F82B0012980079C00760D522
:101CA0000A9700200190CDF80080019A0A990098C7
:101CB00003F06AFD00989DF808000090DFF878377F
:101CC00043F605224946404603F0AEFD022003F0EC
:101CD00048FE404603F091FE9DF808000AFB00F024
:101CE0002844B0F97A0006F048F99DF808100AFB7C
:101CF00001F12944A1F87A009DF808000AFB00F0E0
:101D00002844012180F82A109DF808000AFB00F001
:101D10002844C06F00280AD09DF80B1028009DF8B9
:101D200008200AFB02FA05EB0A02D26F90470197DE
:101D30000027C2463A000199504603F025FD9DF860
:101D40000B000090DFF8143E43F6772249464046E8
:101D500003F06AFD022003F004FE404603F04DFE4E
:101D600036E09DF808000AFB00FA05EB0A0090F83F
:101D70002B00000150F060008DF8180001200600D3
:101D8000082E04D2002006A98855761CF8E706AB79
:101D90002200D2B29DF809102800FFF7DFF8019762
:101DA0000027C2463A000199504603F0EDFC9DF829
:101DB0000B000090DFF8A83D43F6782249464046E4
:101DC00003F032FD022003F0CCFD404603F015FE87
:101DD00003F0A7BC9DF80900012840F0AB811298E0
:101DE00080791299497951EA0021ADF80C101298C6
:101DF000C0798DF80A00109700200F90C2460F9A04
:101E00001099504603F0C0FC2000C0B20090DFF8EB
:101E1000543D43F679224946404603F005FD022031
:101E200003F09FFD404603F0E8FD0E9700200D9063
:101E3000C2460D9A0E99504603F0A6FCBDF80C0060
:101E40000090DFF8B43E4FF46A524946404603F032
:101E5000EBFC022003F085FD404603F0CEFD0A971F
:101E600000200190C246019A0A99504603F08CFC6A
:101E70009DF80A000090DFF8843E4FF46A5249460C
:101E8000404603F0D1FC022003F06BFD404603F016
:101E9000B4FD5846C0B2002829D10A970027C2468F
:101EA0003A000A99504603F06FFC00200090DFF8DA
:101EB000503E41F681224946404603F0B5FC0220DF
:101EC00003F04FFD404603F087FDDFF86405019005
:101ED0009DF80A000090BDF80C309DF80920210003
:101EE000C9B22800FEF70EFDFF2003F01BBC02AABA
:101EF0009DF809102800FEF777FF83465846C0B2C8
:101F0000002829D00A970027C2463A000A9950466D
:101F100003F03AFC00200090DFF8E83D41F6822211
:101F20004946404603F080FC022003F01AFD40467B
:101F300003F052FDDFF8F80401909DF80A000090CC
:101F4000BDF80C309DF809202100C9B22800FEF729
:101F5000D9FCFF2003F0E6BB022001909DF80A00A7
:101F60000090BDF80C302200D2B29DF80810280075
:101F7000FEF707FE12980079C0F34000002800F039
:101F8000898012980079C0F38100D0F10400049098
:101F900004999DF808205820424305EB0200416354
:101FA000129810F10803049A9DF808102800FEF713
:101FB000A8FB83465846C0B2002811D05FF00060ED
:101FC00001909DF80A000090BDF80C309DF80920A2
:101FD0002100C9B22800FEF795FCFF2003F0A2BB48
:101FE0000A9700200190C246019A0A99504603F0D0
:101FF000CBFB00200090DFF8103D43F683224946DA
:10200000404603F011FC022003F0ABFC404603F015
:10201000F4FC9DF808102800FEF77DF90990099856
:10202000002831D00A970027C2463A000A99504644
:1020300003F0AAFB00200090DFF8B83741F68422B5
:102040004946404603F0F0FB022003F08AFC40467C
:1020500003F0C2FC099801909DF80A000090BDF8B9
:102060000C309DF809202100C9B22800FEF74AFC77
:10207000FF2003F057BB00BF6C17002024060108A7
:10208000300601084CFF00089DF808102800FEF7F4
:102090002CFD2FE012980079C0072BD51298007AFA
:1020A0001299497A10EB01201299897A10EB0140BC
:1020B0001299C97A10EB01600490049A9DF80810F7
:1020C0002800FEF73FFF83465846C0B2002811D0D3
:1020D0005FF0006001909DF80A000090BDF80C30A0
:1020E0009DF809202100C9B22800FEF70BFCFF2053
:1020F00003F018BB60208DF8180006A8BDF80C107E
:102100004170BDF80C1089B2090A81709DF80A105F
:10211000C17004210E00082E03D200218155761CC7
:10212000F9E706AB2200D2B29DF809102800FEF7AD
:1021300015FF40E25846C0B200280ED19DF80810A5
:102140005820414305EB010090F82A00022802D0F4
:102150005FF0010B01E05FF0000B5846C0B20028B1
:102160002ED00A970027C2463A000A99504603F03B
:102170000BFB9DF80B000090DFF8803641F68522BE
:102180004946404603F050FB022003F0EAFB40467C
:1021900003F022FCA64801900020009000239DF847
:1021A00009202100C9B22800FEF7ACFBFF2003F094
:1021B000B9BA00BF60FD00086CFF000884FD00088C
:1021C0000A9700200190C246019A0A99504603F0EE
:1021D000DBFA9DF808000090964B43F6072249462B
:1021E000404603F021FB022003F0BBFB404603F016
:1021F00004FC5FF0580A9DF808000AFB00F0284430
:10220000B0F97A0010F1010F55D00E9700200D9013
:10221000CDF800800D9A0E99009803F0B5FA009859
:102220009DF808000090844B43F60522494640463D
:1022300003F0FAFA022003F094FB404603F0DDFBC2
:102240009DF808000AFB00F02844B0F97A0005F078
:1022500094FE9DF808100AFB01F12944A1F87A00C8
:102260000A9700200190CDF80080019A0A99009801
:1022700003F08AFA00989DF8080000906F4B43F62F
:1022800006224946404603F0CFFA022003F069FBDC
:10229000404603F0B2FB00200090694B694A9DF86C
:1022A0000810280005F00EFE9DF808100AFB01F149
:1022B0002944A1F87A009DF808000AFB00F02844A0
:1022C000008EADF80C009DF808000AFB00F02844D1
:1022D00090F832008DF80A009DF808000AFB00F023
:1022E000284490F82B0012990979C1F30011884213
:1022F00030D00A970027C2463A000A99504603F0A8
:1023000043FA9DF80B000090DFF84C3641F6862228
:102310004946404603F088FA022003F022FB40467B
:1023200003F05AFB4A4801909DF80A000090BDF85E
:102330000C309DF809202100C9B22800FEF7E2FA0E
:10234000FF2003F0EFB900BF480501082004010891
:102350003404010804AA9DF808102800FEF7D4FDF3
:102360000498002878D10E9700200D90CDF80080B9
:102370000D9A0E99009803F007FA00989DF80B004B
:102380000090DFF8F43D43F687224946404603F0CB
:102390004BFA022003F0E5FA404603F02EFB0A97C1
:1023A000002001904746019A0A99380003F0ECF9A1
:1023B0009DF808000090204B43F605224946404610
:1023C00003F032FA022003F0CCFA404603F015FB8A
:1023D0009DF808000AFB00F02844B0F97A0005F0E7
:1023E000CCFD9DF808100AFB01F12944A1F87A0000
:1023F0009DF808000AFB00F02844012180F82A100B
:102400009DF808000AFB00F02844C06F00280AD09D
:102410009DF80B1028009DF808200AFB02FA05EB36
:102420000A02D26F9047002003F07CB9C4EA00088A
:10243000210000088CFF0008480101086401010820
:1024400000127A003101000894F3000880010108AD
:102450000000030578EE0008049808283CD39DF896
:1024600008000AFB00F0284490F82B00002801D156
:10247000012000E000209DF808100AFB01F129442A
:1024800081F82B009DF808000AFB00FA05EB0A0012
:1024900090F82B0000018DF818000DF119030722A8
:1024A0009DF808102800FEF78DF883465846C0B204
:1024B00000285FD05FF0006001909DF80A00009056
:1024C000BDF80C309DF809202100C9B22800FEF7A4
:1024D00019FAFF2003F026B99DF808000AFB00F066
:1024E000284490F82B00002801D1012000E00020B2
:1024F0009DF808100AFB01F1294481F82B009DF892
:1025000008000AFB00FA05EB0A0090F82B00000116
:102510000499D1F1070150EA410050F001008DF813
:1025200018000DF11903049A9DF808102800FEF711
:1025300049F883465846C0B2002811D05FF00060C9
:1025400001909DF80A000090BDF80C309DF809201C
:102550002100C9B22800FEF7D5F9FF2003F0E2B848
:102560000498401C0600082E04D2002006A98855B5
:10257000761CF8E701970027C2463A0001995046B9
:1025800003F002F99DF80B000090DFF8EC3D43F6F4
:1025900088224946404603F047F9022003F0E1F95A
:1025A000404603F02AFA06AB2200D2B29DF8091089
:1025B0002800FEF7D3FC03F0B4B89DF80900012809
:1025C00040F0CC81129880791299497951EA002122
:1025D000ADF80C101298C0798DF80A001097002001
:1025E0000F90C2460F9A1099504603F0CDF8200084
:1025F000C0B20090DFF8843D43F689224946404648
:1026000003F012F9022003F0ACF9404603F0F5F9AB
:102610000E9700200D90C2460D9A0E99504603F079
:10262000B3F8BDF80C000090DFF8543D43F690225B
:102630004946404603F0F8F8022003F092F940467C
:1026400003F0DBF90A9700200190C246019A0A992B
:10265000504603F099F89DF80A000090DFF8A43E78
:1026600043F691224946404603F0DEF8022003F08B
:1026700078F9404603F0C1F95846C0B2002844D169
:102680000E9700200D90C2460D9A0E99504603F009
:102690007BF89DF808000090DFF86C3E41F692222E
:1026A0004946404603F0C0F8022003F05AF940467C
:1026B00003F092F90A970027C2463A000A99504659
:1026C00003F062F82000C0B20090DFF8403E43F60D
:1026D00093224946404603F0A7F8022003F041F94F
:1026E000404603F08AF9DFF8280E01909DF80A00B1
:1026F0000090BDF80C309DF809202100C9B22800D7
:10270000FEF700F9FF2003F00DB802AA9DF80910AA
:102710002800FEF769FB83465846C0B2002829D03E
:102720000A970027C2463A000A99504603F02CF84F
:1027300000200090DFF8CC3541F671224946404632
:1027400003F072F8022003F00CF9404603F044F95C
:10275000DFF8BC0D01909DF80A000090BDF80C3028
:102760009DF809202100C9B22800FEF7CBF8FF2010
:1027700002F0D8BF032001909DF80A000090BDF838
:102780000C302200D2B29DF808102800FEF7F9F9AB
:102790009DF808102800FDF759FE099009980028B7
:1027A0002ED00A970027C2463A000A99504602F0F6
:1027B000EBFF09980090DFF8983E41F694224946D5
:1027C000404603F031F8022003F0CBF8404603F016
:1027D00003F9099801909DF80A000090BDF80C30AB
:1027E0009DF809202100C9B22800FEF78BF8FF20D0
:1027F00002F098BF98F000081CF80008F4EB0008FD
:1028000004AA9DF808102800FEF77EFB049805280E
:102810003BD341208DF8180006A8BDF80C1041707C
:10282000BDF80C1089B2090A81709DF80A10C170B8
:10283000049901710499090A41710499090C817183
:102840000499090EC17101970027C2463A00019907
:10285000504602F099FF9DF80B000090DFF8F43D20
:1028600043F695224946404602F0DEFF022003F07F
:1028700078F8404603F0C1F806AB2200D2B29DF8CA
:1028800009102800FEF76AFB33E20498D0F1040037
:10289000800050F043008DF818000DF1180ABDF8C3
:1028A0000C008AF80100BDF80C0080B2000A8AF81A
:1028B00002009DF80A008AF8030007AB049A9DF80D
:1028C00008102800FDF77EFE83465846C0B2002857
:1028D00011D05FF0006001909DF80A000090BDF8F3
:1028E0000C309DF809202100C9B22800FEF70AF833
:1028F000FF2002F017BF0498001D0600082E04D226
:1029000000200AF80600761CF8E701970027C24667
:102910003A000199504602F037FF2000C0B2009003
:10292000DFF8343D43F696224946404602F07CFFEC
:10293000022003F016F8404603F05FF806AB2200D1
:10294000D2B29DF809102800FEF708FB9DF8081088
:102950002800FEF7CAF8CCE1D8F000085846C0B20B
:1029600000280ED19DF808105820414305EB0100C6
:1029700090F82A00032802D05FF0010B01E05FF01D
:10298000000B5846C0B2002828D00A970027C2463C
:102990003A000A99504602F0F7FE9DF80B000090AD
:1029A000DFF8B83C41F697224946404602F03CFF2A
:1029B000022002F0D6FF404603F00EF8DFF8500B7D
:1029C00001900020009000239DF809202100C9B249
:1029D0002800FDF797FFFF2002F0A4BE0A97002011
:1029E0000190C246019A0A99504602F0CDFE9DF828
:1029F00008000090DFF8683C43F60722494640464D
:102A000002F012FF022002F0ACFF404602F0F5FF98
:102A10005FF0580A9DF808000AFB00F02844B0F95E
:102A20007A0010F1010F59D00E9700200D90CDF8CB
:102A300000800D9A0E99009802F0A6FE00989DF86D
:102A400008000090DFF8983E43F6052249464046CC
:102A500002F0EAFE022002F084FF404602F0CDFFC1
:102A60009DF808000AFB00F02844B0F97A0005F050
:102A700084FA9DF808100AFB01F12944A1F87A00B4
:102A80000A9700200190CDF80080019A0A990098D9
:102A900002F07AFE00989DF808000090DFF8443EAE
:102AA00043F606224946404602F0BEFE022002F0EE
:102AB00058FF404602F0A1FF00200090DFF8283EBA
:102AC000DFF8282E9DF80810280005F0FBF99DF886
:102AD00008100AFB01F12944A1F87A009DF80800CA
:102AE0000AFB00F02844008EADF80C009DF80800A9
:102AF0000AFB00F0284490F832008DF80A00129882
:102B00000079C0F34000002800F096801298007908
:102B1000C0F38100D0F104000490129810F1080372
:102B2000049A9DF808102800FDF7EBFD8DF82800A9
:102B30009DF82800002817D05FF0006001909DF8F4
:102B40000A000090BDF80C309DF809202100C9B2A0
:102B50002800FDF7D7FEFF2002F0E4BDACFF00081F
:102B600074FA000810EB00080E9700200D90C34681
:102B70000D9A0E99584602F007FE9DF80B00009042
:102B8000DFF8603E43F698224946404602F04CFE8C
:102B9000022002F0E6FE404602F02FFF01970027D8
:102BA000C3463A000199584602F0EEFD9DF8080030
:102BB0000090DFF82C3D43F605224946404602F0DE
:102BC00033FE022002F0CDFE404602F016FF9DF8D3
:102BD00008000AFB00F02844B0F97A0005F0CDF9AE
:102BE0009DF808100AFB01F12944A1F87A009DF82C
:102BF00008000AFB00F02844049941639DF808008E
:102C00000AFB00F02844012180F82A109DF80800F2
:102C10000AFB00F02844C06F00280AD09DF80B1072
:102C200028009DF808200AFB02FA05EB0A02D26F81
:102C30009047002002F076BD12980079C0072BD58E
:102C40001298007A1299497A10EB01201299897A28
:102C500010EB01401299C97A10EB01600490049ABC
:102C60009DF808102800FEF76DF983465846C0B25B
:102C7000002811D05FF0006001909DF80A000090DC
:102C8000BDF80C309DF809202100C9B22800FDF7DD
:102C900039FEFF2002F046BD60208DF818000120AB
:102CA0000600082E04D2002006A98855761CF8E7F5
:102CB00001970027C2463A000199504602F064FD90
:102CC0009DF80B000090DFF8203D43F6992249461D
:102CD000404602F0A9FD022002F043FE404602F009
:102CE0008CFE06AB2200D2B29DF809102800FEF738
:102CF00035F902F016BD00BF48040108D8020108EA
:102D0000C8FB000818F10008D0F300089DF809007E
:102D1000012840F0F1815846C0B200280ED19DF83C
:102D200008105820414305EB010090F82A000328C1
:102D300002D05FF0010B01E05FF0000B5846C0B21B
:102D4000002828D00A970027C2463A000A99504620
:102D500002F01AFD2000C0B20090DFF8903C4FF462
:102D6000D5524946404602F05FFD022002F0F9FDCF
:102D7000404602F031FEDFF89807019000200090F5
:102D800000239DF809202100C9B22800FDF7BAFDF3
:102D9000FF2002F0C7BC0A9700200190C246019AAA
:102DA0000A99504602F0F0FC9DF808000090DFF808
:102DB000B03843F607224946404602F035FD02206E
:102DC00002F0CFFD404602F018FE5FF0580A9DF871
:102DD00008000AFB00F02844B0F97A0010F1010F56
:102DE00059D00E9700200D90CDF800800D9A0E99C5
:102DF000009802F0C9FC00989DF808000090DFF8E8
:102E0000E03A43F605224946404602F00DFD022015
:102E100002F0A7FD404602F0F0FD9DF808000AFB15
:102E200000F02844B0F97A0005F0A7F89DF80810E2
:102E30000AFB01F12944A1F87A000A9700200190C9
:102E4000CDF80080019A0A99009802F09DFC009844
:102E50009DF808000090DFF88C3A43F606224946B8
:102E6000404602F0E1FC022002F07BFD404602F009
:102E7000C4FD00200090DFF8703ADFF8702A9DF85A
:102E80000810280005F01EF89DF808100AFB01F153
:102E90002944A1F87A000A9700200190CDF800801B
:102EA000019A0A99009802F06FFC00982000C0B2C5
:102EB0000090DFF8583E43F6A1224946404602F012
:102EC000B3FC022002F04DFD404602F096FD9DF855
:102ED00008000AFB00F02844008EADF80C009DF8B5
:102EE00008000AFB00F0284490F832008DF80A0030
:102EF0009DF808000AFB00F0284490F82B00129976
:102F00000979C1F3001188422CD00A970027C246E4
:102F10003A000A99504602F037FC12980079C0F343
:102F200000100090DFF8E83D41F6A22249464046F5
:102F300002F07AFC022002F014FD404602F04CFD43
:102F4000DFF8D00D01909DF80A000090BDF80C301C
:102F50009DF809202100C9B22800FDF7D3FCFF200D
:102F600002F0E0BB04AA9DF808102800FDF7CCFF92
:102F7000049808285ED39DF808000AFB00F0284456
:102F800090F82B0000018DF818000DF119030722AD
:102F90009DF808102800FDF715FB83465846C0B27F
:102FA000002811D05FF0006001909DF80A000090A9
:102FB000BDF80C309DF809202100C9B22800FDF7AA
:102FC000A1FCFF2002F0AEBB9DF808000AFB00F058
:102FD000284490F82B00002801D1012000E00020B7
:102FE0009DF808100AFB01FA05EB0A0181F82B0095
:102FF00001970027C2463A000199504602F0C4FBEF
:103000002000C0B20090DFF8803E43F6A32249467C
:10301000404602F009FC022002F0A3FC404602F008
:10302000ECFC06AB2200D2B29DF809102800FDF797
:1030300095FF30E29DF808000AFB00FA05EB0A0054
:1030400090F82B0000010499D1F1070150EA4100EA
:1030500050F001008DF818000DF11903049A9DF845
:1030600008102800FDF7AEFA83465846C0B2002883
:1030700011D05FF0006001909DF80A000090BDF84B
:103080000C309DF809202100C9B22800FDF73AFC58
:10309000FF2002F047BB0498401C0600082E04D213
:1030A000002006A98855761CF8E701970027C2463C
:1030B0003A000199504602F067FB2000C0B2009030
:1030C000DFF8C83D43F6A4224946404602F0ACFB77
:1030D000022002F046FC404602F08FFC06AB2200C4
:1030E000D2B29DF809102800FDF738FF9DF80810AE
:1030F0002800FDF7FAFCCEE15846C0B200280ED1F8
:103100009DF808105820414305EB010090F82A0073
:10311000022802D05FF0010B01E05FF0000B58467F
:10312000C0B200282AD00A970027C2463A000A995E
:10313000504602F029FB9DF80B000090DFF8603E3E
:1031400041F6A5224946404602F06EFB022002F0FD
:1031500008FC404602F040FCED4801900020009041
:1031600000239DF809202100C9B22800FDF7CAFB01
:10317000FF2002F0D7BA00BF58F100080A970020DC
:103180000190C246019A0A99504602F0FDFA9DF854
:1031900008000090DFF8C83443F60722494640464D
:1031A00002F042FB022002F0DCFB404602F025FC6C
:1031B0005FF0580A9DF808000AFB00F02844B0F9B7
:1031C0007A0010F1010F59D00E9700200D90CDF824
:1031D00000800D9A0E99009802F0D6FA00989DF89A
:1031E00008000090DFF8F83643F6052249464046CD
:1031F00002F01AFB022002F0B4FB404602F0FDFB95
:103200009DF808000AFB00F02844B0F97A0004F0A9
:10321000B4FE9DF808100AFB01F12944A1F87A00D8
:103220000A9700200190CDF80080019A0A99009831
:1032300002F0AAFA00989DF808000090DFF8A43682
:1032400043F606224946404602F0EEFA022002F01A
:1032500088FB404602F0D1FB00200090DFF8883662
:10326000DFF888269DF80810280004F02BFE9DF852
:1032700008100AFB01F12944A1F87A009DF8080022
:103280000AFB00F02844008EADF80C009DF8080001
:103290000AFB00F0284490F832008DF80A0004AAD6
:1032A0009DF808102800FDF72FFE0498002869D12A
:1032B0000E9700200D90CDF800800D9A0E99009881
:1032C00002F062FA00989DF80B000090DFF8D43C01
:1032D00043F6A6224946404602F0A6FA022002F032
:1032E00040FB404602F089FB0A97002001904746C8
:1032F000019A0A99380002F047FA9DF808000090F8
:10330000DFF8DC3543F605224946404602F08CFAE8
:10331000022002F026FB404602F06FFB9DF80800F9
:103320000AFB00F02844B0F97A0004F026FE9DF86C
:1033300008100AFB01F12944A1F87A009DF8080061
:103340000AFB00F02844012180F82A109DF80800AB
:103350000AFB00F02844C06F00280AD09DF80B102B
:1033600028009DF808200AFB02FA05EB0A02D26F3A
:103370009047002002F0D6B9F0FB00083CEC0008B2
:103380005C0401080498082829D39DF808000AFB6A
:1033900000FA05EB0A0090F82B0000018DF81800E8
:1033A0000DF1190307229DF808102800FDF70AF90E
:1033B00083465846C0B200284CD05FF000600190B0
:1033C0009DF80A000090BDF80C309DF809202100FE
:1033D000C9B22800FDF796FAFF2002F0A3B99DF8C4
:1033E00008000AFB00FA05EB0A0090F82B00000128
:1033F0000499D1F1070150EA410050F001008DF825
:1034000018000DF11903049A9DF808102800FDF723
:10341000D9F883465846C0B2002811D05FF000604A
:1034200001909DF80A000090BDF80C309DF809202D
:103430002100C9B22800FDF765FAFF2002F072B939
:103440000498401C0600082E04D2002006A98855C6
:10345000761CF8E701970027C2463A0001995046CA
:1034600002F092F99DF80B000090DFF8DC3D43F686
:10347000A7224946404602F0D7F9022002F071FA2D
:10348000404602F0BAFA06AB2200D2B29DF809100B
:103490002800FDF763FD02F044B91298007A1299F2
:1034A000497A50EA01201299897A50EA014012992A
:1034B000C97A50EA01600B909DF80900012842D1B9
:1034C0005846C0B2002825D19DF808102800FDF705
:1034D0000CFB01970027C2463A000199504602F0C2
:1034E00053F90B980090DFF8643D43F6A822494653
:1034F000404602F099F9022002F033FA404602F009
:103500007CFAA3E0F00201084CF800085805010815
:103510002100000801970027C2463A000199504651
:1035200002F032F90B980090DFF8AC3E43F6A92286
:103530004946404602F078F9022002F012FA40466D
:1035400002F05BFA82E05846C0B2002866D10E97BE
:1035500000200D90C2460D9A0E99504602F014F9C3
:103560009DF808000090DE4B43F605224946404690
:1035700002F05AF9022002F0F4F9404602F03DFA56
:103580005FF0580A9DF808000AFB00F02844B0F9E3
:103590007A0004F0F2FC9DF808100AFB01F12944BE
:1035A000A1F87A009DF808000AFB00F02844802169
:1035B00080F82A109DF808000AFB00F028440B99B7
:1035C000C1620A97002001904746019A0A99380083
:1035D00002F0DAF80B980090DFF8003E43F6B022D4
:1035E0004946404602F020F9022002F0BAF940466E
:1035F00002F003FA9DF808000AFB00F02844C06FAF
:10360000002823D09DF80B1028009DF808200AFB05
:1036100002FA05EB0A02D26F904717E001970027E4
:10362000C2463A000199504602F0AEF80B9800905D
:10363000DFF8A43D43F6B1224946404602F0F4F8D3
:10364000022002F08EF9404602F0D7F902F069B884
:1036500084EC0008CCEC00085CEB000814ED0008DA
:103660008CFF00081298007910F003008DF80F000D
:103670009DF80900012840F097849DF80F0000286C
:1036800040F08181129880791299497951EA00219C
:10369000ADF80C101298C0798DF80A001097002030
:1036A0000F90C2460F9A1099504602F06DF8200014
:1036B000C0B20090DFF8B03E43F6B2224946404621
:1036C00002F0B2F8022002F04CF9404602F095F9FF
:1036D0000E9700200D90C2460D9A0E99504602F0AA
:1036E00053F8BDF80C000090DFF8803E43F6B3229B
:1036F0004946404602F098F8022002F032F940466E
:1037000002F07BF90A9700200190C246019A0A99BB
:10371000504602F039F89DF80A000090DFF8A03E0C
:1037200043F6B4224946404602F07EF8022002F0F9
:1037300018F9404602F061F95846C0B2002844D159
:103740000E9700200D90C2460D9A0E99504602F039
:103750001BF89DF808000090DFF8683E41F69322C0
:103760004946404602F060F8022002F0FAF840466E
:1037700002F032F90A970027C2463A000A995046E9
:1037800002F002F82000C0B20090DFF83C3E43F6A1
:10379000B5224946404602F047F8022002F0E1F81F
:1037A000404602F02AF9DFF8240E01909DF80A0045
:1037B0000090BDF80C309DF809202100C9B2280006
:1037C000FDF7A0F8FF2001F0ADBF02AA9DF8091097
:1037D0002800FDF709FB83465846C0B2002829D0CF
:1037E0000A970027C2463A000A99504601F0CCFFDA
:1037F00000200090DFF8D83D41F67322494640464C
:1038000002F012F8022002F0ACF8404602F0E4F8B0
:10381000DFF8B80D01909DF80A000090BDF80C305B
:103820009DF809202100C9B22800FDF76BF8FF20A0
:1038300001F078BF052001909DF80A000090BDF8C6
:103840000C302200D2B29DF808102800FDF799F93B
:103850005FF0580A9DF808000AFB00F0284412990E
:103860000979C1F3800180F864109DF808000AFB13
:1038700000F028441299097A80F865109DF8081024
:103880002800FCF7E3FD09900998002830D00A973A
:103890000027C2463A000A99504601F075FF099880
:1038A0000090DFF8303D41F695224946404601F050
:1038B000BBFF022002F055F8404602F08DF809984F
:1038C00001909DF80A000090BDF80C309DF8092089
:1038D0002100C9B22800FDF715F8FF2001F022BF32
:1038E000480101086401010800127A003101000852
:1038F00004AA9DF808102800FDF706FB9DF80800B3
:103900000AFB00FA05EB0A0004998166C2208DF8D3
:10391000180006A8BDF80C104170BDF80C1089B253
:10392000090A81709DF80A10C17004990171049907
:10393000090A41710499090C81710499090EC17138
:1039400001970027C2463A000199504601F01CFF3A
:103950009DF80B000090DFF8803C43F69A22494620
:10396000404601F061FF022001F0FBFF404602F0FB
:1039700044F806AB2200D2B29DF809102800FDF7EA
:10398000EDFA00F02DBE9DF80F00012866D10A97D0
:1039900000200190C246019A0A99504601F0F4FEB7
:1039A0002000C0B20090DFF8343C43F6A222494622
:1039B000404601F039FF022001F0D3FF404602F0FB
:1039C0001CF85846C0B2002814D19DF808105820A1
:1039D000414305EB010090F82A00052808D05FF06C
:1039E000010B07E098F100087CF80008A8EB00083C
:1039F0005FF0000B5846C0B2002828D00A97002775
:103A0000C2463A000A99504601F0BEFE2000C0B2FC
:103A10000090DFF85C3E41F6A1224946404601F0A5
:103A200003FF022001F09DFF404601F0D5FFDFF8C3
:103A30009C0B01900020009000239DF8092021009C
:103A4000C9B22800FCF75EFFFF2001F06BBE9DF8B5
:103A500008102800FDF749F800F0C2BD9DF80F00DE
:103A6000022804D09DF80F00032840F0B98558467D
:103A7000C0B200280ED19DF808105820414305EB34
:103A8000010090F82A00052802D05FF0010B01E048
:103A90005FF0000B5846C0B2002828D00A970027D4
:103AA000C2463A000A99504601F06EFE2000C0B2AC
:103AB0000090DFF8C03D41F6A1224946404601F0A2
:103AC000B3FE022001F04DFF404601F085FFDFF814
:103AD000FC0A01900020009000239DF8092021009D
:103AE000C9B22800FCF70EFFFF2001F01BBE0A97A9
:103AF00000200190C246019A0A99504601F044FE06
:103B00009DF808000090DFF8B03E43F607224946D2
:103B1000404601F089FE022001F023FF404601F0FB
:103B20006CFF5FF0580A9DF808000AFB00F028447B
:103B3000B0F97A0010F1010F59D00E9700200D90C6
:103B4000CDF800800D9A0E99009801F01DFE0098A6
:103B50009DF808000090DFF8203D43F60522494615
:103B6000404601F061FE022001F0FBFE404601F0FC
:103B700044FF9DF808000AFB00F02844B0F97A00E1
:103B800004F0FBF99DF808100AFB01F12944A1F8A3
:103B90007A000A9700200190CDF80080019A0A99D6
:103BA000009801F0F1FD00989DF808000090DFF802
:103BB0000C3E43F606224946404601F035FE0220FF
:103BC00001F0CFFE404601F018FF00200090DFF822
:103BD000F03DDFF8A82C9DF80810280004F072F9D9
:103BE0009DF808100AFB01F12944A1F87A009DF81C
:103BF00008000AFB00F02844008EADF80C009DF888
:103C000008000AFB00F0284490F832008DF80A0002
:103C10009DF80F00022840F0C9800A97002001900B
:103C2000CDF80080019A0A99009801F0ADFD009846
:103C30002000C0B20090DFF8483C43F6A22249467B
:103C4000404601F0F1FD022001F08BFE404601F0FC
:103C5000D4FE9DF808000AFB00F0284412998979E7
:103C600080F865101298407910F07F008DF81500EB
:103C700004AA9DF808102800FDF746F904980028CA
:103C80004AD19DF815009DF808100AFB01F129445E
:103C900091F86D1088423FD19DF808000AFB00FAA8
:103CA00005EB0A0090F86E00800050F0C1008DF81E
:103CB000180001200600082E04D2002006A988550D
:103CC000761CF8E701970027C2463A000199504652
:103CD00001F05AFD2000C0B20090DFF8A83B43F687
:103CE000A5224946404601F09FFD022001F039FE21
:103CF000404601F082FE06AB2200D2B29DF80910C8
:103D00002800FDF72BF901F00CBD00BF74F5000889
:103D100080010108000003059DF808000AFB00F07F
:103D200005EB00019DF808000AFB00F0284490F81C
:103D30006C209DF81530072000FB03228A639DF854
:103D400008000AFB00F02844406B9DF808100AFBAD
:103D500001F12944896B884244D20A970027C24660
:103D60003A000A99504601F00FFD2000C0B20090C1
:103D7000DFF8503C41F6A1224946404601F054FD8F
:103D8000022001F0EEFD404601F026FEDFF83C087F
:103D900001900020009000239DF809202100C9B265
:103DA0002800FCF7AFFDFF2001F0BCBC0A97002003
:103DB0000190CDF80080019A0A99009801F0E4FC86
:103DC00000982000C0B20090DFF8FC3B43F6A2222E
:103DD0004946404601F028FD022001F0C2FD404660
:103DE00001F00BFE9DF808000AFB00F028449DF846
:103DF00008100AFB01F12944896B80F86C1001203E
:103E00008DF80E009DF808000AFB00F0284490F899
:103E100065009DF80E108842C0F0E2839DF808000E
:103E20000AFB00F028449DF80E1080F86D1004AADB
:103E30009DF808102800FDF767F80498082851D36A
:103E40009DF80E008DF818000DF1190307229DF85A
:103E500008102800FCF7B6FB83465846C0B200287D
:103E600016D05FF0006001909DF80A000090BDF848
:103E70000C309DF809202100C9B22800FCF742FD52
:103E8000FF2001F04FBC00BFACF500080CF40008A7
:103E90000A9700200190CDF80080019A0A990098B5
:103EA00001F072FC00982000C0B20090DFF81C3BCB
:103EB00043F6A5224946404601F0B6FC022001F037
:103EC00050FD404601F099FD06AB2200D2B29DF8AC
:103ED00009102800FDF742F89DF80E00401C8DF8EF
:103EE0000E008FE79DF80E0050F080008DF818004E
:103EF0000DF11903049A9DF808102800FCF762FBE5
:103F000083465846C0B2002811D05FF0006001908F
:103F10009DF80A000090BDF80C309DF809202100A2
:103F2000C9B22800FCF7EEFCFF2001F0FBBB0498AF
:103F3000401C0600082E04D2002006A98855761CD5
:103F4000F8E70A97002001904746019A0A9938003D
:103F500001F01AFC2000C0B20090DFF8A03E43F64A
:103F6000A5224946404601F05FFC022001F0F9FC21
:103F7000404601F042FD06AB2200D2B29DF8091086
:103F80002800FCF7EBFF9DF808000AFB00FA05EBA0
:103F90000A000499D1F1070180F86E1020E300BFF8
:103FA0005CED000848F400089DF80F00002804D0DC
:103FB0009DF80F00022840F070825846C0B20028D9
:103FC0000ED19DF808105820414305EB010090F8F0
:103FD0002A00042802D05FF0010B01E05FF0000B23
:103FE0005846C0B2002828D00A970027C2463A0097
:103FF0000A99504601F0C8FB9DF80B000090DFF8CD
:10400000003E41F6AA224946404601F00DFC02203E
:1040100001F0A7FC404601F0DFFCDFF8B00501909D
:104020000020009000239DF809202100C9B228003B
:10403000FCF768FCFF2001F075BB0A970020019097
:10404000C246019A0A99504601F09EFB9DF808006D
:104050000090DFF8643943F607224946404601F0F4
:10406000E3FB022001F07DFC404601F0C6FC5FF05E
:10407000580A9DF808000AFB00F02844B0F97A00BD
:1040800010F1010F59D00E9700200D90CDF800804F
:104090000D9A0E99009801F077FB00989DF80800A2
:1040A0000090DFF8D43743F605224946404601F038
:1040B000BBFB022001F055FC404601F09EFC9DF840
:1040C00008000AFB00F02844B0F97A0003F055FF1D
:1040D0009DF808100AFB01F12944A1F87A000A971B
:1040E00000200190CDF80080019A0A99009801F013
:1040F0004BFB00989DF808000090DFF8C03843F6AD
:1041000006224946404601F08FFB022001F029FCBF
:10411000404601F072FC00200090DFF8A438DFF880
:104120005C279DF80810280003F0CCFE9DF80810CD
:104130000AFB01F12944A1F87A009DF80F0000283C
:1041400025D19DF808000AFB00F02844008EADF848
:104150000C009DF808000AFB00F0284490F832009B
:104160008DF80A009DF808000AFB00F02844129917
:104170000979C1F3800180F864109DF808000AFBFA
:1041800000F028441299097A80F86510A9E09DF89A
:1041900008000AFB00F028441299897980F865101C
:1041A0001298407910F07F008DF8150004AA9DF850
:1041B00008102800FCF7A8FE0498002848D19DF8B4
:1041C00015009DF808100AFB01F1294491F86D10C3
:1041D00088423DD19DF808000AFB00FA05EB0A0071
:1041E00090F86E00800050F0C1008DF8180001209A
:1041F0000600082E04D2002006A98855761CF8E790
:1042000001970027C2463A000199504601F0BCFAD6
:104210002000C0B20090DFF8F03D43F6A5224946E9
:10422000404601F001FB022001F09BFB404601F0FB
:10423000E4FB06AB2200D2B29DF809102800FCF77F
:104240008DFE01F06EBA00BFF0FB0008ACF800086C
:104250009DF808000AFB00F005EB00019DF808003E
:104260000AFB00F0284490F86C209DF815300720D8
:1042700000FB03228A639DF808000AFB00F0284433
:10428000406B9DF808100AFB01F12944896B8842B4
:1042900027D20A970027C2463A000A99504601F0F1
:1042A00073FA2000C0B20090DFF8603D41F6A12211
:1042B0004946404601F0B8FA022001F052FB404660
:1042C00001F08AFBC14801900020009000239DF876
:1042D00009202100C9B22800FCF714FBFF2001F0DF
:1042E00021BA9DF808000AFB00F028449DF8081048
:1042F0000AFB01F12944896B80F86C1001208DF8CC
:104300000E009DF808000AFB00F0284490F86500B4
:104310009DF80E108842C0F063819DF808000AFBEA
:1043200000F028449DF80E1080F86D1004AA9DF846
:1043300008102800FCF7E8FD0498082850D39DF8E1
:104340000E008DF818000DF1190307229DF80810D2
:104350002800FCF737F983465846C0B2002811D030
:104360005FF0006001909DF80A000090BDF80C30ED
:104370009DF809202100C9B22800FCF7C3FAFF20EC
:1043800001F0D0B90A9700200190CDF80080019A81
:104390000A99009801F0F8F900989DF80B00009038
:1043A000DFF8843E43F6AB224946404601F03CFA32
:1043B000022001F0D6FA404601F01FFB06AB2200B6
:1043C000D2B29DF809102800FCF7C8FD9DF80E0038
:1043D000401C8DF80E0094E7DCF80008E4F50008B6
:1043E0009DF80E0050F080008DF818000DF11903B3
:1043F000049A9DF808102800FCF7E4F88346584614
:10440000C0B2002811D05FF0006001909DF80A0052
:104410000090BDF80C309DF809202100C9B2280099
:10442000FCF770FAFF2001F07DB90498401C0600EB
:10443000082E04D2002006A98855761CF8E70A97B2
:10444000002001904746019A0A99380001F09CF932
:104450009DF80B000090DFF8D43D43F6AB224946AF
:10446000404601F0E1F9022001F07BFA404601F0FC
:10447000C4FA06AB2200D2B29DF809102800FCF75E
:104480006DFD9DF808000AFB00FA05EB0A0004998F
:10449000D1F1070180F86E10A2E09DF80F0001280D
:1044A00066D10D9700200A90C2460A9A0D9950468F
:1044B00001F06AF99DF80B000090DFF8743D43F6B7
:1044C000AC224946404601F0AFF9022001F049FA1A
:1044D000404601F092FA01970027C2463A0001993E
:1044E000504601F051F99DF808000090E24B43F668
:1044F00005224946404601F097F9022001F031FAC1
:10450000404601F07AFA5FF058089DF8080008FB71
:1045100000F02844B0F97A0003F02FFD9DF8081050
:1045200008FB01F12944A1F87A009DF8080008FB76
:1045300000F02844012180F82A109DF8080008FBAB
:1045400000F02844C06F00280AD09DF80B10280006
:104550009DF8082008FB02F805EB0802D26F90478F
:10456000002001F0DFB800BFD8F100085C040108AA
:104570000A970027C2463A000A99504601F004F90A
:104580009DF80B000090DFF8AC3C41F6AB224946A9
:10459000404601F049F9022001F0E3F9404601F0FC
:1045A0001BFA0A4801900020009000239DF8092082
:1045B0002100C9B22800FCF7A5F9FF2001F0B2B82C
:1045C000F00201084CF80008580501082100000815
:1045D00018F1000884EC000884E90008BCEE00082B
:1045E00001F09FB89DF80900012840F0E284584688
:1045F000C0B2002800F048811298007910F0010044
:104600008DF80F009DF80F00002828D00A9700278A
:10461000C2463A000A99504601F0B6F89DF80B00E0
:104620000090DFF8143C41F6AC224946404601F0C8
:10463000FBF8022001F095F9404601F0CDF9DFF8D2
:10464000FC0B01900020009000239DF80920210020
:10465000C9B22800FCF756F9FF2001F063B81298A0
:1046600080791299497951EA0021ADF80C1012981D
:10467000C0798DF80A00109700200F90C2460F9A5B
:104680001099504601F080F843F69B2A2000C0B2F2
:104690000090DFF8AC3B52464946404601F0C4F872
:1046A000022001F05EF9404601F0A7F90E970020C4
:1046B0000D90CDF800800D9A0E99009801F064F8E5
:1046C0000098BDF80C000090DFF8783B5246494650
:1046D000404601F0A9F8022001F043F9404601F0FC
:1046E0008CF90A9700200190CDF80080019A0A9970
:1046F000009801F049F800989DF80A000090DFF852
:10470000C03E52464946404601F08EF8022001F074
:1047100028F9404601F071F902AA9DF80910280015
:10472000FCF762FB83465846C0B2002829D00A979E
:104730000027C2463A000A99504601F025F80020A9
:104740000090DFF8803E41F689224946404601F05C
:104750006BF8022001F005F9404601F03DF9DFF861
:10476000DC0A01909DF80A000090BDF80C309DF81D
:1047700009202100C9B22800FCF7C4F8FF2000F08E
:10478000D1BF042001909DF80A000090BDF80C30C4
:104790002200D2B29DF808102800FCF7F2F9582048
:1047A0009DF8081041432944012281F86F209DF8AB
:1047B000081041432944129A1279C2F3800281F809
:1047C00064201299097989071AD59DF8081000FB11
:1047D00001F005EB00011298027A1298437A4FF427
:1047E000807000FB03221298837A5FF4803000FB14
:1047F00003221298C37A5FF0807000FB03228A665E
:10480000A0208DF8180006A8BDF80C104170BDF866
:104810000C1089B2090A81709DF80A10C17010212C
:1048200001710021C1718171417101970027C24658
:104830003A000199504600F0A7FF2000C0B2009056
:10484000DFF8A43E43F6AD224946404600F0ECFFB7
:10485000022001F086F8404601F0CFF806AB2200B6
:10486000D2B29DF809102800FCF778FB00F03BBF9E
:10487000D4E9000824EA00084801010831010008D1
:1048800018F2000800EF00085FF0580A9DF80800D1
:104890000AFB00F0284490F86F00012840F0A48142
:1048A0000E9700200D90CDF800800D9A0E9900987B
:1048B00000F06AFF00982000C0B20090DFF86C3E64
:1048C00043F69B224946404600F0AEFF022001F02D
:1048D00048F8404601F091F80A9700200190CDF881
:1048E0000080019A0A99009800F04EFF00989DF808
:1048F00008000090304B43F607224946404600F03E
:1049000093FF022001F02DF8404601F076F89DF863
:1049100008000AFB00F02844B0F97A0010F1010FFA
:1049200064D00E9700200D90CDF800800D9A0E995E
:10493000009800F029FF00989DF808000090DFF82B
:10494000F03D43F605224946404600F06DFF022047
:1049500001F007F8404601F050F89DF808000AFB06
:1049600000F02844B0F97A0003F007FB9DF8081026
:104970000AFB01F12944A1F87A000A97002001906E
:10498000CDF80080019A0A99009800F0FDFE009889
:104990009DF808000090094B43F606224946404620
:1049A00000F042FF022000F0DCFF404601F025F855
:1049B00000200090024B0BE08CFF0008640101080E
:1049C00000127A00A4ED000884F40008ACF5000899
:1049D000DFF8602D9DF80810280003F073FA9DF8A9
:1049E00008100AFB01F12944A1F87A001298007915
:1049F00010F07F008DF80E001298007900066FD538
:104A00009DF80E009DF808100AFB01F1294491F869
:104A10006D10491C884222D19DF808000AFB00F065
:104A20002844022180F86F109DF808000AFB00F06E
:104A300028449DF80E1080F86D1008200A901298F6
:104A4000001D01909DF808000AFB00F0284470301A
:104A500000900A9A0199009803F0D8F90098A220D2
:104A60008DF8180006A89DF808100AFB01F12944EA
:104A700091F86D104170102181700021C171817118
:104A800041710171C1700A97002001904746019A57
:104A90000A99380000F078FE2000C0B20090DFF8DC
:104AA000983C43F6AE224946404600F0BDFE022047
:104AB00000F057FF404600F0A0FF06AB2200D2B244
:104AC0009DF809102800FCF749FA9DF808000AFB38
:104AD00000FA05EB0A00002180F86D1000F003BE1B
:104AE0009DF80E009DF808100AFB01F1294491F889
:104AF0006D10491C884231D19DF808000AFB00F076
:104B000028449DF80E1080F86D101298431D07225E
:104B10009DF808102800FBF7F4FD83465846C0B204
:104B200000281BD05FF0006001909DF808000AFB90
:104B300000F0284490F8320000909DF808000AFB2D
:104B400000FA05EB0A00038E9DF809202100C9B286
:104B50002800FBF7D7FEFF2000F0E4BD9DF80E0013
:104B6000102840F0C085A2208DF8180006A89DF8F6
:104B700008100AFB01F1294491F86D1041701021D1
:104B800081700021C171817141710171C1700A97F9
:104B9000002001904746019A0A99380000F0F4FD80
:104BA0002000C0B20090DFF8903B43F6AE224946A9
:104BB000404600F039FE022000F0D3FE404600F0EF
:104BC0001CFF06AB2200D2B29DF809102800FCF7AA
:104BD000C5F99DF808000AFB00FA05EB0A00002160
:104BE00080F86D1000F07FBD9DF808000AFB00F012
:104BF000284490F86F00022840F075850A9700203D
:104C00000190CDF80080019A0A99009800F0BCFD4F
:104C100000982000C0B20090DFF8203B43F69B22B2
:104C20004946404600F000FE022000F09AFE404651
:104C300000F0E3FE12980079C00728D40A970027F5
:104C4000C2463A000A99504600F09EFD2000C0B2CC
:104C50000090DFF8EC3A41F6AD224946404600F0BC
:104C6000E3FD022000F07DFE404600F0B5FEDFF8D7
:104C7000CC0501900020009000239DF80920210020
:104C8000C9B22800FBF73EFEFF2000F04BBD0A979B
:104C900000200190CDF80080019A0A99009800F058
:104CA00073FD00989DF808000090DFF8983A43F6ED
:104CB00007224946404600F0B7FD022000F051FEB1
:104CC000404600F09AFE9DF808000AFB00F02844D8
:104CD000B0F97A0010F1010F59D00E9700200D9015
:104CE000CDF800800D9A0E99009800F04DFD0098C7
:104CF0009DF808000090DFF8383A43F6052249464F
:104D0000404600F091FD022000F02BFE404600F0EE
:104D100074FE9DF808000AFB00F02844B0F97A0000
:104D200003F02BF99DF808100AFB01F12944A1F8C2
:104D30007A000A9700200190CDF80080019A0A9924
:104D4000009800F021FD00989DF808000090DFF821
:104D5000F83943F606224946404600F065FD022038
:104D600000F0FFFD404600F048FE00200090DFF814
:104D7000DC39DFF8C0299DF80810280003F0A2F8FC
:104D80009DF808100AFB01F12944A1F87A00129855
:104D90000079C0F382008DF821009DF808000AFB1D
:104DA00000F0284410F171039DF82120D2F1070290
:104DB0009DF808102800FBF7A4FC83465846C0B2B3
:104DC00000281FD05FF0006001909DF808000AFBEA
:104DD00000F0284490F8320000909DF808000AFB8B
:104DE00000FA05EB0A00038E9DF809202100C9B2E4
:104DF0002800FBF787FDFF2000F094BC0CF40008AE
:104E000074EA00089DF808000AFB00F02844806E50
:104E1000002843D09DF808000AFB00F02844806E6B
:104E20009DF808100AFB01F12944896B884235D0AE
:104E30000D9700200A9047460A9A0D99380000F015
:104E4000A3FC2000C0B20090DFF8043941F6AE2286
:104E50004946404600F0E8FC022000F082FD404652
:104E600000F0BAFDDFF8D40301909DF808000AFBBA
:104E700000F0284490F8320000909DF808000AFBEA
:104E800000FA05EB0A00038E9DF809202100C9B243
:104E90002800FBF737FDFF2000F044BCA1208DF86F
:104EA000180001200600082E04D2002006A988550B
:104EB000761CF8E70A9700200190CDF80080019A4F
:104EC0000A99009800F060FC00982000C0B20090A1
:104ED000DFF8803843F6AF224946404600F0A4FC94
:104EE000022000F03EFD404600F087FD06AB2200A8
:104EF000D2B29DF809102800FCF730F89DF8081090
:104F00002800FBF708FA09900998002832D00D977D
:104F100000200A9047460A9A0D99380000F034FCA8
:104F200000200090DFF8303841F6AF224946404675
:104F300000F07AFC022000F014FD404600F04CFD29
:104F4000099801909DF808000AFB00F0284490F8A9
:104F5000320000909DF808000AFB00FA05EB0A00F9
:104F6000038E9DF809202100C9B22800FBF7CAFC76
:104F7000FF20D7E39DF808102800FBF7B6FD019746
:104F80000027C2463A000199504600F0FDFB200080
:104F9000C0B20090DFF8C43743F6AF22494640461E
:104FA00000F042FC022000F0DCFC404600F025FD51
:104FB00099E35846C0B200282AD00A970027C24673
:104FC0003A000A99504600F0DFFB9DF80B00009074
:104FD000DFF88C3741F6AD224946404600F024FC0C
:104FE000022000F0BEFC404600F0F6FC9348019021
:104FF0000020009000239DF809202100C9B228005C
:10500000FBF780FCFF208DE344EF000888EF0008E9
:105010000A9700200190C246019A0A99504600F072
:10502000B3FB9DF808000090DFF8183743F607221D
:105030004946404600F0F8FB022000F092FC404652
:1050400000F0DBFC5FF0580A9DF808000AFB00F056
:105050002844B0F97A0010F1010F59D00E970020C2
:105060000D90CDF800800D9A0E99009800F08CFB01
:1050700000989DF808000090DFF8B43643F605224A
:105080004946404600F0D0FB022000F06AFC404652
:1050900000F0B3FC9DF808000AFB00F02844B0F9CA
:1050A0007A0002F06AFF9DF808100AFB01F129441A
:1050B000A1F87A000A9700200190CDF80080019AAB
:1050C0000A99009800F060FB00989DF80800009095
:1050D000DFF8743643F606224946404600F0A4FB4A
:1050E000022000F03EFC404600F087FC00200090CB
:1050F000DFF85836DFF83C269DF80810280002F04B
:10510000E1FE9DF808100AFB01F12944A1F87A009C
:105110009DF808000AFB00F0284490F86F00002872
:1051200040F0928012980079C00700F1DC820A9763
:1051300000200190CDF80080019A0A99009800F0B3
:1051400023FB00989DF80B000090DFF8183643F61B
:105150009C224946404600F067FB022000F001FC1B
:10516000404600F04AFC9DF808000AFB00F0284485
:10517000012180F86F109DF808000AFB00F0284418
:1051800012990979C1F3800180F8641012980079AE
:1051900080071AD59DF808000AFB00FA05EB0A0102
:1051A0001298027A1298437A4FF4807000FB03221F
:1051B0001298837A5FF4803000FB03221298C37A3E
:1051C0005FF0807000FB03228A66A3208DF8180030
:1051D00001200600082E04D2002006A98855761C5E
:1051E000F8E701970027C2463A000199504600F0BF
:1051F000CBFA9DF80B000090DFF86C3543F6B62231
:105200004946404600F010FB022000F0AAFB404651
:1052100000F0F3FB06AB2200D2B29DF80910280083
:10522000FBF79CFE5FE200BFA0FA00080CF9000843
:10523000CCFA0008CCEF000810F0000821000008AC
:1052400058F20008480401089DF808000AFB00F025
:10525000284490F86F00012840F0FB8012980079F4
:1052600010F07F008DF80E001298007900066ED5C0
:105270009DF80E009DF808100AFB01F1294491F8F1
:105280006D10491C884222D19DF808000AFB00F0ED
:105290002844022180F86F109DF808000AFB00F0F6
:1052A00028449DF80E1080F86D1008200A9012987E
:1052B000001D01909DF808000AFB00F028447030A2
:1052C00000900A9A0199009802F0A0FD0098A2208F
:1052D0008DF8180006A89DF808100AFB01F1294472
:1052E00091F86D104170102181700021C1718171A0
:1052F00041710171C1700A97002001904746019ADF
:105300000A99380000F040FA9DF80B000090DFF891
:105310005C3443F6B7224946404600F085FA022045
:1053200000F01FFB404600F068FB06AB2200D2B243
:105330009DF809102800FBF711FE9DF808000AFBF4
:1053400000FA05EB0A00002180F86D10CBE19DF812
:105350000E009DF808100AFB01F1294491F86D1028
:10536000491C884230D19DF808000AFB00F028440F
:105370009DF80E1080F86D101298431D07229DF8BD
:1053800008102800FBF7BDF983465846C0B2002834
:105390001AD05FF0006001909DF808000AFB00F051
:1053A000284490F8320000909DF808000AFB00FAAB
:1053B00005EB0A00038E9DF809202100C9B22800E0
:1053C000FBF7A0FAFF20ADE19DF80E00102840F099
:1053D0008A81A2208DF8180006A89DF808100AFB03
:1053E00001F1294491F86D10417010218170002164
:1053F000C171817141710171C1700A9700200190E2
:105400004746019A0A99380000F0BEF99DF80B0052
:105410000090DFF8583343F6AE224946404600F08C
:1054200003FA022000F09DFA404600F0E6FA06ABCF
:105430002200D2B29DF809102800FBF78FFD9DF8DD
:1054400008000AFB00FA05EB0A00002180F86D1045
:1054500049E19DF808000AFB00F0284490F86F002D
:10546000022840F0408112980079C00727D40A979B
:105470000027C2463A000A99504600F085F99DF887
:105480000B000090DFF8E83241F6AD224946404675
:1054900000F0CAF9022000F064FA404600F09CFADD
:1054A000DFF8D00201900020009000239DF8092031
:1054B0002100C9B22800FBF725FAFF2032E112983B
:1054C0000079C0F382008DF821009DF808000AFBE6
:1054D00000F0284410F171039DF82120D2F1070259
:1054E0009DF808102800FBF70CF983465846C0B217
:1054F00000281AD05FF0006001909DF808000AFBB8
:1055000000F0284490F8320000909DF808000AFB53
:1055100000FA05EB0A00038E9DF809202100C9B2AC
:105520002800FBF7EFF9FF20FCE09DF808000AFBDC
:1055300000F02844806E002846D09DF808000AFB41
:1055400000F02844806E9DF808100AFB01F1294400
:10555000896B884238D00D9700200A9047460A9AF6
:105560000D99380000F010F99DF80B000090DFF85D
:10557000083241F6AE224946404600F055F9022075
:1055800000F0EFF9404600F027FADFF8E80101905B
:105590009DF808000AFB00F0284490F832000090C3
:1055A0009DF808000AFB00FA05EB0A00038E9DF83F
:1055B00009202100C9B22800FBF7A4F9FF20B1E0BF
:1055C000D802010818F10008A1208DF81800012068
:1055D0000600082E04D2002006A98855761CF8E79C
:1055E000109700200F90CDF800800F9A1099009826
:1055F00000F0CAF800989DF80B000090DFF87C31AD
:1056000043F6AF224946404600F00EF9022000F072
:10561000A8F9404600F0F1F906AB2200D2B29DF89D
:1056200009102800FBF79AFC0E9700200D90CDF88A
:1056300000800D9A0E99009800F0A6F800980020BE
:105640000090DFF83C3143F6AF224946404600F077
:10565000EBF8022000F085F9404600F0CEF90A97F9
:10566000002001904746019A0A99380000F08CF812
:105670009DF8080000902E4B43F60522494640460F
:1056800000F0D2F8022000F06CF9404600F0B5F9C5
:105690009DF808000AFB00F02844B0F97A0002F0F7
:1056A0006CFC9DF808100AFB01F12944A1F87A006E
:1056B0009DF808000AFB00F02844012180F82A1018
:1056C0009DF808000AFB00F02844C06F00280AD0AB
:1056D0009DF80B1028009DF808200AFB02FA05EB44
:1056E0000A02D26F90471CE098F200080197002749
:1056F000C2463A000199504600F046F89DF8200055
:105700000090DFF8803041F6B2224946404600F072
:105710008BF8022000F025F9404600F05DF9FF20EB
:1057200000E0002013B0BDE8F08F0000C0F40008D6
:1057300048010108310100081CF60008FCF40008CB
:10574000ECED00088CFF00086401010800127A00EB
:10575000D8F2000838F5000898F0000854F6000860
:10576000C0F60008F4F60008F8FA00083CF9000852
:1057700054F000082100000818F3000828F700087A
:10578000A8FD000824FB000862F30F2262F31F4209
:10579000401810F0030308D0C91A1FD3DB0748BF15
:1057A00000F8012D28BF20F8022D130030B4144654
:1057B0001546103928BF20E93C00FAD8490728BF10
:1057C00020E90C0048BF40F8042D890028BF20F8CC
:1057D000022D48BF00F8012D30BC7047C91818BF12
:1057E00000F8012DCB0728BF00F8012D704730B419
:1057F000002513E050F8042BD30744BFA9F101039F
:105800009A18091F042942F8045BFAD213468C0740
:1058100044BF15809B1CC90748BF1D7050F8041B6E
:105820000029E7D130BC70470CB430B583B00A46CC
:1058300006A90291044600250194009502AB01A936
:10584000084878441E3002F073FD019A1570002854
:105850004EBF04460198041B204603B030BC5DF8DF
:105860000CFB00BF5726000078B585B0040004216A
:1058700000226D462800FFF787FF1021002201ADAE
:105880002800FFF781FF4F4D280003F0B5FD4E487B
:105890008188ADF8001003218DF8021018218DF8D1
:1058A00003106946006803F0F5FE48488188ADF8AA
:1058B000001004218DF803106946006803F0EAFE29
:1058C000434EB088ADF8000010208DF80300694603
:1058D000306803F0DFFEB088316848610194002031
:1058E000ADF808000020ADF80A000020ADF80C006B
:1058F0000020ADF810000C20ADF80E0001A9280022
:1059000003F0C2FD0121280003F034FE06B070BD93
:1059100080B527208DF8000003208DF801000220BB
:105920008DF8020001208DF80300684603F073FF34
:1059300001BD70B504000D00224E40F22771300009
:1059400003F094FE2200D2B240F22551300003F061
:1059500020FE2A00D2B240F22661300003F019FE88
:1059600070BD4FF460514843401C0100481E00299F
:10597000FBD17047134909880906FBD50100C9B25C
:10598000144A11807047F8B504000E000020104D35
:10599000A9882A68116100273800310080B289B2D5
:1059A000884206D2380080B2205CFFF7E3FF7F1CFC
:1059B000F2E7044800884006FBD5A88829684861BA
:1059C000F1BD000000480040100701081807010859
:1059D000200701080448004010B50400200003F02F
:1059E00071FF010089B22000FFF7CDFF0D20FFF706
:1059F000C1FF0A20FFF7BEFF10BD10B50400200054
:105A000003F060FF010089B22000FFF7BCFF0D200A
:105A1000FFF7B0FF0A20FFF7ADFF10BD2DE9FE4FE5
:105A200084B005000E00109F4FF480740394002092
:105A30000290DFF82486C146029A03994846FFF790
:105A4000A3FEDFF81896280080B20090DFF8103629
:105A500042F6093249464046FFF7E6FE0220FFF7CC
:105A600080FF4046FFF7C9FF01945FF0000AC3467C
:105A7000524601995846FFF787FE3000C0B20090A9
:105A8000DFF8E03542F6103249464046FFF7CCFEDB
:105A90000220FFF766FF4046FFF7AFFF3800DFF850
:105AA000C815401A4BD04FF6FE71401A13D0DFF8DC
:105AB000BC15401A00F08F80DFF8B415401A58D09A
:105AC000DFF8B015401A20D0203800F09E80401E2C
:105AD00000F0B380C9E05FF0000AC34652462100DF
