:020000040800F2
:10000000482E0020A5C60008F9BA0008FBBA00086F
:10001000FDBA0008FFBA000801BB0008000000009C
:1000200000000000000000000000000003BB00080A
:1000300005BB00080000000007BB000809BB000862
:10004000A5C70008A9C70008ADC700084BBB00083A
:10005000B1C70008B5C70008B9C70008BDC7000888
:10006000C1C70008C5C70008C9C70008CDC7000838
:10007000D1C70008D5C70008D9C70008DDC70008E8
:10008000E1C70008E5C70008E9C70008EDC7000898
:10009000DDBB0008F1C70008F5C70008F9C7000874
:1000A000FDC70008597A000801C8000805C8000803
:1000B00009C800080DC8000811C8000815C80008C4
:1000C00019C800081DC8000821C8000825C8000874
:1000D00029C800082DC8000831C8000875BB0008F1
:1000E00035C8000839C800083DC8000841C80008E4
:1000F00045C8000849C800084DC8000851C8000894
:1001000055C8000859C800085DC8000861C8000843
:1001100065C8000869C800086DC8000871C80008F3
:1001200075C8000879C800087DC8000881C80008A3
:100130002DE9FE4F04000D0060694088ADF808000D
:10014000BDF8080000280CD05826A0694188BDF8E9
:10015000082006FB05F0204490F828008218914200
:1001600000DA6DE06168BDF8082006FB05F0204468
:1001700090F82800821851F83200C06A07684FF4DE
:1001800080785FF00009DFF800ABD3464A4641466D
:10019000584603F01FFD00200090DFF8F03A41F6CA
:1001A0000122DFF8EC1A504603F064FD504603F0DC
:1001B00041FE5FF0FF3006FB05F12144A1F87A0013
:1001C000852006FB05F1214481F82A00DFF8C4AA46
:1001D000CDF804A006FB05F0204490F83200009012
:1001E00006FB05F02044038E06FB05F0204490F842
:1001F000282006FB05F0204490F82910200000F08C
:100200005FFD06FB05F02044C0F82CA006FB05F0BE
:100210002044C06F002807D03900C9B2200006FB77
:1002200005F22244D26F904706FB05F604EB060068
:10023000C06A504504D12900C9B2200000F0E1FA9B
:10024000BDE8F78F38B5040000252800C0B20528A6
:1002500006DA2900C9B2200000F0D3FA6D1CF4E7D9
:1002600031BD38B584B004000D0058212800C0B25B
:1002700048432044406B002809D12800C0B24843BD
:1002800020442A00D2B24A432244926B426328009F
:10029000C0B248432044406B0390039821281CD3EC
:1002A000012002900120019003A800902800C0B214
:1002B00048432044C36D2800C0B24843204490F80E
:1002C00032202800C0B201FB00F104EB0100018ED6
:1002D000200003F087FE01001CE0012002900120B5
:1002E000019003A800902800C0B24843204410F1B8
:1002F0003C032800C0B24843204490F83220280034
:10030000C0B201FB00F104EB0100018E200003F0FC
:1003100069FE0100002901D0080000E0002005B0BE
:1003200030BD2DE9F04186B005000E00202005907B
:100330005827012003900120029004A8019005A8ED
:1003400000903000C0B27843284410F13C033000E4
:10035000C0B27843284490F832203000C0B27843CD
:100360002844018E280003F08AFD0400DFF82809E4
:1003700084423BD1059840F20141884236D2300098
:10038000C0B2784305EB0008059804F0E1F9C8F81D
:100390005C003000C0B278432844C06D002825D0EE
:1003A0003000C0B2784328440599016601200390CB
:1003B0000120029004A801903000C0B27843284484
:1003C000603000903000C0B278432844C36D3000E4
:1003D000C0B27843284490F832203000C0B278434D
:1003E0002844018E280003F04AFD0400002C01D0AF
:1003F00020000EE03000C0B27843284405994163E4
:100400003000C0B207FB00F705EB07000021816355
:10041000002006B0BDE8F0812DE9FE4F04000D007C
:1004200016001F0058212800C0B248432044406BEA
:100430002A00D2B24A432244926BB21890421AD296
:100440004FF480795FF0000ADFF83C88C3465246DB
:100450004946584603F0BEFB0096DFF8403841F6A7
:100460001122DFF82C18404603F004FC404603F04C
:10047000E1FCFF2067E02800C0B248432044D0F8E8
:1004800038802800C0B248432044406B212814D251
:1004900000221000C0B2B04248D22800C0B2484387
:1004A00020441300DBB213EB0803184490F83C001F
:1004B0001300DBB2F854521CEBE72800C0B24843EB
:1004C0002044C06D00281DD14FF4807001905FF072
:1004D0000009DFF8B4A7D3464A460199584603F00D
:1004E00079FB2800C0B20090DFF8B43741F6112242
:1004F000DFF89C17504603F0BDFB504603F09AFC12
:10050000FF2020E000221000C0B2B0420ED228002E
:10051000C0B248432044C06D1300DBB213EB0803A4
:10052000C05C1300DBB2F854521CECE72800C0B2E8
:10053000484320442B00DBB201FB03F12144896BCB
:10054000711881630020BDE8FE8F2DE9F84F84B05B
:1005500005000E0017005FF058093000C0B209FB1B
:1005600000F02844806B01903000C0B209FB00F01D
:10057000284410F13C083000C0B209FB00F02844C8
:10058000806B38182128C0F0B8803000C0B209FB59
:1005900000F02844C06D00284DD13000C0B209FBE6
:1005A00000F005EB00044FF4806004F0D1F8E06542
:1005B0003000C0B209FB00F028444FF480610166AE
:1005C0003000C0B209FB00F02844C06D00281CD1E7
:1005D0004FF480745FF00009DFF8ACA6D3464A46BA
:1005E0002100584603F0F6FA4FF480600090DFF8DF
:1005F000B43641F61522DFF89816504603F03AFB60
:10060000504603F017FCFF2097E00198009030005F
:10061000C0B209FB00F0284410F13C043000C0B225
:1006200009FB00F02844D0F85CA0009A2100504655
:1006300005F068FC5AE03000C0B209FB00F0284425
:10064000006E3100C9B209FB01F12944896B7918A8
:1006500088424BD23000C0B209FB00F02844016E42
:1006600011F580613000C0B209FB00F02844C06D74
:1006700005F09DFC0400002C24D14FF48070039001
:1006800000200290DFF800A6D346029A039958464C
:1006900003F0A0FA3000C0B209FB00F905EB090035
:1006A000006E10F580600090DFF8FC3541F61522F1
:1006B000DFF8DC15504603F0DDFA504603F0BAFBD4
:1006C000FF203AE03000C0B209FB00F02844C465C6
:1006D0003000C0B209FB00F028443100C9B209FB68
:1006E00001F12944096E11F5806101663000C0B244
:1006F00009FB00F02844C06D804600210800C0B20C
:10070000B8420BD204980A00D2B2825C019B080066
:10071000C0B2C31808F80320491CEFE73000C0B28C
:1007200009FB00F028443200D2B209FB02F905EBC4
:100730000902926BBA188263002005B0BDE8F08F01
:100740002DE9FF4704000D0016001F00DDF834807E
:1007500002AB3200D2B22900C9B2200000F093F9F6
:1007600081464846C0B2002808D13000C0B20128F6
:1007700004D19DF80810200000F043F84846C0B2AC
:10078000002825D13000C0B2022821D15FF0580ADC
:100790009DF808000AFB00F02044B0F97A0005F04B
:1007A00064FC9DF808100AFB01F12144A1F87A00CD
:1007B0009DF808000AFB00F02044852180F82A10EB
:1007C0009DF808000AFB00FA04EB0A00C0F82C8030
:1007D000CDF804809DF8300000903B009BB22A00C9
:1007E000D2B23100C9B2200000F06AFA010008005C
:1007F000C0B2002801D0FF2000E0002004B0BDE816
:10080000F0873EB504000D0000200190002000900C
:10081000002300222900C9B2200000F01FF80021A7
:1008200020290BD22A00D2B25820424304EB020006
:100830000844002280F83C20491CF1E758202A0097
:10084000D2B242432244002382F829302A00D2B295
:1008500000FB02F020440022C26237BD2DE9FC47B4
:1008600006000F00904699460A9C0B9D2800C0B2D6
:1008700002280BD02800C0B2032807D02800C0B23D
:10088000042803D02800C0B2052813D1002000900E
:10089000DFF81834DFF818243900C9B2300005F049
:1008A00089FB3A00D2B258214A4306EB0201A1F873
:1008B0007A0010E058203900C9B2414306EB010A22
:1008C0003900C9B200FB01F03044B0F97A0005F0FC
:1008D000CCFBAAF87A005FF0580A3800C0B20AFBD5
:1008E00000F0304480F828803800C0B20AFB00F0E5
:1008F0003044A0F830903800C0B20AFB00F0304419
:1009000080F832403800C0B20AFB00F0304480F872
:100910002A503800C0B20AFB00F03044002180F8B1
:100920002B103800C0B20AFB00F0304400214163B4
:100930003800C0B20AFB00F0304400218163380067
:10094000C0B20AFB00F03044002180F86410380087
:10095000C0B20AFB00F03044002180F86510380076
:10096000C0B20AFB00F03044002180F86610380065
:10097000C0B20AFB00F03044002181663800C0B2EA
:100980000AFB00F03044002180F86C103800C0B23F
:100990000AFB00F03044002180F86D103800C0B22E
:1009A0000AFB00F03044002180F86E103800C0B21D
:1009B0000AFB00F03044002180F86F103800C0B20C
:1009C0000AFB00F03044002180F878103800C0B2F3
:1009D0000AFB00F030440021C1673800C0B20AFBB6
:1009E00000F03044C06D05F0E0FA3800C0B20AFBF8
:1009F00000F030440021C1653800C0B20AFB00FAA3
:100A000006EB0A00002101660020BDE8F6872DE90B
:100A1000F84F04000D00160000273800C0B205286A
:100A200015DA58213800C0B24843204490F82A0013
:100A300000280AD137703800C0B201FB00F104EB86
:100A4000010080F8295000201BE07F1CE5E74FF4EF
:100A500080785FF00009DFF830A2D3464A4641466D
:100A6000584603F0B7F83800C0B20090914B41F6F9
:100A700025228749504603F0FDF8504603F0DAF985
:100A8000FF20BDE8F28FF0B4040000252800C0B2BA
:100A900005282DDA58262800C0B27043204490F86B
:100AA0002A00002822D02800C0B27043204490F8C9
:100AB0002A0085281AD02800C0B27043204490F83C
:100AC00028000F00FFB2B84210D12800C0B206FBC8
:100AD00000F604EB060090F829001600F6B2B042CA
:100AE00004D1002B00D01D70002002E06D1CCDE76A
:100AF000FF20F0BC704730B4030058240800C0B297
:100B000060431844406B002802D1002010600DE0C3
:100B10000800C0B260431844456B0800C0B204FB33
:100B200000F403EB0400806B2D1A1560002030BC2C
:100B3000704710B403000C00E4B25820444303EBA8
:100B400004004263002010BC70472DE9F24F84B0CE
:100B5000040015001E0094F8E001052805D094F863
:100B6000E0017F2801D0FF208AE09DF810000128D5
:100B700035D160690788380080B2002808D0A069A4
:100B800001883A0092B22800C0B28218914219DA64
:100B90004FF480785FF00009DFF8ECA0D3464A46B6
:100BA0004146584603F016F800200090424B41F6AB
:100BB00042223749504603F05DF8504603F03AF9B7
:100BC000FF205DE061683A0092B22800C0B282184E
:100BD00051F83200006A0068ADF8040034E0606942
:100BE0004788380080B2002808D0A06941883A00C0
:100BF00092B22800C0B28218914219DA4FF480787C
:100C00005FF00009DFF880A0D3464A4641465846C7
:100C100002F0E0FF00200090284B41F642221C49E0
:100C2000504603F027F8504603F004F9FF2027E070
:100C300061683A0092B22800C0B2821851F83200BE
:100C400040690068ADF8040000208DF80600082017
:100C50008DF807005FF000084046C0B208280ADAA5
:100C60004046C0B2305C01A94246D2B2114408717C
:100C700018F10108F0E701A9D4F84C0205F029FBAE
:100C800005B0BDE8F08F00006017002050C40008D8
:100C9000E4C60008000004050500040578C3000848
:100CA000A4C30008D0C3000818C3000800127A00CB
:100CB0003101000810C5000874C5000894C500087B
:100CC0002DE9FE4305000E00170098460A9CDDF84A
:100CD0002C9080208DF8000040468DF801004046A1
:100CE00080B2000A8DF802008DF8034048468DF866
:100CF00004004846000A8DF805004846000C8DF8AF
:100D000006004846000E8DF807006B463A00D2B246
:100D10003100C9B22800FFF718FFC0B2BDE8FE835A
:100D20002DE9F84F8EB005000E0000208DF80D0063
:100D3000032100200A90032768690088ADF81C0091
:100D4000A8690088ADF8220000208DF80F00BDF8DA
:100D50001C0000284BD0BDF82200BDF81C108842B2
:100D600045D36868BDF81C1000EBC100007902286B
:100D700020DA4FF4807001905FF00009DFF808AED0
:100D8000D3464A460199584602F024FF9DF80F00C9
:100D900010F590500090DFF8F43D41F66122DFF845
:100DA000F01D504602F066FF504603F043F8FF2066
:100DB00002F0F2BE6868BDF81C1050F831004069BE
:100DC0000A900A9800683188884205D101200700FE
:100DD0009DF80F0004000AE09DF80F00401C8DF8FC
:100DE0000F00BDF81C00401CADF81C00B3E7380034
:100DF000C0B2032863D168694088ADF81C00A869B7
:100E00004088ADF8220000208DF80F00BDF81C00CE
:100E1000002854D0BDF82200BDF81C1088424ED3E3
:100E20006868BDF81C1000EBC1000079042820DAC6
:100E30004FF4807001905FF00009DFF84CADD346AD
:100E40004A460199584602F0C5FE9DF80F0010F57C
:100E500094500090DFF83C3D41F66322DFF8301DEE
:100E6000504602F007FF504602F0E4FFFF2002F078
:100E700093BE6868BDF81C1050F83100006A0A90F3
:100E80000A980068318888420ED1022007009DF838
:100E90000F0004006868BDF81C1050F83100C06AEB
:100EA00000788DF80D000AE09DF80F00401C8DF8C9
:100EB0000F00BDF81C00401CADF81C00AAE738006C
:100EC000C0B2032802D1FF2002F066BEF0780828E5
:100ED0002AD04FF480700C905FF00009DFF8A8ACC6
:100EE000D3464A460C99584602F074FE0020009002
:100EF000DFF8A43C41F66722DFF8941C504602F06C
:100F0000B9FE504602F096FF5FF0006001900020AD
:100F1000009000233A00D2B22100C9B22800FFF7A6
:100F20000FFCFF2002F038BE02AB3A00D2B2210023
:100F3000C9B22800FFF7A7FD8146FF208DF81F00EA
:100F40004846C0B2002825D13800C0B2012809D1D6
:100F50009DF808105820414305EB010090F82A0045
:100F600004280DD03800C0B2022813D19DF8081013
:100F70005820414305EB010090F82A00052809D1CB
:100F80003079802803D104208DF81F0002E006206C
:100F90008DF81F009DF81F00FF2804D13079C0B2E2
:100FA00040098DF81F009DF81F00002810D002286E
:100FB00000F07685C0F0AA82042801F07482C0F0A7
:100FC000DF87062802F02B80C1F0C08202F0C5BD89
:100FD0003800C0B2012840F054814846C0B2002811
:100FE0000ED19DF808105820414305EB010090F800
:100FF0002A00022802D05FF0010901E05FF0000939
:101000004846C0B200282BD04FF480700D900020CD
:101010000C90DFF874ABD3460C9A0D99584602F049
:10102000D9FD2000C0B20090DFF8703B41F670227D
:10103000DFF85C1B504602F01DFE504602F0FAFE3F
:10104000DFF85C0B01900020009000233A00D2B240
:101050002100C9B22800FFF773FBFF2002F09CBDFE
:101060005FF0580A9DF808000AFB00F02844B0F928
:101070007A0010F1010F21D09DF808000AFB00F062
:101080002844B0F97A0004F0F0FF9DF808100AFB3C
:1010900001F12944A1F87A0000200090DFF8043B18
:1010A000DFF8042B9DF80810280004F083FF9DF85A
:1010B00008100AFB01F12944A1F87A009DF8080004
:1010C0000AFB00F02844008EADF80A009DF80800E5
:1010D0000AFB00F0284490F832008DF809009DF8D2
:1010E00008000AFB00F0284490F82B003179C1F386
:1010F000001188422ED04FF480700D9000200C908B
:10110000DFF884AAD3460C9A0D99584602F062FD86
:101110003079C0F300100090DFF8903A41F6722267
:10112000DFF86C1A504602F0A5FD504602F082FE30
:10113000DFF87C0A01909DF809000090BDF80A30A4
:101140003A00D2B22100C9B22800FFF7F9FAFF2015
:1011500002F022BD3079C0F34200D0F107000490C4
:10116000731D049A9DF808102800FFF7EEF98146D8
:101170004846C0B2002811D05FF0006001909DF891
:1011800009000090BDF80A303A00D2B22100C9B27D
:101190002800FFF7D5FAFF2002F0FEBC9DF80800FA
:1011A0000AFB00F0284490F82B00000150F02000CA
:1011B0008DF8140001208046B8F1080F06D20020F7
:1011C00005A901F8080018F10108F5E705AB2200B0
:1011D000D2B23900C9B22800FFF7B7FC9DF8080069
:1011E0000AFB00F0284490F82B00002801D10120D0
:1011F00000E000209DF808100AFB01FA05EB0A0147
:1012000081F82B003079C00740F17E819DF80810ED
:101210002800FFF726F80990099800282BD04FF4F2
:1012200080700D9000200C90DFF85CA9D3460C9ADA
:101230000D99584602F0CEFC00200090DFF874397A
:1012400041F65422DFF84819504602F013FD50468B
:1012500002F0F0FD099801909DF809000090BDF89A
:101260000A303A00D2B22100C9B22800FFF768FA6A
:10127000FF2002F091BC9DF808102800FFF7C1FA8A
:1012800042E14846C0B200280ED19DF8081058200F
:10129000414305EB010090F82A00032802D05FF0DB
:1012A000010901E05FF000094846C0B200282BD0D8
:1012B0004FF480700D9000200C90DFF8CCA8D3463E
:1012C0000C9A0D99584602F085FC9DF80D0000908F
:1012D000DFF8303E41F67522DFF8B418504602F0D0
:1012E000C9FC504602F0A6FDDFF8B40801900020CA
:1012F000009000233A00D2B22100C9B22800FFF7C3
:101300001FFAFF2002F048BC5FF0580A9DF8080061
:101310000AFB00F02844B0F97A0010F1010F21D047
:101320009DF808000AFB00F02844B0F97A0004F0A8
:101330009CFE9DF808100AFB01F12944A1F87A00EF
:1013400000200090DFF85C38DFF85C289DF808107A
:10135000280004F02FFE9DF808100AFB01F1294433
:10136000A1F87A009DF808000AFB00F02844008EDE
:10137000ADF80A009DF808000AFB00F0284490F838
:1013800032008DF809009DF808000AFB00F028449F
:1013900090F82B003179C1F3001188422DD04FF421
:1013A00080700D9000200C90DFF8DCA7D3460C9ADB
:1013B0000D99584602F00EFC9DF80D000090DFF8E4
:1013C000483D41F67622DFF8C817504602F052FC3D
:1013D000504602F02FFDDFF8D80701909DF8090074
:1013E0000090BDF80A303A00D2B22100C9B22800FC
:1013F000FFF7A6F9FF2002F0CFBB3079C0F342001F
:10140000D0F107000490731D049A9DF8081028007D
:10141000FFF79BF881464846C0B2002811D05FF024
:10142000006001909DF809000090BDF80A303A0074
:10143000D2B22100C9B22800FFF782F9FF2002F0E2
:10144000ABBB9DF808000AFB00F0284490F82B0085
:10145000002801D1012000E000209DF808100AFBBF
:1014600001F1294481F82B003079C0072BD59DF874
:1014700008000AFB00F02844B0F97A0004F0F5FDFA
:101480009DF808100AFB01F12944A1F87A009DF8A3
:1014900008000AFB00F02844012180F82A109DF87A
:1014A00008000AFB00F02844C06F00282CD09DF8EB
:1014B0000D1028009DF808200AFB02FA05EB0A022D
:1014C000D26F904720E09DF808000AFB00FA05EB78
:1014D0000A0090F82B00000150F060008DF8140015
:1014E00001208046B8F1080F06D2002005A901F8B6
:1014F000080018F10108F5E705AB2200D2B2390067
:10150000C9B22800FFF721FB02F045BB3800C0B28A
:10151000012840F03B81B079717951EA0021ADF8A2
:101520000A10F0798DF809004846C0B200282CD185
:101530004FF480700D9000200C90DFF84CA6D3463D
:101540000C9A0D99584602F045FB00200090DFF8F8
:10155000BC3B41F68122DFF83816504602F08AFB88
:10156000504602F067FCDFF8380601909DF809004C
:101570000090BDF80A303A00D2B22100C9B228006A
:10158000FFF7DEF8FF2002F007BB02AA3900C9B25C
:101590002800FFF73CFA81464846C0B200282CD00C
:1015A0004FF480700D9000200C90DFF8DCA5D3463E
:1015B0000C9A0D99584602F00DFB00200090DFF8C0
:1015C000503B41F68222DFF8C815504602F052FB2C
:1015D000504602F02FFCDFF8C80501909DF8090085
:1015E0000090BDF80A303A00D2B22100C9B22800FA
:1015F000FFF7A6F8FF2002F0CFBA022001909DF875
:1016000009000090BDF80A302200D2B29DF80810FF
:101610002800FFF723F93079C0F34000002867D095
:101620003079C0F38100D0F10400049004999DF852
:1016300008205820424305EB0200416316F10803DD
:10164000049A9DF808102800FEF77FFF814648465F
:10165000C0B2002811D05FF0006001909DF8090031
:101660000090BDF80A303A00D2B22100C9B2280079
:10167000FFF766F8FF2002F08FBA9DF808102800E7
:10168000FEF7EFFD0990099800282BD04FF48070E9
:101690000D9000200C90DFF8F0A4D3460C9A0D9921
:1016A000584602F097FA00200090DFF8083541F61E
:1016B0008422DFF8DC14504602F0DCFA504602F0D7
:1016C000B9FB099801909DF809000090BDF80A3017
:1016D0003A00D2B22100C9B22800FFF731F8FF204A
:1016E00002F05ABA9DF808102800FFF78AF82AE09D
:1016F0003079C00727D5307A717A10EB0120B17AA2
:1017000010EB0140F17A10EB01600490049A9DF80F
:1017100008102800FFF70DFA81464846C0B200289D
:1017200011D05FF0006001909DF809000090BDF8B5
:101730000A303A00D2B22100C9B22800FFF700F8FF
:10174000FF2002F029BA60208DF8140005A8BDF82A
:101750000A104170BDF80A1089B2090A81709DF81B
:101760000910C17004218846B8F1080F05D2002184
:1017700000F8081018F10108F6E705AB2200D2B214
:101780003900C9B22800FFF7E0F987E14846C0B246
:1017900000280ED19DF808105820414305EB0100A8
:1017A00090F82A00022802D05FF0010901E05FF002
:1017B00000094846C0B200282BD04FF480700D902D
:1017C00000200C90DFF8C0A3D3460C9A0D99584620
:1017D00002F000FA9DF80D000090DFF8283941F67C
:1017E0008522DFF8AC13504602F044FA504602F06E
:1017F00021FBDFF8AC0301900020009000233A00A9
:10180000D2B22100C9B22800FEF79AFFFF2002F0F1
:10181000C3B95FF0580A9DF808000AFB00F028449D
:10182000B0F97A0010F1010F1FD09DF808000AFBF3
:1018300000F02844B0F97A0004F017FC9DF8081075
:101840000AFB01F12944A1F87A0000200090D54B51
:10185000D54A9DF80810280004F0ACFB9DF808104C
:101860000AFB01F12944A1F87A009DF808000AFB5F
:1018700000F02844008EADF80A009DF808000AFB2D
:1018800000F0284490F832008DF809009DF8080017
:101890000AFB00F0284490F82B003179C1F30011C5
:1018A00088422BD04FF480700D9000200C90DFF810
:1018B000D8A2D3460C9A0D99584602F08BF99DF8A0
:1018C0000D000090DFF8403841F68622B0495046BE
:1018D00002F0D0F9504602F0ADFAB54801909DF8FB
:1018E00009000090BDF80A303A00D2B22100C9B216
:1018F0002800FEF725FFFF2002F04EB904AA9DF84C
:1019000008102800FFF7F7F8049800282DD19DF85B
:1019100008000AFB00F02844B0F97A0004F0A5FBA7
:101920009DF808100AFB01F12944A1F87A009DF8FE
:1019300008000AFB00F02844012180F82A109DF8D5
:1019400008000AFB00F02844C06F00280AD09DF868
:101950000D1028009DF808200AFB02FA05EB0A0288
:10196000D26F9047002002F017B9049808283CD3A2
:101970009DF808000AFB00F0284490F82B0000288E
:1019800001D1012000E000209DF808100AFB01F1C0
:10199000294481F82B009DF808000AFB00FA05EBAA
:1019A0000A0090F82B0000018DF814000DF11503CA
:1019B00007229DF808102800FEF72EFD81464846B4
:1019C000C0B2002862D05FF0006001909DF809006D
:1019D0000090BDF80A303A00D2B22100C9B2280006
:1019E000FEF7AEFEFF2002F0D7B89DF808000AFB14
:1019F00000F0284490F82B00002801D1012000E0DD
:101A000000209DF808100AFB01F1294481F82B0001
:101A10009DF808000AFB00FA05EB0A0090F82B007D
:101A200000010499D1F1070150EA410050F0010092
:101A30008DF814000DF11503049A9DF80810280084
:101A4000FEF7EAFC81464846C0B2002811D05FF09C
:101A5000006001909DF809000090BDF80A303A003E
:101A6000D2B22100C9B22800FEF76AFEFF2002F0C0
:101A700093B80498401C8046B8F1080F06D20020A5
:101A800005A901F8080018F10108F5E705AB2200E7
:101A9000D2B23900C9B22800FFF757F802F07BB87C
:101AA0003800C0B2012840F04681B079717951EA1E
:101AB0000021ADF80A10F0798DF809004846C0B24F
:101AC00000282BD14FF480700D9000200C90DFF88F
:101AD000B8A0D3460C9A0D99584602F07BF89DF8B1
:101AE00008000090DFF8103C41F692222849504649
:101AF00002F0C0F8504602F09DF9294801909DF887
:101B000009000090BDF80A303A00D2B22100C9B2F3
:101B10002800FEF715FEFF2002F03EB802AA3900A9
:101B2000C9B22800FEF773FF81464846C0B20028BC
:101B300042D04FF480700D9000200C90DFF848A048
:101B4000D3460C9A0D99584602F044F800200090B4
:101B5000DFF8BC3541F671220D49504602F08AF893
:101B6000504602F067F90E4801909DF80900009078
:101B7000BDF80A303A00D2B22100C9B22800FEF7FF
:101B8000DFFDFF2002F008B860170020B4C5000890
:101B9000E4C60008D4C5000874C60008E0BD00080B
:101BA0002100000800127A003101000858C6000820
:101BB0000000030538C10008032001909DF80900CA
:101BC0000090BDF80A302200D2B29DF8081028001B
:101BD000FEF744FE9DF808102800FEF7A2FB0990CE
:101BE000099800282BD04FF480700D9000200C90A5
:101BF000DFF88CADD3460C9A0D99584601F0EAFFF8
:101C000009980090DFF87C3D41F69422DFF8241E0D
:101C1000504602F02FF8504602F00CF90998019056
:101C20009DF809000090BDF80A303A00D2B22100B8
:101C3000C9B22800FEF784FDFF2001F0ADBF04AA61
:101C40009DF808102800FEF756FF0498052822D3B7
:101C500041208DF8140005A8BDF80A104170BDF8A8
:101C60000A1089B2090A81709DF80910C17004999F
:101C700001710499090A41710499090C817104994F
:101C8000090EC17105AB2200D2B23900C9B22800D9
:101C9000FEF75BFF72E10498D0F10400800050F081
:101CA00043008DF814000DF1140ABDF80A008AF8FB
:101CB0000100BDF80A0080B2000A8AF802009DF80F
:101CC00009008AF8030006AB049A9DF80810280062
:101CD000FEF7A2FB81464846C0B2002811D05FF053
:101CE000006001909DF809000090BDF80A303A00AC
:101CF000D2B22100C9B22800FEF722FDFF2001F078
:101D00004BBF0498001D8046B8F1080F05D2002093
:101D10000AF8080018F10108F6E705AB2200D2B274
:101D20003900C9B22800FEF710FF9DF808102800FE
:101D3000FEF767FD22E14846C0B200280ED19DF8AB
:101D400008105820414305EB010090F82A000328B1
:101D500002D05FF0010901E05FF000094846C0B21F
:101D600000282BD04FF480700D9000200C90DFF8ED
:101D700010ACD3460C9A0D99584601F02BFF9DF8F4
:101D80000D000090DFF8B03C41F69722DFF8A41C6C
:101D9000504601F06FFF504602F04CF8DFF89C0C03
:101DA00001900020009000233A00D2B22100C9B275
:101DB0002800FEF7C5FCFF2001F0EEBE5FF0580AD8
:101DC0009DF808000AFB00F02844B0F97A0010F1F1
:101DD000010F21D09DF808000AFB00F02844B0F95B
:101DE0007A0004F042F99DF808100AFB01F1294439
:101DF000A1F87A0000200090DFF8443CDFF8442C82
:101E00009DF80810280004F0D5F89DF808100AFB8A
:101E100001F12944A1F87A009DF808000AFB00F0BE
:101E20002844008EADF80A009DF808000AFB00F077
:101E3000284490F832008DF809003079C0F3400052
:101E4000002859D03079C0F38100D0F1040004900B
:101E500016F10803049A9DF808102800FEF775FB98
:101E600083465846C0B2002811D05FF00060019050
:101E70009DF809000090BDF80A303A00D2B2210066
:101E8000C9B22800FEF75CFCFF2001F085BE9DF87A
:101E900008000AFB00F02844B0F97A0004F0E5F8E5
:101EA0009DF808100AFB01F12944A1F87A009DF879
:101EB00008000AFB00F02844049941639DF80800DB
:101EC0000AFB00F02844012180F82A109DF8080040
:101ED0000AFB00F02844C06F00280AD09DF80D10BE
:101EE00028009DF808200AFB02FA05EB0A02D26FCF
:101EF0009047002001F050BE3079C00727D5307AD6
:101F0000717A10EB0120B17A10EB0140F17A10EBFD
:101F100001600490049A9DF808102800FEF709FE5D
:101F200081464846C0B2002811D05FF000600190A1
:101F30009DF809000090BDF80A303A00D2B22100A5
:101F4000C9B22800FEF7FCFBFF2001F025BE60208F
:101F50008DF8140001208046B8F1080F06D2002049
:101F600005A901F8080018F10108F5E705AB220002
:101F7000D2B23900C9B22800FEF7E7FD01F00BBE6E
:101F80003800C0B2012840F060814846C0B2002845
:101F90000ED19DF808105820414305EB010090F840
:101FA0002A00032802D05FF0010901E05FF0000978
:101FB0004846C0B200282BD04FF480700D9000200E
:101FC0000C90DFF8BCA9D3460C9A0D99584601F045
:101FD00001FE2000C0B20090DFF86C3A4FF4D552F9
:101FE000DFF8501A504601F045FE504601F022FF3E
:101FF000DFF8480A01900020009000233A00D2B296
:102000002100C9B22800FEF79BFBFF2001F0C4BDF0
:102010005FF0580A9DF808000AFB00F02844B0F968
:102020007A0010F1010F21D09DF808000AFB00F0A2
:102030002844B0F97A0004F018F89DF808100AFB5B
:1020400001F12944A1F87A0000200090DFF8F0396E
:10205000DFF8F0299DF80810280003F0ABFF9DF889
:1020600008100AFB01F12944A1F87A009DF8080044
:102070000AFB00F02844008EADF80A009DF8080025
:102080000AFB00F0284490F832008DF809009DF812
:1020900008000AFB00F0284490F82B003179C1F3C6
:1020A0000011884236D04FF480700D9000200C90C3
:1020B000DFF8CCA8D3460C9A0D99584601F08AFD5A
:1020C0003079C0F300100090DFF8803941F6A22289
:1020D000DFF86019504601F0CDFD504601F0AAFE30
:1020E000DFF86C0901909DF809000090BDF80A30F6
:1020F0003A00D2B22100C9B22800FEF721FBFF202E
:1021000001F04ABD78BE000878C1000878C4000814
:10211000B8C1000804AA9DF808102800FEF7EBFCDF
:102120000498082845D39DF808000AFB00F02844CD
:1021300090F82B0000018DF814000DF11503072213
:102140009DF808102800FEF767F981464846C0B29E
:10215000002811D05FF0006001909DF80900009008
:10216000BDF80A303A00D2B22100C9B22800FEF709
:10217000E7FAFF2001F010BD9DF808000AFB00F00F
:10218000284490F82B00002801D1012000E0002015
:102190009DF808100AFB01FA05EB0A0181F82B00F3
:1021A00005AB2200D2B23900C9B22800FEF7CDFC3F
:1021B00077E19DF808000AFB00FA05EB0A0090F8A9
:1021C0002B0000010499D1F1070150EA410050F0C1
:1021D00001008DF814000DF11503049A9DF8081004
:1021E0002800FEF719F981464846C0B2002811D0F0
:1021F0005FF0006001909DF809000090BDF80A3082
:102200003A00D2B22100C9B22800FEF799FAFF20A5
:1022100001F0C2BC0498401C8046B8F1080F06D2F9
:10222000002005A901F8080018F10108F5E705AB41
:102230002200D2B23900C9B22800FEF786FC9DF810
:1022400008102800FEF7DDFA2BE14846C0B200284E
:102250000ED19DF808105820414305EB010090F87D
:102260002A00022802D05FF0010901E05FF00009B6
:102270004846C0B200282BD04FF480700D9000204B
:102280000C90DFF8FCA6D3460C9A0D99584601F045
:10229000A1FC9DF80D000090DFF8B83741F6A522AB
:1022A000DFF89017504601F0E5FC504601F0C2FD02
:1022B000DFF8880701900020009000233A00D2B296
:1022C0002100C9B22800FEF73BFAFF2001F064BCF0
:1022D0005FF0580A9DF808000AFB00F02844B0F9A6
:1022E0007A0010F1010F21D09DF808000AFB00F0E0
:1022F0002844B0F97A0003F0B8FE9DF808100AFBF4
:1023000001F12944A1F87A0000200090DFF830376D
:10231000DFF830279DF80810280003F04BFE9DF8E9
:1023200008100AFB01F12944A1F87A009DF8080081
:102330000AFB00F02844008EADF80A009DF8080062
:102340000AFB00F0284490F832008DF8090004AA36
:102350009DF808102800FEF7CEFB049800282DD128
:102360009DF808000AFB00F02844B0F97A0003F059
:102370007CFE9DF808100AFB01F12944A1F87A00BF
:102380009DF808000AFB00F02844012180F82A107B
:102390009DF808000AFB00F02844C06F00280AD00E
:1023A0009DF80D1028009DF808200AFB02FA05EBA5
:1023B0000A02D26F9047002001F0EEBB0498082873
:1023C00029D39DF808000AFB00FA05EB0A0090F8F3
:1023D0002B0000018DF814000DF1150307229DF864
:1023E00008102800FEF718F881464846C0B20028B9
:1023F0004FD05FF0006001909DF809000090BDF89B
:102400000A303A00D2B22100C9B22800FEF798F98A
:10241000FF2001F0C1BB9DF808000AFB00FA05EBA4
:102420000A0090F82B0000010499D1F1070150EA4D
:10243000410050F001008DF814000DF11503049ACD
:102440009DF808102800FDF7E7FF81464846C0B216
:10245000002811D05FF0006001909DF80900009005
:10246000BDF80A303A00D2B22100C9B22800FEF706
:1024700067F9FF2001F090BB0498401C8046B8F13A
:10248000080F06D2002005A901F8080018F101087C
:10249000F5E705AB2200D2B23900C9B22800FEF739
:1024A00054FB01F078BB307A717A50EA0120B17A9E
:1024B00050EA0140F17A50EA01600B903800C0B256
:1024C000012809D14846C0B200283DD19DF8081026
:1024D0002800FEF796F937E04846C0B2002833D10D
:1024E0005FF0580A9DF808000AFB00F02844B0F994
:1024F0007A0003F0BAFD9DF808100AFB01F12944A7
:10250000A1F87A009DF808000AFB00F02844802119
:1025100080F82A109DF808000AFB00F028440B9967
:10252000C1629DF808000AFB00F02844C06F002833
:102530000AD09DF80D1028009DF808200AFB02FA29
:1025400005EB0A02D26F904701F025BB307910F0FD
:1025500003008DF80E003800C0B2012840F025833A
:102560009DF80E00002840F0FB80B079717951EAA7
:102570000021ADF80A10F0798DF809004846C0B284
:1025800000282CD14FF480700D9000200C90DFF8C3
:10259000F0A3D3460C9A0D99584601F01BFB9DF809
:1025A00008000090544B41F69322DFF888145046FF
:1025B00001F060FB504601F03DFCDFF88004019023
:1025C0009DF809000090BDF80A303A00D2B221000F
:1025D000C9B22800FEF7B4F8FF2001F0DDBA02AA64
:1025E0003900C9B22800FEF712FA81464846C0B247
:1025F00000282CD04FF480700D9000200C90DFF854
:1026000080A3D3460C9A0D99584601F0E3FA0020B6
:102610000090DFF8F83D41F67322DFF818145046B9
:1026200001F028FB504601F005FCDFF81004019092
:102630009DF809000090BDF80A303A00D2B221009E
:10264000C9B22800FEF77CF8FF2001F0A5BA0520EA
:1026500001909DF809000090BDF80A302200D2B226
:102660009DF808102800FEF7F9F85FF0580A9DF869
:1026700008000AFB00F028443179C1F3800180F89A
:1026800064109DF808000AFB00F02844317A80F8B5
:1026900065109DF808102800FDF743FE0990099881
:1026A00000282BD04FF480700D9000200C90DFF8A4
:1026B000D0A2D3460C9A0D99584601F08BFA09988E
:1026C0000090B04B41F69522DA49504601F0D2FA1B
:1026D000504601F0AFFB099801909DF80900009069
:1026E000BDF80A303A00D2B22100C9B22800FEF784
:1026F00027F8FF2001F050BA48C3000804AA9DF84B
:1027000008102800FEF7F7F99DF808000AFB00FA08
:1027100005EB0A0004998166C2208DF8140005A813
:10272000BDF80A104170BDF80A1089B2090A81701B
:102730009DF80910C170049901710499090A417149
:102740000499090C81710499090EC17105AB22002D
:10275000D2B23900C9B22800FEF7F7F900F05DBC2B
:102760009DF80E00012846D14846C0B200280ED17F
:102770009DF808105820414305EB010090F82A000D
:10278000052802D05FF0010901E05FF0000948462A
:10279000C0B2002828D04FF480700D9000200C901B
:1027A000DFF8DCA1D3460C9A0D99584601F012FAD5
:1027B0002000C0B20090A84B41F6A1229D4950468E
:1027C00001F058FA504601F035FB9C48019000207A
:1027D000009000233A00D2B22100C9B22800FDF7D0
:1027E000AFFFFF2001F0D8B99DF808102800FEF7D0
:1027F00008F800F012BC9DF80E00022804D09DF8E5
:102800000E00032840F009844846C0B200280ED1CB
:102810009DF808105820414305EB010090F82A006C
:10282000052802D05FF0010901E05FF00009484689
:10283000C0B2002828D04FF480700D9000200C907A
:10284000DFF83CA1D3460C9A0D99584601F0C2F925
:102850002000C0B20090814B41F6A122754950463C
:1028600001F008FA504601F0E5FA744801900020A2
:10287000009000233A00D2B22100C9B22800FDF72F
:102880005FFFFF2001F088B95FF0580A9DF808004B
:102890000AFB00F02844B0F97A0010F1010F1FD0B4
:1028A0009DF808000AFB00F02844B0F97A0003F014
:1028B000DCFB9DF808100AFB01F12944A1F87A001D
:1028C000002000905E4B5F4A9DF80810280003F03E
:1028D00071FB9DF808100AFB01F12944A1F87A0068
:1028E0009DF808000AFB00F02844008EADF80A00AD
:1028F0009DF808000AFB00F0284490F832008DF89B
:1029000009009DF80E00022840F0AA809DF80800FA
:102910000AFB00F02844B17980F86510707910F056
:102920007F008DF81E0004AA9DF808102800FEF70D
:10293000E2F80498002831D19DF81E009DF8081097
:102940000AFB01F1294491F86D10884226D19DF8C7
:1029500008000AFB00FA05EB0A0090F86E00800000
:1029600050F0C1008DF8140001208046B8F1080F26
:102970000AD2002005A901F8080018F10108F5E7BE
:1029800060170020C0BE000805AB2200D2B239009B
:10299000C9B22800FEF7D9F801F0FDB89DF808008B
:1029A0000AFB00F005EB00019DF808000AFB00F0AF
:1029B000284490F86C209DF81E30072000FB03226D
:1029C0008A639DF808000AFB00F02844406B9DF8DC
:1029D00008100AFB01F12944896B884240D24FF468
:1029E00080700D9000200C90DFF8A8ADD3460C9AB3
:1029F0000D99584601F0EEF82000C0B20090DFF8C3
:102A0000983D41F6A1220B49504601F033F950465A
:102A100001F010FA094801900020009000233A00CC
:102A2000D2B22100C9B22800FDF78AFEFF2001F0D2
:102A3000B3B800BFE4C6000808BF000821000008C2
:102A400000127A00310100082CBE000858C60008A8
:102A50000000030550BF0008F0BC000840BD00089E
:102A60009DF808000AFB00F028449DF808100AFBB6
:102A700001F12944896B80F86C1001208DF80C005D
:102A80009DF808000AFB00F0284490F865009DF8C6
:102A90000C108842C0F0C1829DF808000AFB00F0CB
:102AA00028449DF80C1080F86D1004AA9DF80810B9
:102AB0002800FEF720F80498082830D39DF80C0071
:102AC0008DF814000DF1150307229DF80810280059
:102AD000FDF7A2FC81464846C0B2002811D05FF045
:102AE000006001909DF809000090BDF80A303A009E
:102AF000D2B22100C9B22800FDF722FEFF2001F06A
:102B00004BB805AB2200D2B23900C9B22800FEF79B
:102B10001CF89DF80C00401C8DF80C00B0E79DF8E7
:102B20000C0050F080008DF814000DF11503049A8C
:102B30009DF808102800FDF76FFC81464846C0B29A
:102B4000002811D05FF0006001909DF8090000900E
:102B5000BDF80A303A00D2B22100C9B22800FDF710
:102B6000EFFDFF2001F018B80498401C8046B8F132
:102B7000080F06D2002005A901F8080018F1010885
:102B8000F5E705AB2200D2B23900C9B22800FDF743
:102B9000DCFF9DF808000AFB00FA05EB0A00049927
:102BA000D1F1070180F86E1037E29DF80E00002881
:102BB00004D09DF80E00022840F0CF814846C0B2F4
:102BC00000280ED19DF808105820414305EB010064
:102BD00090F82A00042802D05FF0010901E05FF0BC
:102BE00000094846C0B200282BD04FF480700D90E9
:102BF00000200C90DFF89CABD3460C9A0D995846F8
:102C000000F0E8FF9DF80D000090DFF8903B41F6E2
:102C1000AA22DFF88C1B504601F02CF8504601F038
:102C200009F9DFF8800B01900020009000233A00A2
:102C3000D2B22100C9B22800FDF782FDFF2000F0CA
:102C4000ABBF5FF0580A9DF808000AFB00F028446B
:102C5000B0F97A0010F1010F21D09DF808000AFBAD
:102C600000F02844B0F97A0003F0FFF99DF808104D
:102C70000AFB01F12944A1F87A0000200090DFF856
:102C80004C3EDFF84C2E9DF80810280003F092F916
:102C90009DF808100AFB01F12944A1F87A009DF87B
:102CA0000E00002823D19DF808000AFB00F02844FC
:102CB000008EADF80A009DF808000AFB00F02844D9
:102CC00090F832008DF809009DF808000AFB00F02A
:102CD00028443179C1F3800180F864109DF8080020
:102CE0000AFB00F02844317A80F8651090E09DF8E6
:102CF00008000AFB00F02844B17980F8651070796B
:102D000010F07F008DF81E0004AA9DF8081028001E
:102D1000FDF7F1FE049800282DD19DF81E009DF8C6
:102D200008100AFB01F1294491F86D10884222D164
:102D30009DF808000AFB00FA05EB0A0090F86E0007
:102D4000800050F0C1008DF8140001208046B8F1D9
:102D5000080F06D2002005A901F8080018F10108A3
:102D6000F5E705AB2200D2B23900C9B22800FDF761
:102D7000ECFE00F010BF9DF808000AFB00F005EB28
:102D800000019DF808000AFB00F0284490F86C2030
:102D90009DF81E30072000FB03228A639DF808007F
:102DA0000AFB00F02844406B9DF808100AFB01F173
:102DB0002944896B88422BD24FF480700D900020FB
:102DC0000C90DFF8D0A9D3460C9A0D99584600F024
:102DD00001FF2000C0B20090DFF8C43D41F6A122FF
:102DE000DFF8BC19504600F045FF504601F022F8CC
:102DF000DFF8B00901900020009000233A00D2B221
:102E00002100C9B22800FDF79BFCFF2000F0C4BEE2
:102E10009DF808000AFB00F028449DF808100AFB02
:102E200001F12944896B80F86C1001208DF80C00A9
:102E30009DF808000AFB00F0284490F865009DF812
:102E40000C108842C0F0E9809DF808000AFB00F0F1
:102E500028449DF80C1080F86D1004AA9DF8081005
:102E60002800FDF748FE0498082830D39DF80C0090
:102E70008DF814000DF1150307229DF808102800A5
:102E8000FDF7CAFA81464846C0B2002811D05FF06B
:102E9000006001909DF809000090BDF80A303A00EA
:102EA000D2B22100C9B22800FDF74AFCFF2000F091
:102EB00073BE05AB2200D2B23900C9B22800FDF7BB
:102EC00044FE9DF80C00401C8DF80C00B0E79DF806
:102ED0000C0050F080008DF814000DF11503049AD9
:102EE0009DF808102800FDF797FA81464846C0B2C1
:102EF000002811D05FF0006001909DF8090000905B
:102F0000BDF80A303A00D2B22100C9B22800FDF75C
:102F100017FCFF2000F040BE0498401C8046B8F12A
:102F2000080F06D2002005A901F8080018F10108D1
:102F3000F5E705AB2200D2B23900C9B22800FDF78F
:102F400004FE9DF808000AFB00FA05EB0A0004994C
:102F5000D1F1070180F86E105FE09DF80E000128A6
:102F60002FD15FF0580A9DF808000AFB00F02844B2
:102F7000B0F97A0003F079F89DF808100AFB01F126
:102F80002944A1F87A009DF808000AFB00F02844C3
:102F9000012180F82A109DF808000AFB00F028445F
:102FA000C06F00280AD09DF80D1028009DF8082059
:102FB0000AFB02FA05EB0A02D26F9047002000F0EC
:102FC000EBBD4FF480700D9000200C90DFF8C4A78B
:102FD000D3460C9A0D99584600F0FCFD9DF80D0063
:102FE0000090DFF8C03B41F6AB22DFF8B417504643
:102FF00000F040FE504600F01DFFDFF8A8070190EA
:103000000020009000233A00D2B22100C9B228006B
:10301000FDF796FBFF2000F0BFBD00F0BCBD3800FF
:10302000C0B2012840F012834846C0B2002800F028
:10303000CD80307910F001008DF80E009DF80E0063
:1030400000282BD04FF480700D9000200C90DFF8FA
:1030500044A7D3460C9A0D99584600F0BBFD9DF845
:103060000D000090DFF8403B41F6AC22DFF830174E
:10307000504600F0FFFD504600F0DCFEDFF824076C
:1030800001900020009000233A00D2B22100C9B282
:103090002800FDF755FBFF2000F07EBDB079717967
:1030A00051EA0021ADF80A10F0798DF8090002AA62
:1030B0003900C9B22800FDF7AAFC81464846C0B2D3
:1030C00000282BD04FF480700D9000200C90DFF87A
:1030D000C4A6D3460C9A0D99584600F07BFD0020FB
:1030E0000090CA4B41F68922DFF8B416504600F032
:1030F000C1FD504600F09EFEDFF8A80601909DF845
:1031000009000090BDF80A303A00D2B22100C9B2DD
:103110002800FDF715FBFF2000F03EBD04200190C4
:103120009DF809000090BDF80A302200D2B29DF847
:1031300008102800FDF792FB58209DF80810414325
:103140002944012281F86F209DF808104143294449
:103150003279C2F3800281F864203179890716D56B
:103160009DF8081000FB01F005EB0001327A737A3C
:103170004FF4807000FB0322B37A5FF4803000FBD1
:103180000322F37A5FF0807000FB03228A66A0209E
:103190008DF8140005A8BDF80A104170BDF80A109A
:1031A00089B2090A81709DF80910C170102101715E
:1031B0000021C1718171417105AB2200D2B2390089
:1031C000C9B22800FDF7C1FC00F0C6BC5FF0580A88
:1031D0009DF808000AFB00F0284490F86F000128D1
:1031E00040F0F0809DF808000AFB00F02844B0F998
:1031F0007A0010F1010F21D09DF808000AFB00F0C1
:103200002844B0F97A0002F030FF9DF808100AFB5C
:1032100001F12944A1F87A0000200090DFF8AC38D1
:10322000DFF8AC289DF80810280002F0C3FE9DF8D6
:1032300008100AFB01F12944A1F87A00307910F056
:103240007F008DF80C003079000653D59DF80C00F6
:103250009DF808100AFB01F1294491F86D10491CF2
:10326000884220D19DF808000AFB00F02844022182
:1032700080F86F109DF808000AFB00F028449DF8C4
:103280000C1080F86D1008200190301D00909DF802
:1032900008000AFB00F0284410F1700B019A009915
:1032A000584602F02FFEA2208DF8140005A89DF8C4
:1032B00008100AFB01F1294491F86D1041701021AA
:1032C00081700021C171817141710171C17005ABC3
:1032D0002200D2B23900C9B22800FDF736FC9DF8B1
:1032E00008000AFB00FA05EB0A00002180F86D10C7
:1032F00000F032BC9DF80C009DF808100AFB01F1AB
:10330000294491F86D10491C884230D19DF808007D
:103310000AFB00F028449DF80C1080F86D10731D16
:1033200007229DF808102800FDF70FF9814648464E
:10333000C0B200281BD05FF0006001909DF808002B
:103340000AFB00F0284490F8320000909DF8080035
:103350000AFB00FA05EB0A00038E3A00D2B2210004
:10336000C9B22800FDF7ECF9FF2000F015BC9DF86C
:103370000C00102840F0F083A2208DF8140005A85E
:103380009DF808100AFB01F1294491F86D10417075
:10339000102181700021C171817141710171C17071
:1033A00005AB2200D2B23900C9B22800FDF7CDFB2F
:1033B0009DF808000AFB00FA05EB0A00002180F8DE
:1033C0006D10C9E39DF808000AFB00F0284490F84E
:1033D0006F00022840F0C0833079C0072CD44FF42E
:1033E00080700D9000200C90DFF8A8A3D3460C9AB3
:1033F0000D99584600F0EEFB2000C0B20090DFF8B7
:10340000AC3741F6AD22E64902E000BFB8C1000882
:10341000504600F02FFC504600F00CFDE1480190B2
:103420000020009000233A00D2B22100C9B2280047
:10343000FDF786F9FF20AFE39DF808000AFB00F0D6
:103440002844B0F97A0010F1010F21D09DF808004E
:103450000AFB00F02844B0F97A0002F006FE9DF85D
:1034600008100AFB01F12944A1F87A00002000901D
:10347000DFF85836DFF858269DF80810280002F0CB
:1034800099FD9DF808100AFB01F12944A1F87A0082
:103490003079C0F382008DF820009DF808000AFB07
:1034A00000F0284410F171039DF82020D2F10702AA
:1034B0009DF808102800FDF748F881464846C0B23C
:1034C00000281AD05FF0006001909DF808000AFB08
:1034D00000F0284490F8320000909DF808000AFBA4
:1034E00000FA05EB0A00038E3A00D2B22100C9B2FD
:1034F0002800FDF725F9FF204EE39DF808000AFBA0
:1035000000F02844806E002844D09DF808000AFB93
:1035100000F02844806E9DF808100AFB01F1294450
:10352000896B884236D04FF480700D9000200C904B
:10353000DFF860B2CDF800B00C9A0D99009800F059
:1035400049FB00982000C0B20090DFF8643641F6D5
:10355000AE229349584600F08DFB584600F06AFCB5
:10356000904801909DF808000AFB00F0284490F86C
:10357000320000909DF808000AFB00FA05EB0A00F3
:10358000038E3A00D2B22100C9B22800FDF7D8F864
:10359000FF2001E3A1208DF8140001208046B8F13E
:1035A000080F06D2002005A901F8080018F101084B
:1035B000F5E705AB2200D2B23900C9B22800FDF709
:1035C000C4FA9DF808102800FCF74BFE09900998F2
:1035D000002835D04FF480700D9000200C90DFF85B
:1035E000B4B1CDF800B00C9A0D99009800F0F2FA41
:1035F000009800200090DFF8BC3541F6AF22684902
:10360000584600F037FB584600F014FC099801902A
:103610009DF808000AFB00F0284490F83200009062
:103620009DF808000AFB00FA05EB0A00038E3A0039
:10363000D2B22100C9B22800FDF782F8FF20ABE228
:103640009DF808102800FDF7DCF885E24846C0B276
:10365000002828D04FF480700D9000200C90DFF8E7
:1036600034A1D3460C9A0D99584600F0B3FA9DF850
:103670000D000090DFF8403541F6AD224849504634
:1036800000F0F8FA504600F0D5FB464801900020C3
:10369000009000233A00D2B22100C9B22800FDF701
:1036A0004FF8FF2078E25FF0580A9DF808000AFB07
:1036B00000F02844B0F97A0010F1010F21D09DF8F4
:1036C00008000AFB00F02844B0F97A0002F0CDFCB3
:1036D0009DF808100AFB01F12944A1F87A000020A6
:1036E0000090DFF8E833DFF8E8239DF808102800A1
:1036F00002F060FC9DF808100AFB01F12944A1F8D2
:103700007A009DF808000AFB00F0284490F86F004A
:10371000002852D13079C00700F11E829DF80800C0
:103720000AFB00F02844012180F86F109DF8080082
:103730000AFB00F028443179C1F3800180F864105D
:103740003079800716D59DF808000AFB00FA05EBD2
:103750000A01327A737A4FF4807000FB0322B37A45
:103760005FF4803000FB0322F37A5FF0807000FB8F
:1037700003228A66A3208DF8140001208046B8F148
:10378000080F11D2002005A901F8080018F101085E
:10379000F5E700BF6017002098BF000890BD000843
:1037A000E4C600082100000805AB2200D2B23900AF
:1037B000C9B22800FDF7C9F9CEE19DF808000AFB5F
:1037C00000F0284490F86F00012840F0C280307962
:1037D00010F07F008DF80C003079000652D59DF86E
:1037E0000C009DF808100AFB01F1294491F86D10B6
:1037F000491C884220D19DF808000AFB00F02844AB
:10380000022180F86F109DF808000AFB00F02844A0
:103810009DF80C1080F86D1008200190301D00906C
:103820009DF808000AFB00F0284410F1700B019A83
:103830000099584602F066FBA2208DF8140005A8F6
:103840009DF808100AFB01F1294491F86D104170B0
:10385000102181700021C171817141710171C170AC
:1038600005AB2200D2B23900C9B22800FDF76DF9CC
:103870009DF808000AFB00FA05EB0A00002180F819
:103880006D1069E19DF80C009DF808100AFB01F12C
:10389000294491F86D10491C88422FD19DF80800E9
:1038A0000AFB00F028449DF80C1080F86D10731D81
:1038B00007229DF808102800FCF747FE814648467D
:1038C000C0B200281AD05FF0006001909DF8080097
:1038D0000AFB00F0284490F8320000909DF80800A0
:1038E0000AFB00FA05EB0A00038E3A00D2B221006F
:1038F000C9B22800FCF724FFFF204DE19DF80C0021
:10390000102840F02981A2208DF8140005A89DF808
:1039100008100AFB01F1294491F86D104170102143
:1039200081700021C171817141710171C17005AB5C
:103930002200D2B23900C9B22800FDF706F99DF87D
:1039400008000AFB00FA05EB0A00002180F86D1060
:1039500002E19DF808000AFB00F0284490F86F008F
:10396000022840F0F9803079C0072AD44FF48070E3
:103970000D9000200C90DFF844A2D3460C9A0D99CC
:10398000584600F027F99DF80D000090DFF830321E
:1039900041F6AD22DFF83012504600F06BF9504688
:1039A00000F048FADFF81C0201900020009000238C
:1039B0003A00D2B22100C9B22800FCF7C1FEFF20B4
:1039C000EAE03079C0F382008DF820009DF808000D
:1039D0000AFB00F0284410F171039DF82020D2F179
:1039E00007029DF808102800FCF7AFFD8146484605
:1039F000C0B200281AD05FF0006001909DF8080066
:103A00000AFB00F0284490F8320000909DF808006E
:103A10000AFB00FA05EB0A00038E3A00D2B221003D
:103A2000C9B22800FCF78CFEFF20B5E09DF8080025
:103A30000AFB00F02844806E00284BD09DF8080057
:103A40000AFB00F02844806E9DF808100AFB01F183
:103A50002944896B88423DD04FF480700D9000203E
:103A60000C90DFF858B1CDF800B00C9A0D99009881
:103A700000F0B0F800989DF80D000090DFF84C3190
:103A800041F6AE22DFF84011584600F0F3F85846F0
:103A900000F0D0F9DFF82C0101909DF808000AFB36
:103AA00000F0284490F8320000909DF808000AFBCE
:103AB00000FA05EB0A00038E3A00D2B22100C9B227
:103AC0002800FCF73DFEFF2066E000BF00127A00F0
:103AD00031010008A1208DF8140001208046B8F1C2
:103AE000080F06D2002005A901F8080018F1010806
:103AF000F5E705AB2200D2B23900C9B22800FDF7C4
:103B000024F89DF808000AFB00F02844B0F97A0078
:103B100002F0ABFA9DF808100AFB01F12944A1F864
:103B20007A009DF808000AFB00F02844012180F883
:103B30002A109DF808000AFB00F02844C06F0028F6
:103B40000AD09DF80D1028009DF808200AFB02FA03
:103B500005EB0A02D26F90471DE04FF480700C9085
:103B600000200190DFF854A0D346019A0C995846E2
:103B700000F030F89DF81F000090DFF8543041F657
:103B8000B222DFF84410504600F074F8504600F0BE
:103B900051F9FF2000E000200FB0BDE8F08F0000D9
:103BA00028C000086CC00008B0C00008E0BF0008D2
:103BB000F8C1000838C10008B4C20008601700202E
:103BC000F4C0000821000008E4C6000838C200085C
:103BD000FCC3000862F30F2262F31F42401810F08A
:103BE000030308D0C91A1FD3DB0748BF00F8012D13
:103BF00028BF20F8022D130030B4144615461039A2
:103C000028BF20E93C00FAD8490728BF20E90C006A
:103C100048BF40F8042D890028BF20F8022D48BF76
:103C200000F8012D30BC7047C91818BF00F8012DED
:103C3000CB0728BF00F8012D704730B4002513E0F2
:103C400050F8042BD30744BFA9F101039A18091FA8
:103C5000042942F8045BFAD213468C0744BF15804E
:103C60009B1CC90748BF1D7050F8041B0029E7D1F1
:103C700030BC70470CB430B583B00A4606A9029137
:103C8000044600250194009502AB01A90848784438
:103C90001E3002F0A3FB019A157000284EBF0446A7
:103CA0000198041B204603B030BC5DF80CFB00BF3C
:103CB0006705000078B585B00400042100226D4638
:103CC0002800FFF787FF1021002201AD2800FFF731
:103CD00081FF534D280003F0E5FB52488188ADF881
:103CE000001003218DF8021018218DF80310694689
:103CF000006803F025FD4C488188ADF800100421D0
:103D00008DF803106946006803F01AFD474EB0882D
:103D1000ADF8000010208DF803006946306803F00C
:103D20000FFDB0883168486101940020ADF80800AB
:103D30000020ADF80A000020ADF80C000020ADF81E
:103D400010000C20ADF80E0001A9280003F0F2FBD2
:103D50000121280003F064FC06B070BD80B5272067
:103D60008DF8000003208DF8010002208DF802007C
:103D700001208DF80300684603F0A3FD01BD70B576
:103D800004000D00264E40F22771300003F0C4FC01
:103D90002200D2B240F22551300003F050FC2A003C
:103DA000D2B240F22661300003F049FC70BD1C49DC
:103DB00009880906FBD50100C9B21D4A1180704768
:103DC0004FF460514843401C0100481E0029FBD1BC
:103DD00070472DE9F04104000E005FF00008134D1C
:103DE000A888296808610120FFF7EAFF002738004A
:103DF000310080B289B2884206D2380080B2205C9D
:103E0000FFF7D5FF7F1CF2E7054800884006FBD589
:103E10000120FFF7D5FFA88829684861BDE8F08137
:103E20000048004064C700086CC7000874C7000859
:103E30000448004010B50400200003F099FD010083
:103E400089B22000FFF7C5FF0D20FFF7B0FF0A2061
:103E5000FFF7ADFF10BDB1F5807F02D34FF0FF300B
:103E600070470170012070470078401E8041C043B8
:103E7000C00F704710B40400002010BC70472DE93B
:103E8000F14F84B00D0016001C000E9FDDF83C8041
:103E900003AA01A9280080B2049BD3F850329847A6
:103EA00081460198002801D0019898E0300099F8E7
:103EB0000410C0B288420DD3DFF8ECA2CDF800A008
:103EC000002300223100C9B2280080B2FFF7D2FFE0
:103ED000504684E09DF84000002816D0D9F8001024
:103EE0003200D2B20C204243885CC0070DD5DFF807
:103EF000BCA2CDF800A0002300223100C9B22800E6
:103F000080B2FFF7B7FF504669E0002C02D15FF0A6
:103F1000006064E00C203968D9F800203300DBB27F
:103F200043431A44526891420AD2D9F80010320031
:103F3000D2B200FB02F00844406838609C484EE072
:103F4000D9F800103200D2B242431144497888F8BF
:103F50000010D9F800103200D2B242431144D1F817
:103F600004A098F80010092913D0CDF808A0D9F8BA
:103F700000103200D2B200FB02F0084480680090CA
:103F8000A346029A0099584601F0BCFFC7F800A06A
:103F900024E0D9F800103200D2B200FB02F008444D
:103FA00081680A003868002801D0386800E050466F
:103FB00001EB0003A4460878002808D0994206D2F5
:103FC00008788CF80000491C1CF1010CF3E7881AF2
:103FD00038603868504501D200200870002005B0D4
:103FE000BDE8F08F2DE9FC4F85B004000D001600F0
:103FF000109F03AA02A9280080B2D4F85032984733
:1040000080460298002801D00298C9E0300098F854
:104010000410C0B288420DD3DFF88C91CDF8009027
:104020003B6800223100C9B2280080B2FFF722FFAE
:104030004846B5E09DF84400002816D0D8F8001096
:104040003200D2B20C204243885C02280DD1DFF846
:104050006491CDF800903B6800223100C9B228007D
:1040600080B2FFF707FF48469AE05FF00C0AD8F8E5
:1040700000003100C9B20AFB01F1084440788DF814
:104080000400D8F800003100C9B20AFB01F108446D
:10409000D0F804903868002809D03868484506D020
:1040A0009DF8040009286CD13868484569D2069902
:1040B0009DF80400626A90470290029800280BD095
:1040C000029800903B684A463100C9B2280080B28D
:1040D000FFF7D0FE029863E03868049006980090DD
:1040E000D8F800003100C9B20AFB01F10844D0F849
:1040F00008B0049A0099584601F004FF9DF80400A6
:1041000009280DD1386848450AD2D8F80000310096
:10411000C9B20AFB01F108448068396800224254A0
:10412000C7F800900398002817D003983100C9B24F
:1041300050F82100002810D03200D2B241462000B1
:10414000039BB4465FFA8CFC53F82C3098470290DE
:104150000298002801D0029822E0D8F8000031002F
:10416000C9B20AFB01FA10F80A00400707D532006D
:10417000D2B2290089B22000D4F8543298470020E6
:104180000EE0C7F80090DFF830A0CDF800A03B6843
:104190004A463100C9B2280080B2FFF76BFE504694
:1041A00007B0BDE8F08F000011000906010001060C
:1041B000050004050200010610000706F8B504001A
:1041C0000D0016001F003A003100280080B2D4F81C
:1041D00050329847F2BDFEB504000D0016001F00D6
:1041E0006B4601AA290089B22000FFF7E7FF010012
:1041F000019800280CD10098002809D030000A79D5
:10420000C0B2904204D200983200D2B240F822707C
:104210000198FEBD70470268531C0360117070471F
:1042200000F5E0700268914203D343681A4491425A
:1042300002D380680028F5D170471849086880B912
:104240004FF4805048604FF480324FF0FF30C86028
:1042500008610420124B8A604861C3F8BC01114810
:1042600008600120704701F1080313F0070F0EBF2B
:104270000023C3F1080303F007031944D21A816134
:10428000C26042F001034B60091D4FF0280C41F859
:1042900002C0024A1369C361704700008C1B0020F2
:1042A000881500206859883C2DE9F04705460E46E0
:1042B00091467068C10706EB09083AD4346810F0DB
:1042C000030F00F042826042296906448E42A144F5
:1042D000C0F037826869864200F0BC80E4081F2C79
:1042E00055D8D6F80CA0B768564508BF03F05BFB5D
:1042F000BE4208BF03F057FB7068C008C000B0EBB7
:10430000C40F18BF03F04FFB05F1280000EBC400F9
:10431000874205D029698F4236D3FA68B24233D139
:10432000BA4523D12868012101FA04F420EA0404E3
:104330002C6029698845C0F00482D8F80440A007A1
:1043400000F16081AA69904540F09780E868484490
:10435000E860AE6140F0010070606869864240F03C
:10436000F48100216961A960BDE8F087824506D02B
:104370002869824508D3DAF80810B14204D1C7F899
:104380000CA0CAF80870D4E703F00DFBD1E7F4687D
:10439000B769B4420BD0B068884222D3C168B14239
:1043A00004BFA268B2421CD1C460A0601BE006F149
:1043B0001402146834B906F1100214689CB101E0CB
:1043C0001A46146804F114031868002802BF04F1A7
:1043D000100318680028F3D18A4202D3002111602B
:1043E00001E003F0E0FA002FA3D0F16905F5987021
:1043F00000EB81000268964209D10460200011D1CF
:10440000F0696968012282409143696091E72869F7
:10441000874205D33969B14214BF7C613C6101E038
:1044200003F0C1FA002C84D029698C42ACD3A76177
:10443000306928B1884226BF2061846103F0B3FA55
:10444000706900283FF475AF296988429CD3606188
:1044500084616EE798F8040000F0030003287FF4FD
:1044600068AFC5F8089049F00101D8F80400400889
:104470004000C8F8040071600AE0686980450BD10B
:10448000A9686E618944C5F8089049F00100706020
:1044900046F80990BDE8F087E408E400A144E40888
:1044A0001F2C3AD8D8F80CA0D8F80870D04508BF0F
:1044B00003F079FAB84508BF03F075FAD8F804009C
:1044C000C008C000B0EBC40F18BF03F06CFA05F1D0
:1044D000280000EBC400874207D029698F42C0F052
:1044E0008380FA68424540F07F80BA4507D128684A
:1044F000012101FA04F420EA04042C6076E08245EC
:1045000006D0286982456FD3DAF8081041456BD18F
:10451000C7F80CA0CAF8087068E0D8F80C40D8F8C2
:10452000187044450CD0D8F80800884222D3C168DE
:10453000414504BFA26842451CD1C460A0601BE095
:1045400008F11402146834B908F1100214689CB11F
:1045500001E01A46146804F114031868002802BF29
:1045600004F1100318680028F3D18A4202D3002115
:10457000116001E003F017FA002F37D0D8F81C10B3
:1045800005F5987000EB8100026890450AD104603F
:10459000200012D1D8F81C006968012282409143A2
:1045A000696023E02869874205D33969414514BF12
:1045B0007C613C6101E003F0F6F9BCB129698C42F1
:1045C00012D3A761D8F8100028B1884226BF206115
:1045D000846103F0E8F9D8F8140038B129698842F9
:1045E00002D36061846101E003F0DDF949F001006C
:1045F000706046F8099069698E420CD1C5F8089040
:10460000BDE8F08764086400C8F8044049F0010080
:10461000706046F809904FEAD9071F2F23D805F19B
:10462000280000EBC704A046B9F1100F38BF03F013
:10463000BAF9286820FA07F1CA0705D4012101FA5E
:1046400007F707432F6006E0A068296988422CBF5E
:10465000804603F0A8F9A660C8F80C60C6F8088088
:10466000F460BDE8F0875FEA192008BF002123D07D
:10467000B0F5803F28BF1F211ED2A0F58072120C1A
:1046800002F008029040A0F58051090C01F00401ED
:104690008840A0F580431B0CC2F10E0203F0020318
:1046A000521AD21A984002EBD032D01D29FA00F1EA
:1046B00001F0010101EB420105F59872002302EBC4
:1046C0008100F161736133616A6822FA01F3DC07EA
:1046D00007D4012303FA01F1114369600660B06158
:1046E0001DE002681F291DBF4908C1F1190109FA1F
:1046F00001F1494600E002465068C008C000484544
:1047000011D002F11003C80F03EB800349001868B1
:104710000028F0D12869834213D31E60B261F6608D
:10472000B660BDE8F087296990688A4228BF884250
:1047300007D3C6609660B060F2600020B061BDE84B
:10474000F087BDE8F04703F02EB9BDE8F087000020
:104750002DE9F84F84B00646AFF30080F52E1E4DCC
:1047600080F00F820B2E31BF10260B36F608F600B4
:104770002868F408E04010F0030F4AD0C04300F06E
:104780000100041905F1280000EBC408E700D8F87F
:1047900008607068C008C000B84218BF03F003F991
:1047A000D6F80890464508BF03F0FDF84E4508BF0F
:1047B00003F0F9F87068C008C000B84218BF03F0F1
:1047C000F2F8C8450AD12868012101FA04F420EA68
:1047D00004042C6010E000BF881500202869814582
:1047E00008D3D9F80C10B14204D1C8F80890C9F820
:1047F0000C8001E003F0D7F847F00300311D706032
:10480000301DCA5942F00102C25106F1080800F0F9
:1048100010BFA968B14280F09F83002800F0A280F9
:104820004FF0010808FA04F1490000FA04F4484284
:1048300001430C4060420440641E200B00F0100055
:10484000C440610901F00801CC40A20802F0040252
:10485000D440630803F002030818DC401018C4F3C6
:10486000400718183818FC40241805F1280000EB00
:10487000C40AE700DAF80890D9F80400C008C000BC
:10488000B84218BF03F08FF8D9F808B0D14508BF77
:1048900003F089F8D94508BF03F085F8D9F804007A
:1048A000C008C000B84218BF03F07DF8DA4506D151
:1048B000286808FA04F420EA04042C600DE0296951
:1048C0008B4508D3DBF80C00484504D1CAF808B082
:1048D000CBF80CA001E003F066F8BF1B46F0030024
:1048E00009F10402C9F8040047F00101915109EBF4
:1048F00006020192D751AC684FEAD40ABAF11F0FF1
:1049000088BF03F050F834B3CDF800A005F12800BB
:104910006E6900EBCA0AD346102C38BF03F043F887
:104920002968009821FA00F2D30704D408FA00F0AD
:104930000843286007E0DAF80800296988422CBF9C
:10494000834603F030F8CAF80860CBF80C60C6F86C
:1049500008B0C6F80CA0AF6009F1080801986861BA
:1049600000F067BE6868002800F0178341420840E5
:10497000401E010B01F01001C840420902F008027C
:10498000D040830803F00403D840440804F0020434
:104990005118E0405918C0F34007611805F59878A0
:1049A0007918F840401858F820104868C008C0002E
:1049B0008A46A0EB060B08E001464868C008C00024
:1049C000801B58453CBF83468A4608690028F3D1BE
:1049D00049690029F1D128698245C0F0CF80DAF811
:1049E0000410C90806EB0B09C900494518BF02F0BD
:1049F000DAFF0AEB06008245019080F0BF80DAF80A
:104A00000C40DAF8187054450DD0DAF8080029691E
:104A1000884223D3C268524504BFA16851451DD1C5
:104A2000C460A0601CE00AF114010C6834B90AF1FA
:104A300010010C68A4B101E011460C6804F11402E5
:104A40001068002802BF04F1100210680028F3D19A
:104A50002869814202D300220A6001E002F0A3FF2C
:104A6000002F34D0DAF81C0008EB800001688A457A
:104A700009D1046094B9DAF81C0069680122824007
:104A80009143696023E02869874205D3396951451C
:104A900014BF7C613C6101E002F085FFBCB1296973
:104AA0008C4212D3A761DAF8100028B1884226BFE1
:104AB0002061846102F077FFDAF8140038B12969C7
:104AC000884202D36061846101E002F06CFFBBF1B7
:104AD000100F0ED249F003000AF10401CAF80400D5
:104AE0000AF1040051F8092042F0010240F80920BF
:104AF0003EE046F003010AF10402CAF804104BF04C
:104B000001009051019941F80BB0A8680090C408C9
:104B10001F2C88BF02F047FF009828B305F128003A
:104B200000996F6900EBC408C146102938BF02F034
:104B30003AFF286820FA04F1CA0705D4012101FAD6
:104B400004F404432C6007E0D8F80800296988427F
:104B50002CBF814602F027FFC8F80870C9F80C7016
:104B6000C7F80890C7F80C80C5F808B001986861CC
:104B70001AF1080800F0F08100F05BBD02F013FFAD
:104B8000EAE116F1400F28BF4FF0FF3680F0E481D4
:104B90000B36F6086B68F600002B00F0DD8100276D
:104BA000300AC6F1000908BF002423D0B0F5803FC9
:104BB00028BF1F241ED2A0F58071090C01F0080146
:104BC0008840A0F58052120C02F004029040A0F53B
:104BD0008044240CC1F10E0104F00204891A091B5F
:104BE000A04001EBD031C81D26FA00F404F0010406
:104BF00004EB410405F5987858F8240030B31F2CD5
:104C00000FBFB4464FEA540CCCF1190C06FA0CFC59
:104C1000BE46494601E04FEA4C0C4268D208D20039
:104C2000921B8A4202D2110007460CD04269103012
:104C30004FEADC7950F82900002A1CBF82429646D0
:104C40000028E8D170468946A8BBB7BB012101FA0C
:104C500004F4640060420443234000F07D81584224
:104C600003405B1E180B00F01000C340590901F00F
:104C70000801CB409A0802F00402D3405C0804F01B
:104C800002040818E3401018C3F3400C20186044D5
:104C900023FA0CF31B1858F823000CE0084641686F
:104CA000C908C900891B49453CBF894607460169B7
:104CB0000029F3D140690028F1D1002F00F04C8188
:104CC000A868801B814580F0478129698F42FFF4E5
:104CD00055AF7868C008C00006EB0901884218BFCC
:104CE00002F061FE07EB060B5F45BFF447AFFC68BF
:104CF000D7F818A0BC420CD0B8682969884223D3E1
:104D0000C268BA4204BFA168B9421DD1C460A060A4
:104D10001CE007F114010C6834B907F110010C68AC
:104D2000A4B101E011460C6804F1140210680028D7
:104D300002BF04F1100210680028F3D128698142F3
:104D400002D300220A6001E002F02DFEBAF1000F4A
:104D500034D0F86908EB800001688F4208D1046004
:104D6000A4B9F8696968012282409143696025E02D
:104D70002869824508D3DAF81010B94214BFCAF87E
:104D80001440CAF8104001E002F00DFEB4B12969E8
:104D90008C4211D3C4F818A0386928B1884226BFC4
:104DA0002061846102F0FFFD786938B12969884289
:104DB00002D36061846101E002F0F5FDB9F1100FEA
:104DC0000CD2B14449F00300391D7860381D51F808
:104DD000092042F0010240F80920B9E046F0030141
:104DE0003A1D796049F0010090514FEAD9004BF823
:104DF00009901F2822D805F1280101EBC004296879
:104E000021FA00F2D307A04605D4012202FA00F0ED
:104E10000843286006E0A068296988422CBF8046C4
:104E200002F0C1FDC4F808B007F10800C8F80CB0E2
:104E300040F8068007F10C018C5189E05FEA1920E7
:104E400008BF002123D0B0F5803F28BF1F211ED20C
:104E5000A0F58072120C02F008029040A0F580517B
:104E6000090C01F004018840A0F580431B0CC2F13D
:104E70000E0203F00203521AD21A984002EBD0320B
:104E8000D01D29FA00F101F0010101EB420107F107
:104E90001403CBF81C1000229A5107F1100308EB01
:104EA00081009A516A6822FA01F3DC0711D40123C8
:104EB00003FA01F111436960C0F800B0CBF81800A3
:104EC00007F1080107F10C0040F806B041F806B000
:104ED0003EE002681F291DBF4908C1F1190109FA06
:104EE00001F1494600E002465068C008C00048454C
:104EF00018D002F11003C80F03EB800349001868B3
:104F00000028F0D12869834220D3C3F800B007F10C
:104F10000C01CBF8182041F806B007F1080040F862
:104F200006B015E0296990688A4228BF88420DD3EF
:104F3000C0F80CB007F10801C2F808B0885107F1B9
:104F40000C0082510022CBF8182001E002F02BFD6A
:104F500017F1080840F06D83A868B0421DD3811B8B
:104F60006A6910290AD390196861A96041F00103A8
:104F70004360415046F0030656600BE00021A960F3
:104F80006961131D40F003015160111D1C5844F06C
:104F900001040C5002F108084BE3E8688642C0F0B7
:104FA0003883DFF8B89BD9F8000008B9FFF745F956
:104FB000D9F8081088192F30491E20EA01018E42C5
:104FC00080F0358305F5D877B86838B13A68891824
:104FD0008A4280F02C838842C0F0298302F0E6FCEC
:104FE00000281CBFD0F8008010F1010F00F01F83D3
:104FF00039687A68414439608A4238BF7960AC695F
:1050000004BB296909B1884200D2286100213861B6
:10501000C7F81480F9614FF0FF31D9F800206A62B7
:10502000296205F128020021D260926002F1080491
:1050300054611461891C10321F29F5D9A8F1280286
:1050400001461DE005F5E0710A46814600E09268E0
:10505000D2B11068536803449945F8D1107B030717
:1050600012D413689C420FD3D2F804C063449C420C
:105070000AD2C444C2F804C02146E86808EB000222
:105080002846FFF7F0F8C1E22869814538BFC5F826
:10509000109009EB080000E08968002900F0BD814C
:1050A0000A688242F8D1087B020700F1B6810868DD
:1050B000C1F800904A6842444A6009F1080111F0C1
:1050C000070F08BFCDF8049006D0C1F1080101F028
:1050D000070109EB0102019200F1080111F0070F2D
:1050E00004D0C1F1080101F007010844804601988D
:1050F000A8EB00018419A1EB060B274646F0030636
:105100004660474528BF02F04EFC98F80400C107EE
:1051100058BF02F048FCBBF1100F38BF02F043FC4F
:10512000A869804508D1E9688B44C5F80CB0AF6127
:105130004BF0010078606CE1686980450AD1A9688C
:105140008B44C5F808B06F614BF00100786047F8F8
:105150000BB05EE1D8F8040000F00301012940F033
:10516000B880C008C000C1081F29039040D8D8F8F3
:1051700008200092D8F80C600291B04508BF02F0F8
:1051800012FC0098804508BF02F00DFCD8F804001E
:105190000299C008C000B0EBC10F18BF02F003FCB9
:1051A0000299009A05F1280000EBC100824208D064
:1051B00011462A699142C0F08780CA68424540F092
:1051C000838000998E4206D102982A680123834089
:1051D0009A432A607AE0864205D029698E4273D3C9
:1051E000B068404570D10098C6600099B1606DE02C
:1051F000D8F818000090D8F80C6046450DD0D8F8C3
:1052000008002969884223D3C268424504BFB168B7
:1052100041451DD1C660B0601CE008F114010E6864
:1052200036B908F110010E68A6B101E011460E680A
:1052300006F114021068002802BF06F1100210687F
:105240000028F3D12869814202D300220A6001E0DC
:1052500002F0A9FB0098002838D0D8F81C0005F50A
:10526000987101EB80000168884509D106609EB9FC
:10527000D8F81C006968012282409143696025E0EA
:1052800000982969884205D30169414514BF4661E8
:10529000066101E002F087FBC6B129698E4213D393
:1052A0000098B061D8F8100028B1884226BF30615C
:1052B000866102F078FBD8F8140038B12969884279
:1052C00002D37061866101E002F06DFB03998844AE
:1052D0008B44D8F8041049084900C8F804104BF072
:1052E000010078604FEADB0647F80BB01F2E22D88A
:1052F00005F1280000EBC604A146BBF1100F38BF32
:1053000002F051FB286820FA06F1CA0705D40121F2
:1053100001FA06F606432E6006E0A0682969884275
:105320002CBF814602F03FFBA760C9F80C70C7F89C
:105330000890FC606DE05FEA1B2008BF002123D0CD
:10534000B0F5803F28BF1F211ED2A0F58072120C3D
:1053500002F008029040A0F58051090C01F0040110
:105360008840A0F580431B0CC2F10E0203F002033B
:10537000521AD21A984002EBD032D01D2BFA00F10B
:1053800001F0010101EB4201F961002305F598727A
:105390007B6102EB81003B616A6822FA01F3DE0760
:1053A00007D4012303FA01F1114369600760B86172
:1053B0001DE002681F291DBF4908C1F119010BFA40
:1053C00001F1594600E002465068C008C000584547
:1053D00010D002F11003C80F03EB800349001868D6
:1053E0000028F0D12869834211D31F60BA61FF60A1
:1053F000BC600EE0296990688A4228BF884206D3C3
:10540000C7609460B860FA600020B86101E002F003
:10541000CAFA019800F108080BE121462846FEF778
:10542000FFFE0168406808440090A0F1270111F0D8
:10543000070000980EBF0021C1F1080101F007012B
:105440000844A0F12F0B04F110018B4538BFA3468F
:105450000BF11802002102920191A8F1280249469D
:105460002846FEF700FF0BF1080010F0070F18BFE9
:1054700002F099FA1B20CBF8040005F5E07292E8DF
:1054800009500BF1080181E8095000210BF10800D7
:10549000F961B861009A02980199C7F81090C7F8AD
:1054A0001480072300E0001D491C00F10807974203
:1054B0004360F8D30129D8BF02F075FAA34500F084
:1054C000A580ABEB040B201D221D50F80B104908E2
:1054D000490042F80B104BF0010060604FEADB0915
:1054E00044F80BB0B9F11F0F22D805F1280000EBEA
:1054F000C907B846BBF1100F38BF02F054FA28684C
:1055000020FA09F1CA0705D4012101FA09F108437B
:10551000286006E0B868296988422CBF804602F0FE
:1055200042FABC60C8F80C40C4F80880E7606DE03F
:105530005FEA1B2008BF002123D0B0F5803F28BFC1
:105540001F211ED2A0F58072120C02F008029040BA
:10555000A0F58051090C01F004018840A0F58043BA
:105560001B0CC2F10E0203F00203521AD21A984029
:1055700002EBD032D01D2BFA00F101F0010101EB5A
:10558000420105F59872002302EB8100E16163613D
:1055900023616A6822FA01F3DF0707D4012303FAC3
:1055A00001F1114369600460A0611DE002681F29D8
:1055B0001DBF4908C1F119010BFA01F1594600E07C
:1055C00002465068C008C000584510D002F11003D0
:1055D000C80F03EB8003490018680028F0D1286940
:1055E000834211D31C60A261E460A4600EE02969CB
:1055F00090688A4228BF884206D3C4609460A06045
:10560000E2600020A06101E002F0CDF9E868864286
:105610000DD2801BA969E8608A19AA6140F00100D7
:10562000506046F003064E6001F1080801E04FF0BB
:105630000008AFF30080404605B0BDE8F08F0028B9
:1056400000D170472DE9F047A0F10805AFF30080C5
:10565000DFF8A46831698D42C0F07A82686800F092
:105660000302012A00F07482C2084FEAC209C2078D
:1056700005EB090839D42C6810F0030F00F06A829A
:10568000604205448D42A144C0F062827069854247
:1056900000F0DA80E408202C72D2D5F80CA0AF68B4
:1056A000554508BF02F07FF9BD4208BF02F07BF903
:1056B0006868C008C000B0EBC40F18BF02F073F9EF
:1056C00006F1280000EBC400874205D031698F4203
:1056D00053D3FA68AA4250D1BA4540D1306801216B
:1056E00001FA04F420EA04043460454580F0308275
:1056F000D8F80440E00740F12B82A10700F17C813B
:10570000B069804540F0B380F168B5618944C6F85E
:105710000C9049F00100686071698D4202D100204F
:105720007061B060F169494580F01482DFF82C2483
:10573000106808B9FEF781FDB169002900F00A82FE
:10574000F068292824BF3046FEF76AFDF069F16849
:10575000884280F0FF814FF0FF30F061FAE182452E
:1057600006D03069824508D3DAF80810A94204D17E
:10577000C7F80CA0CAF80870B7E702F014F9B4E74C
:10578000EC68AF69AC420BD0A868884222D3C168EC
:10579000A94204BFA268AA421CD1C460A0601BE059
:1057A00005F11402146834B905F1100214689CB1B3
:1057B00001E01A46146804F114031868002802BFB7
:1057C00004F1100318680028F3D18A4202D30021A3
:1057D000116001E002F0E7F8002F86D0E96906F5D4
:1057E000987000EB81000268954209D104602000A6
:1057F00011D1E8697168012282409143716074E7B8
:105800003069874205D33969A94214BF7C613C6184
:1058100001E002F0C8F8002C3FF467AF31698C4218
:10582000ABD3A761286928B1884226BF2061846173
:1058300002F0B9F8686900283FF457AF316988422F
:105840009BD36061846150E798F8040000F0030086
:1058500003287FF44AAFC6F8089049F00101D8F850
:10586000040040084000C8F8040069600AE070695C
:1058700080450AD1B16875618944C6F8089049F03D
:105880000100686045F8099064E1E408E400A1447F
:10589000E408202C3AD2D8F80CA0D8F80870D045EB
:1058A00008BF02F080F8B84508BF02F07CF8D8F8CD
:1058B0000400C008C000B0EBC40F18BF02F073F8BA
:1058C00006F1280000EBC400874207D031698F42FF
:1058D000C0F08580FA68424540F08180BA4507D122
:1058E0003068012101FA04F420EA0404346078E00D
:1058F000824506D03069824571D3DAF808104145F7
:105900006DD1C7F80CA0CAF808706AE0D8F80C404E
:10591000D8F8187044450DD0D8F80800316988428D
:1059200023D3C268424504BFA16841451DD1C4606C
:10593000A0601CE008F114010C6834B908F11001F2
:105940000C68A4B101E011460C6804F1140210685F
:10595000002802BF04F1100210680028F3D130695A
:10596000814202D300220A6001E002F01CF8002FFD
:1059700037D0D8F81C1006F5987000EB810002684B
:1059800090450AD10460200012D1D8F81C0071683B
:10599000012282409143716023E03069874205D340
:1059A0003969414514BF7C613C6101E001F0FBFFB6
:1059B000BCB131698C4212D3A761D8F8100028B16C
:1059C000884226BF2061846101F0EDFFD8F8140001
:1059D00038B13169884202D36061846101E001F02D
:1059E000E2FF49F00100686045F8099071698D4255
:1059F0000BD1C6F80890ADE064086400C8F8044014
:105A000049F00100686045F809904FEAD907202F56
:105A100022D206F1280000EBC704A046B9F1100F0E
:105A200038BF01F0C0FF306820FA07F1CA0705D47B
:105A3000012101FA07F70743376006E0A0683169E2
:105A400088422CBF804601F0AEFFA560C8F80C501C
:105A5000C5F80880EC607DE05FEA192008BF0021EE
:105A600023D0B0F5803F28BF1F211ED2A0F5807241
:105A7000120C02F008029040A0F58051090C01F0D0
:105A800004018840A0F580431B0CC2F10E0203F014
:105A90000203521AD21A984002EBD032D01D29FAD2
:105AA00000F101F0010101EB420106F598720023BB
:105AB00002EB8100E9616B612B61726822FA01F3EC
:105AC000DC0707D4012303FA01F11143716005607B
:105AD000A8611DE002681F291DBF4908C1F1190115
