:020000040800F2
:10000000380B0020B93A000801390008033900080C
:100010000539000807390008093900080000000008
:100020000000000000000000000000000B39000884
:100030000D390008000000000F39000811390008D0
:10004000353B0008393B00083D3B000835390008C6
:10005000413B0008453B0008493B00084D3B000878
:10006000513B0008553B0008593B00085D3B000828
:10007000613B0008653B0008693B00086D3B0008D8
:10008000713B0008753B0008793B00087D3B000888
:100090006D390008813B0008853B0008893B00085A
:1000A0008D3B000867160008913B0008953B00084F
:1000B000993B00089D3B0008A13B0008A53B0008B8
:1000C000A93B0008AD3B0008B13B0008B53B000868
:1000D000B93B0008BD3B0008C13B0008C53B000818
:1000E000C93B0008CD3B0008D13B0008D53B0008C8
:1000F000D93B0008DD3B0008E13B0008E53B000878
:10010000E93B0008ED3B0008F13B0008F53B000827
:10011000F93B0008FD3B0008013C0008053C0008D5
:10012000093C00080D3C0008113C0008153C000883
:100130002DE9F34F8BB005001600686869690989DD
:1001400000EBC1009DF8301000EBC100079068681B
:100150006969498900EBC1009DF8301000EBC100CE
:10016000069000275FF000080698006880680A90F3
:1001700007980068406900684005400D3080002005
:10018000B0700821002208AC200000F08FFB069818
:1001900001683A00D2B20C20424301EB0200D0F8D1
:1001A0001490D9F800A05FEA1A4A99F8004004F0C8
:1001B000FF04002C32D014EB080041282ED2601E20
:1001C000C008401C0590D9F800B05FEA1B2B012045
:1001D00003900020029004A8019005A8009008ABAD
:1001E0005A46D2B2514689B2280000F0B4FB00282A
:1001F00001D0FF201FE00020029018F007000190BE
:100200004046C0083044001D00900023002208A989
:100210002000C0B200F012F814EB08087F1C380070
:100220000A990978C0B28842ABD3B8F10100C0087E
:10023000401CF07000200DB0BDE8F08F2DE9F04FAC
:1002400006001D00099F0A9B0B9C3000C0B20028CD
:100250005ED0B3EB020C604640B2012804DB91F89B
:1002600000E01EFA0CFE06E091F800E0604640B2A5
:1002700040425EFA00FE604640B2012802DBD3F144
:10028000080801E0D2F108083000C146C0B25FFAA8
:1002900089F9484501D2B14600E0C146FF2019EB7B
:1002A000030A10FA0AFAD3F1080B50FA0BF050EADD
:1002B0000A0A3EEA0A0B38781AEA000038703878E1
:1002C0005BEA0000387019EB02021000C0B2082887
:1002D0000ADB002002002800C0B2002802D05FF034
:1002E000FF3000E00120014419EB03031800C0B205
:1002F00008280ADB002003002000C0B2002802D03A
:100300005FF0FF3000E001200744B6EB09069CE7F0
:10031000BDE8F08F70B504000D001600A068122132
:1003200001FB05F10844801D31000C2200F0FAFBAE
:100330003100D4F84C0200F0DBFC70BD2DE9FF4722
:1003400006000F0096F9E601002809D05FF01208B8
:10035000B0683900C9B208FB01F1405CC00701D5A3
:100360000020A1E07069B0F808903800C0B210EB2E
:1003700009090C2400250DF1040A2A002100504629
:1003800000F094FA01AA3900C9B23000FFF7D0FE9C
:10039000002801D0002087E0B0683900C9B208FB0E
:1003A00001F10844C088BDF80410884219D1B06832
:1003B0003900C9B208FB01F10844407A9DF80710E2
:1003C00088420ED1082202A9B0683B00DBB208FBCC
:1003D00003F318440A3000F0DDFC002801D10020AE
:1003E00062E07068494689B250F83100406C048878
:1003F0007068494689B250F83100C06A0588002CFF
:100400001CD0B0683900C9B208FB01F10844B0F94A
:10041000020000F04EFD002000907D2303FB04F35A
:100420000FF28D023900C9B2300000F0E7FCB1686C
:100430003A00D2B208FB02F211444880002D2CD0C1
:10044000B0683900C9B208FB01F10844B0F90400F2
:1004500000F02FFD00200090642303FB05F3DB0870
:100460000FF27D023900C9B2300000F0C7FCB1685C
:100470003A00D2B208FB02F211448880B068390019
:10048000C9B208FB01F1B2683B00DBB208FB03F81C
:1004900012F8082052F00102425401AA3900C9B2F0
:1004A0003000FFF737FF012004B0BDE8F0870000FF
:1004B00038B504000D001220A16800FB05F21144BC
:1004C0005FF0FF324A80A16800FB05F0084400217C
:1004D000C1802900C9B22000FFF730FF31BD000004
:1004E00038B504000D001220A16800FB05F211448C
:1004F0005FF0FF328A80A16800FB05F2895C11F091
:10050000FE01A26800FB05F011542900C9B22000C9
:10051000FFF714FF31BD70472DE9F34F85B004009C
:100520000025002603276069B0F808806069B0F8EC
:100530000A90A0690089ADF8000094F9E60100284E
:1005400001D10020E6E0404680B2002800F0E180C2
:100550000C2001905FF0000A0DF1080B5246019942
:10056000584600F0A3F9BDF80000414689B2884220
:10057000C0F0CF803800C0B2032806D0052800F0B4
:10058000B5800B2800F0BB80C1E06068414689B2AD
:1005900050F8310040690068002802D50B200700A0
:1005A000E1E76068414689B250F83100006A060010
:1005B0009DF8180000283CD03078002839D03078D9
:1005C000F12836DA1220A1682A00D2B24243A36889
:1005D000AC465FFA8CFC00FB0CFC13F80C305B1C87
:1005E0008B54A1682A00D2B24243895C327891428E
:1005F0001FD1A1682A00D2B200FB02F000220A54E7
:100600000C2001905FF0000A0DF1080B5246019991
:10061000584600F04BF902AA2900C9B22000FFF7A2
:1006200087FD002802D00B2007009CE7052007006B
:100630005BE09DF81800002834D03078FC2831D1D8
:100640005FF0120AA0682900C9B20AFB01F1084450
:10065000821D2900C9B22000FFF76AFD00280FD0D3
:10066000A0682900C9B20AFB01F1A2682B00DBB225
:100670000AFB03FA12F80A2012F0FE0242540EE0BE
:10068000A0682900C9B20AFB01F1A2682B00DBB205
:100690000AFB03FA12F80A2052F0010242540B201E
:1006A000070060E79DF81800002802D03078002885
:1006B00011D09DF81800002815D13078FF2802D0FD
:1006C0003078FE280FD1A1682A00D2B2122042430E
:1006D000885CC00707D42900C9B22000FFF72EFEAE
:1006E0000B20070001E00B2007003CE702AA2900CD
:1006F000C9B22000FFF70EFE0B20070033E76D1C88
:1007000018F1010819F10109032007002BE7FF2068
:1007100000E0002007B0BDE8F08F2DE9F8430400A9
:100720000D00160094F9E601002842D03000C0B256
:10073000801E012801D9C01E3BD16068616909890A
:1007400000EBC107B5EB07085FEAE8085FF01209A4
:10075000A0684146C9B209FB01F10844B0F90200A2
:1007600000F0A7FBA1684246D2B209FB02F2114495
:100770004880A0684146C9B209FB01F10844B0F9BC
:10078000040000F096FBA1684246D2B209FB02F2D7
:1007900011448880A0684146C9B209FB01F90021D3
:1007A00000F809104146C9B22000FFF781FE002081
:1007B00000E00020BDE8F283FEB504004FF4C05510
:1007C00060690689A0690789300080B200281CD0C2
:1007D0003800310080B289B2884216D36B4601AA34
:1007E000290089B2200000F06FF90198002809D192
:1007F0000098002806D00748009988600099C860D2
:10080000009948616D1C761CE2E700212000FFF78B
:1008100083FEF7BD1B0700082DE9F0410400002509
:1008200060690689A0690789300080B200283BD042
:100830003800310080B289B2884235D35FF01208A7
:10084000A0682900C9B208FB01F10844B0F9020010
:1008500000F02FFBA1682A00D2B208FB02F211447B
:100860004880A0682900C9B208FB01F10844B0F92A
:10087000040000F01EFBA1682A00D2B208FB02F2BD
:1008800011448880A0682900C9B208FB01F1002248
:100890004254A0682900C9B208FB01F84044002175
:1008A000C1806D1C761CC3E7BDE8F08162F30F22A6
:1008B00062F31F42401810F0030308D0C91A1FD377
:1008C000DB0748BF00F8012D28BF20F8022D1300D8
:1008D00030B414461546103928BF20E93C00FAD838
:1008E000490728BF20E90C0048BF40F8042D8900C3
:1008F00028BF20F8022D48BF00F8012D30BC7047FA
:10090000C91818BF00F8012DCB0728BF00F8012D2A
:10091000704730B4002513E050F8042BD30744BFD0
:10092000A9F101039A18091F042942F8045BFAD2BD
:1009300013468C0744BF15809B1CC90748BF1D7018
:1009400050F8041B0029E7D130BC704710B40400F4
:10095000002010BC70472DE9F14F84B00D00160047
:100960001C000E9FDDF83C8003AA01A9280080B27C
:10097000049BD3F85032984781460198002801D053
:10098000019898E0300099F80410C0B288420DD365
:10099000DFF828A1CDF800A0002300223100C9B261
:1009A000280080B2FFF7D2FF504684E09DF8400057
:1009B000002816D0D9F800103200D2B20C204243E1
:1009C000885CC0070DD5DFF8F8A0CDF800A00023A3
:1009D00000223100C9B2280080B2FFF7B7FF5046AD
:1009E00069E0002C02D15FF0006064E00C203968FF
:1009F000D9F800203300DBB243431A4452689142D5
:100A00000AD2D9F800103200D2B200FB02F008443A
:100A1000406838602B484EE0D9F800103200D2B25E
:100A200042431144497888F80010D9F80010320088
:100A3000D2B242431144D1F804A098F80010092919
:100A400013D0CDF808A0D9F800103200D2B200FBC4
:100A500002F0084480680090A346029A0099584624
:100A600000F060F8C7F800A024E0D9F800103200C8
:100A7000D2B200FB02F0084481680A0038680028FE
:100A800001D0386800E0504601EB0003A446087826
:100A9000002808D0994206D208788CF80000491C3A
:100AA0001CF1010CF3E7881A38603868504501D210
:100AB00000200870002005B0BDE8F08F1100090685
:100AC0000100010605000405F8B504000D0016003C
:100AD0001F003A003100280080B2D4F85032984705
:100AE000F2BDFEB504000D0016001F006B4601AA02
:100AF000290089B22000FFF7E7FF010001980028D4
:100B00000CD10098002809D030000A79C0B2904278
:100B100004D200983200D2B240F822700198FEBD93
:100B20007047050062B38B0708D0521E11F8013BD5
:100B300000F8013B00F024808B07F6D1830740F0DA
:100B4000208000BF103A07D330B4B1E83810103A13
:100B5000A0E83810F9D230BC530724BFB1E8081020
:100B6000A0E8081044BF51F8043B40F8043BD2070A
:100B700024BF31F8022B20F8022B44BF0B780370FE
:100B80007047121F17D35B0009D151F8043B20F8BE
:100B9000023B1B0C121F20F8023BF6D20BE051F86F
:100BA000043B00F8013B1B0A20F8023B1B0C121F00
:100BB00000F8013BF3D238BF121D521E24BF11F8BA
:100BC000013B00F8013BF8D87047010078B589B0C7
:100BD00004000025042100226E463000FFF766FE67
:100BE0000C21002202AE3000FFF760FE0E21002231
:100BF00005AE3000FFF75AFE0421002201AE30009E
:100C0000FFF754FE48208DF8030003208DF8020002
:100C10005D488188ADF800106946006800F0E0F991
:100C200018208DF8030003208DF8020057488188B2
:100C3000ADF800106946006800F0D2F900208DF888
:100C40000F0000208DF81000A0788DF80C00E078DF
:100C50008DF80D0020788DF80A0001208DF8110024
:100C6000A088ADF8080000208DF8120060788DF89B
:100C70000B0000208DF80E0000208DF8130002A953
:100C8000434800F069FA01282ED100208DF81E009B
:100C900000208DF81F0001208DF820000020ADF805
:100CA00014000020ADF816000020ADF81800002058
:100CB000ADF81A000020ADF81C0001208DF82100CD
:100CC00005A800F0D2FA14208DF8040003208DF856
:100CD000050002208DF8060001208DF8070001A80C
:100CE00000F025FC002000E00120C0B20AB070BD79
:100CF0002DE9F84F86B004000D00002600275FF0B4
:100D00000008142100220DF104094846FFF7CEFD2A
:100D10002888019000208DF80C00A878002801D1C7
:100D2000002000E002208DF80D00E8788DF80E001C
:100D3000E878009015F104090DF10F0A009A494670
:100D40005046FFF7EFFEDFF848A001A9504600F03B
:100D5000FBFA83465946C9B2504600F094FB01287D
:100D600006D04FF6FF70804502D218F10108F1E776
:100D70004FF6FF70804501D2012007003800C0B255
:100D800007B0BDE8F08F0000EC3A0008F43A000824
:100D9000006400400300002013F0030F09D0521E2E
:100DA00022BF13F8010B11F801CBB0EB0C00F3D00C
:100DB000704711F0030F14D1121F22BF53F8040B18
:100DC00051F804CB6045F7D0121D0AD200BA9CFA44
:100DD0008CFCB0EB0C0038BF6FF0000088BF012026
:100DE0007047521E22BF13F8010B11F801CBB0EB74
:100DF0000C00F6D0521C08BF104670472DE9F14F89
:100E00000C0015001E000A9F5FF00008DFF8C49177
:100E10007149B1F90000401C424612B2904244DBD5
:100E2000404600B2082840DA2800002838D099F857
:100E30000000002834D1404600B2B1F90020521C15
:100E4000904202D10888401C088000F005FC8246D0
:100E5000B3464FF6FF70834500D383465F48016871
:100E60008A450AD20168B1EB0A018B4505D21BEB1A
:100E70000A010160584600F0E6FBC9F808500098E6
:100E8000C9F80400C9F80C401AEB0600C9F81000B4
:100E9000C9F81470012089F80000404600B206E04D
:100EA00018F1010819F11809B2E75FF0FF30BDE849
:100EB000F28F10B40100080000B210F1010F10D041
:100EC00045480A00B0F9003012B29A4202D10288B5
:100ED000521E028000223F4B0C0024B218204443D3
:100EE0001A555FF0FF3010BC70472DE9F84F4FF6F0
:100EF000FF7400F0B1FB050038490E68AE195FF0D1
:100F0000000ADFF8D090CB46334FB7F900005246C5
:100F100012B2904236DB9BF80000C0072DD5DBF8FB
:100F2000100086421DD3DBF81400002803D10220F4
:100F30008BF8000021E0DBF81400DBF81420521BD2
:100F4000B5FBF0F300FB0320CBF8100003208BF877
:100F50000000DBF81000A0420FD2DBF81000040004
:100F60000BE0DBF81000801BCBF81000DBF8100062
:100F7000A04202D2DBF8100004001AF1010A1BF1B2
:100F8000180BC1E70C60200000F05DFB5FF000086B
:100F9000B7F90000414609B2884219DB99F8000010
:100FA000800710D599F8000010F0FD0089F80000C6
:100FB000D9F80800002806D0D9F80C10D9F8040098
:100FC000D9F80820904718F1010819F11809DFE74E
:100FD000BDE8F18FA8050020C4030020B80300205D
:100FE000F0B500220023002400250026002791F8F8
:100FF00003C01CF00F0C91F803E05FEACE6E02D53F
:101000008A7852EA0C0C0A7812062AD00268160076
:1010100000221400082C23D25FF0010E1EFA04F205
:1010200015000A882A401300AB4217D1A200150010
:101030000F22AA401700BE431CFA05F21643CA78D5
:10104000282A04D11EFA04FEC0F814E006E0CA788B
:10105000482A03D11EFA04FEC0F810E0641CD9E748
:1010600006600A88B2F5807F2EDB426816000022F7
:101070001400082C27D25FF0010E14F108021EFAAA
:1010800002F215000A882A401300AB4219D1A200CF
:1010900015000F22AA401700BE431CFA05F21643A2
:1010A000CA78282A04D114F108021EFA02F2426119
:1010B000CA78482A05D114F108021EFA02FEC0F8C7
:1010C00010E0641CD5E74660F0BDF0B400220023B8
:1010D00000250027002802D51D4C246801E01D4C86
:1010E0002468C0F3034586B210F4401CBCF5401FD1
:1010F00007D134F07064174A176837F070671760CB
:1011000011E0C20206D50322AA4013009C4354F00A
:10111000706408E00200520DD2B2120116FA02F217
:10112000944354F070640A00D2B2002A06D0020040
:10113000520DD2B2120116FA02F21443002802D55F
:10114000034A146001E0034A1460F0BC70470000D9
:101150001C0001400400014030B4020000240023C0
:10116000106830F002001060106850F0010010604C
:101170005068C00705D44FF6FF70834201D05B1C56
:10118000F6E75068C00701D400206BE08879012899
:1011900004D1106850F08000106003E0106830F057
:1011A00080001060C879012804D1106850F0400018
:1011B000106003E0106830F040001060087A0128E9
:1011C00004D1106850F02000106003E0106830F087
:1011D00020001060487A012804D1106850F01000F7
:1011E000106003E0106830F010001060887A012869
:1011F00004D1106850F00800106003E0106830F06F
:1012000008001060C87A012804D1106850F004006A
:10121000106003E0106830F0040010608878CD782A
:101220002D0655EA8075087955EA0045487955EA52
:1012300000550888401E0543D561106840084000ED
:101240001060002003005068C00705D54FF6FF70FE
:10125000834201D05B1CF6E75068C00701D500202F
:1012600000E00120C0B230BC704770B400250121FD
:10127000827A11FA02F22E4B196851F001011960BD
:101280002C4C216891432160017B002913D12A490C
:101290000D6895430D602949C588468856EA05467C
:1012A000857A41F83560857A01EBC5018588068825
:1012B00056EA05464E60017B012913D11E490D688F
:1012C00015430D601D490588468856EA0546857A0E
:1012D00041F83560857A01EBC5018588C68856EAF4
:1012E00005464E60C17A002904D115490D68954321
:1012F0000D6003E012490D6815430D600189002956
:1013000003D110490D6895430D600189012903D16E
:101310000C490D6815430D60417B012902D12168FC
:1013200011432160196849084900196070BC704771
:10133000006600401C6600400C66004040660040AD
:10134000046600401466004030B403000022986830
:10135000400101D500200AE09868000101D5012074
:1013600005E09868C00001D5022000E004200200DA
:10137000D2B2042A00F084800200D2B212011A44D0
:10138000D2F8802112F001020400E4B224011C44CE
:10139000C4F880210A7A002A11D10200D2B21201C7
:1013A0001A44D2F880210C684D7A55EA44552A43F4
:1013B0000400E4B224011C44C4F8802112E00200BD
:1013C000D2B212011A44D2F880414A680D7A55EA25
:1013D000C2054A7A15432C430200D2B212011A44C4
:1013E000C2F880418A7A12F00F028A720200D2B2E9
:1013F00012011A44D2F88421120912010400E4B245
:1014000024011C44C4F884210200D2B212011A44FF
:10141000D2F884418A7A14430200D2B212011A44EB
:10142000C2F884418A7B4C7B240454EA02640A7B20
:1014300054EA0224CA7A14430200D2B212011A44B6
:10144000C2F888418A7C4C7C240454EA02640A7CF9
:1014500054EA0224CA7B14430200D2B212011A4495
:10146000C2F88C410200D2B212011A44D2F8802193
:1014700052F001020400E4B224011C44C4F88021AB
:10148000C0B230BC7047020000200B00DBB2002B62
:1014900003D0022B22D010D331E093689B0013F0CD
:1014A00004031843936813F00203184393689B0ED8
:1014B00013F001031843030022E093689B0913F023
:1014C0000403184393681B0A13F00203184393683C
:1014D000DB0E13F001031843030011E093689B0B2C
:1014E00013F00403184393681B0C13F00203184312
:1014F00093681B0F13F001031843030000E000235F
:101500001800C0B2002804D0052804D0072804D051
:1015100005E0022004E0002002E0012000E00020BD
:10152000C0B2704725490143254A11607047F0B4A5
:10153000002200230F24C17800291FD02049096808
:1015400011F4E061D1F5E061090AD1F104052B0045
:10155000CC4045789D408678264035432D012A00B1
:10156000184D0678AA550125067816F01F06B540D5
:10157000154E07787F1146F8275009E001210578BC
:1015800015F01F05A940114D0678761145F8261073
:10159000F0BC70470E4A0A4002430E4B1A60704777
:1015A000042805D10C490A6852F004020A6004E0DC
:1015B00009490A6832F004020A6070470000FA051F
:1015C0000CED00E000E400E000E100E080E100E07C
:1015D00080FFFF1F08ED00E010E000E01FB50A21CA
:1015E000002201AC2000FFF761F9042100226C46C3
:1015F0002000FFF75BF94FF6FF70ADF808004720B9
:10160000ADF804000020ADF80600214C01A920002F
:1016100000F046F801220121200000F0A2F8192074
:101620008DF8000000208DF8010001208DF80200E7
:1016300001208DF803006846FFF779FF01212000A3
:1016400000F080F81FBD10B40021124A12888318E0
:10165000114C238010BC70470E4800880F49096860
:10166000401A80B2704710B5094C0121200000F0EB
:1016700084F800280AD00121200000F095F80548E0
:10168000008880B205490860FFF72FFC10BD0000FC
:10169000002C0140242C01402C2C01401C07002070
:1016A00010B4002204881D4B98420ED0214A90426B
:1016B0000BD0B0F1804F08D0194A904205D0194A9A
:1016C000904202D0184A904204D14FF68F721440D3
:1016D0004A881443154A904207D0154A904204D0D4
:1016E0004FF6FF421440CA88144304808A888285DA
:1016F0000A88028598420BD00E4A904208D00E4AC2
:10170000904205D00D4A904202D00D4A904201D13C
:101710000A7A02860122828210BC7047002C0140A6
:101720000004004000080040000C00400010004091
:1017300000140040003401400040014000440140DA
:10174000004801400A00D2B2002A04D0028852F0B8
:101750000102028004E003884FF6FE72134003800A
:1017600070471300DBB2002B03D083890B438381C6
:1017700002E083898B4383817047F0B40200002329
:1017800000260024178A0F4095890D40380080B24A
:10179000002805D0280080B2002801D0012000E0F8
:1017A0000020C0B2F0BC70470A0092B2D24302825D
:1017B0007047000000F5E0700268914203D343686F
:1017C0001A44914202D380680028F5D170470B4932
:1017D000086880B94FF4805048604FF480324FF071
:1017E000FF30C86008610420054B8A604861C3F877
:1017F000BC0104480860012070470000D8060020A2
:10180000D00300206859883C002800D170472DE99A
:10181000F047A0F10805AFF30080DFF810653169EB
:101820008D42C0F07A82686800F00302012A00F05D
:101830007482C2084FEAC209C20705EB090839D40D
:101840002C6810F0030F00F06A82604205448D425C
:10185000A144C0F062827069854200F0DA80E40839
:10186000202C72D2D5F80CA0AF68554508BF00F007
:101870005FFABD4208BF00F05BFA6868C008C000AC
:10188000B0EBC40F18BF00F053FA06F1280000EBCC
:10189000C400874205D031698F4253D3FA68AA4207
:1018A00050D1BA4540D13068012101FA04F420EA50
:1018B00004043460454580F03082D8F80440E007E5
:1018C00040F12B82A10700F17C81B069804540F096
:1018D000B380F168B5618944C6F80C9049F0010005
:1018E000686071698D4202D100207061B060F16959
:1018F000494580F01482DFF83024106808B9FFF7FA
:1019000066FFB169002900F00A82F068292824BF27
:101910003046FFF74FFFF069F168884280F0FF81A1
:101920004FF0FF30F061FAE1824506D03069824520
:1019300008D3DAF80810A94204D1C7F80CA0CAF8F5
:101940000870B7E700F0F4F9B4E7EC68AF69AC42AF
:101950000BD0A868884222D3C168A94204BFA268FC
:10196000AA421CD1C460A0601BE005F114021468F7
:1019700034B905F1100214689CB101E01A461468EC
:1019800004F114031868002802BF04F1100318685A
:101990000028F3D18A4202D30021116001E000F057
:1019A000C7F9002F86D0E96906F5987000EB810031
:1019B0000268954209D10460200011D1E86971687C
:1019C000012282409143716074E73069874205D3F8
:1019D0003969A94214BF7C613C6101E000F0A8F9BB
:1019E000002C3FF467AF31698C42ABD3A761286903
:1019F00028B1884226BF2061846100F099F96869A6
:101A000000283FF457AF316988429BD360618461FD
:101A100050E798F8040000F0030003287FF44AAF71
:101A2000C6F8089049F00101D8F8040040084000C9
:101A3000C8F8040069600AE0706980450AD1B1689D
:101A400075618944C6F8089049F00100686045F85E
:101A5000099064E1E408E400A144E408202C3AD2AF
:101A6000D8F80CA0D8F80870D04508BF00F060F98D
:101A7000B84508BF00F05CF9D8F80400C008C00001
:101A8000B0EBC40F18BF00F053F906F1280000EBCB
:101A9000C400874207D031698F42C0F08580FA6860
:101AA000424540F08180BA4507D13068012101FAF2
:101AB00004F420EA0404346078E0824506D03069FA
:101AC000824571D3DAF8081041456DD1C7F80CA0F2
:101AD000CAF808706AE0D8F80C40D8F81870444585
:101AE0000DD0D8F808003169884223D3C268424536
:101AF00004BFA16841451DD1C460A0601CE008F18D
:101B000014010C6834B908F110010C68A4B101E0AB
:101B100011460C6804F114021068002802BF04F199
:101B2000100210680028F3D13069814202D30022EC
:101B30000A6001E000F0FCF8002F37D0D8F81C1044
:101B400006F5987000EB8100026890450AD10460A8
:101B5000200012D1D8F81C00716801228240914304
:101B6000716023E03069874205D33969414514BF6C
:101B70007C613C6101E000F0DBF8BCB131698C4272
:101B800012D3A761D8F8100028B1884226BF20617F
:101B9000846100F0CDF8D8F8140038B1316988427A
:101BA00002D36061846101E000F0C2F849F00100F5
:101BB000686045F8099071698D420BD1C6F80890AC
:101BC000ADE064086400C8F8044049F001006860B2
:101BD00045F809904FEAD907202F22D206F12800B4
:101BE00000EBC704A046B9F1100F38BF00F0A0F811
:101BF000306820FA07F1CA0705D4012101FA07F776
:101C00000743376006E0A068316988422CBF8046F0
:101C100000F08EF8A560C8F80C50C5F80880EC609C
:101C20007DE05FEA192008BF002123D0B0F5803F96
:101C300028BF1F211ED2A0F58072120C02F00802EC
:101C40009040A0F58051090C01F004018840A0F5F6
:101C500080431B0CC2F10E0203F00203521AD21A87
:101C6000984002EBD032D01D29FA00F101F00101B9
:101C700001EB420106F59872002302EB8100E96155
:101C80006B612B61726822FA01F3DC0707D4012330
:101C900003FA01F1114371600560A8611DE002685B
:101CA0001F291DBF4908C1F1190109FA01F149466F
:101CB00000E002465068C008C000484510D002F15C
:101CC0001003C80F03EB8003490018680028F0D107
:101CD0003069834211D31D60AA61ED60AD600EE0F2
:101CE000316990688A4228BF884206D3C5609560F2
:101CF000A860EA600020A86101E000F019F8306AED
:101D0000401E30620BD1D6F8C80100E08068002880
:101D1000FCD14FF0FF30306201E000F009F8AFF382
:101D20000080BDE8F0870000D8060020D003002026
:101D3000012000F001B8000080B5AFF30080024A36
:101D400011001820ABBEFBE7260002002DE9FE4380
:101D500004000D0060694688300080B200280CD075
:101D60005827A0694188320092B207FB05F0204451
:101D700090F828008218914200DA54E0616832003D
:101D800092B207FB05F0204490F82800821851F821
:101D90003200C06AD0F800805FF0FF3007FB05F129
:101DA0002144A1F87A00852007FB05F1214481F840
:101DB0002A00DFF89C92CDF8049007FB05F0204440
:101DC00090F83200009007FB05F02044038E07FBDB
:101DD00005F0204490F8282007FB05F0204490F8F7
:101DE0002910200000F0A9F907FB05F02044C0F8F5
:101DF0002C9007FB05F02044C06F002807D0414617
:101E0000C9B2200007FB05F22244D26F904707FBBE
:101E100005F704EB0700C06A484504D12900C9B2A0
:101E2000200000F011F8BDE8F78338B50400002564
:101E30002800C0B2052806DA2900C9B2200000F047
:101E400003F86D1CF4E731BD3EB504000D00002021
:101E5000019000200090002300222900C9B2200038
:101E600000F01FF8002120290BD22A00D2B25820FE
:101E7000424304EB02000844002280F83C20491C45
:101E8000F1E758202A00D2B242432244002382F8CC
:101E900029302A00D2B200FB02F020440022C262A4
:101EA00037BD2DE9FC4706000F00904699460A9C75
:101EB0000B9D2800C0B202280BD02800C0B2032816
:101EC00007D02800C0B2042803D02800C0B20528DB
:101ED00011D1002000905F4B5F4A3900C9B2300039
:101EE000FEF78CFF3A00D2B258214A4306EB0201BA
:101EF000A1F87A0010E058203900C9B2414306EB3E
:101F0000010A3900C9B200FB01F03044B0F97A008F
:101F1000FEF7CFFFAAF87A005FF0580A3800C0B287
:101F20000AFB00F0304480F828803800C0B20AFB79
:101F300000F03044A0F830903800C0B20AFB00F046
:101F4000304480F832403800C0B20AFB00F0304420
:101F500080F82A503800C0B20AFB00F0304400215B
:101F600080F82B103800C0B20AFB00F0304400218A
:101F700041633800C0B20AFB00F0304400218163A5
:101F80003800C0B20AFB00F03044002180F8641031
:101F90003800C0B20AFB00F03044002180F8651020
:101FA0003800C0B20AFB00F03044002180F866100F
:101FB0003800C0B20AFB00F03044002181663800CE
:101FC000C0B20AFB00F03044002180F86C103800E9
:101FD000C0B20AFB00F03044002180F86D103800D8
:101FE000C0B20AFB00F03044002180F86E103800C7
:101FF000C0B20AFB00F03044002180F86F103800B6
:10200000C0B20AFB00F03044002180F8781038009C
:10201000C0B20AFB00F030440021C1673800C0B2F2
:102020000AFB00F03044C06D00F0B8F83800C0B2D0
:102030000AFB00F030440021C1653800C0B20AFB41
:1020400000FA06EB0A00002101660020BDE8F687D1
:1020500000000405D8B805004D1D00082DE9FE4319
:1020600004000D0016001F0094F8E001052805D0BB
:1020700094F8E0017F2801D0FF205CE02800C0B286
:1020800001281ED16069B0F80080404680B2002867
:1020900008D0A0690188424692B23000C0B28218CE
:1020A000914201DAFF2046E06168424692B2300078
:1020B000C0B2821851F83200006A0068ADF8000022
:1020C0001DE06069B0F80280404680B2002808D068
:1020D000A0694188424692B23000C0B28218914253
:1020E00001DAFF2027E06168424692B23000C0B2B8
:1020F000821851F8320040690068ADF800000020F5
:102100008DF8020008208DF803005FF000094846B2
:10211000C0B208280ADA4846C0B2385C69464A4666
:10212000D2B21144087119F10109F0E76946D4F8F7
:102130004C02FEF7DDFDBDE8FE832DE9FE43050000
:102140000E00170098460A9CDDF82C9080208DF830
:10215000000040468DF80100404680B2000A8DF82C
:1021600002008DF8034048468DF804004846000AF6
:102170008DF805004846000C8DF806004846000E14
:102180008DF807006B463A00D2B23100C9B2280080
:10219000FFF764FFC0B2BDE8FE830000FFF734BB69
:1021A00038B504000D0095F90100002807D094F916
:1021B000E201002803D1012084F8E2010DE095F945
:1021C0000100002809D194F9E201012805D100207D
:1021D00084F8E2012000FFF728FE95F903000028AB
:1021E0000AD094F9E401002806D1012084F8E40122
:1021F000200000F001FA0DE095F90300002809D154
:1022000094F9E401012805D1002084F8E4012000BC
:1022100000F02AFA95F9040000280AD094F9E501A3
:10222000002806D1012084F8E501200000F0D2FB4F
:102230000DE095F90400002809D194F9E501012881
:1022400005D1002084F8E501200000F0CCFB95F9D1
:10225000020000280AD094F9E301002806D10120E9
:1022600084F8E301200000F0E6FB0DE095F90200A0
:10227000002809D194F9E301012805D1002084F850
:10228000E301200000F0E8FB95F9050000280AD0E2
:1022900094F9E601002806D1012084F8E601200027
:1022A000FEF78AFA0DE095F90500002809D194F9A6
:1022B000E601012805D1002084F8E6012000FEF7A0
:1022C000ABFA95F90000002807D094F9E101002845
:1022D00003D1012084F8E1010DE095F90000002808
:1022E00009D194F9E101012805D1002084F8E10128
:1022F000200000F0B3FB31BD38B588B004000D00FC
:10230000280094F8E011C0B288425FD02800C0B223
:10231000002806D004283ED0052823D07F2810D0DE
:1023200052E09F48D0E90023CDE90623002084F83D
:10233000E00106A92000FFF733FF2000D4F8E811E0
:1023400088479848D0E90023CDE904237F2084F80A
:10235000E00104A92000FFF723FF2000D4F8EC11CE
:10236000884733E094F8E001002801D1FF202FE0F6
:102370008D48D0E90023CDE90223052084F8E0014F
:102380000520050002A92000FFF70AFF2000D4F86D
:10239000F01188471AE094F8E001002801D1FF20ED
:1023A00016E08248D0E90023CDE90023042084F818
:1023B000E0010420050069462000FFF7F1FE20003F
:1023C000D4F8F411884701E0FF2001E094F8E0011F
:1023D00009B030BD2DE9F84388B004000D006069F4
:1023E00006882800C0B2002803D02800C0B2802888
:1023F00000DBD2E0300080B2002837D060683100C6
:1024000089B250F83100406900682168097811F5F7
:10241000C061884203D020680078FF280AD1606834
:10242000310089B250F8310040692900C9B211F574
:10243000C06101606068310089B250F83100006A03
:1024400000682168097811F5B061884203D02068DE
:102450000078FF280AD16068310089B250F8310055
:10246000006A2900C9B211F5B061016000276069F6
:10247000B0F80480A069B0F8049004A84C49102278
:10248000FEF760FB404680B2002830D04846414607
:1024900080B289B288422AD33800C0B2042826DA32
:1024A00004A96068424692B250F83200406902685E
:1024B0003800C0B251F8203020680078C3189A4222
:1024C00003D020680078FF280DD16068424692B2A0
:1024D00050F8320042693800C0B251F8201028008C
:1024E000C0B2411811607F1C18F10108CEE75FF0FF
:1024F000000960690789A069B0F8088068462D491D
:102500001022FEF71FFB0021380080B2002830D0D7
:1025100040463A0080B292B290422AD30800C0B23C
:10252000042826DA6A4660683B009BB250F8330004
:10253000406903680800C0B252F820C020680078E3
:1025400010EB0C0C634503D020680078FF280DD1F8
:1025500060683B009BB250F8330043690800C0B28A
:1025600052F820202800C0B282181A60491C7F1C33
:10257000CEE7D4F88002006821680978803188426B
:1025800003D020680078FF2805D12800C0B2803031
:10259000D4F8801208602068057009B0BDE8F083A7
:1025A000143B00081C3B0008243B00082C3B00089F
:1025B000983A0008A83A0008704710B50400206A4D
:1025C0000078002804D181220021200000F05EFA6A
:1025D00010BD70477047000038B504000D002000A2
:1025E00000F06DF831BD70B504000D00160020003C
:1025F00000F002F8002070BD38B50400B4F92E02D6
:1026000010F1010F02D0200000F02EF8144D2B0025
:10261000002241F205012000FEF763FA2B000022A0
:1026200041F206012000FEF75CFAD4F8300200689F
:10263000400014D5D4F83402006800280FD0D4F834
:1026400034020068C0080090D4F834020368DB0844
:10265000044A00212000FEF7D1FBA4F82E0231BD70
:10266000E7250008D925000810B504000023002242
:1026700041F205012000FEF734FA0023002241F266
:1026800006012000FEF72DFAB4F92E02FEF711FC28
:10269000A4F82E0210BD1FB50400D4F83002006863
:1026A000ADF8000000208DF8020000208DF8030036
:1026B0006946D4F84C02FEF71BFB04B010BD38B5D8
:1026C00004002000FFF7E7FF0500200000F003F8FA
:1026D0002800C0B232BD38B504002000D4F838124A
:1026E000884794F9E601002801D100200AE0012181
:1026F0002000FDF711FF05002000D4F83C128847A8
:102700002800C0B232BD70477047000070B50400A9
:102710000D00D4F8040250F82560360C5FF0FF304D
:10272000D4F8081221F8150001203100C9B2214463
:1027300081F818023100C9B22000D4F81422904761
:1027400070BD7FB504000D00D4F80C02008800288D
:1027500015D02068067816F5E066ADF80060012017
:102760008DF8030000208DF8020094F8E0018DF848
:1027700004006946D4F84C02FEF7BAFA05E0B4F951
:102780001002FEF796FBA4F810027FBD70B504009E
:102790000D00D4F82402008800283AD0002630002A
:1027A000C0B202283BDA3000C0B2204490F81802D0
:1027B0000F282CD0300021680978C0B2884226D07A
:1027C0003000C0B2204490F82C0200280FD1D4F879
:1027D0002002002805D03100C9B22000D4F8202200
:1027E000904701203100C9B2214481F8180230001D
:1027F000C0B2204490F82C02401E3100C9B22144DE
:1028000081F82C023100C9B2200000F057F9761C83
:10281000C5E7B4F91A02FEF74CFBA4F81A0270BD22
:1028200070B504000D001600200000F0CAF820006A
:1028300000F053F8002070BD70B504000D001600C4
:10284000200000F09DF8200000F002F8002070BD8C
:102850007CB50500464B002241F217012800FEF727
:1028600040F9002085F8480200263000D5F8001213
:102870000978C0B288421AD2D5F804023100C9B230
:1028800030F82140002C10D0002000907D2303FB65
:1028900004F3364A3100C9B22800FEF7AFFAD5F882
:1028A00008123200D2B221F81200761CDDE7D5F80A
:1028B0000C02008800280FD0D5F80C0204887D2374
:1028C00003FB04F0009003FB04F32A4A00212800D4
:1028D000FEF794FAA5F8100273BD38B50400264D32
:1028E0002B00002241F20C012000FEF7FAF82B0029
:1028F000002241F20D012000FEF7F3F8D4F8240283
:102900000088002830D0D4F82802007800282BD086
:10291000D4F8240205887D2303FB05F0009003FB17
:1029200005F3164A00212000FEF768FAA4F81A02FF
:1029300000200100C9B2022916DA0100C9B22144FF
:1029400091F818120F290DD0010022681278C9B22F
:10295000914207D0D4F8281209780200D2B222445A
:1029600082F82C12401CE4E731BD00000D2700085E
:102970003928000843270008212800088D2700086F
:1029800038B5040000252800D4F800120978C0B238
:1029900088420FD2D4F808022900C9B230F91100D8
:1029A000FEF787FAD4F808122A00D2B221F81200F2
:1029B0006D1CE8E7B4F91002FEF77BFAA4F81002E8
:1029C00031BD10B50400B4F91A02FEF772FAA4F88A
:1029D0001A0210BD10B504002000FFF739FF2000D7
:1029E000FFF77BFF10BD10B504002000FFF7C8FF04
:1029F0002000FFF7E6FF10BD704770477047704733
:102A000070B40300D3F874020078002810D10020BD
:102A10000400200093F87152C0B2A84208D20020EE
:102A2000D3F878522600F6B245F82600641CF0E789
:102A3000002070BC704710B50400064B002241F224
:102A400003012000FEF74DF80020D4F8741208703E
:102A500010BD0000012A0008704770471FB5040030
:102A60002068007850F4E060ADF8000000208DF898
:102A7000020001208DF8030000208DF80400694653
:102A8000D4F84C02FEF734F904B010BD7FB5040051
:102A90000D0016000020ADF8000000208DF80200A7
:102AA00002208DF803008DF804608DF8055069460A
:102AB000D4F84C02FEF71CF904B070BD7FB50400D9
:102AC0000D002E00F6B256F4E066ADF8006001206D
:102AD0008DF8020000208DF803006946D4F84C02FE
:102AE000FEF706F904B070BDDFF8AC12086850F0CC
:102AF00001000860DFF8A4221368DFF8A402034095
:102B000013600B68DFF89C0203400B60086830F428
:102B100080200860106830F4FE0010605FF41F0031
:102B2000DFF8841208607047DFF86C120A6832F42C
:102B300080320A600A6832F480220A600200B2F52C
:102B4000803F03D0B2F5802F05D009E00A6852F427
:102B500080320A6004E00A6852F4A0220A60FFE7AB
:102B6000704738B50020009000240025312000F087
:102B7000EFF805000098401C009000984FF6FF7198
:102B8000884203D02800C0B20028EFD0312000F0E6
:102B9000DFF8002801D0012000E00020C0B232BDE3
:102BA00030B400237D4D2C6834F47C1451EA0002CB
:102BB00014432C6030BC70470100C9B27B4A1160DD
:102BC00070470021754B1A689208920002431A6000
:102BD00070477248006810F00C00704700216F4B7E
:102BE0001A6832F0F00202431A60704700216B4B02
:102BF0001A6832F4E06202431A6070470021674BA2
:102C00001A6832F4605252EAC0021A60704768498A
:102C1000086070470021614B1A6832F44042024359
:102C20001A6070472DE9F04F0100002200250020B6
:102C300000265A4FD7F800C01CF00C0C6346002B3E
:102C400004D0042B05D0082B06D023E05A4A0A6092
:102C500022E0594A0A601FE03A6812F470123B6899
:102C600013F480331800920C921C1500002804D134
:102C7000524A02FB05F20A600BE03A68920304D55F
:102C80004E4A02FB05F20A6003E04B4A02FB05F2E2
:102C90000A6001E0484A0A603C6814F0F004240924
:102CA000DFF81C9119F804E00A6832FA0EF24A6063
:102CB0003B6813F4E0631B0A19F803804A6832FA90
:102CC00008F28A603A6812F46052D20A19F8029047
:102CD000D1F804A03AFA09FAC1F80CA03F6817F439
:102CE0004047BF0BDFF8DCA01AF807A0D1F80CB002
:102CF000BBFBFAFBC1F810B0BDE8F08F0A00D2B2FE
:102D0000002A04D0304A13680343136003E02E4ABC
:102D100013688343136070470A00D2B2002A04D0BC
:102D20002A4A13680343136003E0284A1368834365
:102D3000136070470A00D2B2002A04D0244A1368F4
:102D40000343136003E0224A136883431360704710
:102D500030B401000020002300250A00D2B252093D
:102D6000D2B2012A02D10C48046806E0022A02D13C
:102D70001048046801E0174804680B00DBB213F048
:102D80001F032000D840C00701D5012000E000202B
:102D9000C0B230BC70470000001002400410024076
:102DA0000000FFF8FFFFF6FE0810024060004242FC
:102DB000D80042422010024000127A0000093D0073
:102DC000A4030020B4030020141002401810024095
:102DD0001C100240241002402DE9F04104000D00B7
:102DE00016005FF001080027280080B2002860D09C
:102DF00000F03CF9002801D1002080464046C0B2D6
:102E0000002808D0A02000F0C6F900F0A3F900289F
:102E100001D1002080464046C0B2002808D02000E2
:102E200080B2000AC0B200F0B6F900F093F9804613
:102E30004046C0B2002806D02000C0B200F0ABF976
:102E400000F088F980464046C0B2002805D000F066
:102E50000DF9002801D1002080464046C0B200286C
:102E600008D0A12000F097F900F074F9002801D1F2
:102E7000002080466D1E4046C0B2002817D00020BA
:102E800007003800290080B289B2884208D200F0D9
:102E9000A7F9390089B2705400F02CF97F1CF0E7D3
:102EA00000F09EF9390089B2705400F03BF900F04F
:102EB00009F94046C0B2BDE8F0812DE9F0410400B7
:102EC0000D00160000275FF00108280080B20028DE
:102ED00042D000F0CBF8002801D1002080464046C7
:102EE000C0B2002808D0A02000F055F900F032F957
:102EF000002801D1002080464046C0B2002808D0FA
:102F0000200080B2000AC0B200F045F900F022F9BA
:102F100080464046C0B2002806D02000C0B200F073
:102F20003AF900F017F98046002007003800290020
:102F300080B289B288420DD24046C0B2002807D084
:102F4000380080B2305C00F026F900F003F98046CA
:102F50007F1CEBE700F0B6F8052000F07EF8404655
:102F6000C0B2BDE8F0812DE9F04704000D00160065
:102F700000275FF000085FF0000A200010F01F0F2C
:102F80001BD014F01F00D0F12000070028003900EA
:102F900080B289B2884200D22F00404680B206EB50
:102FA0000002390089B218EB040080B2FFF785FFF8
:102FB0008146ED1B17EB080801E05FF00109484668
:102FC000C0B200281FD0280080B200281BD02020CB
:102FD00007002800390080B289B2884200D22F0051
:102FE000404680B206EB0002390089B218EB0400BB
:102FF00080B2FFF762FF8146ED1B17EB08084846D9
:10300000C0B20028DFD14846C0B2BDE8F08700005A
:103010001CB5042100226C462000FDF747FC03206C
:103020008DF8020014208DF8030081488188ADF8E6
:10303000001069460068FDF7D3FF7E488188ADF82F
:10304000001069460068FDF7CBFF13BD0020642126
:103050000800411E0028FBD170474FF4205148431F
:10306000401C0100481E0029FBD1704710B5704C70
:10307000A088216808616F48818800680161FFF7B6
:10308000E5FF20688068002801D1012000E00020D1
:10309000217911F00101084201D0002011E0A0883F
:1030A00021684861FFF7D2FF20688068A188084244
:1030B00001D0002005E0A08821684861FFF7C6FF25
:1030C000012010BD38B55B4CA08821684861FFF72E
:1030D000BDFF574DA88829684861FFF7B7FFA08852
:1030E00021680861FFF7B2FFA88829680861FFF727
:1030F000ADFF31BD10B54F4CA08821684861FFF786
:10310000A5FF4B48818800684161FFF79FFFA088B9
:1031100021680861FFF79AFFA08821684861FFF7DE
:1031200095FF10BD10B5434CA08821684861FFF79A
:103130008DFF3F48818800680161FFF787FFA08805
:1031400021680861FFF782FFA08821684861FFF7C6
:103150007DFF10BD38B5374CA08821684861FFF766
:1031600075FF334DA88829680861FFF76FFFA088B5
:1031700021680861FFF76AFF28688068A98808420B
:1031800004D0A08821684861002003E0A08821685D
:103190004861012032BD70B5040008252800451E95
:1031A000C0B2002817D0234EB0883168486120068D
:1031B00004D51F4881880068016103E01C488188AC
:1031C00000684161FFF742FFB08831680861FFF78E
:1031D0003DFF6400E2E7174881880068416170BDE7
:1031E000F8B508240025124EB08831680861200027
:1031F000441EC0B2002813D06D000E4FB888396845
:103200004861FFF723FFB88839680861FFF71EFFA0
:1032100030688068B1880842E9D055F00105E6E7DA
:1032200004488188006841612800C0B2F2BD0000F6
:10323000FC3A0008043B00084FF4C0414843401CDE
:103240000100481E0029FBD1704710B5FFF74CFC68
:103250005FF48030FFF768FCFFF783FC0400200078
:10326000C0B201282BD10020FFF7B8FC0020FFF7E7
:10327000C5FC4FF48060FFF7B9FC4FF44040FFF706
:10328000C9FC0020FFF7C3FC022000F08DF81020DD
:1032900000F093F85FF450115FF48030FFF780FC8A
:1032A0000120FFF789FC3920FFF752FD0028FAD0F2
:1032B0000220FFF786FCFFF78CFC0828FBD110BD2D
:1032C00010B504002100C9B240F63D00FFF724FD0F
:1032D0002100C9B20320FFF711FD2100C9B25FF040
:1032E000D050FFF727FD10BD80B500215FF00060D2
:1032F000FEF750F94FF4A060FEF714F901BD1CB5BC
:10330000042100226C462000FDF7D0FA012120485C
:10331000FDF7DBFE10208DF8030003208DF802007E
:103320001C488188ADF8001069460068FDF758FE1A
:1033300013BD80B5FFF789FFFFF7D6FF0120FFF728
:10334000BFFFFFF7DCFFFFF763FE00F043F8124812
:10335000FFF768FC1148FDF739FC002800D0FEE7B4
:1033600000F09DF8FEF73AF900F0D6F862B601BD1C
:1033700000B585B00A480078800707D56846094936
:103380001422FDF7DFFB6420FFF756FF05B000BDF8
:10339000000230000C3B0008F0060020040700206B
:1033A0000C000020843A00080021DFF824301A685D
:1033B00012F0380202431A607047DFF814100A68EE
:1033C00032F010020A600A6802430A607047000087
:1033D000002002402DE9F84300270026354C22004A
:1033E00010214FF48070FFF7F7FC05002800C0B2F1
:1033F00000280BD000275FF000080C21200000F00F
:10340000AFF8E168884201D00022150022001021A7
:103410004FF44070FFF7E0FC07003800C0B200280E
:103420000BD000265FF000080C21200000F098F877
:10343000E168884201D00022170010265FF00008E2
:10344000A146424631004846FDF730FA0020207080
:103450001420A0800420A0700520E070012060707E
:1034600000F004F800F0A0F8BDE8F18370B5002486
:10347000104E0020F0600C21300000F071F8F06078
:10348000320010214FF48070FFF76DFD050032000F
:1034900010214FF44070FFF766FDC0B270BD10B54B
:1034A000054C0A212000FEF795FF00212000FEF7C1
:1034B00023FF10BD04070020FC00002010B4020010
:1034C00052B2002A05D40A011D4B040064B21A55F9
:1034D00008E00A011B4B040064B214F00F042344FB
:1034E00003F8042C10BC704710B50400601EB0F146
:1034F000807F01D301200EE0601E134908600F2178
:103500005FF0FF30FFF7DAFF002010490860072066
:103510000F490860002010BD80B50420FEF740F878
:103520000C48FFF7E1FF00200B49086000200B4921
:10353000086000215FF0FF30FFF7C0FF01BD000011
:1035400000E400E018ED00E014E000E018E000E026
:1035500010E000E0C0270900140700201807002031
:1035600070B403000022002400264FF6FF700025EF
:103570008D4214D25A5D504000221600082E0CD203
:10358000C20706D580B2020048F2084090EA520015
:1035900001E080B24008761CF0E76D1CE8E780B2DD
:1035A000C04380B270BC70472DE9F8435FF000085B
:1035B000002441F6CA75DFF8286132003621280060
:1035C000FFF70AFC07003800C0B2002810D05FF0F7
:1035D00000085FF0000934213000FFF7C1FFB18E11
:1035E00002000B0092B29BB29A4201D00022170057
:1035F000320036214FF4F050FFF7EEFB8046404694
:10360000C0B200280FD000245FF000093421300040
:10361000FFF7A6FFB18E02000B0092B29BB29A4256
:1036200001D00022904658EA0700C0B200280FD10E
:1036300036240025B1462A0021004846FDF736F918
:103640000120F0804AF6AA20B08000F02AF826E097
:103650003800C0B201280FD14046C0B200280BD1BB
:10366000320036212800FFF7B7FB320036214FF435
:10367000F050FFF778FC12E03800C0B200280ED1FD
:103680004046C0B201280AD1320036214FF4F05032
:10369000FFF7A2FB320036212800FFF764FCBDE8EB
:1036A000F18338B500240E4D0020A886342128006F
:1036B000FFF756FFA8862A00362141F6CA70FFF7A9
:1036C00052FC012809D12A0036214FF4F050FFF7AF
:1036D0004AFC012801D1012004002000C0B232BD03
:1036E0006806002080B53D49086850F00100086078
:1036F0003B4A13683B48034013600B683A48034059
:103700000B60086830F480200860106830F4FE0018
:1037100010605FF41F003549086000F001F801BD3A
:1037200080B500F001F801BD82B0002001900020BA
:1037300000902A49086850F480300860086810F446
:10374000003000900198401C01900098002804D19E
:1037500001984FF6FF729042F0D10868800302D5BD
:103760000120009001E0002000900098012831D154
:103770001F48026852F0100202600268920892002C
:103780000260026852F0020202601548026802609C
:1037900002680260026852F480620260026832F4D9
:1037A0007C120260026852F4A02202600A6852F0A1
:1037B00080720A600A689201FCD501688908890054
:1037C0000160016851F002010160016811F00C0113
:1037D0000829FAD102B07047000000000010024032
:1037E000041002400000FFF8FFFFF6FE0810024040
:1037F000002002402148018851F0100101807047EB
:103800001E490A884FF6EF7002400A80704710B5D3
:103810000400FFF7EFFF2000000C1A490880184849
:103820000480FFF7EDFF10BD144800888006FBD52B
:10383000704712490A884FF6F77002400A800888DC
:103840000007FCD570470D490A8882430A807047FB
:1038500001000020094A12880A40074B1B889BB2CE
:103860000B4205D01000C0B2002801D0012000E0BA
:103870000020C0B27047000000280040042800402B
:103880001C28004018280040F0B4024610689568D3
:103890001318506803EB5004C0071CD54D441AE0C0
:1038A00013F8017B05F8017B491EF9D198B113F893
:1038B000011BC6F38106032E08BF13F8016B01EB51
:1038C00006214942801C294405D011F8016B05F8F6
:1038D000016B401EF9D1A3420ED013F8016B16F014
:1038E000030104BF13F8011BC91C30090F28DBD1E9
:1038F00013F8010B0F30D7E7F0BC02F10C00704752
:103900007047FEE7FEE7FEE7FEE770477047704747
:1039100013480168491C016000681521B0FBF1F2F1
:1039200001FB1200002804D10E48016851F0020189
:103930000160704780B50420FFF78AFF00280DD191
:103940000420FFF780FF0020FFF761FF06480168B1
:10395000491C0160FFF76DFFFFF766FF01BD000026
:10396000140700200C000020000000207047000019
:1039700010B4030000201060180080B2B0F5905F12
:1039800009D0B0F5C05F08D0B0F5D05F09D0B0F570
:10399000005F08D009E001200BE00220084C146011
:1039A00007E0032005E0042003E00648086000204B
:1039B00004E000240C60044C04EBC00010BC704711
:1039C000C006002000000206D439000802000020D2
:1039D00070470000000000000000000018000020F8
:1039E000040000124C000020060000189C0000207B
:1039F00003000016C00000200300002010B5074996
:103A000079441831064C7C44163404E00A68081DD9
:103A1000114488470146A142F8D110BD08000000BA
:103A200024000000EFCEFFFF64030000D00300205D
:103A30000000000055FEFFFFE001000070020000E2
:103A40000000002000F00DF8002801D0FFF7D6FF9D
:103A5000AFF300800020AFF3008000F004F800F026
:103A600008F80120704780B5FFF763FCFFF780FC82
:103A7000FCE700F001B8000007463846FEF75CF9A5
:103A8000FBE7000001020304050807040000000032
:103A90000000000000000000000200000003000021
:103AA000000400000005000080010000800200000A
:103AB000800300008004000001488047014800475F
:103AC000E5360008E13A00080100000000000000AF
:103AD00002000300010000000000000002000300DB
:103AE000AFF30080AFF30080FFF7ACFF00080140A8
:103AF000000800000008014000100000000C014018
:103B000080000000000C014040000000000C01405B
:103B1000020000000100000000000000000101019F
:103B2000010001000001010101010000000000008E
:103B300001000100FFF7FEBFFFF7FEBFFFF7FEBF6A
:103B4000FFF7FEBFFFF7FEBFFFF7FEBFFFF7FEBFA9
:103B5000FFF7FEBFFFF7FEBFFFF7FEBFFFF7FEBF99
:103B6000FFF7FEBFFFF7FEBFFFF7FEBFFFF7FEBF89
:103B7000FFF7FEBFFFF7FEBFFFF7FEBFFFF7FEBF79
:103B8000FFF7FEBFFFF7FEBFFFF7FEBFFFF7FEBF69
:103B9000FFF7FEBFFFF7FEBFFFF7FEBFFFF7FEBF59
:103BA000FFF7FEBFFFF7FEBFFFF7FEBFFFF7FEBF49
:103BB000FFF7FEBFFFF7FEBFFFF7FEBFFFF7FEBF39
:103BC000FFF7FEBFFFF7FEBFFFF7FEBFFFF7FEBF29
:103BD000FFF7FEBFFFF7FEBFFFF7FEBFFFF7FEBF19
:103BE000FFF7FEBFFFF7FEBFFFF7FEBFFFF7FEBF09
:103BF000FFF7FEBFFFF7FEBFFFF7FEBFFFF7FEBFF9
:103C0000FFF7FEBFFFF7FEBFFFF7FEBFFFF7FEBFE8
:103C1000FFF7FEBFFFF7FEBF1200013001010100F8
:103C2000012107400801060000810500000205107F
:103C30001007C603002000070000040C8310000CCE
:103C400022140C512412C7248381013492C8349267
:103C5000482822C918116012020C83BC0318833053
:103C60000718122C0C80040801002010022092CAB0
:103C70005092948422980C42022492CB5092CC68A9
:103C800012BE0C2380000112FF01B2000112CD1CF4
:103C90002003D4390008E84811011007170500086F
:103CA000C83A0008D4041003220B0008CA0412CD3D
:103CB00020F2400001F001FFFFFF0001F142015638
:103CC0000F651003B9250008BB0412D30487D5255E
:103CD000D01A316C122004122E041AC00C259648FA
:103CE00004F92900080F0F2C12FF0C12C2182ACE5B
:103CF0005015B412242812280410030727000809BD
:103D00000412FB2083FD29501A712C83210B10E62D
:103D100001E5111A1232401003A006002033085AA0
:103D2000E478F10B01435B2A5020020102030404F2
:103D300020060607080902040608A01005E803E8A3
:103D400003D0073C9A000703010501020264010346
:0400000508003AE1D4
:00000001FF
