:020000040800F2
:10000000002E0020B9E2000811E0000813E000080B
:1000100015E0000817E0000819E0000800000000E3
:100020000000000000000000000000001BE00008CD
:100030001DE00008000000001FE0000821E00008AB
:1000400095E3000899E300089DE3000863E00008D9
:10005000A1E30008A5E30008A9E30008ADE3000858
:10006000B1E30008B5E30008B9E30008BDE3000808
:10007000C1E30008C5E30008C9E30008CDE30008B8
:10008000D1E30008D5E30008D9E30008DDE3000868
:10009000F5E00008E1E30008E5E30008E9E3000813
:1000A000EDE3000899A60008F1E30008F5E3000875
:1000B000F9E30008FDE3000801E4000805E4000896
:1000C00009E400080DE4000811E4000815E4000844
:1000D00019E400081DE4000821E400088DE0000890
:1000E00025E4000829E400082DE4000831E40008B4
:1000F00035E4000839E400083DE4000841E4000864
:1001000045E4000849E400084DE4000851E4000813
:1001100055E4000859E400085DE4000861E40008C3
:1001200065E4000869E400086DE4000871E4000873
:1001300030B4002513E050F8042BD30744BFA9F1D5
:1001400001039A18091F042942F8045BFAD21346E6
:100150008C0744BF15809B1CC90748BF1D7050F811
:10016000041B0029E7D130BC704709F060BB09F0DF
:100170007BBF230001200BF0EFB81200013001011A
:10018000010001100302070000040B1004741B009F
:1001900020020518110C4004DF1D0020009F0C12E6
:1001A000E00C612412782452000C227C30100209E9
:1001B00000000A0C923C0C92480C92545483F811A3
:1001C0003C928848928C0C92900C92940C92980CD1
:1001D000929C0C92A00C92A40C92A80C92AC0C9243
:1001E000B00C92B40C92B80C92BC0C92C00C92C49D
:1001F0000C92C80C92CC0C92D00C92D40C92D80CCD
:1002000092DC0C92E00C92E40C92E80C92EC0C92D2
:10021000F00C92F40C92F80C92FC0C83001C0C92E3
:10022000040C92080C920C0C92100C92140C921864
:100230000C921C0C92200C92240C92280C922C0CE8
:1002400092300C92340C92380C923C0C92400C92EE
:10025000440C92480C924C0C92500C92540C9258B4
:100260000C925C0C92600C92640C92680C926C0C78
:1002700092700C92740C92780C927C0C92800C927E
:10028000840C92880C928C0C92900C92940C929804
:100290000C929C0C92A00C92A40C92A80C92AC0C08
:1002A00092B00C92B40C92B80C92BC0C92C00C920E
:1002B000C40C92C80C92CC0C92D00C92D40C92D854
:1002C0000C92DC0C92E00C92E40C92E80C92EC0C98
:1002D00092F00C92F40C92F80C92FC0C83001D0C22
:1002E00092040C92080C920C0C92100C92140C922A
:1002F000180C921C0C92200C92240C92280C922C1C
:100300000C92300C92340C92380C923C0C92400CB3
:1003100092440C92480C924C0C92500C92540C92B9
:10032000580C925C0C92600C92640C92680C926C6B
:100330000C92700C92740C92780C927C0C92800C43
:1003400012840C13800001613412061C1E06800604
:10035000110C8FBA1D28068FF911700683901D0CA1
:1003600092940C92980C439C1D48128040614492D8
:10037000FA4483D0060C22D4748202289EFB940691
:1003800022FC1C511883E31D9C83BC1D1892E418A9
:1003900092BE1822E50C82035892FC588354072819
:1003A00092E64092C04092E71892C21822E80C826E
:1003B000045892FD5892AC5892E94092C44092EA97
:1003C0001892C61852EB0C615892FE588304082804
:1003D00092EC4092C84092ED1892CA1892EE0C929C
:1003E000FF5483141A0C92180C921C0C92200C923D
:1003F000240C92280C922C0C83301A6C8300121857
:1004000092342492380C923C0C92400C92440C9200
:10041000480C924C0C92506C92016C92542492585D
:100420000C925C0C92600C92640C92680C926C0CB6
:1004300092706C92026C92742492780C927C0C9262
:10044000800C92840C92880C928C0C12900C8B80F5
:100450000108920370830C0A8822041855F096CC88
:10046000E49AEF0892CE1812F00C9E806803920571
:100470005892645892065892D04092F15883F411E1
:100480001822F2589D680392075892BC5892F34084
:1004900092D25892F41892D41822F55882045892A5
:1004A000085883140B2892F64092D64092F718927F
:1004B000D81812F80C7005080002201000031483ED
:1004C000091220836C0B3812700CF0030B0800012A
:1004D0002000015138920AA083980B0C929C0C9238
:1004E000A00C92A40C92A80C92AC0C92B00C32B45A
:1004F0008CF214028C920B8C83240C0C92280C929C
:100500002C0C92300C92340C92380C923C0C224001
:100510000C516C920C6C9A94C892980C929C0C9210
:10052000A00C92A40C92A80C92AC0C8FB01A880666
:10053000960DA896B5D483FA190C92FB0C22F90CEF
:1005400055CC92F60C83041A0C92020C92080C8380
:10055000061A4892DC6C5ADD58A1182D440783F81E
:1005600017A8960E149AA08822DA0C1300FF01B285
:100570000001F1231212DE4C2004FCDC0008E80D1F
:10058000541009000087BD0008C8E20008D4041315
:100590007201181006A5000809DB00082104F240CA
:1005A0000001F001FFFFFF0001F14201560F65104D
:1005B0000339B300083B041253048755B3D01AE241
:1005C0000412880412B6042DB0092596F4046D6552
:1005D000C500080F0F9E29AC126B8812B8943AE13F
:1005E000F4F16D0125182D1C111284041003ABB514
:1005F0000008AD041267A08769C54C1E61280383FB
:100600000D8410E201B54E0178112D70112D8C1161
:10061000F3117806D8600243B600084820020102B0
:1006200003040420060607080902040608941006BD
:10063000E803FFFF7F04020601120801100506010E
:0906400006FF0606020B03090285
:105000004D33333331203233313231323031204776
:105010003233313231320000000000000000000065
:105020000000000000000000000000000000000080
:0250300000007E
:105034002DE9FE4304000D0060694688300080B20B
:1050440000280CD05827A0694188320092B207FB8F
:1050540005F0204490F82C008218914200DA56E0C2
:105064006168320092B207FB05F0204490F82C00EE
:10507400821851F83200C06AD0F800805FF0FF3027
:1050840007FB05F12144A1F87E00852007FB05F10B
:10509400214481F82E00DFF86097CDF8049007FBD7
:1050A40005F0204490F83600009007FB05F02044FA
:1050B400838E07FB05F0204490F82C2007FB05F0B5
:1050C400204490F82D10200000F08FFC07FB05F021
:1050D4002044C0F8309007FB05F02044D0F880004D
:1050E400002808D04146C9B2200007FB05F222443B
:1050F400D2F88020904707FB05F704EB0700006B0C
:10510400484504D12900C9B2200000F06FFABDE877
:10511400F78338B5040000252800C0B2052806DA54
:105124002900C9B2200000F061FA6D1CF4E731BD1A
:1051340038B584B004000D0058212800C0B248439B
:105144002044806B002809D12800C0B24843204481
:105154002A00D2B24A432244D26B82632800C0B2EE
:1051640048432044806B0390039821281CD30120DA
:1051740002900120019003A800902800C0B2484387
:105184002044036E2800C0B24843204490F83620DF
:105194002800C0B201FB00F104EB0100818E200065
:1051A40003F01AF801001CE0012002900120019094
:1051B40003A800902800C0B24843204410F14003E3
:1051C4002800C0B24843204490F836202800C0B2DA
:1051D40001FB00F104EB0100818E200002F0FCFFD2
:1051E4000100002901D0080000E0002005B030BD16
:1051F4002DE9F04186B005000E00202005905827C7
:10520400012003900120029004A8019005A80090B9
:105214003000C0B27843284410F140033000C0B2DB
:105224007843284490F836203000C0B278432844AC
:10523400818E280002F01DFF0400DFF8C0058442BF
:105244003BD1059840F60101884236D23000C0B205
:10525400784305EB0008059803F070FBC8F860007C
:105264003000C0B278432844006E002825D03000B6
:10527400C0B2784328440599416601200390012077
:10528400029004A801903000C0B2784328446430EE
:1052940000903000C0B278432844036E3000C0B29E
:1052A4007843284490F836203000C0B2784328442C
:1052B400818E280002F0DDFE0400002C01D02000C5
:1052C4000EE03000C0B27843284405998163300071
:1052D400C0B207FB00F705EB07000021C163002003
:1052E40006B0BDE8F081F0B4040058250800C0B24F
:1052F40068432044806B0E00F6B26E432644F66B7E
:105304009619B04201D2FF2052E00800C0B26843AF
:105314002044C66B0800C0B268432044806B212837
:1053240017D200273800C0B2904233D20800C0B26E
:1053340068432044BC465FFA8CFC1CEB060C6044BA
:1053440090F84000BC465FFA8CFC03F80C007F1C0C
:10535400E8E70800C0B268432044006E002801D189
:10536400FF2025E000273800C0B2904212D2080086
:10537400C0B268432044006EBC465FFA8CFC1CEB50
:10538400060C10F80C00BC465FFA8CFC03F80C0009
:105394007F1CE8E70800C0B2684320448C465FFAEB
:1053A4008CFC05FB0CF52544ED6B5519C5630020F9
:1053B400F0BC70472DE9FE4F04000D0016001F00DD
:1053C4005FF058082800C0B208FB00F02044D0F871
:1053D4003C902800C0B208FB00F0204410F1400AC1
:1053E4002800C0B208FB00F02044C06B301821280C
:1053F4007AD32800C0B208FB00F02044006E0028D5
:1054040033D12800C0B208FB00F004EB000B4FF4CA
:10541400006003F093FACBF860002800C0B208FBE8
:1054240000F020444FF4006141662800C0B208FB3C
:1054340000F02044006E002801D1FF2073E0CDF875
:1054440004902800C0B208FB00F0204440300090D3
:105454002800C0B208FB00F02044D0F860B0019AE4
:105464000099584604F044FE37E02800C0B208FB17
:1054740000F02044406E2900C9B208FB01F1214428
:10548400C96B7118884228D22800C0B208FB00F00A
:105494002044416E11F500612800C0B208FB00F001
:1054A4002044006EFAF761FE0100002901D1FF20BB
:1054B40039E02800C0B208FB00F02044016628004F
:1054C400C0B208FB00F020442A00D2B208FB02F26A
:1054D4002244526E12F5006242662800C0B208FBF4
:1054E40000F02044006E824600210800C0B2B042A1
:1054F4000AD20800C0B2385C0A00D2B212EB090228
:105504000AF80200491CF0E72800C0B208FB00F0CA
:1055140020442A00D2B208FB02F804EB0802D26B42
:10552400B218C2630020BDE8FE8F2DE9FF470400D6
:105534000D0016001F00DDF8348002AB3200D2B239
:105544002900C9B2200000F07FF981464846C0B264
:10555400002808D13000C0B2012804D19DF80810F9
:10556400200000F043F84846C0B2002825D130009E
:10557400C0B2022821D15FF0580A9DF808000AFB46
:1055840000F02044B0F97E0004F061FE9DF808109C
:105594000AFB01F12144A1F87E009DF808000AFBF2
:1055A40000F02044852180F82E109DF808000AFBA5
:1055B40000FA04EB0A00C0F83080CDF804809DF8AE
:1055C400300000903B009BB22A00D2B23100C9B235
:1055D400200000F00AFA01000800C0B2002801D03F
:1055E400FF2000E0002004B0BDE8F0873EB50400D1
:1055F4000D000020019000200090002300222900CB
:10560400C9B2200000F01FF8002120290BD22A0083
:10561400D2B25820424304EB02000844002280F82E
:105624004020491CF1E758202A00D2B242432244C8
:10563400002382F82D302A00D2B200FB02F020446D
:105644000022026337BD2DE9FC4706000F00904697
:1056540099460A9C0B9D2800C0B202280BD0280052
:10566400C0B2032807D02800C0B2042803D0280001
:10567400C0B2052811D100200090614B614A390065
:10568400C9B2300004F088FD3A00D2B258214A432E
:1056940006EB0201A1F87E0010E058203900C9B2DF
:1056A400414306EB010A3900C9B200FB01F0304462
:1056B400B0F97E0004F0CBFDAAF87E005FF0580A32
:1056C4003800C0B20AFB00F0304480F82C80380067
:1056D400C0B20AFB00F03044A0F834903800C0B2E5
:1056E4000AFB00F0304480F836403800C0B20AFBB0
:1056F40000F0304480F82E503800C0B20AFB00F0AD
:105704003044002180F82F103800C0B20AFB00F0AA
:105714003044002181633800C0B20AFB00F03044F9
:105724000021C1633800C0B20AFB00F030440021FC
:1057340080F868103800C0B20AFB00F03044002141
:1057440080F869103800C0B20AFB00F03044002130
:1057540080F86A103800C0B20AFB00F0304400211F
:10576400C1663800C0B20AFB00F03044002180F862
:1057740070103800C0B20AFB00F03044002180F8F9
:1057840071103800C0B20AFB00F03044002180F8E8
:1057940072103800C0B20AFB00F03044002180F8D7
:1057A40073103800C0B20AFB00F03044002180F8C6
:1057B4007C103800C0B20AFB00F030440021C0F86D
:1057C40080103800C0B20AFB00F03044006EFAF7D3
:1057D400CAFC3800C0B20AFB00F030440021016664
:1057E4003800C0B20AFB00FA06EB0A000021416649
:1057F4000020BDE8F687000000000405050004054C
:1058040000127A003550000830B403000024200050
:10581400C0B2052815DA58252000C0B268431844E0
:1058240090F82E0000280AD114702000C0B205FBA5
:1058340000F503EB050080F82D10002002E0641C45
:10584400E5E7FF2030BC7047F0B4040000252800D1
:10585400C0B205282DDA58262800C0B2704320446F
:1058640090F82E00002822D02800C0B270432044B3
:1058740090F82E0085281AD02800C0B27043204426
:1058840090F82C000F00FFB2B84210D12800C0B22B
:1058940006FB00F604EB060090F82D001600F6B2A5
:1058A400B04204D1002B00D01D70002002E06D1C1A
:1058B400CDE7FF20F0BC704730B403005824080043
:1058C400C0B260431844806B002802D100201060ED
:1058D4000DE00800C0B260431844856B0800C0B2F4
:1058E40004FB00F403EB0400C06B2D1A15600020C8
:1058F40030BC704710B403000C00E4B25820444399
:1059040003EB04008263002010BC70472DE9FE43C2
:1059140004000D0016001F0094F8E401052805D0CA
:1059240094F8E4017F2801D0FF205CE02800C0B295
:1059340001281ED16069B0F80080404680B200287A
:1059440008D0A0690188424692B23000C0B28218E1
:10595400914201DAFF2046E06168424692B230008B
:10596400C0B2821851F83200006A0068ADF8000035
:105974001DE06069B0F80280404680B2002808D07B
:10598400A0694188424692B23000C0B28218914266
:1059940001DAFF2027E06168424692B23000C0B2CB
:1059A400821851F8320040690068ADF80000002008
:1059B4008DF8020008208DF803005FF000094846C6
:1059C400C0B208280ADA4846C0B2385C69464A467A
:1059D400D2B21144087119F10109F0E76946D4F80B
:1059E4004C0304F069FDBDE8FE832DE9FE43050088
:1059F4000E00170098460A9CDDF82C9080208DF844
:105A0400000040468DF80100404680B2000A8DF83F
:105A140002008DF8034048468DF804004846000A09
:105A24008DF805004846000C8DF806004846000E27
:105A34008DF807006B463A00D2B23100C9B2280093
:105A4400FFF764FFC0B2BDE8FE8300002DE9F84F04
:105A54008CB083460F0000208DF80B00032100203A
:105A64000A905FF00308DBF814000088ADF81A0010
:105A7400DBF818000088ADF81E0000208DF818002F
:105A8400BDF81A0000282FD0BDF81E00BDF81A106A
:105A9400884229D3DBF80400BDF81A1000EBC100DA
:105AA4000079022802DAFF2002F0D5BADBF80400FC
:105AB400BDF81A1050F8310040690A900A9800683D
:105AC4003988884205D1012080469DF818000400D9
:105AD4000AE09DF81800401C8DF81800BDF81A0063
:105AE400401CADF81A00CFE74046C0B203284AD1A3
:105AF400DBF814004088ADF81A00DBF81800408881
:105B0400ADF81E0000208DF81800BDF81A0000281A
:105B140039D0BDF81E00BDF81A10884233D3DBF823
:105B24000400BDF81A1000EBC1000079042802DA61
:105B3400FF2002F090BADBF80400BDF81A1050F808
:105B44003100006A0A900A980068398888420FD1A7
:105B5400022080469DF818000400DBF80400BDF81C
:105B64001A1050F83100C06A00788DF80B000AE072
:105B74009DF81800401C8DF81800BDF81A00401C50
:105B8400ADF81A00C5E74046C0B2032802D1FF2091
:105B940002F061BAF87808280FD05FF00060019035
:105BA4000020009000234246D2B22100C9B25846D8
:105BB400FFF7BBFCFF2002F04EBA02AB4246D2B262
:105BC4002100C9B25846FFF73FFE8146FF208DF8F9
:105BD4001C004846C0B2002825D14046C0B2012866
:105BE40009D19DF80810582041430BEB010090F8AF
:105BF4002E0004280DD04046C0B2022813D19DF8CF
:105C04000810582041430BEB010090F82E000528A2
:105C140009D13879802803D104208DF81C0002E0D2
:105C240006208DF81C009DF81C00FF2804D138794B
:105C3400C0B240098DF81C009DF81C00002810D04B
:105C4400022800F07984C0F02E82042801F0A88094
:105C5400C0F05E86062801F04585C1F0F98002F0A7
:105C6400F7B94046C0B2012840F004814846C0B2AA
:105C740000280ED19DF80810582041430BEB010079
:105C840090F82E00022802D05FF0010901E05FF0D5
:105C940000094846C0B200280FD0DFF8880D0190F3
:105CA4000020009000234246D2B22100C9B25846D7
:105CB400FFF73BFCFF2002F0CEB99DF808105820F6
:105CC40041430BEB0100B0F97E0010F1010F24D029
:105CD4009DF80810582041430BEB0100B0F97E00F9
:105CE40004F0B5FA9DF8082058214A430BEB020151
:105CF400A1F87E0000200090DFF82C3DDFF82C2D69
:105D04009DF80810584604F047FA9DF808205821D9
:105D14004A430BEB0201A1F87E009DF808105820BD
:105D240041430BEB0100808E05009DF808105820BC
:105D340041430BEB010090F836008DF809009DF803
:105D44000810582041430BEB010090F82F003979DB
:105D5400C1F30011884211D0DFF8D40C01909DF8F2
:105D6400090000902B009BB24246D2B22100C9B276
:105D74005846FFF7DAFBFF2002F06DB93879C0F31B
:105D84004200D0F1070003907B1D039A9DF8081090
:105D94005846FFF70FFB81464846C0B2002811D091
:105DA4005FF0006001909DF8090000902B009BB209
:105DB4004246D2B22100C9B25846FFF7B6FBFF20D3
:105DC40002F049B99DF80810582041430BEB01003B
:105DD40090F82F00000150F020008DF810000120F1
:105DE4008246BAF1080F06D2002004A901F80A007D
:105DF4001AF1010AF5E704AB2200D2B24146C9B256
:105E04005846FFF783FD58219DF80800484358443D
:105E140090F82F00002801D1012000E000209DF817
:105E2400082001FB02F1594481F82F003879C0079A
:105E340040F137819DF808105846FFF779F908902A
:105E44000898002810D0089801909DF80900009047
:105E54002B009BB24246D2B22100C9B25846FFF78A
:105E640064FBFF2002F0F7B89DF808105846FFF7CE
:105E7400BDFB16E14846C0B200280ED19DF80810BB
:105E8400582041430BEB010090F82E00032802D068
:105E94005FF0010901E05FF000094846C0B2002844
:105EA4000FD0DFF8800B01900020009000234246C1
:105EB400D2B22100C9B25846FFF737FBFF2002F0E7
:105EC400CAB89DF80810582041430BEB0100B0F903
:105ED4007E0010F1010F24D09DF808105820414392
:105EE4000BEB0100B0F97E0004F0B1F99DF8082035
:105EF40058214A430BEB0201A1F87E0000200090D8
:105F0400DFF8243BDFF8242B9DF80810584604F0F2
:105F140043F99DF8082058214A430BEB0201A1F8EC
:105F24007E009DF80810582041430BEB0100808E41
:105F340005009DF80810582041430BEB010090F830
:105F440036008DF809009DF80810582041430BEBEA
:105F5400010090F82F003979C1F30011884211D063
:105F6400DFF8CC0A01909DF8090000902B009BB249
:105F74004246D2B22100C9B25846FFF7D6FAFF20F2
:105F840002F069B83879C0F34200D0F107000390F9
:105F94007B1D039A9DF808105846FFF70BFA8146BB
:105FA4004846C0B2002811D05FF0006001909DF80F
:105FB400090000902B009BB24246D2B22100C9B224
:105FC4005846FFF7B2FAFF2002F045B89DF80810D2
:105FD400582041430BEB010090F82F00002801D119
:105FE400012100E000219DF80820582042430BEBDA
:105FF400020080F82F103879C00731D59DF80810B9
:10600400582041430BEB0100B0F97E0004F01FF966
:106014009DF8082058214A430BEB0201A1F87E00A9
:1060240001219DF80820582042430BEB020080F820
:106034002E109DF80810582041430BEB0100D0F8B6
:10604400800000282DD09DF80B1058469DF808308C
:10605400582253430BEB0302D2F88020904720E0F0
:106064009DF80810582041430BEB010090F82F00D5
:10607400000150F060008DF8100001208246BAF152
:10608400080F06D2002004A901F80A001AF1010A37
:10609400F5E704AB2200D2B24146C9B25846FFF735
:1060A40035FC01F0D7BF4046C0B2012840F0E6807D
:1060B400B879797951EA00210D00F8798DF8090051
:1060C4004846C0B2002811D1DFF8580901909DF864
:1060D400090000902B009BB24246D2B22100C9B203
:1060E4005846FFF722FAFF2001F0B5BF02AA414645
:1060F400C9B25846FFF788FB81464846C0B200281B
:1061040011D0DFF8200901909DF8090000902B00C0
:106114009BB24246D2B22100C9B25846FFF705FAF3
:10612400FF2001F098BF022001909DF80900009023
:106134002B009BB22200D2B29DF808105846FFF7FC
:1061440082FA3879C0F3400000284CD03879C0F383
:106154008100D0F10400039003999DF80820582091
:1061640042430BEB0200816317F10803039A9DF885
:1061740008105846FFF71EF981464846C0B2002869
:1061840011D05FF0006001909DF8090000902B0091
:106194009BB24246D2B22100C9B25846FFF7C5F9B4
:1061A400FF2001F058BF9DF808105846FEF7C0FFC5
:1061B40008900898002810D0089801909DF80900CC
:1061C40000902B009BB24246D2B22100C9B258467D
:1061D400FFF7ABF9FF2001F03EBF9DF808105846C9
:1061E400FFF704FA2AE03879C00727D5387A797A94
:1061F40010EB0120B97A10EB0140F97A10EB016041
:106204000390039A9DF808105846FFF773FB8146E4
:106214004846C0B2002811D05FF0006001909DF89C
:10622400090000902B009BB24246D2B22100C9B2B1
:106234005846FFF77AF9FF2001F00DBF60208DF872
:10624400100004A84570290089B2090A81709DF8DC
:106254000910C17004218A46BAF1080F05D2002141
:1062640000F80A101AF1010AF6E704AB2200D2B2D0
:106274004146C9B25846FFF749FB5BE14846C0B204
:1062840000280ED19DF80810582041430BEB010063
:1062940090F82E00022802D05FF0010901E05FF0BF
:1062A40000094846C0B200280FD0DFF878070190F3
:1062B4000020009000234246D2B22100C9B25846C1
:1062C400FFF733F9FF2001F0C6BE9DF808105820EF
:1062D40041430BEB0100B0F97E0010F1010F24D013
:1062E4009DF80810582041430BEB0100B0F97E00E3
:1062F40003F0ADFF9DF8082058214A430BEB02013F
:10630400A1F87E0000200090DFF81C37DFF81C277E
:106314009DF80810584603F03FFF9DF808205821C7
:106324004A430BEB0201A1F87E009DF808105820A7
:1063340041430BEB0100808E05009DF808105820A6
:1063440041430BEB010090F836008DF809009DF8ED
:106354000810582041430BEB010090F82F003979C5
:10636400C1F30011884211D0DFF8C40601909DF8F2
:10637400090000902B009BB24246D2B22100C9B260
:106384005846FFF7D2F8FF2001F065BE03AA9DF836
:1063940008105846FFF790FA0398002833D19DF867
:1063A4000810582041430BEB0100B0F97E0003F0C4
:1063B4004EFF9DF8082058214A430BEB0201A1F837
:1063C4007E0001219DF80820582042430BEB020077
:1063D40080F82E109DF80810582041430BEB010063
:1063E400D0F8800000280BD09DF80B1058469DF87B
:1063F4000830582253430BEB0302D2F88020904715
:10640400002001F028BE039808283BD358219DF8AA
:1064140008004843584490F82F00002801D1012077
:1064240000E000209DF808204A435A4482F82F00D7
:106434009DF8080001FB00F10BEB010090F82F0020
:1064440000018DF810000DF1110307229DF80810CA
:106454005846FEF748FF81464846C0B2002861D03E
:106464005FF0006001909DF8090000902B009BB242
:106474004246D2B22100C9B25846FFF756F8FF206F
:1064840001F0E9BD58219DF808004843584490F8AC
:106494002F00002801D1012000E000209DF80820F1
:1064A4004A435A4482F82F009DF8080001FB00F18A
:1064B4000BEB010090F82F0000010399D1F10701C3
:1064C40050EA410050F001008DF810000DF1110365
:1064D400039A9DF808105846FEF705FF8146484682
:1064E400C0B2002811D05FF0006001909DF809004F
:1064F40000902B009BB24246D2B22100C9B258464A
:10650400FFF713F8FF2001F0A6BD0398401C824654
:10651400BAF1080F06D2002004A901F80A001AF102
:10652400010AF5E704AB2200D2B24146C9B258468B
:10653400FFF7ECF901F08EBD4046C0B2012840F0EF
:10654400D980B879797951EA00210D00F8798DF86C
:1065540009004846C0B2002811D1DFF8C8040190F0
:106564009DF8090000902B009BB24246D2B2210054
:10657400C9B25846FEF7D9FFFF2001F06CBD02AA4C
:106584004146C9B25846FFF73FF981464846C0B272
:10659400002811D0DFF88C0401909DF809000090C8
:1065A4002B009BB24246D2B22100C9B25846FEF734
:1065B400BCFFFF2001F04FBD032001909DF80900AE
:1065C40000902B009BB22200D2B29DF808105846CE
:1065D400FFF739F89DF808105846FEF709FE0890B1
:1065E4000898002810D0089801909DF809000090A0
:1065F4002B009BB24246D2B22100C9B25846FEF7E4
:1066040094FFFF2001F027BD03AA9DF80810584607
:10661400FFF752F9039805281FD341208DF8100085
:1066240004A84570290089B2090A81709DF80910EF
:10663400C170039901710399090A41710399090C05
:1066440081710399090EC17104AB2200D2B2414693
:10665400C9B25846FFF75AF958E10398D0F104003B
:10666400800050F043008DF8100028008DF81100D0
:10667400280080B2000A8DF812009DF809008DF8F8
:10668400130005AB039A9DF808105846FEF72BFE3D
:1066940081464846C0B2002811D05FF000600190E6
:1066A4009DF8090000902B009BB24246D2B2210013
:1066B400C9B25846FEF739FFFF2001F0CCBC03985D
:1066C400001D8246BAF1080F06D2002004A901F881
:1066D4000A001AF1010AF5E704AB2200D2B24146DE
:1066E400C9B25846FFF712F99DF808105846FEF74C
:1066F4007DFF0BE14846C0B200280ED19DF808107A
:10670400582041430BEB010090F82E00032802D0DF
:106714005FF0010901E05FF000094846C0B20028BB
:106724000ED0C04801900020009000234246D2B20F
:106734002100C9B25846FEF7F8FEFF2001F08BBCD9
:106744009DF80810582041430BEB0100B0F97E007E
:1067540010F1010F22D09DF80810582041430BEB93
:106764000100B0F97E0003F072FD9DF80820582165
:106774004A430BEB0201A1F87E0000200090AA4BD3
:10678400AA4A9DF80810584603F006FD9DF8082013
:1067940058214A430BEB0201A1F87E009DF8081032
:1067A400582041430BEB0100808E05009DF8081032
:1067B400582041430BEB010090F836008DF8090096
:1067C4003879C0F3400000285ED03879C0F38100E6
:1067D400D0F10400039017F10803039A9DF8081000
:1067E4005846FEF7E7FD8DF824009DF824000028A4
:1067F40011D05FF0006001909DF8090000902B001B
:106804009BB24246D2B22100C9B25846FEF78DFE71
:10681400FF2001F020BC5FF058099DF8080009FB37
:1068240000F05844B0F97E0003F011FD9DF8081003
:1068340009FB01F15944A1F87E009DF8080009FB09
:1068440000F05844039981639DF8080009FB00F0A7
:106854005844012180F82E109DF8080009FB00F02F
:106864005844D0F8800000280BD09DF80B105846EF
:106874009DF8082009FB02F90BEB0902D2F88020ED
:106884009047002001F0E7BB3879C00727D5387A54
:10689400797A10EB0120B97A10EB0140F97A10EB08
:1068A40001600390039A9DF808105846FFF722F8F8
:1068B40081464846C0B2002811D05FF000600190C4
:1068C4009DF8090000902B009BB24246D2B22100F1
:1068D400C9B25846FEF729FEFF2001F0BCBB602078
:1068E4008DF8100001208246BAF1080F06D200206C
:1068F40004A901F80A001AF1010AF5E704AB220021
:10690400D2B24146C9B25846FFF700F801F0A2BB23
:106914004046C0B2012840F028814846C0B2002851
:106924000ED19DF80810582041430BEB010090F85C
:106934002E00032802D05FF0010901E05FF0000996
:106944004846C0B200280ED036480190002000907E
:1069540000234246D2B22100C9B25846FEF7E5FDF3
:10696400FF2001F078BB9DF80810582041430BEB41
:106974000100B0F97E0010F1010F22D09DF808103B
:10698400582041430BEB0100B0F97E0003F05FFC9B
:106994009DF8082058214A430BEB0201A1F87E0020
:1069A40000200090204B214A9DF80810584603F01F
:1069B400F3FB9DF8082058214A430BEB0201A1F890
:1069C4007E009DF80810582041430BEB0100808E97
:1069D40005009DF80810582041430BEB010090F886
:1069E40036008DF809009DF80810582041430BEB40
:1069F400010090F82F003979C1F30011884219D0B1
:106A04000B4801909DF8090000902B009BB2424670
:106A1400D2B22100C9B25846FEF787FDFF2001F02B
:106A24001ABB00BF2100000800127A00355000088C
:106A34000000030503AA9DF808105846FEF73CFF22
:106A44000398082845D39DF80810582041430BEBC0
:106A5400010090F82F0000018DF810000DF11103D2
:106A640007229DF808105846FEF73DFC814648462B
:106A7400C0B2002811D05FF0006001909DF80900B9
:106A840000902B009BB24246D2B22100C9B25846B4
:106A9400FEF74BFDFF2001F0DEBA58219DF80800F7
:106AA4004843584490F82F00002801D1012000E009
:106AB40000209DF8082001FB02F1594481F82F00C1
:106AC40004AB2200D2B24146C9B25846FEF71EFFBB
:106AD40064E19DF80810582041430BEB010090F845
:106AE4002F0000010399D1F1070150EA410050F051
:106AF40001008DF810000DF11103039A9DF80810A0
:106B04005846FEF7F0FB81464846C0B2002811D033
:106B14005FF0006001909DF8090000902B009BB28B
:106B24004246D2B22100C9B25846FEF7FEFCFF200D
:106B340001F091BA0398401C8246BAF1080F06D2BC
:106B4400002004A901F80A001AF1010AF5E704ABD0
:106B54002200D2B24146C9B25846FEF7D7FE9DF88C
:106B640008105846FEF742FD18E14846C0B2002816
:106B74000ED19DF80810582041430BEB010090F80A
:106B84002E00022802D05FF0010901E05FF0000945
:106B94004846C0B200280FD0DFF8D40B0190002083
:106BA400009000234246D2B22100C9B25846FEF7F3
:106BB400BCFCFF2001F04FBA9DF808105820414357
:106BC4000BEB0100B0F97E0010F1010F24D09DF809
:106BD4000810582041430BEB0100B0F97E0003F08C
:106BE40036FB9DF8082058214A430BEB0201A1F81B
:106BF4007E0000200090DFF8843CDFF8782B9DF8BD
:106C04000810584603F0C8FA9DF8082058214A4352
:106C14000BEB0201A1F87E009DF8081058204143B7
:106C24000BEB0100808E05009DF8081058204143AD
:106C34000BEB010090F836008DF8090003AA9DF8CB
:106C440008105846FEF738FE0398002833D19DF803
:106C54000810582041430BEB0100B0F97E0003F00B
:106C6400F6FA9DF8082058214A430BEB0201A1F8DB
:106C74007E0001219DF80820582042430BEB0200BE
:106C840080F82E109DF80810582041430BEB0100AA
:106C9400D0F8800000280BD09DF80B1058469DF8C2
:106CA4000830582253430BEB0302D2F8802090475C
:106CB400002001F0D0B90398082829D39DF80810C2
:106CC400582041430BEB010090F82F0000018DF890
:106CD40010000DF1110307229DF808105846FEF725
:106CE40002FB81464846C0B200284FD05FF00060E6
:106CF40001909DF8090000902B009BB24246D2B24D
:106D04002100C9B25846FEF710FCFF2001F0A3B9D8
:106D14009DF80810582041430BEB010090F82F0018
:106D240000010399D1F1070150EA410050F001003C
:106D34008DF810000DF11103039A9DF808105846C0
:106D4400FEF7D1FA81464846C0B2002811D05FF060
:106D5400006001909DF8090000902B009BB2424610
:106D6400D2B22100C9B25846FEF7DFFBFF2001F082
:106D740072B90398401C8246BAF1080F06D200206B
:106D840004A901F80A001AF1010AF5E704AB22008C
:106D9400D2B24146C9B25846FEF7B8FD01F05AB91D
:106DA400387A797A50EA0120B97A50EA0140F97ABE
:106DB40050EA01600B904046C0B2012809D1484610
:106DC400C0B2002842D19DF808105846FEF70EFCC8
:106DD4003CE04846C0B2002838D19DF8081058203D
:106DE40041430BEB0100B0F97E0003F030FA9DF84B
:106DF400082058214A430BEB0201A1F87E008021B0
:106E04009DF80820582042430BEB020080F82E1016
:106E14000B999DF80820582042430BEB02000163B4
:106E24009DF80810582041430BEB0100D0F8800076
:106E340000280BD09DF80B1058469DF808305822B6
:106E440053430BEB0302D2F88020904701F002B9C0
:106E5400387910F003008DF80A004046C0B20128CA
:106E640040F062829DF80A00002840F0A580B879BD
:106E7400797951EA00210D00F8798DF80900484626
:106E8400C0B2002811D1DFF8E80801909DF809008C
:106E940000902B009BB24246D2B22100C9B25846A0
:106EA400FEF743FBFF2001F0D6B802AA4146C9B25F
:106EB4005846FEF7A9FC81464846C0B2002811D0C6
:106EC400DFF8AC0801909DF8090000902B009BB2FC
:106ED4004246D2B22100C9B25846FEF726FBFF2033
:106EE40001F0B9B8052001909DF8090000902B002D
:106EF4009BB22200D2B29DF808105846FEF7A3FBBD
:106F04003879C0F380019DF80820582042430BEBE8
:106F1400020080F86810397A9DF80820582042430E
:106F24000BEB020080F869109DF808105846FEF734
:106F34005FF908900898002810D0089801909DF8EF
:106F4400090000902B009BB24246D2B22100C9B284
:106F54005846FEF7EAFAFF2001F07DB803AA9DF82F
:106F640008105846FEF7A8FC03999DF808205820FD
:106F740042430BEB0200C166C2208DF8100004A846
:106F84004570290089B2090A81709DF80910C17001
:106F9400039901710399090A41710399090C8171DB
:106FA4000399090EC17104AB2200D2B24146C9B2A1
:106FB4005846FEF7ABFC93E39DF80A0001282CD158
:106FC4004846C0B200280ED19DF80810582041430D
:106FD4000BEB010090F82E00052802D05FF00109A8
:106FE40001E05FF000094846C0B200280FD0DFF886
:106FF400800701900020009000234246D2B2210075
:10700400C9B25846FEF791FAFF2001F024B89DF862
:1070140008105846FEF7EAFA62E39DF80A000228CF
:1070240004D09DF80A00032840F05A834846C0B2B1
:1070340000280ED19DF80810582041430BEB0100A5
:1070440090F82E00052802D05FF0010901E05FF0FE
:1070540000094846C0B200280FD0DFF81407019099
:107064000020009000234246D2B22100C9B2584603
:10707400FEF75BFAFF2000F0EEBF9DF808105820E1
:1070840041430BEB0100B0F97E0010F1010F24D055
:107094009DF80810582041430BEB0100B0F97E0025
:1070A40003F0D5F89DF8082058214A430BEB020160
:1070B400A1F87E0000200090DFF8C037DFF8B42686
:1070C4009DF80810584603F067F89DF808205821E9
:1070D4004A430BEB0201A1F87E009DF808105820EA
:1070E40041430BEB0100808E05009DF808105820E9
:1070F40041430BEB010090F836008DF809009DF830
:107104000A00022872D1B9799DF808205820424318
:107114000BEB020080F86910787910F07F008DF88D
:10712400190003AA9DF808105846FEF7C5FB0398FA
:1071340000282CD158209DF819109DF808204243AE
:107144005A4492F87120914221D19DF8081000FB15
:1071540001F0584490F87200800050F0C1008DF89E
:10716400100001208246BAF1080F06D2002004A9BB
:1071740001F80A001AF1010AF5E704AB2200D2B2C1
:107184004146C9B25846FEF7C1FB00F063BF58211F
:107194009DF8080048430BEB00029DF808004843A3
:1071A400584490F870309DF819C0072000FB0C3348
:1071B400D3639DF8080048435844806B9DF8082029
:1071C40001FB02F15944C96B88420FD2DFF8A005D4
:1071D40001900020009000234246D2B22100C9B29F
:1071E4005846FEF7A2F9FF2000F035BF9DF80810BD
:1071F400582041430BEB0100C16B9DF80820582037
:1072040042430BEB020080F87010012006009DF849
:107214000810582041430BEB010090F8690031003D
:10722400C9B28842C0F05C829DF8081058204143DE
:107234000BEB010080F8716003AA9DF80810584612
:10724400FEF73AFB039808282AD38DF810600DF155
:10725400110307229DF808105846FEF744F88146AA
:107264004846C0B2002811D05FF0006001909DF83C
:10727400090000902B009BB24246D2B22100C9B251
:107284005846FEF752F9FF2000F0E5BE04AB220099
:10729400D2B24146C9B25846FEF738FB761CB6E76F
:1072A40056F080008DF810000DF11103039A9DF83B
:1072B40008105846FEF717F881464846C0B2002821
:1072C40011D05FF0006001909DF8090000902B0040
:1072D4009BB24246D2B22100C9B25846FEF725F904
:1072E400FF2000F0B8BE0398401C8246BAF1080F94
:1072F40006D2002004A901F80A001AF1010AF5E7F0
:1073040004AB2200D2B24146C9B25846FEF7FEFA97
:107314000399D1F107019DF80820582042430BEB53
:10732400020080F87210DBE19DF80A00002804D006
:107334009DF80A00022840F08C814846C0B200281B
:107344000ED19DF80810582041430BEB010090F832
:107354002E00042802D05FF0010901E05FF000096B
:107364004846C0B200280FD0DFF804040190002082
:10737400009000234246D2B22100C9B25846FEF71B
:10738400D4F8FF2000F067BE9DF808105820414350
:107394000BEB0100B0F97E0010F1010F24D09DF831
:1073A4000810582041430BEB0100B0F97E0002F0B5
:1073B4004EFF9DF8082058214A430BEB0201A1F827
:1073C4007E0000200090DFF8B434DFF8A8239DF895
:1073D4000810584602F0E0FE9DF8082058214A4360
:1073E4000BEB0201A1F87E009DF80A00002820D1D1
:1073F40058209DF8081041435944898E0D009DF88A
:1074040008104143594491F836108DF809109DF83D
:107414000810414359443A79C2F3800281F8682044
:107424009DF8081000FB01F05844397A80F869107F
:1074340071E0B9799DF80820582042430BEB020013
:1074440080F86910787910F07F008DF8190003AA8C
:107454009DF808105846FEF72FFA039800282CD1FF
:1074640058209DF819109DF8082042435A4492F878
:107474007120914221D19DF8081000FB01F058447D
:1074840090F87200800050F0C1008DF810000120C7
:107494008246BAF1080F06D2002004A901F80A00B6
:1074A4001AF1010AF5E704AB2200D2B24146C9B28F
:1074B4005846FEF72BFA00F0CDBD58219DF8080080
:1074C40048430BEB00029DF808004843584490F8E9
:1074D40070309DF819C0072000FB0C33D3639DF86E
:1074E400080048435844806B9DF8082001FB02F1D2
:1074F4005944C96B88420ED29D48019000200090E7
:1075040000234246D2B22100C9B25846FEF70DF814
:10751400FF2000F0A0BD9DF80810582041430BEB5C
:107524000100C16B9DF80820582042430BEB020078
:1075340080F87010012006009DF80810582041437F
:107544000BEB010090F869003100C9B28842C0F029
:10755400C7809DF80810582041430BEB010080F8C8
:10756400716003AA9DF808105846FEF7A5F9039820
:1075740008282AD38DF810600DF1110307229DF815
:1075840008105846FDF7AFFE81464846C0B20028B1
:1075940011D05FF0006001909DF8090000902B006D
:1075A4009BB24246D2B22100C9B25846FDF7BDFF94
:1075B400FF2000F050BD04AB2200D2B24146C9B254
:1075C4005846FEF7A3F9761CB6E756F080008DF80E
:1075D40010000DF11103039A9DF808105846FDF7A9
:1075E40082FE81464846C0B2002811D05FF0006098
:1075F40001909DF8090000902B009BB24246D2B244
:107604002100C9B25846FDF790FFFF2000F023BDCA
:107614000398401C8246BAF1080F06D2002004A940
:1076240001F80A001AF1010AF5E704AB2200D2B20C
:107634004146C9B25846FEF769F90399D1F10701E9
:107644009DF80820582042430BEB020080F872108A
:1076540046E09DF80A00012833D19DF8081058200F
:1076640041430BEB0100B0F97E0002F0F0FD9DF800
:10767400082058214A430BEB0201A1F87E000121A6
:107684009DF80820582042430BEB020080F82E108E
:107694009DF80810582041430BEB0100D0F88000FE
:1076A40000280BD09DF80B1058469DF8083058223E
:1076B40053430BEB0302D2F880209047002000F0E4
:1076C400CABC2B4801900020009000234246D2B24D
:1076D4002100C9B25846FDF728FFFF2000F0BBBCCB
:1076E40000F0B8BC4046C0B2012840F08982484648
:1076F400C0B2002800F09580387910F001008DF8B0
:107704000A009DF80A0000280ED0194801900020B4
:10771400009000234246D2B22100C9B25846FDF778
:1077240004FFFF2000F097BCB879797951EA002171
:107734000D00F8798DF8090002AA4146C9B25846ED
:10774400FEF762F881464846C0B2002814D00848C3
:1077540001909DF8090000902B009BB24246D2B2E2
:107764002100C9B25846FDF7E0FEFF2000F073BCCB
:107774002100000835500008042001909DF80900FC
:1077840000902B009BB22200D2B29DF808105846FC
:10779400FDF759FF58209DF8081041435944012230
:1077A40081F873209DF80810414359443A79C2F393
:1077B400800281F868203979890716D59DF8081068
:1077C40000FB01F00BEB00013A7A7B7A4FF48070F6
:1077D40000FB0322BB7A5FF4803000FB0322FB7AB8
:1077E4005FF0807000FB0322CA66A0208DF81000B1
:1077F40004A84570290089B2090A81709DF809100E
:10780400C170102101710021C1718171417104ABFA
:107814002200D2B24146C9B25846FEF777F800F0CA
:1078240016BC9DF80810582041430BEB010090F85A
:107834007300012840F0F4809DF80810582041435B
:107844000BEB0100B0F97E0010F1010F27D09DF879
:107854000810582041430BEB0100B0F97E0002F000
:10786400F6FC9DF8082058214A430BEB0201A1F8CD
:107874007E0000200090014B02E000BF00127A005D
:10788400DFF8D8279DF80810584602F085FC9DF8CB
:10789400082058214A430BEB0201A1F87E003879F5
:1078A40010F07F0006003879000652D53100C9B2C5
:1078B4009DF80820582042430BEB020090F8710019
:1078C400401C81421ED158209DF808104143594460
:1078D400022281F873209DF808104143594481F82D
:1078E400716008210991391D01919DF8081000FB70
:1078F40001F0584474300090099A0199009802F0FC
:10790400F7FB0098A2208DF8100004A99DF8082028
:10791400582042430BEB020090F87100487010208D
:1079240088700020C871887148710871C87004ABF0
:107934002200D2B24146C9B25846FDF7E7FF002102
:107944009DF80820582042430BEB020080F8711088
:107954007DE33100C9B29DF80820582042430BEB67
:10796400020090F87100401C81422DD19DF808104E
:10797400582041430BEB010080F871607B1D072206
:107984009DF808105846FDF715FD81464846C0B2DB
:10799400002819D058205FF0006101919DF808106B
:1079A4004143594491F8361000919DF8081000FBAA
:1079B40001F05844838E4246D2B22100C9B25846DF
:1079C400FDF7B3FDFF2046E33000C0B2102840F0BD
:1079D4003E83A2208DF8100004A99DF808205820A9
:1079E40042430BEB020090F871004870102088703D
:1079F4000020C871887148710871C87004AB2200F6
:107A0400D2B24146C9B25846FDF780FF00219DF825
:107A14000820582042430BEB020080F8711016E353
:107A24009DF80810582041430BEB010090F87300B7
:107A3400022840F00C833879C0070ED4DFF8200602
:107A440001900020009000234246D2B22100C9B226
:107A54005846FDF76AFDFF20FDE29DF80810582006
:107A640041430BEB0100B0F97E0010F1010F24D06B
:107A74009DF80810582041430BEB0100B0F97E003B
:107A840002F0E5FB9DF8082058214A430BEB020164
:107A9400A1F87E0000200090DFF8C835DFF8BC258F
:107AA4009DF80810584602F077FB9DF808205821ED
:107AB4004A430BEB0201A1F87E003879C0F382003F
:107AC4008DF81D009DF80810582041430BEB010070
:107AD40010F175039DF81D20D2F107029DF80810DE
:107AE4005846FDF767FC81464846C0B2002819D0C5
:107AF40058205FF0006101919DF8081041435944FA
:107B040091F8361000919DF8081000FB01F05844DC
:107B1400838E4246D2B22100C9B25846FDF705FD14
:107B2400FF2098E29DF80810582041430BEB010018
:107B3400C06E002825D058209DF8081041435944B0
:107B4400C96E9DF8082042435A44D26B914218D022
:107B5400DFF80C1501919DF808104143594491F840
:107B6400361000919DF8081000FB01F05844838EF4
:107B74004246D2B22100C9B25846FDF7D6FCFF20D6
:107B840069E2A1208DF8100001208246BAF1080FA5
:107B940006D2002004A901F80A001AF1010AF5E747
:107BA40004AB2200D2B24146C9B25846FDF7AEFE3C
:107BB4009DF808105846FDF7BBFA0890089800286D
:107BC40018D05820089901919DF808104143594450
:107BD40091F8361000919DF8081000FB01F058440C
:107BE400838E4246D2B22100C9B25846FDF79DFCAD
:107BF400FF2030E29DF808105846FDF7F7FC26E216
:107C04004846C0B200280ED0DFF85404019000208A
:107C1400009000234246D2B22100C9B25846FDF773
:107C240084FCFF2017E29DF80810582041430BEB19
:107C34000100B0F97E0010F1010F24D09DF8081066
:107C4400582041430BEB0100B0F97E0002F0FFFA2B
:107C54009DF8082058214A430BEB0201A1F87E004D
:107C640000200090DFF8FC33DFF8F0239DF80810C3
:107C7400584602F091FA9DF8082058214A430BEB2C
:107C84000201A1F87E009DF80810582041430BEB37
:107C9400010090F87300002846D13879C00700F13C
:107CA400D68158209DF8081041435944012281F897
:107CB40073209DF80810414359443A79C2F3800275
:107CC40081F868203979890716D59DF8081000FBDA
:107CD40001F00BEB00013A7A7B7A4FF4807000FBE1
:107CE4000322BB7A5FF4803000FB0322FB7A5FF04F
:107CF400807000FB0322CA66A3208DF810000120C7
:107D04008246BAF1080F06D2002004A901F80A003D
:107D14001AF1010AF5E704AB2200D2B24146C9B216
:107D24005846FDF7F3FD92E19DF8081058204143B1
:107D34000BEB010090F87300012840F0C180387902
:107D440010F07F0006003879000652D53100C9B220
:107D54009DF80820582042430BEB020090F8710074
:107D6400401C81421ED158209DF8081041435944BB
:107D7400022281F873209DF808104143594481F888
:107D8400716008210991391D01919DF8081000FBCB
:107D940001F0584474300090099A0199009802F057
:107DA400A7F90098A2208DF8100004A99DF80820D6
:107DB400582042430BEB020090F8710048701020E9
:107DC40088700020C871887148710871C87004AB4C
:107DD4002200D2B24146C9B25846FDF797FD0021B0
:107DE4009DF80820582042430BEB020080F87110E4
:107DF4002DE13100C9B29DF80820582042430BEB15
:107E0400020090F87100401C81422DD19DF80810A9
:107E1400582041430BEB010080F871607B1D072261
:107E24009DF808105846FDF7C5FA81464846C0B289
:107E3400002819D058205FF0006101919DF80810C6
:107E44004143594491F8361000919DF8081000FB05
:107E540001F05844838E4246D2B22100C9B258463A
:107E6400FDF763FBFF20F6E03000C0B2102840F0BD
:107E7400EE80A2208DF8100004A99DF80820582057
:107E840042430BEB020090F8710048701020887098
:107E94000020C871887148710871C87004AB220051
:107EA400D2B24146C9B25846FDF730FD00219DF8D3
:107EB4000820582042430BEB020080F87110C6E002
:107EC4009DF80810582041430BEB010090F8730013
:107ED400022840F0BC803879C0070DD46048019076
:107EE4000020009000234246D2B22100C9B2584675
:107EF400FDF71BFBFF20AEE03879C0F382008DF85C
:107F04001D009DF80810582041430BEB010010F1AF
:107F140075039DF81D20D2F107029DF808105846FC
:107F2400FDF748FA81464846C0B2002819D05820C7
:107F34005FF0006101919DF808104143594491F8A4
:107F4400361000919DF8081000FB01F05844838E10
:107F54004246D2B22100C9B25846FDF7E6FAFF20E4
:107F640079E09DF80810582041430BEB0100C06EE6
:107F7400002824D058209DF8081041435944C96E64
:107F84009DF8082042435A44D26B914217D0344999
:107F940001919DF808104143594491F8361000911D
:107FA4009DF8081000FB01F05844838E4246D2B27B
:107FB4002100C9B25846FDF7B8FAFF204BE0A120D2
:107FC4008DF8100001208246BAF1080F06D2002075
:107FD40004A901F80A001AF1010AF5E704AB22002A
:107FE400D2B24146C9B25846FDF790FC9DF808103C
:107FF400582041430BEB0100B0F97E0002F027F951
:108004009DF8082058214A430BEB0201A1F87E0099
:1080140001219DF80820582042430BEB020080F810
:108024002E109DF80810582041430BEB0100D0F8A6
:10803400800000280BD09DF80B1058469DF808309E
:10804400582253430BEB0302D2F88020904701E0FF
:10805400FF2000E000200DB0BDE8F08F355000088F
:108064002100000800127A0010B40400002010BCA3
:1080740070472DE9F14F84B00D0016001C000E9FCF
:10808400DDF83C8003AA01A9280080B2049BD3F840
:108094005033984781460198002801D0019898E010
:1080A400300099F80410C0B288420DD3DFF8ECA276
:1080B400CDF800A0002300223100C9B2280080B20C
:1080C400FFF7D2FF504684E09DF84000002816D008
:1080D400D9F800103200D2B20C204243885CC007A9
:1080E4000DD5DFF8BCA2CDF800A00023002231009A
:1080F400C9B2280080B2FFF7B7FF504669E0002CF0
:1081040002D15FF0006064E00C203968D9F80020E7
:108114003300DBB243431A44526891420AD2D9F87D
:1081240000103200D2B200FB02F00844406838600C
:108134009C484EE0D9F800103200D2B242431144B8
:10814400497888F80010D9F800103200D2B24243BE
:108154001144D1F804A098F80010092913D0CDF8DF
:1081640008A0D9F800103200D2B200FB02F0084493
:1081740080680090A346029A0099584601F0B8FF1F
:10818400C7F800A024E0D9F800103200D2B200FBF6
:1081940002F0084481680A003868002801D0386871
:1081A40000E0504601EB0003A4460878002808D0FC
:1081B400994206D208788CF80000491C1CF1010C85
:1081C400F3E7881A38603868504501D200200870F7
:1081D400002005B0BDE8F08F2DE9FC4F85B0040008
:1081E4000D001600109F03AA02A9280080B2D4F83B
:1081F4005033984780460298002801D00298CAE07C
:10820400300098F80410C0B288420DD3DFF88C9186
:10821400CDF800903B6800223100C9B2280080B23A
:10822400FFF722FF4846B6E09DF84400002816D028
:10823400D8F800103200D2B20C204243885C0228E5
:108244000DD1DFF86491CDF800903B680022310035
:10825400C9B2280080B2FFF707FF48469BE05FF0F1
:108264000C0AD8F800003100C9B20AFB01F1084435
:1082740040788DF80400D8F800003100C9B20AFB38
:1082840001F10844D0F804903868002809D038680F
:10829400484506D09DF8040009286DD13868484542
:1082A4006AD2069A41463000C0B2A36A9847029047
:1082B400029800280BD0029800903B684A4631008F
:1082C400C9B2280080B2FFF7CFFE029863E0386895
:1082D400049006980090D8F800003100C9B20AFB57
:1082E40001F10844D0F808B0049A0099584601F006
:1082F400FFFE9DF8040009280DD1386848450AD2CC
:10830400D8F800003100C9B20AFB01F108448068C2
:10831400396800224254C7F800900398002817D007
:1083240003983100C9B250F82100002810D032005F
:10833400D2B241462000039BB4465FFA8CFC53F84A
:108344002C30984702900298002801D0029822E02D
:10835400D8F800003100C9B20AFB01FA10F80A008B
:10836400400707D53200D2B2290089B22000D4F8E0
:108374005433984700200EE0C7F80090DFF82CA093
:10838400CDF800A03B684A463100C9B2280080B24B
:10839400FFF76AFE504607B0BDE8F08F11000906EA
:1083A400010001060500040502000106100007068D
:1083B400F8B504000D0016001F003A003100280033
:1083C40080B2D4F850339847F2BDFEB504000D00D6
:1083D40016001F006B4601AA290089B22000FFF78E
:1083E400E7FF0100019800280CD10098002809D06B
:1083F40030000A79C0B2904204D200983200D2B25E
:1084040040F822700198FEBD7047000000F5E0704E
:108414000268914203D343681A44914202D38068AC
:108424000028F5D170471849086880B94FF4805086
:1084340048604FF480324FF0FF30C8600861042078
:10844400124B8A604861C3F8BC01114808600120DE
:10845400704701F1080313F0070F0EBF0023C3F1A7
:10846400080303F007031944D21A8161C26042F081
:1084740001034B60091D4FF0280C41F802C0024A69
:108484001369C36170470000241B002020160020DC
:108494006859883C2DE9F04705460E4691467068B8
:1084A400C10706EB09083AD4346810F0030F00F052
:1084B40042826042296906448E42A144C0F0378258
:1084C4006869864200F0BC80E4081F2C55D8D6F8B1
:1084D4000CA0B768564508BFF7F74AFEBE4208BF6E
:1084E400F7F746FE7068C008C000B0EBC40F18BFB1
:1084F400F7F73EFE05F1280000EBC400874205D0E3
:1085040029698F4236D3FA68B24233D1BA4523D1AE
:108514002868012101FA04F420EA04042C60296982
:108524008845C0F00482D8F80440A00700F16081B7
:10853400AA69904540F09780E8684844E860AE61D5
:1085440040F0010070606869864240F0F4810021C7
:108554006961A960BDE8F087824506D02869824533
:1085640008D3DAF80810B14204D1C7F80CA0CAF84D
:108574000870D4E7F7F7FCFDD1E7F468B769B442B3
:108584000BD0B068884222D3C168B14204BFA2684C
:10859400B2421CD1C460A0601BE006F1140214684E
:1085A40034B906F1100214689CB101E01A4614684B
:1085B40004F114031868002802BF04F110031868BA
:1085C4000028F3D18A4202D30021116001E0F7F7B9
:1085D400CFFD002FA3D0F16905F5987000EB810061
:1085E4000268964209D10460200011D1F0696968DB
:1085F400012282409143696091E72869874205D34B
:108604003969B14214BF7C613C6101E0F7F7B0FD08
:10861400002C84D029698C42ACD3A761306928B17D
:10862400884226BF20618461F7F7A2FD70690028A3
:108634003FF475AF296988429CD3606184616EE719
:1086440098F8040000F0030003287FF468AFC5F82D
:10865400089049F00101D8F8040040084000C8F827
:10866400040071600AE0686980450BD1A9686E61F5
:108674008944C5F8089049F00100706046F80990F3
:10868400BDE8F087E408E400A144E4081F2C3AD8CC
:10869400D8F80CA0D8F80870D04508BFF7F768FDE3
:1086A400B84508BFF7F764FDD8F80400C008C00057
:1086B400B0EBC40F18BFF7F75BFD05F1280000EB22
:1086C400C400874207D029698F42C0F08380FA68CA
:1086D400424540F07F80BA4507D12868012101FA5C
:1086E40004F420EA04042C6076E0824506D028696C
:1086F40082456FD3DAF8081041456BD1C7F80CA056
:10870400CAF8087068E0D8F80C40D8F818704445E6
:108714000CD0D8F80800884222D3C168414504BF70
:10872400A26842451CD1C460A0601BE008F1140299
:10873400146834B908F1100214689CB101E01A46B7
:10874400146804F114031868002802BF04F110032C
:1087540018680028F3D18A4202D30021116001E095
:10876400F7F706FD002F37D0D8F81C1005F59870E0
:1087740000EB8100026890450AD10460200012D108
:10878400D8F81C006968012282409143696023E0A3
:108794002869874205D33969414514BF7C613C612E
:1087A40001E0F7F7E5FCBCB129698C4212D3A7615B
:1087B400D8F8100028B1884226BF20618461F7F7F9
:1087C400D7FCD8F8140038B12969884202D3606113
:1087D400846101E0F7F7CCFC49F00100706046F8D1
:1087E400099069698E420CD1C5F80890BDE8F087FC
:1087F40064086400C8F8044049F00100706046F859
:1088040009904FEAD9071F2F23D805F1280000EB60
:10881400C704A046B9F1100F38BFF7F7A9FC2868C0
:1088240020FA07F1CA0705D4012101FA07F7074323
:108834002F6006E0A068296988422CBF8046F7F7BC
:1088440097FCA660C8F80C60C6F80880F460BDE820
:10885400F0875FEA192008BF002123D0B0F5803FDC
:1088640028BF1F211ED2A0F58072120C02F008024C
:108874009040A0F58051090C01F004018840A0F556
:1088840080431B0CC2F10E0203F00203521AD21AE7
:10889400984002EBD032D01D29FA00F101F0010119
:1088A40001EB420105F59872002302EB8100F161AE
:1088B400736133616A6822FA01F3DC0707D4012388
:1088C40003FA01F1114369600660B0611DE00268BA
:1088D4001F291DBF4908C1F1190109FA01F14946CF
:1088E40000E002465068C008C000484511D002F1BB
:1088F4001003C80F03EB8003490018680028F0D167
:108904002869834213D31E60B261F660B660BDE885
:10891400F087296990688A4228BF884207D3C660D5
:108924009660B060F2600020B061BDE8F087BDE8F9
:10893400F047F7F71DBCBDE8F08700002DE9F84FBC
:1089440084B00646AFF30080F52E1E4D80F00F82F2
:108954000B2E31BF10260B36F608F6002868F408F3
:10896400E04010F0030F4AD0C04300F001000419A6
:1089740005F1280000EBC408E700D8F80860706827
:10898400C008C000B84218BFF7F7F2FBD6F8089049
:10899400464508BFF7F7ECFB4E4508BFF7F7E8FB81
:1089A4007068C008C000B84218BFF7F7E1FBC845BB
:1089B4000AD12868012101FA04F420EA04042C6095
:1089C40010E000BF201600202869814508D3D9F89B
:1089D4000C10B14204D1C8F80890C9F80C8001E029
:1089E400F7F7C6FB47F00300311D7060301DCA590C
:1089F40042F00102C25106F1080800F010BFA96854
:108A0400B14280F09F83002800F0A2804FF001085B
:108A140008FA04F1490000FA04F4484201430C4006
:108A240060420440641E200B00F01000C440610941
:108A340001F00801CC40A20802F00402D44063080B
:108A440003F002030818DC401018C4F34007181898
:108A54003818FC40241805F1280000EBC40AE7008C
:108A6400DAF80890D9F80400C008C000B84218BF6A
:108A7400F7F77EFBD9F808B0D14508BFF7F778FBC4
:108A8400D94508BFF7F774FBD9F80400C008C00043
:108A9400B84218BFF7F76CFBDA4506D1286808FA24
:108AA40004F420EA04042C600DE029698B4508D302
:108AB400DBF80C00484504D1CAF808B0CBF80CA088
:108AC40001E0F7F755FBBF1B46F0030009F1040270
:108AD400C9F8040047F00101915109EB0602019223
:108AE400D751AC684FEAD40ABAF11F0F88BFF7F721
:108AF4003FFB34B3CDF800A005F128006E6900EB0C
:108B0400CA0AD346102C38BFF7F732FB29680098FD
:108B140021FA00F2D30704D408FA00F008432860CD
:108B240007E0DAF80800296988422CBF8346F7F782
:108B34001FFBCAF80860CBF80C60C6F808B0C6F88A
:108B44000CA0AF6009F108080198686100F067BEE5
:108B54006868002800F0178341420840401E010B5A
:108B640001F01001C840420902F00802D040830815
:108B740003F00403D840440804F002045118E04010
:108B84005918C0F34007611805F598787918F8402A
:108B9400401858F820104868C008C0008A46A0EB66
:108BA400060B08E001464868C008C000801B584511
:108BB4003CBF83468A4608690028F3D149690029E5
:108BC400F1D128698245C0F0CF80DAF80410C908D1
:108BD40006EB0B09C900494518BFF7F7C9FA0AEBB8
:108BE40006008245019080F0BF80DAF80C40DAF884
:108BF400187054450DD0DAF808002969884223D347
:108C0400C268524504BFA16851451DD1C460A0602B
:108C14001CE00AF114010C6834B90AF110010C6863
:108C2400A4B101E011460C6804F114021068002894
:108C340002BF04F1100210680028F3D128698142B0
:108C440002D300220A6001E0F7F792FA002F34D031
:108C5400DAF81C0008EB800001688A4509D1046039
:108C640094B9DAF81C006968012282409143696072
:108C740023E02869874205D33969514514BF7C61D3
:108C84003C6101E0F7F774FABCB129698C4212D354
:108C9400A761DAF8100028B1884226BF20618461F8
:108CA400F7F766FADAF8140038B12969884202D372
:108CB4006061846101E0F7F75BFABBF1100F0ED23B
:108CC40049F003000AF10401CAF804000AF104009F
:108CD40051F8092042F0010240F809203EE046F034
:108CE40003010AF10402CAF804104BF00100905188
:108CF400019941F80BB0A8680090C4081F2C88BFE4
:108D0400F7F736FA009828B305F1280000996F693F
:108D140000EBC408C146102938BFF7F729FA2868C0
:108D240020FA04F1CA0705D4012101FA04F404432A
:108D34002C6007E0D8F80800296988422CBF8146D6
:108D4400F7F716FAC8F80870C9F80C70C7F8089055
:108D5400C7F80C80C5F808B0019868611AF10808D2
:108D640000F0F08100F05BBDF7F702FAEAE116F1DA
:108D7400400F28BF4FF0FF3680F0E4810B36F60831
:108D84006B68F600002B00F0DD810027300AC6F185
:108D9400000908BF002423D0B0F5803F28BF1F245A
:108DA4001ED2A0F58071090C01F008018840A0F5DD
:108DB4008052120C02F004029040A0F58044240C6E
:108DC400C1F10E0104F00204891A091BA04001EB51
:108DD400D031C81D26FA00F404F0010404EB410468
:108DE40005F5987858F8240030B31F2C0FBFB4460B
:108DF4004FEA540CCCF1190C06FA0CFCBE46494659
:108E040001E04FEA4C0C4268D208D200921B8A421D
:108E140002D2110007460CD0426910304FEADC79C7
:108E240050F82900002A1CBF824296460028E8D147
:108E340070468946A8BBB7BB012101FA04F464005B
:108E440060420443234000F07D81584203405B1E8E
:108E5400180B00F01000C340590901F00801CB4081
:108E64009A0802F00402D3405C0804F002040818D3
:108E7400E3401018C3F3400C2018604423FA0CF3A9
:108E84001B1858F823000CE008464168C908C900BB
:108E9400891B49453CBF8946074601690029F3D12E
:108EA40040690028F1D1002F00F04C81A868801B94
:108EB400814580F0478129698F42FFF455AF786876
:108EC400C008C00006EB0901884218BFF7F750F943
:108ED40007EB060B5F45BFF447AFFC68D7F818A053
:108EE400BC420CD0B8682969884223D3C268BA420C
:108EF40004BFA168B9421DD1C460A0601CE007F1A1
:108F040014010C6834B907F110010C68A4B101E034
:108F140011460C6804F114021068002802BF04F121
:108F2400100210680028F3D12869814202D300227C
:108F34000A6001E0F7F71CF9BAF1000F34D0F869C0
:108F440008EB800001688F4208D10460A4B9F86975
:108F54006968012282409143696025E0286982455D
:108F640008D3DAF81010B94214BFCAF81440CAF88A
:108F7400104001E0F7F7FCF8B4B129698C4211D331
:108F8400C4F818A0386928B1884226BF20618461DA
:108F9400F7F7EEF8786938B12969884202D360613D
:108FA400846101E0F7F7E4F8B9F1100F0CD2B14491
:108FB40049F00300391D7860381D51F8092042F04A
:108FC400010240F80920B9E046F003013A1D796036
:108FD40049F0010090514FEAD9004BF809901F283D
:108FE40022D805F1280101EBC004296821FA00F216
:108FF400D307A04605D4012202FA00F008432860F2
:1090040006E0A068296988422CBF8046F7F7B0F8CB
:10901400C4F808B007F10800C8F80CB040F806809E
:1090240007F10C018C5189E05FEA192008BF002187
:1090340023D0B0F5803F28BF1F211ED2A0F5807237
:10904400120C02F008029040A0F58051090C01F0C6
:1090540004018840A0F580431B0CC2F10E0203F00A
:109064000203521AD21A984002EBD032D01D29FAC8
:1090740000F101F0010101EB420107F11403CBF807
:109084001C1000229A5107F1100308EB81009A5139
:109094006A6822FA01F3DC0711D4012303FA01F10F
:1090A40011436960C0F800B0CBF8180007F108015B
:1090B40007F10C0040F806B041F806B03EE0026843
:1090C4001F291DBF4908C1F1190109FA01F14946D7
:1090D40000E002465068C008C000484518D002F1BC
:1090E4001003C80F03EB8003490018680028F0D16F
:1090F4002869834220D3C3F800B007F10C01CBF8F0
:10910400182041F806B007F1080040F806B015E051
:10911400296990688A4228BF88420DD3C0F80CB0F0
:1091240007F10801C2F808B0885107F10C00825118
:109134000022CBF8182001E0F7F71AF817F1080815
:1091440040F06D83A868B0421DD3811B6A69102961
:109154000AD390196861A96041F00103436041504A
:1091640046F0030656600BE00021A9606961131DF7
:1091740040F003015160111D1C5844F001040C50CF
:1091840002F108084BE3E8688642C0F03883DFF850
:10919400B89BD9F8000008B9FFF745F9D9F80810C9
:1091A40088192F30491E20EA01018E4280F0358350
:1091B40005F5D877B86838B13A6889188A4280F0DA
:1091C4002C838842C0F0298301F00EFA00281CBFCA
:1091D400D0F8008010F1010F00F01F8339687A681D
:1091E400414439608A4238BF7960AC6904BB29695B
:1091F40009B1884200D2286100213861C7F814807F
:10920400F9614FF0FF31D9F800206A62296205F153
:1092140028020021D260926002F1080454611461B2
:10922400891C10321F29F5D9A8F1280201461DE036
:1092340005F5E0710A46814600E09268D2B11068F3
:10924400536803449945F8D1107B030712D413687B
:109254009C420FD3D2F804C063449C420AD2C44453
:10926400C2F804C02146E86808EB00022846FFF76C
:10927400F0F8C1E22869814538BFC5F8109009EBC0
:10928400080000E08968002900F0BD810A68824274
:10929400F8D1087B020700F1B6810868C1F8009094
:1092A4004A6842444A6009F1080111F0070F08BFF7
:1092B400CDF8049006D0C1F1080101F0070109EBD3
:1092C4000102019200F1080111F0070F04D0C1F16D
:1092D400080101F00701084480460198A8EB000149
:1092E4008419A1EB060B274646F003064660474562
:1092F40028BFF6F73DFF98F80400C10758BFF6F7FA
:1093040037FFBBF1100F38BFF6F732FFA86980456D
:1093140008D1E9688B44C5F80CB0AF614BF001008B
:1093240078606CE1686980450AD1A9688B44C5F806
:1093340008B06F614BF00100786047F80BB05EE154
:10934400D8F8040000F00301012940F0B880C008F7
:10935400C000C1081F29039040D8D8F80820009203
:10936400D8F80C600291B04508BFF6F701FF0098E9
:10937400804508BFF6F7FCFED8F804000299C0083F
:10938400C000B0EBC10F18BFF6F7F2FE0299009AC5
:1093940005F1280000EBC100824208D011462A6979
:1093A4009142C0F08780CA68424540F083800099AA
:1093B4008E4206D102982A68012383409A432A6088
:1093C4007AE0864205D029698E4273D3B06840455D
:1093D40070D10098C6600099B1606DE0D8F81800AB
:1093E4000090D8F80C6046450DD0D8F808002969DB
:1093F400884223D3C268424504BFB16841451DD1A8
:10940400C660B0601CE008F114010E6836B908F1BA
:1094140010010E68A6B101E011460E6806F11402AF
:109424001068002802BF06F1100210680028F3D16A
:109434002869814202D300220A6001E0F6F798FE0F
:109444000098002838D0D8F81C0005F5987101EB75
:1094540080000168884509D106609EB9D8F81C00CF
:109464006968012282409143696025E00098296976
:10947400884205D30169414514BF4661066101E094
:10948400F6F776FEC6B129698E4213D30098B0610F
:10949400D8F8100028B1884226BF30618661F6F7FB
:1094A40067FED8F8140038B12969884202D3706184
:1094B400866101E0F6F75CFE039988448B44D8F892
:1094C400041049084900C8F804104BF00100786002
:1094D4004FEADB0647F80BB01F2E22D805F128000F
:1094E40000EBC604A146BBF1100F38BFF6F740FEEF
:1094F400286820FA06F1CA0705D4012101FA06F604
:1095040006432E6006E0A068296988422CBF814684
:10951400F6F72EFEA760C9F80C70C7F80890FC6037
:109524006DE05FEA1B2008BF002123D0B0F5803F27
:1095340028BF1F211ED2A0F58072120C02F008026F
:109544009040A0F58051090C01F004018840A0F579
:1095540080431B0CC2F10E0203F00203521AD21A0A
:10956400984002EBD032D01D2BFA00F101F001013A
:1095740001EB4201F961002305F598727B6102EB6E
:1095840081003B616A6822FA01F3DE0707D40123F4
:1095940003FA01F1114369600760B8611DE00268D4
:1095A4001F291DBF4908C1F119010BFA01F15946E0
:1095B40000E002465068C008C000584510D002F1CF
:1095C4001003C80F03EB8003490018680028F0D18A
:1095D4002869834211D31F60BA61FF60BC600EE04A
:1095E400296990688A4228BF884206D3C76094607C
:1095F400B860FA600020B86101E0F6F7B9FD01989F
:1096040000F108080BE121462846FEF7FFFE016839
:10961400406808440090A0F1270111F00700009869
:109624000EBF0021C1F1080101F007010844A0F1B7
:109634002F0B04F110018B4538BFA3460BF1180220
:10964400002102920191A8F1280249462846FEF71A
:1096540000FF0BF1080010F0070F18BFF6F788FDA4
:109664001B20CBF8040005F5E07292E809500BF1D9
:10967400080181E8095000210BF10800F961B86183
:10968400009A02980199C7F81090C7F8148007232C
:1096940000E0001D491C00F1080797424360F8D31D
:1096A4000129D8BFF6F764FDA34500F0A580ABEB14
:1096B400040B201D221D50F80B104908490042F8E4
:1096C4000B104BF0010060604FEADB0944F80BB06B
:1096D400B9F11F0F22D805F1280000EBC907B846DD
:1096E400BBF1100F38BFF6F743FD286820FA09F1E3
:1096F400CA0705D4012101FA09F10843286006E0EC
:10970400B868296988422CBF8046F6F731FDBC60F1
:10971400C8F80C40C4F80880E7606DE05FEA1B20DD
:1097240008BF002123D0B0F5803F28BF1F211ED2DF
:10973400A0F58072120C02F008029040A0F580514E
:10974400090C01F004018840A0F580431B0CC2F110
:109754000E0203F00203521AD21A984002EBD032DE
:10976400D01D2BFA00F101F0010101EB420105F5D6
:109774009872002302EB8100E161636123616A68EE
:1097840022FA01F3DF0707D4012303FA01F111439D
:1097940069600460A0611DE002681F291DBF4908BB
:1097A400C1F119010BFA01F1594600E00246506873
:1097B400C008C000584510D002F11003C80F03EBD5
:1097C4008003490018680028F0D12869834211D326
:1097D4001C60A261E460A4600EE0296990688A427A
:1097E40028BF884206D3C4609460A060E260002071
:1097F400A06101E0F6F7BCFCE86886420DD2801B4C
:10980400A969E8608A19AA6140F00100506046F035
:1098140003064E6001F1080801E04FF00008AFF3C1
:109824000080404605B0BDE8F08F002800D17047A5
:109834002DE9F047A0F10805AFF30080DFF8A46834
:1098440031698D42C0F07A82686800F00302012A0F
:1098540000F07482C2084FEAC209C20705EB090886
:1098640039D42C6810F0030F00F06A82604205447A
:109874008D42A144C0F062827069854200F0DA80B2
:10988400E408202C72D2D5F80CA0AF68554508BF67
:10989400F6F76EFCBD4208BFF6F76AFC6868C008BC
:1098A400C000B0EBC40F18BFF6F762FC06F1280045
:1098B40000EBC400874205D031698F4253D3FA6864
:1098C400AA4250D1BA4540D13068012101FA04F4CA
:1098D40020EA04043460454580F03082D8F804401E
:1098E400E00740F12B82A10700F17C81B06980453B
:1098F40040F0B380F168B5618944C6F80C9049F032
:109904000100686071698D4202D100207061B0600D
:10991400F169494580F01482DFF82C24106808B9F5
:10992400FEF781FDB169002900F00A82F068292858
:1099340024BF3046FEF76AFDF069F168884280F082
:10994400FF814FF0FF30F061FAE1824506D03069C3
:10995400824508D3DAF80810A94204D1C7F80CA04C
:10996400CAF80870B7E7F6F703FCB4E7EC68AF6928
:10997400AC420BD0A868884222D3C168A94204BF74
:10998400A268AA421CD1C460A0601BE005F11402C5
:10999400146834B905F1100214689CB101E01A4648
:1099A400146804F114031868002802BF04F11003BA
:1099B40018680028F3D18A4202D30021116001E023
:1099C400F6F7D6FB002F86D0E96906F5987000EB10
:1099D40081000268954209D10460200011D1E86930
:1099E4007168012282409143716074E73069874253
:1099F40005D33969A94214BF7C613C6101E0F6F7E3
:109A0400B7FB002C3FF467AF31698C42ABD3A7613D
:109A1400286928B1884226BF20618461F6F7A8FB33
:109A2400686900283FF457AF316988429BD360616D
:109A3400846150E798F8040000F0030003287FF4E1
:109A44004AAFC6F8089049F00101D8F8040040086C
:109A54004000C8F8040069600AE0706980450AD1D2
:109A6400B16875618944C6F8089049F001006860DE
:109A740045F8099064E1E408E400A144E408202CDA
:109A84003AD2D8F80CA0D8F80870D04508BFF6F739
:109A94006FFBB84508BFF6F76BFBD8F80400C008A5
:109AA400C000B0EBC40F18BFF6F762FB06F1280044
:109AB40000EBC400874207D031698F42C0F0858033
:109AC400FA68424540F08180BA4507D130680121E7
:109AD40001FA04F420EA0404346078E0824506D0F4
:109AE4003069824571D3DAF8081041456DD1C7F861
:109AF4000CA0CAF808706AE0D8F80C40D8F81870BE
:109B040044450DD0D8F808003169884223D3C2688F
:109B1400424504BFA16841451DD1C460A0601CE05A
:109B240008F114010C6834B908F110010C68A4B1EF
:109B340001E011460C6804F114021068002802BF09
:109B440004F1100210680028F3D13069814202D375
:109B540000220A6001E0F6F70BFB002F37D0D8F89B
:109B64001C1006F5987000EB8100026890450AD13C
:109B74000460200012D1D8F81C00716801228240D0
:109B84009143716023E03069874205D339694145C7
:109B940014BF7C613C6101E0F6F7EAFABCB13169BB
:109BA4008C4212D3A761D8F8100028B1884226BF8E
:109BB40020618461F6F7DCFAD8F8140038B1316911
:109BC400884202D36061846101E0F6F7D1FA49F07A
:109BD4000100686045F8099071698D420BD1C6F89F
:109BE4000890ADE064086400C8F8044049F001003E
:109BF400686045F809904FEAD907202F22D206F170
:109C0400280000EBC704A046B9F1100F38BFF6F7DF
:109C1400AFFA306820FA07F1CA0705D4012101FA26
:109C240007F70743376006E0A068316988422CBF14
:109C34008046F6F79DFAA560C8F80C50C5F8088070
:109C4400EC607DE05FEA192008BF002123D0B0F565
:109C5400803F28BF1F211ED2A0F58072120C02F093
:109C640008029040A0F58051090C01F004018840DD
:109C7400A0F580431B0CC2F10E0203F00203521A3A
:109C8400D21A984002EBD032D01D29FA00F101F02B
:109C9400010101EB420106F59872002302EB8100F9
:109CA400E9616B612B61726822FA01F3DC0707D466
:109CB400012303FA01F1114371600560A8611DE0FD
:109CC40002681F291DBF4908C1F1190109FA01F1F0
:109CD400494600E002465068C008C000484510D01C
:109CE40002F11003C80F03EB800349001868002831
:109CF400F0D13069834211D31D60AA61ED60AD607B
:109D04000EE0316990688A4228BF884206D3C56054
:109D14009560A860EA600020A86101E0F6F728FADF
:109D2400306A401E30620BD1D6F8C80100E080686A
:109D34000028FCD14FF0FF30306201E0F6F718FA4A
:109D4400AFF30080BDE8F087241B00202DE9F84F15
:109D54000F4606467B6831690024D808C0008F424C
:109D64008146C0F07A8103F00305012D00F075816E
:109D740007EB090A574580F07081DAF804B05FEA0E
:109D8400CB7540F16A8113F0030F15460FD1E90832
:109D9400202924BF2A1D9042C0F06181DFF84813B6
:109DA4008A685200451BAA42C0F0598153E1A94573
:109DB4001CD3A9EB0504102CC0F04D8103F0010362
:109DC4002B4343F0020379197B6044F00302486893
:109DD40040F0010048604A6008192246436843F095
:109DE400010343603046FEF755FB34E1B269924506
:109DF40016D1F0684844854280F0318103F00103B4
:109E0400441B2B4343F0020378197B6044F00102A6
:109E1400416841F0010141604260B061F4601AE1BF
:109E2400706982452FD1B0688144A945C0F017817B
:109E3400A9EB0501102903F0010312D378191D437E
:109E440045F002057D604218436843F00103436016
:109E540041F001044460415053685B085B00536067
:109E64000EE049EA030343F00203381D7B603A1D08
:109E740050F8091041F0010142F8091000200021B6
:109E84007061B160E7E05FEA8B7000F1E8804FEA4F
:109E9400DB00C2009144A945C0F0E1804FEAD20B37
:109EA400A9EB0500BBF1200F00903BD2DAF80C407F
:109EB400DAF80880A24508BFF6F75AF9C24508BF88
:109EC400F6F756F9DAF80400C008C000B0EBCB0F7F
:109ED40018BFF6F74DF906EBCB0000F128018845D1
:109EE40008D032699045C0F08980D8F80C105145EB
:109EF40040F08480444506D13068012202FA0BF117
:109F0400884330607CE000F128018C4205D0306940
:109F1400844273D3A168514570D1C8F80C40C4F889
:109F240008806DE0DAF80C40DAF8188054450CD05B
:109F3400DAF80800884222D3C168514504BFA268F8
:109F440052451CD1C460A0601BE00AF114021468DD
:109F540034B90AF1100214689CB101E01A4614687D
:109F640004F114031868002802BF04F110031868F0
:109F74000028F3D18A4202D30021116001E0F6F7F0
:109F8400F7F8B8F1000F3BD0DAF81C0006EB8001BB
:109F940001F59870026892450AD10460200015D139
:109FA400DAF81C007168012282409143716027E055
:109FB4003069804508D3D8F81010514514BFC8F84B
:109FC4001440C8F8104001E0F6F7D2F8C4B1316982
:109FD4008C4213D3C4F81880DAF8100028B18842F0
:109FE40026BF20618461F6F7C3F8DAF8140038B1AB
:109FF4003169884202D36061846101E0F6F7B8F800
:10A0040000981028387900F001000DD249EA0000C8
:10A0140040F0020078603A1D381D50F8091041F0F4
:10A02400010142F8091016E0284340F0020078606C
:10A034007919486840F001004860009840F0030036
:10A04400486000980844426842F001024260304689
:10A05400009AFEF71FFA3C4601E0F6F789F820461D
:10A06400BDE8F28F70B505460E46002425B930468A
:10A07400FEF764FC044632E016F1400F2FD20B2E9B
:10A0840031BF102406F10B04E408E400AFF30080B0
:10A0940001232246A5F10801DFF85000FFF756FE20
:10A0A4000446AFF300800CB1083418E03046FEF7E4
:10A0B40045FC040013D055F8042C12F0030F0CBF18
:10A0C40008200420D208D200121AB24288BF3246B5
:10A0D4002946204600F00CF82846FFF7A6FB204648
:10A0E40070BD000020160020241B00202016002034
:10A0F40062B38B0708D0521E11F8013B00F8013BF4
:10A1040000F024808B07F6D1830740F0208000BF45
:10A11400103A07D330B4B1E83810103AA0E8381038
:10A12400F9D230BC530724BFB1E80810A0E80810E6
:10A1340044BF51F8043B40F8043BD20724BF31F834
:10A14400022B20F8022B44BF0B7803707047121FB8
:10A1540017D35B0009D151F8043B20F8023B1B0CD8
:10A16400121F20F8023BF6D20BE051F8043B00F832
:10A17400013B1B0A20F8023B1B0C121F00F8013B99
:10A18400F3D238BF121D521E24BF11F8013B00F850
:10A19400013BF8D8704700002DE9F14F0C00150081
:10A1A4001E000A9F5FF00008DFF8C4917149B1F9FD
:10A1B4000000401C424612B2904244DB404600B2CA
:10A1C400082840DA2800002838D099F80000002830
:10A1D40034D1404600B2B1F90020521C904202D161
:10A1E4000888401C088000F051FA8246B3464FF6B6
:10A1F400FF70834500D383465F4801688A450AD2CD
:10A204000168B1EB0A018B4505D21BEB0A01016021
:10A21400584600F038FAC9F808500098C9F8040004
:10A22400C9F80C401AEB0600C9F81000C9F81470FC
:10A23400012089F80000404600B206E018F1010848
:10A2440019F11809B2E75FF0FF30BDE8F28F10B4DE
:10A254000100080000B210F1010F10D045480A00B7
:10A26400B0F9003012B29A4202D10288521E028022
:10A2740000223F4B0C0024B2182044431A555FF0CF
:10A28400FF3010BC70472DE9F84F4FF6FF7400F013
:10A29400FDF9050038490E68AE195FF0000ADFF8D1
:10A2A400D090CB46334FB7F90000524612B29042D9
:10A2B40036DB9BF80000C0072DD5DBF81000864282
:10A2C4001DD3DBF81400002803D102208BF8000012
:10A2D40021E0DBF81400DBF81420521BB5FBF0F38B
:10A2E40000FB0320CBF8100003208BF80000DBF800
:10A2F4001000A0420FD2DBF8100004000BE0DBF8E2
:10A304001000801BCBF81000DBF81000A04202D232
:10A31400DBF8100004001AF1010A1BF1180BC1E765
:10A324000C60200000F0AFF95FF00008B7F90000FE
:10A33400414609B2884219DB99F80000800710D51C
:10A3440099F8000010F0FD0089F80000D9F8080021
:10A35400002806D0D9F80C10D9F80400D9F8082040
:10A36400904718F1010819F11809DFE7BDE8F18FEA
:10A37400F8180020F6110020F0110020F0B589B083
:10A384000024042100226D46280000F099F90C21D4
:10A39400002202AD280000F093F90E21002205AD41
:10A3A400280000F08DF90421002201AD280000F0FE
:10A3B40087F90027844D48208DF8030003208DF889
:10A3C400020082488188ADF800106946006800F0F8
:10A3D400ABF918208DF8030003208DF802007C48A7
:10A3E4008188ADF800106946006800F09DF9687D29
:10A3F4008DF80F00A87D8DF81000E87D8DF8110010
:10A40400287E8DF81200287D8DF80E00687E8DF868
:10A414001300A87C8DF80C00E87C8DF80D00687C96
:10A424008DF80B00287C8DF80A00E889ADF8080047
:10A43400684E02A9300000F033FA012836D195F8AD
:10A4440025008DF81E0095F825008DF81F0095F85D
:10A4540026008DF82000688BADF81400A88BADF8A9
:10A464001600E88BADF81800288CADF81A00688C3B
:10A47400ADF81C0095F827008DF8210005A800F020
:10A4840098FA14208DF8040003208DF805000220AA
